{
  "abi": [
    {
      "type": "constructor",
      "inputs": [],
      "stateMutability": "nonpayable"
    },
    {
      "type": "function",
      "name": "acceptOwnership",
      "inputs": [],
      "outputs": [],
      "stateMutability": "nonpayable"
    },
    {
      "type": "function",
      "name": "addContract",
      "inputs": [
        {
          "name": "name",
          "type": "string",
          "internalType": "string"
        },
        {
          "name": "symbol",
          "type": "string",
          "internalType": "string"
        },
        {
          "name": "perpId",
          "type": "uint256",
          "internalType": "uint256"
        },
        {
          "name": "basePricePNS",
          "type": "uint256",
          "internalType": "uint256"
        },
        {
          "name": "priceDecimals",
          "type": "uint256",
          "internalType": "uint256"
        },
        {
          "name": "lotDecimals",
          "type": "uint256",
          "internalType": "uint256"
        },
        {
          "name": "takerFeePer100K",
          "type": "uint256",
          "internalType": "uint256"
        },
        {
          "name": "makerFeePer100K",
          "type": "uint256",
          "internalType": "uint256"
        },
        {
          "name": "initMarginFracHdths",
          "type": "uint256",
          "internalType": "uint256"
        },
        {
          "name": "maintMarginFracHdths",
          "type": "uint256",
          "internalType": "uint256"
        }
      ],
      "outputs": [],
      "stateMutability": "nonpayable"
    },
    {
      "type": "function",
      "name": "addressBlocked",
      "inputs": [
        {
          "name": "",
          "type": "address",
          "internalType": "address"
        }
      ],
      "outputs": [
        {
          "name": "",
          "type": "bool",
          "internalType": "bool"
        }
      ],
      "stateMutability": "view"
    },
    {
      "type": "function",
      "name": "adminCancelOrders",
      "inputs": [
        {
          "name": "signatures",
          "type": "tuple[]",
          "internalType": "struct OrderSignature[]",
          "components": [
            {
              "name": "perpId",
              "type": "uint256",
              "internalType": "uint256"
            },
            {
              "name": "orderId",
              "type": "uint256",
              "internalType": "uint256"
            }
          ]
        }
      ],
      "outputs": [],
      "stateMutability": "nonpayable"
    },
    {
      "type": "function",
      "name": "allowOrderForwarding",
      "inputs": [
        {
          "name": "allow",
          "type": "bool",
          "internalType": "bool"
        }
      ],
      "outputs": [],
      "stateMutability": "nonpayable"
    },
    {
      "type": "function",
      "name": "autoDeleverage",
      "inputs": [
        {
          "name": "adlDescs",
          "type": "tuple[]",
          "internalType": "struct AdlDesc[]",
          "components": [
            {
              "name": "perpId",
              "type": "uint256",
              "internalType": "uint256"
            },
            {
              "name": "posAccountId",
              "type": "uint256",
              "internalType": "uint256"
            },
            {
              "name": "sortedPositionIds",
              "type": "uint256[]",
              "internalType": "uint256[]"
            }
          ]
        },
        {
          "name": "revertOnFail",
          "type": "bool",
          "internalType": "bool"
        }
      ],
      "outputs": [],
      "stateMutability": "nonpayable"
    },
    {
      "type": "function",
      "name": "buyLiquidations",
      "inputs": [
        {
          "name": "liquidationDescs",
          "type": "tuple[]",
          "internalType": "struct BuyToLiquidateDesc[]",
          "components": [
            {
              "name": "perpId",
              "type": "uint256",
              "internalType": "uint256"
            },
            {
              "name": "posAccountId",
              "type": "uint256",
              "internalType": "uint256"
            },
            {
              "name": "lotLNS",
              "type": "uint256",
              "internalType": "uint256"
            },
            {
              "name": "leverageHdths",
              "type": "uint256",
              "internalType": "uint256"
            },
            {
              "name": "limitPricePNS",
              "type": "uint256",
              "internalType": "uint256"
            }
          ]
        },
        {
          "name": "revertOnFail",
          "type": "bool",
          "internalType": "bool"
        }
      ],
      "outputs": [],
      "stateMutability": "nonpayable"
    },
    {
      "type": "function",
      "name": "clearDecreaseCollatParams",
      "inputs": [
        {
          "name": "perpId",
          "type": "uint256",
          "internalType": "uint256"
        },
        {
          "name": "accountId",
          "type": "uint256",
          "internalType": "uint256"
        }
      ],
      "outputs": [],
      "stateMutability": "nonpayable"
    },
    {
      "type": "function",
      "name": "clearInitUnwindContract",
      "inputs": [
        {
          "name": "perpId",
          "type": "uint256",
          "internalType": "uint256"
        }
      ],
      "outputs": [],
      "stateMutability": "nonpayable"
    },
    {
      "type": "function",
      "name": "clearOrderSlots",
      "inputs": [
        {
          "name": "perpId",
          "type": "uint256",
          "internalType": "uint256"
        },
        {
          "name": "orderIds",
          "type": "uint256[]",
          "internalType": "uint256[]"
        }
      ],
      "outputs": [],
      "stateMutability": "nonpayable"
    },
    {
      "type": "function",
      "name": "clearPricePointerSlots",
      "inputs": [
        {
          "name": "perpId",
          "type": "uint256",
          "internalType": "uint256"
        },
        {
          "name": "pricesONS",
          "type": "uint256[]",
          "internalType": "uint256[]"
        }
      ],
      "outputs": [],
      "stateMutability": "nonpayable"
    },
    {
      "type": "function",
      "name": "createAccount",
      "inputs": [
        {
          "name": "amountCNS",
          "type": "uint256",
          "internalType": "uint256"
        }
      ],
      "outputs": [
        {
          "name": "accountId",
          "type": "uint256",
          "internalType": "uint256"
        }
      ],
      "stateMutability": "nonpayable"
    },
    {
      "type": "function",
      "name": "declineDecreaseCollateral",
      "inputs": [
        {
          "name": "perpId",
          "type": "uint256",
          "internalType": "uint256"
        },
        {
          "name": "accountId",
          "type": "uint256",
          "internalType": "uint256"
        }
      ],
      "outputs": [],
      "stateMutability": "nonpayable"
    },
    {
      "type": "function",
      "name": "decreasePositionCollateral",
      "inputs": [
        {
          "name": "perpId",
          "type": "uint256",
          "internalType": "uint256"
        },
        {
          "name": "amountCNS",
          "type": "uint256",
          "internalType": "uint256"
        },
        {
          "name": "clampToMaximum",
          "type": "bool",
          "internalType": "bool"
        }
      ],
      "outputs": [],
      "stateMutability": "nonpayable"
    },
    {
      "type": "function",
      "name": "depositCollateral",
      "inputs": [
        {
          "name": "amountCNS",
          "type": "uint256",
          "internalType": "uint256"
        }
      ],
      "outputs": [],
      "stateMutability": "nonpayable"
    },
    {
      "type": "function",
      "name": "depositToProtocol",
      "inputs": [
        {
          "name": "amountCNS",
          "type": "uint256",
          "internalType": "uint256"
        }
      ],
      "outputs": [],
      "stateMutability": "nonpayable"
    },
    {
      "type": "function",
      "name": "execFwdPositionOps",
      "inputs": [
        {
          "name": "forwardedOrders",
          "type": "tuple[]",
          "internalType": "struct FwdOrderDesc[]",
          "components": [
            {
              "name": "accountId",
              "type": "uint256",
              "internalType": "uint256"
            },
            {
              "name": "feePer100K",
              "type": "uint256",
              "internalType": "uint256"
            },
            {
              "name": "orderDesc",
              "type": "tuple",
              "internalType": "struct OrderDesc",
              "components": [
                {
                  "name": "orderDescId",
                  "type": "uint256",
                  "internalType": "uint256"
                },
                {
                  "name": "perpId",
                  "type": "uint256",
                  "internalType": "uint256"
                },
                {
                  "name": "orderType",
                  "type": "uint8",
                  "internalType": "enum OrderDescEnum"
                },
                {
                  "name": "orderId",
                  "type": "uint256",
                  "internalType": "uint256"
                },
                {
                  "name": "pricePNS",
                  "type": "uint256",
                  "internalType": "uint256"
                },
                {
                  "name": "lotLNS",
                  "type": "uint256",
                  "internalType": "uint256"
                },
                {
                  "name": "expiryBlock",
                  "type": "uint256",
                  "internalType": "uint256"
                },
                {
                  "name": "postOnly",
                  "type": "bool",
                  "internalType": "bool"
                },
                {
                  "name": "fillOrKill",
                  "type": "bool",
                  "internalType": "bool"
                },
                {
                  "name": "immediateOrCancel",
                  "type": "bool",
                  "internalType": "bool"
                },
                {
                  "name": "maxMatches",
                  "type": "uint256",
                  "internalType": "uint256"
                },
                {
                  "name": "leverageHdths",
                  "type": "uint256",
                  "internalType": "uint256"
                },
                {
                  "name": "lastExecutionBlock",
                  "type": "uint256",
                  "internalType": "uint256"
                },
                {
                  "name": "amountCNS",
                  "type": "uint256",
                  "internalType": "uint256"
                }
              ]
            }
          ]
        }
      ],
      "outputs": [
        {
          "name": "signatures",
          "type": "tuple[]",
          "internalType": "struct OrderSignature[]",
          "components": [
            {
              "name": "perpId",
              "type": "uint256",
              "internalType": "uint256"
            },
            {
              "name": "orderId",
              "type": "uint256",
              "internalType": "uint256"
            }
          ]
        }
      ],
      "stateMutability": "nonpayable"
    },
    {
      "type": "function",
      "name": "execFznAccountPosOps",
      "inputs": [
        {
          "name": "fznAccountCloseOrders",
          "type": "tuple[]",
          "internalType": "struct FznOrderDesc[]",
          "components": [
            {
              "name": "accountId",
              "type": "uint256",
              "internalType": "uint256"
            },
            {
              "name": "orderDesc",
              "type": "tuple",
              "internalType": "struct OrderDesc",
              "components": [
                {
                  "name": "orderDescId",
                  "type": "uint256",
                  "internalType": "uint256"
                },
                {
                  "name": "perpId",
                  "type": "uint256",
                  "internalType": "uint256"
                },
                {
                  "name": "orderType",
                  "type": "uint8",
                  "internalType": "enum OrderDescEnum"
                },
                {
                  "name": "orderId",
                  "type": "uint256",
                  "internalType": "uint256"
                },
                {
                  "name": "pricePNS",
                  "type": "uint256",
                  "internalType": "uint256"
                },
                {
                  "name": "lotLNS",
                  "type": "uint256",
                  "internalType": "uint256"
                },
                {
                  "name": "expiryBlock",
                  "type": "uint256",
                  "internalType": "uint256"
                },
                {
                  "name": "postOnly",
                  "type": "bool",
                  "internalType": "bool"
                },
                {
                  "name": "fillOrKill",
                  "type": "bool",
                  "internalType": "bool"
                },
                {
                  "name": "immediateOrCancel",
                  "type": "bool",
                  "internalType": "bool"
                },
                {
                  "name": "maxMatches",
                  "type": "uint256",
                  "internalType": "uint256"
                },
                {
                  "name": "leverageHdths",
                  "type": "uint256",
                  "internalType": "uint256"
                },
                {
                  "name": "lastExecutionBlock",
                  "type": "uint256",
                  "internalType": "uint256"
                },
                {
                  "name": "amountCNS",
                  "type": "uint256",
                  "internalType": "uint256"
                }
              ]
            }
          ]
        }
      ],
      "outputs": [],
      "stateMutability": "nonpayable"
    },
    {
      "type": "function",
      "name": "execOpsAndOrders",
      "inputs": [
        {
          "name": "operations",
          "type": "tuple[]",
          "internalType": "struct OpDesc[]",
          "components": [
            {
              "name": "opDescId",
              "type": "uint256",
              "internalType": "uint256"
            },
            {
              "name": "perpId",
              "type": "uint256",
              "internalType": "uint256"
            },
            {
              "name": "opType",
              "type": "uint8",
              "internalType": "enum OpDescEnum"
            },
            {
              "name": "pricePNS",
              "type": "uint32",
              "internalType": "uint32"
            },
            {
              "name": "fundingRatePct100k",
              "type": "int256",
              "internalType": "int256"
            },
            {
              "name": "allowOverwrite",
              "type": "bool",
              "internalType": "bool"
            },
            {
              "name": "unverifiedReport",
              "type": "bytes",
              "internalType": "bytes"
            }
          ]
        },
        {
          "name": "orderDescs",
          "type": "tuple[]",
          "internalType": "struct OrderDesc[]",
          "components": [
            {
              "name": "orderDescId",
              "type": "uint256",
              "internalType": "uint256"
            },
            {
              "name": "perpId",
              "type": "uint256",
              "internalType": "uint256"
            },
            {
              "name": "orderType",
              "type": "uint8",
              "internalType": "enum OrderDescEnum"
            },
            {
              "name": "orderId",
              "type": "uint256",
              "internalType": "uint256"
            },
            {
              "name": "pricePNS",
              "type": "uint256",
              "internalType": "uint256"
            },
            {
              "name": "lotLNS",
              "type": "uint256",
              "internalType": "uint256"
            },
            {
              "name": "expiryBlock",
              "type": "uint256",
              "internalType": "uint256"
            },
            {
              "name": "postOnly",
              "type": "bool",
              "internalType": "bool"
            },
            {
              "name": "fillOrKill",
              "type": "bool",
              "internalType": "bool"
            },
            {
              "name": "immediateOrCancel",
              "type": "bool",
              "internalType": "bool"
            },
            {
              "name": "maxMatches",
              "type": "uint256",
              "internalType": "uint256"
            },
            {
              "name": "leverageHdths",
              "type": "uint256",
              "internalType": "uint256"
            },
            {
              "name": "lastExecutionBlock",
              "type": "uint256",
              "internalType": "uint256"
            },
            {
              "name": "amountCNS",
              "type": "uint256",
              "internalType": "uint256"
            }
          ]
        },
        {
          "name": "revertOnFail",
          "type": "bool",
          "internalType": "bool"
        }
      ],
      "outputs": [
        {
          "name": "signatures",
          "type": "tuple[]",
          "internalType": "struct OrderSignature[]",
          "components": [
            {
              "name": "perpId",
              "type": "uint256",
              "internalType": "uint256"
            },
            {
              "name": "orderId",
              "type": "uint256",
              "internalType": "uint256"
            }
          ]
        }
      ],
      "stateMutability": "nonpayable"
    },
    {
      "type": "function",
      "name": "execOrder",
      "inputs": [
        {
          "name": "orderDesc",
          "type": "tuple",
          "internalType": "struct OrderDesc",
          "components": [
            {
              "name": "orderDescId",
              "type": "uint256",
              "internalType": "uint256"
            },
            {
              "name": "perpId",
              "type": "uint256",
              "internalType": "uint256"
            },
            {
              "name": "orderType",
              "type": "uint8",
              "internalType": "enum OrderDescEnum"
            },
            {
              "name": "orderId",
              "type": "uint256",
              "internalType": "uint256"
            },
            {
              "name": "pricePNS",
              "type": "uint256",
              "internalType": "uint256"
            },
            {
              "name": "lotLNS",
              "type": "uint256",
              "internalType": "uint256"
            },
            {
              "name": "expiryBlock",
              "type": "uint256",
              "internalType": "uint256"
            },
            {
              "name": "postOnly",
              "type": "bool",
              "internalType": "bool"
            },
            {
              "name": "fillOrKill",
              "type": "bool",
              "internalType": "bool"
            },
            {
              "name": "immediateOrCancel",
              "type": "bool",
              "internalType": "bool"
            },
            {
              "name": "maxMatches",
              "type": "uint256",
              "internalType": "uint256"
            },
            {
              "name": "leverageHdths",
              "type": "uint256",
              "internalType": "uint256"
            },
            {
              "name": "lastExecutionBlock",
              "type": "uint256",
              "internalType": "uint256"
            },
            {
              "name": "amountCNS",
              "type": "uint256",
              "internalType": "uint256"
            }
          ]
        }
      ],
      "outputs": [
        {
          "name": "signature",
          "type": "tuple",
          "internalType": "struct OrderSignature",
          "components": [
            {
              "name": "perpId",
              "type": "uint256",
              "internalType": "uint256"
            },
            {
              "name": "orderId",
              "type": "uint256",
              "internalType": "uint256"
            }
          ]
        }
      ],
      "stateMutability": "nonpayable"
    },
    {
      "type": "function",
      "name": "execPerpOps",
      "inputs": [
        {
          "name": "operations",
          "type": "tuple[]",
          "internalType": "struct OpDesc[]",
          "components": [
            {
              "name": "opDescId",
              "type": "uint256",
              "internalType": "uint256"
            },
            {
              "name": "perpId",
              "type": "uint256",
              "internalType": "uint256"
            },
            {
              "name": "opType",
              "type": "uint8",
              "internalType": "enum OpDescEnum"
            },
            {
              "name": "pricePNS",
              "type": "uint32",
              "internalType": "uint32"
            },
            {
              "name": "fundingRatePct100k",
              "type": "int256",
              "internalType": "int256"
            },
            {
              "name": "allowOverwrite",
              "type": "bool",
              "internalType": "bool"
            },
            {
              "name": "unverifiedReport",
              "type": "bytes",
              "internalType": "bytes"
            }
          ]
        }
      ],
      "outputs": [],
      "stateMutability": "nonpayable"
    },
    {
      "type": "function",
      "name": "forceClose",
      "inputs": [
        {
          "name": "perpId",
          "type": "uint256",
          "internalType": "uint256"
        },
        {
          "name": "posAccountId",
          "type": "uint256",
          "internalType": "uint256"
        },
        {
          "name": "sortedPositionIds",
          "type": "uint256[]",
          "internalType": "uint256[]"
        },
        {
          "name": "revertOnFail",
          "type": "bool",
          "internalType": "bool"
        }
      ],
      "outputs": [
        {
          "name": "success",
          "type": "bool",
          "internalType": "bool"
        }
      ],
      "stateMutability": "nonpayable"
    },
    {
      "type": "function",
      "name": "forceResetWithdrawRateLimit",
      "inputs": [],
      "outputs": [],
      "stateMutability": "nonpayable"
    },
    {
      "type": "function",
      "name": "getAccountByAddr",
      "inputs": [
        {
          "name": "accountAddress",
          "type": "address",
          "internalType": "address"
        }
      ],
      "outputs": [
        {
          "name": "accountInfo",
          "type": "tuple",
          "internalType": "struct AccountInfo",
          "components": [
            {
              "name": "accountId",
              "type": "uint256",
              "internalType": "uint256"
            },
            {
              "name": "balanceCNS",
              "type": "uint256",
              "internalType": "uint256"
            },
            {
              "name": "lockedBalanceCNS",
              "type": "uint256",
              "internalType": "uint256"
            },
            {
              "name": "frozen",
              "type": "uint8",
              "internalType": "enum FreezeStatusEnum"
            },
            {
              "name": "accountAddr",
              "type": "address",
              "internalType": "address"
            },
            {
              "name": "positions",
              "type": "tuple",
              "internalType": "struct PositionBitMap",
              "components": [
                {
                  "name": "bank1",
                  "type": "uint256",
                  "internalType": "uint256"
                },
                {
                  "name": "bank2",
                  "type": "uint256",
                  "internalType": "uint256"
                },
                {
                  "name": "bank3",
                  "type": "uint256",
                  "internalType": "uint256"
                },
                {
                  "name": "bank4",
                  "type": "uint256",
                  "internalType": "uint256"
                }
              ]
            }
          ]
        }
      ],
      "stateMutability": "view"
    },
    {
      "type": "function",
      "name": "getAccountById",
      "inputs": [
        {
          "name": "accountId",
          "type": "uint256",
          "internalType": "uint256"
        }
      ],
      "outputs": [
        {
          "name": "accountInfo",
          "type": "tuple",
          "internalType": "struct AccountInfo",
          "components": [
            {
              "name": "accountId",
              "type": "uint256",
              "internalType": "uint256"
            },
            {
              "name": "balanceCNS",
              "type": "uint256",
              "internalType": "uint256"
            },
            {
              "name": "lockedBalanceCNS",
              "type": "uint256",
              "internalType": "uint256"
            },
            {
              "name": "frozen",
              "type": "uint8",
              "internalType": "enum FreezeStatusEnum"
            },
            {
              "name": "accountAddr",
              "type": "address",
              "internalType": "address"
            },
            {
              "name": "positions",
              "type": "tuple",
              "internalType": "struct PositionBitMap",
              "components": [
                {
                  "name": "bank1",
                  "type": "uint256",
                  "internalType": "uint256"
                },
                {
                  "name": "bank2",
                  "type": "uint256",
                  "internalType": "uint256"
                },
                {
                  "name": "bank3",
                  "type": "uint256",
                  "internalType": "uint256"
                },
                {
                  "name": "bank4",
                  "type": "uint256",
                  "internalType": "uint256"
                }
              ]
            }
          ]
        }
      ],
      "stateMutability": "view"
    },
    {
      "type": "function",
      "name": "getDecreaseCollateralParams",
      "inputs": [
        {
          "name": "accountId",
          "type": "uint256",
          "internalType": "uint256"
        },
        {
          "name": "perpId",
          "type": "uint256",
          "internalType": "uint256"
        }
      ],
      "outputs": [
        {
          "name": "dcp",
          "type": "tuple",
          "internalType": "struct DecreaseCollateralParams",
          "components": [
            {
              "name": "expiryTS",
              "type": "uint32",
              "internalType": "uint32"
            },
            {
              "name": "impactAdjPricePNS",
              "type": "uint32",
              "internalType": "uint32"
            },
            {
              "name": "borrowMarginFracHdths",
              "type": "uint16",
              "internalType": "uint16"
            },
            {
              "name": "positionType",
              "type": "uint8",
              "internalType": "enum PositionEnum"
            }
          ]
        }
      ],
      "stateMutability": "view"
    },
    {
      "type": "function",
      "name": "getExchangeInfo",
      "inputs": [],
      "outputs": [
        {
          "name": "balanceCNS",
          "type": "uint256",
          "internalType": "uint256"
        },
        {
          "name": "protocolBalanceCNS",
          "type": "uint256",
          "internalType": "uint256"
        },
        {
          "name": "recycleBalanceCNS",
          "type": "uint256",
          "internalType": "uint256"
        },
        {
          "name": "collateralDecimals",
          "type": "uint256",
          "internalType": "uint256"
        },
        {
          "name": "collateralToken",
          "type": "address",
          "internalType": "address"
        },
        {
          "name": "verifierProxy",
          "type": "address",
          "internalType": "address"
        }
      ],
      "stateMutability": "view"
    },
    {
      "type": "function",
      "name": "getFundingInterval",
      "inputs": [],
      "outputs": [
        {
          "name": "fundingInterval",
          "type": "uint256",
          "internalType": "uint256"
        }
      ],
      "stateMutability": "view"
    },
    {
      "type": "function",
      "name": "getFundingSumAtBlock",
      "inputs": [
        {
          "name": "perpId",
          "type": "uint256",
          "internalType": "uint256"
        },
        {
          "name": "blockNumber",
          "type": "uint256",
          "internalType": "uint256"
        }
      ],
      "outputs": [
        {
          "name": "fundingSumPNS",
          "type": "int48",
          "internalType": "int48"
        },
        {
          "name": "fundingEventBlock",
          "type": "uint256",
          "internalType": "uint256"
        }
      ],
      "stateMutability": "view"
    },
    {
      "type": "function",
      "name": "getLiquidationInfo",
      "inputs": [
        {
          "name": "perpId",
          "type": "uint256",
          "internalType": "uint256"
        }
      ],
      "outputs": [
        {
          "name": "liquidationInfo",
          "type": "tuple",
          "internalType": "struct LiquidationInfo",
          "components": [
            {
              "name": "liqInsAmtPer100K",
              "type": "uint256",
              "internalType": "uint256"
            },
            {
              "name": "liqUserAmtPer100K",
              "type": "uint256",
              "internalType": "uint256"
            },
            {
              "name": "liqProtocolAmtPer100K",
              "type": "uint256",
              "internalType": "uint256"
            },
            {
              "name": "btlPriceThreshPer100K",
              "type": "uint256",
              "internalType": "uint256"
            },
            {
              "name": "btlInsAmtPer100K",
              "type": "uint256",
              "internalType": "uint256"
            },
            {
              "name": "btlUserAmtPer100K",
              "type": "uint256",
              "internalType": "uint256"
            },
            {
              "name": "btlBuyerAmtPer100K",
              "type": "uint256",
              "internalType": "uint256"
            },
            {
              "name": "btlProtocolAmtPer100K",
              "type": "uint256",
              "internalType": "uint256"
            },
            {
              "name": "btlRestrictBuyers",
              "type": "bool",
              "internalType": "bool"
            }
          ]
        }
      ],
      "stateMutability": "view"
    },
    {
      "type": "function",
      "name": "getMakerFee",
      "inputs": [
        {
          "name": "perpId",
          "type": "uint256",
          "internalType": "uint256"
        }
      ],
      "outputs": [
        {
          "name": "",
          "type": "uint256",
          "internalType": "uint256"
        }
      ],
      "stateMutability": "view"
    },
    {
      "type": "function",
      "name": "getMarginFractions",
      "inputs": [
        {
          "name": "perpId",
          "type": "uint256",
          "internalType": "uint256"
        },
        {
          "name": "lotLNS",
          "type": "uint256",
          "internalType": "uint256"
        }
      ],
      "outputs": [
        {
          "name": "perpInitMarginFracHdths",
          "type": "uint256",
          "internalType": "uint256"
        },
        {
          "name": "perpMaintMarginFracHdths",
          "type": "uint256",
          "internalType": "uint256"
        },
        {
          "name": "dynamicInitMarginFracHdths",
          "type": "uint256",
          "internalType": "uint256"
        },
        {
          "name": "oiMaxLNS",
          "type": "uint256",
          "internalType": "uint256"
        },
        {
          "name": "unityDescentThreshHdths",
          "type": "uint256",
          "internalType": "uint256"
        },
        {
          "name": "overColDescentThreshHdths",
          "type": "uint256",
          "internalType": "uint256"
        }
      ],
      "stateMutability": "view"
    },
    {
      "type": "function",
      "name": "getMinAccountOpenCNS",
      "inputs": [],
      "outputs": [
        {
          "name": "minAccountOpenCNS",
          "type": "uint256",
          "internalType": "uint256"
        }
      ],
      "stateMutability": "view"
    },
    {
      "type": "function",
      "name": "getMinimumPostCNS",
      "inputs": [],
      "outputs": [
        {
          "name": "minimumPostCNS",
          "type": "uint256",
          "internalType": "uint256"
        }
      ],
      "stateMutability": "view"
    },
    {
      "type": "function",
      "name": "getMinimumSettleCNS",
      "inputs": [],
      "outputs": [
        {
          "name": "minimumSettleCNS",
          "type": "uint256",
          "internalType": "uint256"
        }
      ],
      "stateMutability": "view"
    },
    {
      "type": "function",
      "name": "getNextPriceBelowWithOrders",
      "inputs": [
        {
          "name": "perpId",
          "type": "uint256",
          "internalType": "uint256"
        },
        {
          "name": "priceONS",
          "type": "uint256",
          "internalType": "uint256"
        }
      ],
      "outputs": [
        {
          "name": "priceBelowONS",
          "type": "uint256",
          "internalType": "uint256"
        }
      ],
      "stateMutability": "view"
    },
    {
      "type": "function",
      "name": "getOrder",
      "inputs": [
        {
          "name": "perpId",
          "type": "uint256",
          "internalType": "uint256"
        },
        {
          "name": "orderId",
          "type": "uint256",
          "internalType": "uint256"
        }
      ],
      "outputs": [
        {
          "name": "order",
          "type": "tuple",
          "internalType": "struct Order",
          "components": [
            {
              "name": "accountId",
              "type": "uint32",
              "internalType": "uint32"
            },
            {
              "name": "orderType",
              "type": "uint8",
              "internalType": "enum OrderEnum"
            },
            {
              "name": "priceONS",
              "type": "uint24",
              "internalType": "uint24"
            },
            {
              "name": "lotLNS",
              "type": "uint40",
              "internalType": "uint40"
            },
            {
              "name": "recycleFeeRaw",
              "type": "uint16",
              "internalType": "uint16"
            },
            {
              "name": "expiryBlock",
              "type": "uint32",
              "internalType": "uint32"
            },
            {
              "name": "leverageHdths",
              "type": "uint16",
              "internalType": "uint16"
            },
            {
              "name": "orderId",
              "type": "uint16",
              "internalType": "uint16"
            },
            {
              "name": "prevOrderId",
              "type": "uint16",
              "internalType": "uint16"
            },
            {
              "name": "nextOrderId",
              "type": "uint16",
              "internalType": "uint16"
            }
          ]
        }
      ],
      "stateMutability": "view"
    },
    {
      "type": "function",
      "name": "getOrderIdIndex",
      "inputs": [
        {
          "name": "perpId",
          "type": "uint256",
          "internalType": "uint256"
        }
      ],
      "outputs": [
        {
          "name": "root",
          "type": "uint256",
          "internalType": "uint256"
        },
        {
          "name": "leaves",
          "type": "uint256[]",
          "internalType": "uint256[]"
        },
        {
          "name": "numOrders",
          "type": "uint256",
          "internalType": "uint256"
        }
      ],
      "stateMutability": "view"
    },
    {
      "type": "function",
      "name": "getOrderLocks",
      "inputs": [
        {
          "name": "accountId",
          "type": "uint256",
          "internalType": "uint256"
        }
      ],
      "outputs": [
        {
          "name": "orderLocks",
          "type": "tuple[]",
          "internalType": "struct OrderLock[]",
          "components": [
            {
              "name": "orderLockId",
              "type": "uint32",
              "internalType": "uint32"
            },
            {
              "name": "nextOrderLockId",
              "type": "uint32",
              "internalType": "uint32"
            },
            {
              "name": "prevOrderLockId",
              "type": "uint32",
              "internalType": "uint32"
            },
            {
              "name": "orderType",
              "type": "uint8",
              "internalType": "enum OrderEnum"
            },
            {
              "name": "lotLNS",
              "type": "uint40",
              "internalType": "uint40"
            },
            {
              "name": "amountCNS",
              "type": "uint80",
              "internalType": "uint80"
            }
          ]
        }
      ],
      "stateMutability": "view"
    },
    {
      "type": "function",
      "name": "getOrdersAtPriceLevel",
      "inputs": [
        {
          "name": "perpId",
          "type": "uint256",
          "internalType": "uint256"
        },
        {
          "name": "priceONS",
          "type": "uint256",
          "internalType": "uint256"
        },
        {
          "name": "pageStartOrderId",
          "type": "uint256",
          "internalType": "uint256"
        },
        {
          "name": "ordersPerPage",
          "type": "uint256",
          "internalType": "uint256"
        }
      ],
      "outputs": [
        {
          "name": "ordersAtPriceLevel",
          "type": "tuple[]",
          "internalType": "struct Order[]",
          "components": [
            {
              "name": "accountId",
              "type": "uint32",
              "internalType": "uint32"
            },
            {
              "name": "orderType",
              "type": "uint8",
              "internalType": "enum OrderEnum"
            },
            {
              "name": "priceONS",
              "type": "uint24",
              "internalType": "uint24"
            },
            {
              "name": "lotLNS",
              "type": "uint40",
              "internalType": "uint40"
            },
            {
              "name": "recycleFeeRaw",
              "type": "uint16",
              "internalType": "uint16"
            },
            {
              "name": "expiryBlock",
              "type": "uint32",
              "internalType": "uint32"
            },
            {
              "name": "leverageHdths",
              "type": "uint16",
              "internalType": "uint16"
            },
            {
              "name": "orderId",
              "type": "uint16",
              "internalType": "uint16"
            },
            {
              "name": "prevOrderId",
              "type": "uint16",
              "internalType": "uint16"
            },
            {
              "name": "nextOrderId",
              "type": "uint16",
              "internalType": "uint16"
            }
          ]
        },
        {
          "name": "numOrders",
          "type": "uint256",
          "internalType": "uint256"
        }
      ],
      "stateMutability": "view"
    },
    {
      "type": "function",
      "name": "getOwner",
      "inputs": [],
      "outputs": [
        {
          "name": "",
          "type": "address",
          "internalType": "address"
        }
      ],
      "stateMutability": "view"
    },
    {
      "type": "function",
      "name": "getPermissionedCancelParams",
      "inputs": [
        {
          "name": "perpId",
          "type": "uint256",
          "internalType": "uint256"
        }
      ],
      "outputs": [
        {
          "name": "permCancelMinOrders",
          "type": "uint256",
          "internalType": "uint256"
        },
        {
          "name": "permCancelSegment",
          "type": "uint256",
          "internalType": "uint256"
        }
      ],
      "stateMutability": "view"
    },
    {
      "type": "function",
      "name": "getPerpOrderLocks",
      "inputs": [
        {
          "name": "accountId",
          "type": "uint256",
          "internalType": "uint256"
        },
        {
          "name": "perpId",
          "type": "uint256",
          "internalType": "uint256"
        }
      ],
      "outputs": [
        {
          "name": "perpOrderLocks",
          "type": "tuple[]",
          "internalType": "struct OrderLock[]",
          "components": [
            {
              "name": "orderLockId",
              "type": "uint32",
              "internalType": "uint32"
            },
            {
              "name": "nextOrderLockId",
              "type": "uint32",
              "internalType": "uint32"
            },
            {
              "name": "prevOrderLockId",
              "type": "uint32",
              "internalType": "uint32"
            },
            {
              "name": "orderType",
              "type": "uint8",
              "internalType": "enum OrderEnum"
            },
            {
              "name": "lotLNS",
              "type": "uint40",
              "internalType": "uint40"
            },
            {
              "name": "amountCNS",
              "type": "uint80",
              "internalType": "uint80"
            }
          ]
        }
      ],
      "stateMutability": "view"
    },
    {
      "type": "function",
      "name": "getPerpetualInfo",
      "inputs": [
        {
          "name": "perpId",
          "type": "uint256",
          "internalType": "uint256"
        }
      ],
      "outputs": [
        {
          "name": "perpetualInfo",
          "type": "tuple",
          "internalType": "struct PerpetualInfo",
          "components": [
            {
              "name": "name",
              "type": "string",
              "internalType": "string"
            },
            {
              "name": "symbol",
              "type": "string",
              "internalType": "string"
            },
            {
              "name": "priceDecimals",
              "type": "uint256",
              "internalType": "uint256"
            },
            {
              "name": "lotDecimals",
              "type": "uint256",
              "internalType": "uint256"
            },
            {
              "name": "linkFeedId",
              "type": "bytes32",
              "internalType": "bytes32"
            },
            {
              "name": "priceTolPer100K",
              "type": "uint256",
              "internalType": "uint256"
            },
            {
              "name": "refPriceMaxAgeSec",
              "type": "uint256",
              "internalType": "uint256"
            },
            {
              "name": "positionBalanceCNS",
              "type": "uint256",
              "internalType": "uint256"
            },
            {
              "name": "insuranceBalanceCNS",
              "type": "uint256",
              "internalType": "uint256"
            },
            {
              "name": "markPNS",
              "type": "uint256",
              "internalType": "uint256"
            },
            {
              "name": "markTimestamp",
              "type": "uint256",
              "internalType": "uint256"
            },
            {
              "name": "lastPNS",
              "type": "uint256",
              "internalType": "uint256"
            },
            {
              "name": "lastTimestamp",
              "type": "uint256",
              "internalType": "uint256"
            },
            {
              "name": "oraclePNS",
              "type": "uint256",
              "internalType": "uint256"
            },
            {
              "name": "oracleTimestampSec",
              "type": "uint256",
              "internalType": "uint256"
            },
            {
              "name": "longOpenInterestLNS",
              "type": "uint256",
              "internalType": "uint256"
            },
            {
              "name": "shortOpenInterestLNS",
              "type": "uint256",
              "internalType": "uint256"
            },
            {
              "name": "fundingStartBlock",
              "type": "uint256",
              "internalType": "uint256"
            },
            {
              "name": "fundingRatePct100k",
              "type": "int16",
              "internalType": "int16"
            },
            {
              "name": "synthPerpPricePNS",
              "type": "uint256",
              "internalType": "uint256"
            },
            {
              "name": "absFundingClampPctPer100K",
              "type": "uint256",
              "internalType": "uint256"
            },
            {
              "name": "paused",
              "type": "bool",
              "internalType": "bool"
            },
            {
              "name": "basePricePNS",
              "type": "uint256",
              "internalType": "uint256"
            },
            {
              "name": "maxBidPriceONS",
              "type": "uint256",
              "internalType": "uint256"
            },
            {
              "name": "minBidPriceONS",
              "type": "uint256",
              "internalType": "uint256"
            },
            {
              "name": "maxAskPriceONS",
              "type": "uint256",
              "internalType": "uint256"
            },
            {
              "name": "minAskPriceONS",
              "type": "uint256",
              "internalType": "uint256"
            },
            {
              "name": "numOrders",
              "type": "uint256",
              "internalType": "uint256"
            },
            {
              "name": "ignOracle",
              "type": "bool",
              "internalType": "bool"
            }
          ]
        }
      ],
      "stateMutability": "view"
    },
    {
      "type": "function",
      "name": "getPosition",
      "inputs": [
        {
          "name": "perpId",
          "type": "uint256",
          "internalType": "uint256"
        },
        {
          "name": "accountId",
          "type": "uint256",
          "internalType": "uint256"
        }
      ],
      "outputs": [
        {
          "name": "positionInfo",
          "type": "tuple",
          "internalType": "struct PositionInfo",
          "components": [
            {
              "name": "accountId",
              "type": "uint256",
              "internalType": "uint256"
            },
            {
              "name": "nextNodeId",
              "type": "uint256",
              "internalType": "uint256"
            },
            {
              "name": "prevNodeId",
              "type": "uint256",
              "internalType": "uint256"
            },
            {
              "name": "positionType",
              "type": "uint8",
              "internalType": "enum PositionEnum"
            },
            {
              "name": "depositCNS",
              "type": "uint256",
              "internalType": "uint256"
            },
            {
              "name": "pricePNS",
              "type": "uint256",
              "internalType": "uint256"
            },
            {
              "name": "lotLNS",
              "type": "uint256",
              "internalType": "uint256"
            },
            {
              "name": "entryBlock",
              "type": "uint256",
              "internalType": "uint256"
            },
            {
              "name": "pnlCNS",
              "type": "int256",
              "internalType": "int256"
            },
            {
              "name": "deltaPnlCNS",
              "type": "int256",
              "internalType": "int256"
            },
            {
              "name": "premiumPnlCNS",
              "type": "int256",
              "internalType": "int256"
            }
          ]
        },
        {
          "name": "refPricePNS",
          "type": "uint256",
          "internalType": "uint256"
        },
        {
          "name": "refPriceStatus",
          "type": "uint8",
          "internalType": "enum RefPriceStatusEnum"
        }
      ],
      "stateMutability": "view"
    },
    {
      "type": "function",
      "name": "getPositionIds",
      "inputs": [
        {
          "name": "perpId",
          "type": "uint256",
          "internalType": "uint256"
        }
      ],
      "outputs": [
        {
          "name": "startNodeId",
          "type": "uint256",
          "internalType": "uint256"
        },
        {
          "name": "endNodeId",
          "type": "uint256",
          "internalType": "uint256"
        }
      ],
      "stateMutability": "view"
    },
    {
      "type": "function",
      "name": "getPositions",
      "inputs": [
        {
          "name": "perpId",
          "type": "uint256",
          "internalType": "uint256"
        },
        {
          "name": "pageStartPositionId",
          "type": "uint256",
          "internalType": "uint256"
        },
        {
          "name": "positionsPerPage",
          "type": "uint256",
          "internalType": "uint256"
        }
      ],
      "outputs": [
        {
          "name": "positions",
          "type": "tuple[]",
          "internalType": "struct PositionInfo[]",
          "components": [
            {
              "name": "accountId",
              "type": "uint256",
              "internalType": "uint256"
            },
            {
              "name": "nextNodeId",
              "type": "uint256",
              "internalType": "uint256"
            },
            {
              "name": "prevNodeId",
              "type": "uint256",
              "internalType": "uint256"
            },
            {
              "name": "positionType",
              "type": "uint8",
              "internalType": "enum PositionEnum"
            },
            {
              "name": "depositCNS",
              "type": "uint256",
              "internalType": "uint256"
            },
            {
              "name": "pricePNS",
              "type": "uint256",
              "internalType": "uint256"
            },
            {
              "name": "lotLNS",
              "type": "uint256",
              "internalType": "uint256"
            },
            {
              "name": "entryBlock",
              "type": "uint256",
              "internalType": "uint256"
            },
            {
              "name": "pnlCNS",
              "type": "int256",
              "internalType": "int256"
            },
            {
              "name": "deltaPnlCNS",
              "type": "int256",
              "internalType": "int256"
            },
            {
              "name": "premiumPnlCNS",
              "type": "int256",
              "internalType": "int256"
            }
          ]
        },
        {
          "name": "numPositions",
          "type": "uint256",
          "internalType": "uint256"
        },
        {
          "name": "refPricePNS",
          "type": "uint256",
          "internalType": "uint256"
        },
        {
          "name": "refPriceStatus",
          "type": "uint8",
          "internalType": "enum RefPriceStatusEnum"
        }
      ],
      "stateMutability": "view"
    },
    {
      "type": "function",
      "name": "getPriceLevelOrderIds",
      "inputs": [
        {
          "name": "perpId",
          "type": "uint256",
          "internalType": "uint256"
        },
        {
          "name": "priceONS",
          "type": "uint256",
          "internalType": "uint256"
        }
      ],
      "outputs": [
        {
          "name": "startOrderId",
          "type": "uint256",
          "internalType": "uint256"
        },
        {
          "name": "endOrderId",
          "type": "uint256",
          "internalType": "uint256"
        }
      ],
      "stateMutability": "view"
    },
    {
      "type": "function",
      "name": "getProtocolBalanceCNS",
      "inputs": [],
      "outputs": [
        {
          "name": "protocolBalanceCNS",
          "type": "uint256",
          "internalType": "uint256"
        }
      ],
      "stateMutability": "view"
    },
    {
      "type": "function",
      "name": "getRecycleBalanceCNS",
      "inputs": [],
      "outputs": [
        {
          "name": "recycleBalanceCNS",
          "type": "uint256",
          "internalType": "uint256"
        }
      ],
      "stateMutability": "view"
    },
    {
      "type": "function",
      "name": "getRecycleFeeCNS",
      "inputs": [],
      "outputs": [
        {
          "name": "recycleFeeCNS",
          "type": "uint256",
          "internalType": "uint256"
        }
      ],
      "stateMutability": "view"
    },
    {
      "type": "function",
      "name": "getTakerFee",
      "inputs": [
        {
          "name": "perpId",
          "type": "uint256",
          "internalType": "uint256"
        }
      ],
      "outputs": [
        {
          "name": "",
          "type": "uint256",
          "internalType": "uint256"
        }
      ],
      "stateMutability": "view"
    },
    {
      "type": "function",
      "name": "getUnwindInfo",
      "inputs": [
        {
          "name": "perpId",
          "type": "uint256",
          "internalType": "uint256"
        }
      ],
      "outputs": [
        {
          "name": "unwindInitialized",
          "type": "bool",
          "internalType": "bool"
        },
        {
          "name": "unwindStarted",
          "type": "bool",
          "internalType": "bool"
        },
        {
          "name": "unwindSumPositiveFmvCNS",
          "type": "uint256",
          "internalType": "uint256"
        },
        {
          "name": "unwindInitPosBalCNS",
          "type": "uint256",
          "internalType": "uint256"
        }
      ],
      "stateMutability": "view"
    },
    {
      "type": "function",
      "name": "getVolumeAtBookPrice",
      "inputs": [
        {
          "name": "perpId",
          "type": "uint256",
          "internalType": "uint256"
        },
        {
          "name": "priceONS",
          "type": "uint256",
          "internalType": "uint256"
        }
      ],
      "outputs": [
        {
          "name": "bids",
          "type": "uint256",
          "internalType": "uint256"
        },
        {
          "name": "expBids",
          "type": "uint256",
          "internalType": "uint256"
        },
        {
          "name": "asks",
          "type": "uint256",
          "internalType": "uint256"
        },
        {
          "name": "expAsks",
          "type": "uint256",
          "internalType": "uint256"
        }
      ],
      "stateMutability": "view"
    },
    {
      "type": "function",
      "name": "getWithdrawAllowanceData",
      "inputs": [
        {
          "name": "blockNumber",
          "type": "uint256",
          "internalType": "uint256"
        }
      ],
      "outputs": [
        {
          "name": "allowanceCNS",
          "type": "uint256",
          "internalType": "uint256"
        },
        {
          "name": "expiryBlock",
          "type": "uint256",
          "internalType": "uint256"
        },
        {
          "name": "lastAllowanceBlock",
          "type": "uint256",
          "internalType": "uint256"
        },
        {
          "name": "cnsPerBlock",
          "type": "uint256",
          "internalType": "uint256"
        }
      ],
      "stateMutability": "view"
    },
    {
      "type": "function",
      "name": "increasePositionCollateral",
      "inputs": [
        {
          "name": "perpId",
          "type": "uint256",
          "internalType": "uint256"
        },
        {
          "name": "amountCNS",
          "type": "uint256",
          "internalType": "uint256"
        }
      ],
      "outputs": [],
      "stateMutability": "nonpayable"
    },
    {
      "type": "function",
      "name": "initUnwindContract",
      "inputs": [
        {
          "name": "perpId",
          "type": "uint256",
          "internalType": "uint256"
        },
        {
          "name": "sumPositiveFmvCNS",
          "type": "uint256",
          "internalType": "uint256"
        }
      ],
      "outputs": [],
      "stateMutability": "nonpayable"
    },
    {
      "type": "function",
      "name": "initialize",
      "inputs": [
        {
          "name": "collateralToken",
          "type": "address",
          "internalType": "address"
        }
      ],
      "outputs": [],
      "stateMutability": "nonpayable"
    },
    {
      "type": "function",
      "name": "isAdministrator",
      "inputs": [
        {
          "name": "anAddress",
          "type": "address",
          "internalType": "address"
        }
      ],
      "outputs": [
        {
          "name": "",
          "type": "bool",
          "internalType": "bool"
        }
      ],
      "stateMutability": "view"
    },
    {
      "type": "function",
      "name": "isHalted",
      "inputs": [],
      "outputs": [
        {
          "name": "halted",
          "type": "bool",
          "internalType": "bool"
        }
      ],
      "stateMutability": "view"
    },
    {
      "type": "function",
      "name": "isLiquidationBuyer",
      "inputs": [
        {
          "name": "anAddress",
          "type": "address",
          "internalType": "address"
        }
      ],
      "outputs": [
        {
          "name": "",
          "type": "bool",
          "internalType": "bool"
        }
      ],
      "stateMutability": "view"
    },
    {
      "type": "function",
      "name": "isPositionAdministrator",
      "inputs": [
        {
          "name": "anAddress",
          "type": "address",
          "internalType": "address"
        }
      ],
      "outputs": [
        {
          "name": "",
          "type": "bool",
          "internalType": "bool"
        }
      ],
      "stateMutability": "view"
    },
    {
      "type": "function",
      "name": "isPriceAdministrator",
      "inputs": [
        {
          "name": "anAddress",
          "type": "address",
          "internalType": "address"
        }
      ],
      "outputs": [
        {
          "name": "",
          "type": "bool",
          "internalType": "bool"
        }
      ],
      "stateMutability": "view"
    },
    {
      "type": "function",
      "name": "liquidation",
      "inputs": [
        {
          "name": "liquidationDesc",
          "type": "tuple",
          "internalType": "struct LiquidationDesc",
          "components": [
            {
              "name": "perpId",
              "type": "uint256",
              "internalType": "uint256"
            },
            {
              "name": "posAccountId",
              "type": "uint256",
              "internalType": "uint256"
            },
            {
              "name": "lotLNS",
              "type": "uint256",
              "internalType": "uint256"
            },
            {
              "name": "userProceedsToPosition",
              "type": "bool",
              "internalType": "bool"
            }
          ]
        }
      ],
      "outputs": [],
      "stateMutability": "nonpayable"
    },
    {
      "type": "function",
      "name": "liquidations",
      "inputs": [
        {
          "name": "liquidationDescs",
          "type": "tuple[]",
          "internalType": "struct LiquidationDesc[]",
          "components": [
            {
              "name": "perpId",
              "type": "uint256",
              "internalType": "uint256"
            },
            {
              "name": "posAccountId",
              "type": "uint256",
              "internalType": "uint256"
            },
            {
              "name": "lotLNS",
              "type": "uint256",
              "internalType": "uint256"
            },
            {
              "name": "userProceedsToPosition",
              "type": "bool",
              "internalType": "bool"
            }
          ]
        },
        {
          "name": "revertOnFail",
          "type": "bool",
          "internalType": "bool"
        }
      ],
      "outputs": [],
      "stateMutability": "nonpayable"
    },
    {
      "type": "function",
      "name": "numberOfAccounts",
      "inputs": [],
      "outputs": [
        {
          "name": "numAccounts",
          "type": "uint256",
          "internalType": "uint256"
        }
      ],
      "stateMutability": "view"
    },
    {
      "type": "function",
      "name": "owner",
      "inputs": [],
      "outputs": [
        {
          "name": "",
          "type": "address",
          "internalType": "address"
        }
      ],
      "stateMutability": "view"
    },
    {
      "type": "function",
      "name": "pauseContract",
      "inputs": [
        {
          "name": "perpId",
          "type": "uint256",
          "internalType": "uint256"
        }
      ],
      "outputs": [],
      "stateMutability": "nonpayable"
    },
    {
      "type": "function",
      "name": "pendingOwner",
      "inputs": [],
      "outputs": [
        {
          "name": "",
          "type": "address",
          "internalType": "address"
        }
      ],
      "stateMutability": "view"
    },
    {
      "type": "function",
      "name": "proxiableUUID",
      "inputs": [],
      "outputs": [
        {
          "name": "",
          "type": "bytes32",
          "internalType": "bytes32"
        }
      ],
      "stateMutability": "view"
    },
    {
      "type": "function",
      "name": "removeContract",
      "inputs": [
        {
          "name": "perpId",
          "type": "uint256",
          "internalType": "uint256"
        }
      ],
      "outputs": [],
      "stateMutability": "nonpayable"
    },
    {
      "type": "function",
      "name": "renounceOwnership",
      "inputs": [],
      "outputs": [],
      "stateMutability": "nonpayable"
    },
    {
      "type": "function",
      "name": "requestDecreasePositionCollateral",
      "inputs": [
        {
          "name": "perpId",
          "type": "uint256",
          "internalType": "uint256"
        }
      ],
      "outputs": [],
      "stateMutability": "nonpayable"
    },
    {
      "type": "function",
      "name": "setAddressBlockStatus",
      "inputs": [
        {
          "name": "addresses",
          "type": "address[]",
          "internalType": "address[]"
        },
        {
          "name": "blocked",
          "type": "bool",
          "internalType": "bool"
        }
      ],
      "outputs": [],
      "stateMutability": "nonpayable"
    },
    {
      "type": "function",
      "name": "setAddressWhitelisted",
      "inputs": [
        {
          "name": "addresses",
          "type": "address[]",
          "internalType": "address[]"
        },
        {
          "name": "whitelisted_",
          "type": "bool",
          "internalType": "bool"
        }
      ],
      "outputs": [],
      "stateMutability": "nonpayable"
    },
    {
      "type": "function",
      "name": "setAdministrator",
      "inputs": [
        {
          "name": "administrator",
          "type": "address",
          "internalType": "address"
        },
        {
          "name": "add",
          "type": "bool",
          "internalType": "bool"
        }
      ],
      "outputs": [],
      "stateMutability": "nonpayable"
    },
    {
      "type": "function",
      "name": "setBuyToLiquidateBuyerRestriction",
      "inputs": [
        {
          "name": "perpId",
          "type": "uint256",
          "internalType": "uint256"
        },
        {
          "name": "restrictBuyers",
          "type": "bool",
          "internalType": "bool"
        }
      ],
      "outputs": [],
      "stateMutability": "nonpayable"
    },
    {
      "type": "function",
      "name": "setBuyToLiquidateParams",
      "inputs": [
        {
          "name": "perpId",
          "type": "uint256",
          "internalType": "uint256"
        },
        {
          "name": "insAmtPer100K",
          "type": "uint256",
          "internalType": "uint256"
        },
        {
          "name": "userAmtPer100K",
          "type": "uint256",
          "internalType": "uint256"
        },
        {
          "name": "buyerAmtPer100K",
          "type": "uint256",
          "internalType": "uint256"
        }
      ],
      "outputs": [],
      "stateMutability": "nonpayable"
    },
    {
      "type": "function",
      "name": "setBuyToLiquidatePriceThreshold",
      "inputs": [
        {
          "name": "perpId",
          "type": "uint256",
          "internalType": "uint256"
        },
        {
          "name": "thresholdPer100K",
          "type": "uint256",
          "internalType": "uint256"
        }
      ],
      "outputs": [],
      "stateMutability": "nonpayable"
    },
    {
      "type": "function",
      "name": "setContractPaused",
      "inputs": [
        {
          "name": "perpId",
          "type": "uint256",
          "internalType": "uint256"
        },
        {
          "name": "paused",
          "type": "bool",
          "internalType": "bool"
        }
      ],
      "outputs": [],
      "stateMutability": "nonpayable"
    },
    {
      "type": "function",
      "name": "setDecreaseCollatParams",
      "inputs": [
        {
          "name": "perpId",
          "type": "uint256",
          "internalType": "uint256"
        },
        {
          "name": "accountId",
          "type": "uint256",
          "internalType": "uint256"
        },
        {
          "name": "expiryTS",
          "type": "uint32",
          "internalType": "uint32"
        },
        {
          "name": "impactAdjPricePNS",
          "type": "uint32",
          "internalType": "uint32"
        },
        {
          "name": "borrowMarginFracHdths",
          "type": "uint16",
          "internalType": "uint16"
        },
        {
          "name": "positionType",
          "type": "uint8",
          "internalType": "enum PositionEnum"
        }
      ],
      "outputs": [],
      "stateMutability": "nonpayable"
    },
    {
      "type": "function",
      "name": "setExchangeHalted",
      "inputs": [
        {
          "name": "halted",
          "type": "bool",
          "internalType": "bool"
        }
      ],
      "outputs": [],
      "stateMutability": "nonpayable"
    },
    {
      "type": "function",
      "name": "setFeeParams",
      "inputs": [
        {
          "name": "perpId",
          "type": "uint256",
          "internalType": "uint256"
        },
        {
          "name": "insAmtPer100K",
          "type": "uint256",
          "internalType": "uint256"
        }
      ],
      "outputs": [],
      "stateMutability": "nonpayable"
    },
    {
      "type": "function",
      "name": "setFreezeStatus",
      "inputs": [
        {
          "name": "account",
          "type": "address",
          "internalType": "address"
        },
        {
          "name": "status",
          "type": "uint8",
          "internalType": "enum FreezeStatusEnum"
        }
      ],
      "outputs": [],
      "stateMutability": "nonpayable"
    },
    {
      "type": "function",
      "name": "setFrozen",
      "inputs": [
        {
          "name": "account",
          "type": "address",
          "internalType": "address"
        },
        {
          "name": "status",
          "type": "uint8",
          "internalType": "enum FreezeStatusEnum"
        }
      ],
      "outputs": [],
      "stateMutability": "nonpayable"
    },
    {
      "type": "function",
      "name": "setFundingClampPct",
      "inputs": [
        {
          "name": "perpId",
          "type": "uint256",
          "internalType": "uint256"
        },
        {
          "name": "absFundingClampPctPer100K",
          "type": "uint256",
          "internalType": "uint256"
        }
      ],
      "outputs": [],
      "stateMutability": "nonpayable"
    },
    {
      "type": "function",
      "name": "setFundingSum",
      "inputs": [
        {
          "name": "perpId",
          "type": "uint256",
          "internalType": "uint256"
        },
        {
          "name": "fundingRatePct100k",
          "type": "int256",
          "internalType": "int256"
        },
        {
          "name": "pricePNS",
          "type": "uint32",
          "internalType": "uint32"
        },
        {
          "name": "allowOverwrite",
          "type": "bool",
          "internalType": "bool"
        },
        {
          "name": "revertOnFail",
          "type": "bool",
          "internalType": "bool"
        }
      ],
      "outputs": [],
      "stateMutability": "nonpayable"
    },
    {
      "type": "function",
      "name": "setIgnOracle",
      "inputs": [
        {
          "name": "perpId",
          "type": "uint256",
          "internalType": "uint256"
        },
        {
          "name": "ignOracle",
          "type": "bool",
          "internalType": "bool"
        }
      ],
      "outputs": [],
      "stateMutability": "nonpayable"
    },
    {
      "type": "function",
      "name": "setInitialMarginFraction",
      "inputs": [
        {
          "name": "perpId",
          "type": "uint256",
          "internalType": "uint256"
        },
        {
          "name": "initMarginFracHdths",
          "type": "uint256",
          "internalType": "uint256"
        }
      ],
      "outputs": [],
      "stateMutability": "nonpayable"
    },
    {
      "type": "function",
      "name": "setLinkDsVerifier",
      "inputs": [
        {
          "name": "verifierProxy",
          "type": "address",
          "internalType": "address"
        }
      ],
      "outputs": [],
      "stateMutability": "nonpayable"
    },
    {
      "type": "function",
      "name": "setLiquidationBuyer",
      "inputs": [
        {
          "name": "liquidationBuyer",
          "type": "address",
          "internalType": "address"
        },
        {
          "name": "add",
          "type": "bool",
          "internalType": "bool"
        }
      ],
      "outputs": [],
      "stateMutability": "nonpayable"
    },
    {
      "type": "function",
      "name": "setLiquidationParams",
      "inputs": [
        {
          "name": "perpId",
          "type": "uint256",
          "internalType": "uint256"
        },
        {
          "name": "insAmtPer100K",
          "type": "uint256",
          "internalType": "uint256"
        },
        {
          "name": "userAmtPer100K",
          "type": "uint256",
          "internalType": "uint256"
        }
      ],
      "outputs": [],
      "stateMutability": "nonpayable"
    },
    {
      "type": "function",
      "name": "setMaintenanceMarginFraction",
      "inputs": [
        {
          "name": "perpId",
          "type": "uint256",
          "internalType": "uint256"
        },
        {
          "name": "maintMarginFracHdths",
          "type": "uint256",
          "internalType": "uint256"
        }
      ],
      "outputs": [],
      "stateMutability": "nonpayable"
    },
    {
      "type": "function",
      "name": "setMakerFee",
      "inputs": [
        {
          "name": "perpId",
          "type": "uint256",
          "internalType": "uint256"
        },
        {
          "name": "makerFeePer100K",
          "type": "uint256",
          "internalType": "uint256"
        }
      ],
      "outputs": [],
      "stateMutability": "nonpayable"
    },
    {
      "type": "function",
      "name": "setMaxOpenInterest",
      "inputs": [
        {
          "name": "perpId",
          "type": "uint256",
          "internalType": "uint256"
        },
        {
          "name": "maxOpenInterestLNS",
          "type": "uint256",
          "internalType": "uint256"
        }
      ],
      "outputs": [],
      "stateMutability": "nonpayable"
    },
    {
      "type": "function",
      "name": "setMinAccountOpenAmount",
      "inputs": [
        {
          "name": "amountCNS",
          "type": "uint256",
          "internalType": "uint256"
        }
      ],
      "outputs": [],
      "stateMutability": "nonpayable"
    },
    {
      "type": "function",
      "name": "setMinPost",
      "inputs": [
        {
          "name": "minPostCNS",
          "type": "uint256",
          "internalType": "uint256"
        }
      ],
      "outputs": [],
      "stateMutability": "nonpayable"
    },
    {
      "type": "function",
      "name": "setMinSettle",
      "inputs": [
        {
          "name": "minSettleCNS",
          "type": "uint256",
          "internalType": "uint256"
        }
      ],
      "outputs": [],
      "stateMutability": "nonpayable"
    },
    {
      "type": "function",
      "name": "setMinWithdrawLimit",
      "inputs": [
        {
          "name": "limitCNS",
          "type": "uint256",
          "internalType": "uint256"
        }
      ],
      "outputs": [],
      "stateMutability": "nonpayable"
    },
    {
      "type": "function",
      "name": "setOverCollatDescentThreshold",
      "inputs": [
        {
          "name": "perpId",
          "type": "uint256",
          "internalType": "uint256"
        },
        {
          "name": "threshHdths",
          "type": "uint256",
          "internalType": "uint256"
        }
      ],
      "outputs": [],
      "stateMutability": "nonpayable"
    },
    {
      "type": "function",
      "name": "setPermissionedCancelParams",
      "inputs": [
        {
          "name": "perpId",
          "type": "uint256",
          "internalType": "uint256"
        },
        {
          "name": "permCancelMinOrders",
          "type": "uint256",
          "internalType": "uint256"
        },
        {
          "name": "permCancelSegment",
          "type": "uint256",
          "internalType": "uint256"
        }
      ],
      "outputs": [],
      "stateMutability": "nonpayable"
    },
    {
      "type": "function",
      "name": "setPerpLinkDsFeedId",
      "inputs": [
        {
          "name": "perpId",
          "type": "uint256",
          "internalType": "uint256"
        },
        {
          "name": "feedId",
          "type": "bytes32",
          "internalType": "bytes32"
        }
      ],
      "outputs": [],
      "stateMutability": "nonpayable"
    },
    {
      "type": "function",
      "name": "setPositionAdministrator",
      "inputs": [
        {
          "name": "positionAdministrator",
          "type": "address",
          "internalType": "address"
        },
        {
          "name": "add",
          "type": "bool",
          "internalType": "bool"
        }
      ],
      "outputs": [],
      "stateMutability": "nonpayable"
    },
    {
      "type": "function",
      "name": "setPriceAdministrator",
      "inputs": [
        {
          "name": "priceAdministrator",
          "type": "address",
          "internalType": "address"
        },
        {
          "name": "add",
          "type": "bool",
          "internalType": "bool"
        }
      ],
      "outputs": [],
      "stateMutability": "nonpayable"
    },
    {
      "type": "function",
      "name": "setPriceMaxAge",
      "inputs": [
        {
          "name": "perpId",
          "type": "uint256",
          "internalType": "uint256"
        },
        {
          "name": "maxAgeSec",
          "type": "uint256",
          "internalType": "uint256"
        }
      ],
      "outputs": [],
      "stateMutability": "nonpayable"
    },
    {
      "type": "function",
      "name": "setPriceTolPer100K",
      "inputs": [
        {
          "name": "perpId",
          "type": "uint256",
          "internalType": "uint256"
        },
        {
          "name": "tolerancePer100k",
          "type": "uint256",
          "internalType": "uint256"
        }
      ],
      "outputs": [],
      "stateMutability": "nonpayable"
    },
    {
      "type": "function",
      "name": "setRecycleFee",
      "inputs": [
        {
          "name": "recycleFeeCNS",
          "type": "uint256",
          "internalType": "uint256"
        }
      ],
      "outputs": [],
      "stateMutability": "nonpayable"
    },
    {
      "type": "function",
      "name": "setTakerFee",
      "inputs": [
        {
          "name": "perpId",
          "type": "uint256",
          "internalType": "uint256"
        },
        {
          "name": "takerFeePer100K",
          "type": "uint256",
          "internalType": "uint256"
        }
      ],
      "outputs": [],
      "stateMutability": "nonpayable"
    },
    {
      "type": "function",
      "name": "setThousandthsTvlWRLS",
      "inputs": [
        {
          "name": "thousandthsTvl",
          "type": "uint256",
          "internalType": "uint256"
        }
      ],
      "outputs": [],
      "stateMutability": "nonpayable"
    },
    {
      "type": "function",
      "name": "setUnityDescentThreshold",
      "inputs": [
        {
          "name": "perpId",
          "type": "uint256",
          "internalType": "uint256"
        },
        {
          "name": "threshHdths",
          "type": "uint256",
          "internalType": "uint256"
        }
      ],
      "outputs": [],
      "stateMutability": "nonpayable"
    },
    {
      "type": "function",
      "name": "setWhitelistingEnabled",
      "inputs": [
        {
          "name": "enabled",
          "type": "bool",
          "internalType": "bool"
        }
      ],
      "outputs": [],
      "stateMutability": "nonpayable"
    },
    {
      "type": "function",
      "name": "setWithdrawBypass",
      "inputs": [
        {
          "name": "addr",
          "type": "address",
          "internalType": "address"
        },
        {
          "name": "enabled",
          "type": "bool",
          "internalType": "bool"
        }
      ],
      "outputs": [],
      "stateMutability": "nonpayable"
    },
    {
      "type": "function",
      "name": "transferOwnership",
      "inputs": [
        {
          "name": "newOwner",
          "type": "address",
          "internalType": "address"
        }
      ],
      "outputs": [],
      "stateMutability": "nonpayable"
    },
    {
      "type": "function",
      "name": "unwindContract",
      "inputs": [
        {
          "name": "perpId",
          "type": "uint256",
          "internalType": "uint256"
        },
        {
          "name": "maxPosToUnwind",
          "type": "uint256",
          "internalType": "uint256"
        },
        {
          "name": "allowWithoutPayment",
          "type": "bool",
          "internalType": "bool"
        }
      ],
      "outputs": [],
      "stateMutability": "nonpayable"
    },
    {
      "type": "function",
      "name": "updateMarkPricePNS",
      "inputs": [
        {
          "name": "perpId",
          "type": "uint256",
          "internalType": "uint256"
        },
        {
          "name": "markPricePNS",
          "type": "uint256",
          "internalType": "uint256"
        }
      ],
      "outputs": [],
      "stateMutability": "nonpayable"
    },
    {
      "type": "function",
      "name": "updateOraclePrice",
      "inputs": [
        {
          "name": "perpId",
          "type": "uint256",
          "internalType": "uint256"
        },
        {
          "name": "unverifiedReport",
          "type": "bytes",
          "internalType": "bytes"
        }
      ],
      "outputs": [],
      "stateMutability": "nonpayable"
    },
    {
      "type": "function",
      "name": "upgradeTo",
      "inputs": [
        {
          "name": "newImplementation",
          "type": "address",
          "internalType": "address"
        }
      ],
      "outputs": [],
      "stateMutability": "nonpayable"
    },
    {
      "type": "function",
      "name": "upgradeToAndCall",
      "inputs": [
        {
          "name": "newImplementation",
          "type": "address",
          "internalType": "address"
        },
        {
          "name": "data",
          "type": "bytes",
          "internalType": "bytes"
        }
      ],
      "outputs": [],
      "stateMutability": "payable"
    },
    {
      "type": "function",
      "name": "whitelisted",
      "inputs": [
        {
          "name": "",
          "type": "address",
          "internalType": "address"
        }
      ],
      "outputs": [
        {
          "name": "",
          "type": "bool",
          "internalType": "bool"
        }
      ],
      "stateMutability": "view"
    },
    {
      "type": "function",
      "name": "whitelistingEnabled",
      "inputs": [],
      "outputs": [
        {
          "name": "",
          "type": "bool",
          "internalType": "bool"
        }
      ],
      "stateMutability": "view"
    },
    {
      "type": "function",
      "name": "withdrawCollateral",
      "inputs": [
        {
          "name": "amountCNS",
          "type": "uint256",
          "internalType": "uint256"
        }
      ],
      "outputs": [],
      "stateMutability": "nonpayable"
    },
    {
      "type": "function",
      "name": "withdrawFromProtocol",
      "inputs": [
        {
          "name": "amountCNS",
          "type": "uint256",
          "internalType": "uint256"
        }
      ],
      "outputs": [],
      "stateMutability": "nonpayable"
    },
    {
      "type": "function",
      "name": "xferAcctToProtocol",
      "inputs": [
        {
          "name": "amountCNS",
          "type": "uint256",
          "internalType": "uint256"
        }
      ],
      "outputs": [],
      "stateMutability": "nonpayable"
    },
    {
      "type": "function",
      "name": "xferPerpInsToProtocol",
      "inputs": [
        {
          "name": "perpId",
          "type": "uint256",
          "internalType": "uint256"
        },
        {
          "name": "amountCNS",
          "type": "uint256",
          "internalType": "uint256"
        }
      ],
      "outputs": [],
      "stateMutability": "nonpayable"
    },
    {
      "type": "function",
      "name": "xferProtocolToAcct",
      "inputs": [
        {
          "name": "accountId",
          "type": "uint256",
          "internalType": "uint256"
        },
        {
          "name": "amountCNS",
          "type": "uint256",
          "internalType": "uint256"
        }
      ],
      "outputs": [],
      "stateMutability": "nonpayable"
    },
    {
      "type": "function",
      "name": "xferProtocolToPerp",
      "inputs": [
        {
          "name": "perpId",
          "type": "uint256",
          "internalType": "uint256"
        },
        {
          "name": "amountCNS",
          "type": "uint256",
          "internalType": "uint256"
        },
        {
          "name": "insurance",
          "type": "bool",
          "internalType": "bool"
        }
      ],
      "outputs": [],
      "stateMutability": "nonpayable"
    },
    {
      "type": "function",
      "name": "xferProtocolToRecycleBal",
      "inputs": [
        {
          "name": "amountCNS",
          "type": "uint256",
          "internalType": "uint256"
        }
      ],
      "outputs": [],
      "stateMutability": "nonpayable"
    },
    {
      "type": "event",
      "name": "AccountCreated",
      "inputs": [
        {
          "name": "account",
          "type": "address",
          "indexed": false,
          "internalType": "address"
        },
        {
          "name": "id",
          "type": "uint256",
          "indexed": false,
          "internalType": "uint256"
        }
      ],
      "anonymous": false
    },
    {
      "type": "event",
      "name": "AccountFreeze",
      "inputs": [
        {
          "name": "accountId",
          "type": "uint256",
          "indexed": false,
          "internalType": "uint256"
        },
        {
          "name": "status",
          "type": "uint8",
          "indexed": false,
          "internalType": "enum FreezeStatusEnum"
        }
      ],
      "anonymous": false
    },
    {
      "type": "event",
      "name": "AccountFrozen",
      "inputs": [
        {
          "name": "status",
          "type": "uint8",
          "indexed": false,
          "internalType": "enum FreezeStatusEnum"
        }
      ],
      "anonymous": false
    },
    {
      "type": "event",
      "name": "AccountLiquidationCredit",
      "inputs": [
        {
          "name": "perpId",
          "type": "uint256",
          "indexed": false,
          "internalType": "uint256"
        },
        {
          "name": "accountId",
          "type": "uint256",
          "indexed": false,
          "internalType": "uint256"
        },
        {
          "name": "startBalanceCNS",
          "type": "uint256",
          "indexed": false,
          "internalType": "uint256"
        },
        {
          "name": "endBalanceCNS",
          "type": "uint256",
          "indexed": false,
          "internalType": "uint256"
        }
      ],
      "anonymous": false
    },
    {
      "type": "event",
      "name": "AdminChanged",
      "inputs": [
        {
          "name": "previousAdmin",
          "type": "address",
          "indexed": false,
          "internalType": "address"
        },
        {
          "name": "newAdmin",
          "type": "address",
          "indexed": false,
          "internalType": "address"
        }
      ],
      "anonymous": false
    },
    {
      "type": "event",
      "name": "AdministratorUpdated",
      "inputs": [
        {
          "name": "administator",
          "type": "address",
          "indexed": false,
          "internalType": "address"
        },
        {
          "name": "added",
          "type": "bool",
          "indexed": false,
          "internalType": "bool"
        }
      ],
      "anonymous": false
    },
    {
      "type": "event",
      "name": "AmountExceedsAvailableBalance",
      "inputs": [
        {
          "name": "amountCNS",
          "type": "uint256",
          "indexed": false,
          "internalType": "uint256"
        },
        {
          "name": "availableBalanceCNS",
          "type": "uint256",
          "indexed": false,
          "internalType": "uint256"
        },
        {
          "name": "balanceCNS",
          "type": "uint256",
          "indexed": false,
          "internalType": "uint256"
        }
      ],
      "anonymous": false
    },
    {
      "type": "event",
      "name": "BankruptcyPriceExceedsReferencePrice",
      "inputs": [
        {
          "name": "perpId",
          "type": "uint256",
          "indexed": false,
          "internalType": "uint256"
        },
        {
          "name": "accountId",
          "type": "uint256",
          "indexed": false,
          "internalType": "uint256"
        },
        {
          "name": "positionType",
          "type": "uint8",
          "indexed": false,
          "internalType": "enum PositionEnum"
        },
        {
          "name": "bankruptcyPricePNS",
          "type": "uint256",
          "indexed": false,
          "internalType": "uint256"
        },
        {
          "name": "refPricePNS",
          "type": "uint256",
          "indexed": false,
          "internalType": "uint256"
        },
        {
          "name": "refIsMark",
          "type": "bool",
          "indexed": false,
          "internalType": "bool"
        }
      ],
      "anonymous": false
    },
    {
      "type": "event",
      "name": "BeaconUpgraded",
      "inputs": [
        {
          "name": "beacon",
          "type": "address",
          "indexed": true,
          "internalType": "address"
        }
      ],
      "anonymous": false
    },
    {
      "type": "event",
      "name": "BlockStatusChanged",
      "inputs": [
        {
          "name": "addr",
          "type": "address",
          "indexed": true,
          "internalType": "address"
        },
        {
          "name": "blocked",
          "type": "bool",
          "indexed": false,
          "internalType": "bool"
        }
      ],
      "anonymous": false
    },
    {
      "type": "event",
      "name": "BorrowMarginNotMetAfterDecCollateral",
      "inputs": [
        {
          "name": "perpId",
          "type": "uint256",
          "indexed": false,
          "internalType": "uint256"
        },
        {
          "name": "accountId",
          "type": "uint256",
          "indexed": false,
          "internalType": "uint256"
        },
        {
          "name": "bmrCNS",
          "type": "int256",
          "indexed": false,
          "internalType": "int256"
        },
        {
          "name": "fmvAfterCNS",
          "type": "int256",
          "indexed": false,
          "internalType": "int256"
        }
      ],
      "anonymous": false
    },
    {
      "type": "event",
      "name": "BuyToLiquidateBuyerRestricted",
      "inputs": [
        {
          "name": "perpId",
          "type": "uint256",
          "indexed": false,
          "internalType": "uint256"
        },
        {
          "name": "buyer",
          "type": "address",
          "indexed": false,
          "internalType": "address"
        }
      ],
      "anonymous": false
    },
    {
      "type": "event",
      "name": "BuyToLiquidateParamsUpdated",
      "inputs": [
        {
          "name": "perpId",
          "type": "uint256",
          "indexed": false,
          "internalType": "uint256"
        },
        {
          "name": "insAmtPer100K",
          "type": "uint256",
          "indexed": false,
          "internalType": "uint256"
        },
        {
          "name": "userAmtPer100K",
          "type": "uint256",
          "indexed": false,
          "internalType": "uint256"
        },
        {
          "name": "buyerAmtPer100K",
          "type": "uint256",
          "indexed": false,
          "internalType": "uint256"
        },
        {
          "name": "protAmtPer100K",
          "type": "uint256",
          "indexed": false,
          "internalType": "uint256"
        }
      ],
      "anonymous": false
    },
    {
      "type": "event",
      "name": "BuyToLiquidateRestrictionUpdated",
      "inputs": [
        {
          "name": "perpId",
          "type": "uint256",
          "indexed": false,
          "internalType": "uint256"
        },
        {
          "name": "restrictBuyers",
          "type": "bool",
          "indexed": false,
          "internalType": "bool"
        }
      ],
      "anonymous": false
    },
    {
      "type": "event",
      "name": "BuyToLiquidateSlippageExceeded",
      "inputs": [
        {
          "name": "perpId",
          "type": "uint256",
          "indexed": false,
          "internalType": "uint256"
        },
        {
          "name": "posAccountId",
          "type": "uint256",
          "indexed": false,
          "internalType": "uint256"
        },
        {
          "name": "positionType",
          "type": "uint8",
          "indexed": false,
          "internalType": "enum PositionEnum"
        },
        {
          "name": "referencePricePNS",
          "type": "uint256",
          "indexed": false,
          "internalType": "uint256"
        },
        {
          "name": "limitPricePNS",
          "type": "uint256",
          "indexed": false,
          "internalType": "uint256"
        }
      ],
      "anonymous": false
    },
    {
      "type": "event",
      "name": "BuyToLiquidateThresholdUpdated",
      "inputs": [
        {
          "name": "perpId",
          "type": "uint256",
          "indexed": false,
          "internalType": "uint256"
        },
        {
          "name": "thresholdPer100K",
          "type": "uint256",
          "indexed": false,
          "internalType": "uint256"
        }
      ],
      "anonymous": false
    },
    {
      "type": "event",
      "name": "CancelExistingInvalidCloseOrders",
      "inputs": [
        {
          "name": "lockedLotLNS",
          "type": "uint256",
          "indexed": false,
          "internalType": "uint256"
        },
        {
          "name": "lockedPositionType",
          "type": "uint8",
          "indexed": false,
          "internalType": "enum PositionEnum"
        },
        {
          "name": "newPositionType",
          "type": "uint8",
          "indexed": false,
          "internalType": "enum PositionEnum"
        }
      ],
      "anonymous": false
    },
    {
      "type": "event",
      "name": "CannotAdjustEntryPriceToDecCollateral",
      "inputs": [
        {
          "name": "perpId",
          "type": "uint256",
          "indexed": false,
          "internalType": "uint256"
        },
        {
          "name": "accountId",
          "type": "uint256",
          "indexed": false,
          "internalType": "uint256"
        },
        {
          "name": "amountCNS",
          "type": "uint256",
          "indexed": false,
          "internalType": "uint256"
        },
        {
          "name": "adjustmentAmountCNS",
          "type": "uint256",
          "indexed": false,
          "internalType": "uint256"
        },
        {
          "name": "entryPricePNS",
          "type": "uint256",
          "indexed": false,
          "internalType": "uint256"
        },
        {
          "name": "adjustedEntryPricePNS",
          "type": "int256",
          "indexed": false,
          "internalType": "int256"
        },
        {
          "name": "positionType",
          "type": "uint8",
          "indexed": false,
          "internalType": "enum PositionEnum"
        }
      ],
      "anonymous": false
    },
    {
      "type": "event",
      "name": "CantBuyToLiquidate",
      "inputs": [
        {
          "name": "perpId",
          "type": "uint256",
          "indexed": false,
          "internalType": "uint256"
        },
        {
          "name": "posAccountId",
          "type": "uint256",
          "indexed": false,
          "internalType": "uint256"
        },
        {
          "name": "positionType",
          "type": "uint8",
          "indexed": false,
          "internalType": "enum PositionEnum"
        },
        {
          "name": "markPricePNS",
          "type": "uint256",
          "indexed": false,
          "internalType": "uint256"
        },
        {
          "name": "refIsMark",
          "type": "bool",
          "indexed": false,
          "internalType": "bool"
        },
        {
          "name": "bsLiqPricePNS",
          "type": "uint256",
          "indexed": false,
          "internalType": "uint256"
        },
        {
          "name": "liqPricePNS",
          "type": "uint256",
          "indexed": false,
          "internalType": "uint256"
        },
        {
          "name": "bkptPricePNS",
          "type": "uint256",
          "indexed": false,
          "internalType": "uint256"
        }
      ],
      "anonymous": false
    },
    {
      "type": "event",
      "name": "CantChangeCloseOrder",
      "inputs": [
        {
          "name": "perpId",
          "type": "uint256",
          "indexed": false,
          "internalType": "uint256"
        },
        {
          "name": "orderId",
          "type": "uint256",
          "indexed": false,
          "internalType": "uint256"
        },
        {
          "name": "accountId",
          "type": "uint256",
          "indexed": false,
          "internalType": "uint256"
        }
      ],
      "anonymous": false
    },
    {
      "type": "event",
      "name": "CantDeleverageAgainstOpposingPositions",
      "inputs": [
        {
          "name": "perpId",
          "type": "uint256",
          "indexed": false,
          "internalType": "uint256"
        },
        {
          "name": "accountId",
          "type": "uint256",
          "indexed": false,
          "internalType": "uint256"
        },
        {
          "name": "forceClose",
          "type": "bool",
          "indexed": false,
          "internalType": "bool"
        },
        {
          "name": "positionType",
          "type": "uint8",
          "indexed": false,
          "internalType": "enum PositionEnum"
        },
        {
          "name": "deleveragePricePNS",
          "type": "uint256",
          "indexed": false,
          "internalType": "uint256"
        },
        {
          "name": "sortedPositionIds",
          "type": "uint256[]",
          "indexed": false,
          "internalType": "uint256[]"
        }
      ],
      "anonymous": false
    },
    {
      "type": "event",
      "name": "CantLiquidatePosAboveMMR",
      "inputs": [
        {
          "name": "perpId",
          "type": "uint256",
          "indexed": false,
          "internalType": "uint256"
        },
        {
          "name": "posAccountId",
          "type": "uint256",
          "indexed": false,
          "internalType": "uint256"
        },
        {
          "name": "positionType",
          "type": "uint8",
          "indexed": false,
          "internalType": "enum PositionEnum"
        },
        {
          "name": "refPricePNS",
          "type": "uint256",
          "indexed": false,
          "internalType": "uint256"
        },
        {
          "name": "refIsMark",
          "type": "bool",
          "indexed": false,
          "internalType": "bool"
        },
        {
          "name": "liqPricePNS",
          "type": "uint256",
          "indexed": false,
          "internalType": "uint256"
        }
      ],
      "anonymous": false
    },
    {
      "type": "event",
      "name": "ChangeExpiredOrderNeedsNewExpiry",
      "inputs": [
        {
          "name": "perpId",
          "type": "uint256",
          "indexed": false,
          "internalType": "uint256"
        },
        {
          "name": "orderId",
          "type": "uint256",
          "indexed": false,
          "internalType": "uint256"
        },
        {
          "name": "accountId",
          "type": "uint256",
          "indexed": false,
          "internalType": "uint256"
        },
        {
          "name": "expiryBlock",
          "type": "uint256",
          "indexed": false,
          "internalType": "uint256"
        }
      ],
      "anonymous": false
    },
    {
      "type": "event",
      "name": "ClearedDecreaseCollatParams",
      "inputs": [
        {
          "name": "perpId",
          "type": "uint256",
          "indexed": false,
          "internalType": "uint256"
        },
        {
          "name": "accountId",
          "type": "uint256",
          "indexed": false,
          "internalType": "uint256"
        }
      ],
      "anonymous": false
    },
    {
      "type": "event",
      "name": "ClearingExpiredOrder",
      "inputs": [
        {
          "name": "perpId",
          "type": "uint256",
          "indexed": false,
          "internalType": "uint256"
        },
        {
          "name": "accountId",
          "type": "uint256",
          "indexed": false,
          "internalType": "uint256"
        },
        {
          "name": "orderId",
          "type": "uint256",
          "indexed": false,
          "internalType": "uint256"
        },
        {
          "name": "lockedBalanceCNS",
          "type": "uint256",
          "indexed": false,
          "internalType": "uint256"
        },
        {
          "name": "recyclerAccountId",
          "type": "uint256",
          "indexed": false,
          "internalType": "uint256"
        },
        {
          "name": "recyclerAmountCNS",
          "type": "int256",
          "indexed": false,
          "internalType": "int256"
        },
        {
          "name": "recyclerBalanceCNS",
          "type": "uint256",
          "indexed": false,
          "internalType": "uint256"
        }
      ],
      "anonymous": false
    },
    {
      "type": "event",
      "name": "ClearingFrozenAccountOrder",
      "inputs": [
        {
          "name": "perpId",
          "type": "uint256",
          "indexed": false,
          "internalType": "uint256"
        },
        {
          "name": "accountId",
          "type": "uint256",
          "indexed": false,
          "internalType": "uint256"
        },
        {
          "name": "orderId",
          "type": "uint256",
          "indexed": false,
          "internalType": "uint256"
        },
        {
          "name": "lockedBalanceCNS",
          "type": "uint256",
          "indexed": false,
          "internalType": "uint256"
        },
        {
          "name": "recyclerAccountId",
          "type": "uint256",
          "indexed": false,
          "internalType": "uint256"
        },
        {
          "name": "recyclerAmountCNS",
          "type": "int256",
          "indexed": false,
          "internalType": "int256"
        },
        {
          "name": "recyclerBalanceCNS",
          "type": "uint256",
          "indexed": false,
          "internalType": "uint256"
        }
      ],
      "anonymous": false
    },
    {
      "type": "event",
      "name": "ClearingInvalidCloseOrder",
      "inputs": [
        {
          "name": "perpId",
          "type": "uint256",
          "indexed": false,
          "internalType": "uint256"
        },
        {
          "name": "accountId",
          "type": "uint256",
          "indexed": false,
          "internalType": "uint256"
        },
        {
          "name": "orderId",
          "type": "uint256",
          "indexed": false,
          "internalType": "uint256"
        },
        {
          "name": "lockedBalanceCNS",
          "type": "uint256",
          "indexed": false,
          "internalType": "uint256"
        },
        {
          "name": "recyclerAccountId",
          "type": "uint256",
          "indexed": false,
          "internalType": "uint256"
        },
        {
          "name": "recyclerAmountCNS",
          "type": "int256",
          "indexed": false,
          "internalType": "int256"
        },
        {
          "name": "recyclerBalanceCNS",
          "type": "uint256",
          "indexed": false,
          "internalType": "uint256"
        }
      ],
      "anonymous": false
    },
    {
      "type": "event",
      "name": "ClearingSelfMatchingOrder",
      "inputs": [
        {
          "name": "perpId",
          "type": "uint256",
          "indexed": false,
          "internalType": "uint256"
        },
        {
          "name": "accountId",
          "type": "uint256",
          "indexed": false,
          "internalType": "uint256"
        },
        {
          "name": "orderId",
          "type": "uint256",
          "indexed": false,
          "internalType": "uint256"
        },
        {
          "name": "lockedBalanceCNS",
          "type": "uint256",
          "indexed": false,
          "internalType": "uint256"
        },
        {
          "name": "recyclerAccountId",
          "type": "uint256",
          "indexed": false,
          "internalType": "uint256"
        },
        {
          "name": "recyclerAmountCNS",
          "type": "int256",
          "indexed": false,
          "internalType": "int256"
        },
        {
          "name": "recyclerBalanceCNS",
          "type": "uint256",
          "indexed": false,
          "internalType": "uint256"
        }
      ],
      "anonymous": false
    },
    {
      "type": "event",
      "name": "CloseOrderExceedsPosition",
      "inputs": [
        {
          "name": "posLotLNS",
          "type": "uint256",
          "indexed": false,
          "internalType": "uint256"
        },
        {
          "name": "orderLotLNS",
          "type": "uint256",
          "indexed": false,
          "internalType": "uint256"
        }
      ],
      "anonymous": false
    },
    {
      "type": "event",
      "name": "CloseOrderPositionMismatch",
      "inputs": [
        {
          "name": "positionType",
          "type": "uint8",
          "indexed": false,
          "internalType": "enum PositionEnum"
        },
        {
          "name": "orderType",
          "type": "uint8",
          "indexed": false,
          "internalType": "enum OrderEnum"
        }
      ],
      "anonymous": false
    },
    {
      "type": "event",
      "name": "CollateralDecreaseApproved",
      "inputs": [
        {
          "name": "perpId",
          "type": "uint256",
          "indexed": false,
          "internalType": "uint256"
        },
        {
          "name": "accountId",
          "type": "uint256",
          "indexed": false,
          "internalType": "uint256"
        },
        {
          "name": "expiryTS",
          "type": "uint256",
          "indexed": false,
          "internalType": "uint256"
        },
        {
          "name": "impactAdjPricePNS",
          "type": "uint256",
          "indexed": false,
          "internalType": "uint256"
        },
        {
          "name": "borrowMarginFracHdths",
          "type": "uint256",
          "indexed": false,
          "internalType": "uint256"
        },
        {
          "name": "positionType",
          "type": "uint8",
          "indexed": false,
          "internalType": "enum PositionEnum"
        }
      ],
      "anonymous": false
    },
    {
      "type": "event",
      "name": "CollateralDecreaseDeclined",
      "inputs": [
        {
          "name": "perpId",
          "type": "uint256",
          "indexed": false,
          "internalType": "uint256"
        },
        {
          "name": "accountId",
          "type": "uint256",
          "indexed": false,
          "internalType": "uint256"
        }
      ],
      "anonymous": false
    },
    {
      "type": "event",
      "name": "CollateralDecreaseRequested",
      "inputs": [
        {
          "name": "perpId",
          "type": "uint256",
          "indexed": false,
          "internalType": "uint256"
        },
        {
          "name": "accountId",
          "type": "uint256",
          "indexed": false,
          "internalType": "uint256"
        },
        {
          "name": "positionType",
          "type": "uint8",
          "indexed": false,
          "internalType": "enum PositionEnum"
        },
        {
          "name": "entryPricePNS",
          "type": "uint256",
          "indexed": false,
          "internalType": "uint256"
        },
        {
          "name": "lotLNS",
          "type": "uint256",
          "indexed": false,
          "internalType": "uint256"
        }
      ],
      "anonymous": false
    },
    {
      "type": "event",
      "name": "CollateralDeposit",
      "inputs": [
        {
          "name": "accountId",
          "type": "uint256",
          "indexed": false,
          "internalType": "uint256"
        },
        {
          "name": "amountCNS",
          "type": "uint256",
          "indexed": false,
          "internalType": "uint256"
        },
        {
          "name": "balanceCNS",
          "type": "uint256",
          "indexed": false,
          "internalType": "uint256"
        }
      ],
      "anonymous": false
    },
    {
      "type": "event",
      "name": "CollateralWithdrawal",
      "inputs": [
        {
          "name": "accountId",
          "type": "uint256",
          "indexed": false,
          "internalType": "uint256"
        },
        {
          "name": "amountCNS",
          "type": "uint256",
          "indexed": false,
          "internalType": "uint256"
        },
        {
          "name": "balanceCNS",
          "type": "uint256",
          "indexed": false,
          "internalType": "uint256"
        }
      ],
      "anonymous": false
    },
    {
      "type": "event",
      "name": "ContractAdded",
      "inputs": [
        {
          "name": "perpId",
          "type": "uint256",
          "indexed": false,
          "internalType": "uint256"
        },
        {
          "name": "name",
          "type": "string",
          "indexed": false,
          "internalType": "string"
        },
        {
          "name": "symbol",
          "type": "string",
          "indexed": false,
          "internalType": "string"
        },
        {
          "name": "paused",
          "type": "bool",
          "indexed": false,
          "internalType": "bool"
        },
        {
          "name": "basePricePNS",
          "type": "uint256",
          "indexed": false,
          "internalType": "uint256"
        },
        {
          "name": "priceDecimals",
          "type": "uint256",
          "indexed": false,
          "internalType": "uint256"
        },
        {
          "name": "lotDecimals",
          "type": "uint256",
          "indexed": false,
          "internalType": "uint256"
        },
        {
          "name": "takerFeePer100K",
          "type": "uint256",
          "indexed": false,
          "internalType": "uint256"
        },
        {
          "name": "makerFeePer100K",
          "type": "uint256",
          "indexed": false,
          "internalType": "uint256"
        },
        {
          "name": "initMarginFracHdths",
          "type": "uint256",
          "indexed": false,
          "internalType": "uint256"
        },
        {
          "name": "maintMarginFracHdths",
          "type": "uint256",
          "indexed": false,
          "internalType": "uint256"
        }
      ],
      "anonymous": false
    },
    {
      "type": "event",
      "name": "ContractIsPaused",
      "inputs": [
        {
          "name": "perpId",
          "type": "uint256",
          "indexed": false,
          "internalType": "uint256"
        }
      ],
      "anonymous": false
    },
    {
      "type": "event",
      "name": "ContractLinkFeedUpdated",
      "inputs": [
        {
          "name": "perpId",
          "type": "uint256",
          "indexed": false,
          "internalType": "uint256"
        },
        {
          "name": "feedId",
          "type": "bytes32",
          "indexed": false,
          "internalType": "bytes32"
        }
      ],
      "anonymous": false
    },
    {
      "type": "event",
      "name": "ContractPaused",
      "inputs": [
        {
          "name": "perpId",
          "type": "uint256",
          "indexed": false,
          "internalType": "uint256"
        },
        {
          "name": "paused",
          "type": "bool",
          "indexed": false,
          "internalType": "bool"
        }
      ],
      "anonymous": false
    },
    {
      "type": "event",
      "name": "ContractRemoved",
      "inputs": [
        {
          "name": "perpId",
          "type": "uint256",
          "indexed": false,
          "internalType": "uint256"
        }
      ],
      "anonymous": false
    },
    {
      "type": "event",
      "name": "CrossesBook",
      "inputs": [
        {
          "name": "minAskOrMaxBidPNS",
          "type": "uint256",
          "indexed": false,
          "internalType": "uint256"
        },
        {
          "name": "maxOrdersChecked",
          "type": "bool",
          "indexed": false,
          "internalType": "bool"
        }
      ],
      "anonymous": false
    },
    {
      "type": "event",
      "name": "DecreaseCollateralAmountOutOfRange",
      "inputs": [
        {
          "name": "perpId",
          "type": "uint256",
          "indexed": false,
          "internalType": "uint256"
        },
        {
          "name": "accountId",
          "type": "uint256",
          "indexed": false,
          "internalType": "uint256"
        },
        {
          "name": "value",
          "type": "uint256",
          "indexed": false,
          "internalType": "uint256"
        },
        {
          "name": "min",
          "type": "uint256",
          "indexed": false,
          "internalType": "uint256"
        },
        {
          "name": "max",
          "type": "uint256",
          "indexed": false,
          "internalType": "uint256"
        }
      ],
      "anonymous": false
    },
    {
      "type": "event",
      "name": "DecreaseCollateralParamsExpired",
      "inputs": [
        {
          "name": "perpId",
          "type": "uint256",
          "indexed": false,
          "internalType": "uint256"
        },
        {
          "name": "accountId",
          "type": "uint256",
          "indexed": false,
          "internalType": "uint256"
        },
        {
          "name": "expiryTS",
          "type": "uint256",
          "indexed": false,
          "internalType": "uint256"
        },
        {
          "name": "blockTS",
          "type": "uint256",
          "indexed": false,
          "internalType": "uint256"
        }
      ],
      "anonymous": false
    },
    {
      "type": "event",
      "name": "DecreaseCollateralPriceBeyondReference",
      "inputs": [
        {
          "name": "perpId",
          "type": "uint256",
          "indexed": false,
          "internalType": "uint256"
        },
        {
          "name": "accountId",
          "type": "uint256",
          "indexed": false,
          "internalType": "uint256"
        },
        {
          "name": "positionType",
          "type": "uint8",
          "indexed": false,
          "internalType": "enum PositionEnum"
        },
        {
          "name": "impactAdjPricePNS",
          "type": "uint256",
          "indexed": false,
          "internalType": "uint256"
        },
        {
          "name": "refPricePNS",
          "type": "uint256",
          "indexed": false,
          "internalType": "uint256"
        },
        {
          "name": "refIsMark",
          "type": "bool",
          "indexed": false,
          "internalType": "bool"
        }
      ],
      "anonymous": false
    },
    {
      "type": "event",
      "name": "DeleveragePositionListEmpty",
      "inputs": [
        {
          "name": "perpId",
          "type": "uint256",
          "indexed": false,
          "internalType": "uint256"
        },
        {
          "name": "accountId",
          "type": "uint256",
          "indexed": false,
          "internalType": "uint256"
        }
      ],
      "anonymous": false
    },
    {
      "type": "event",
      "name": "ExceedsLastExecutionBlock",
      "inputs": [
        {
          "name": "lastExecutionBlock",
          "type": "uint256",
          "indexed": false,
          "internalType": "uint256"
        }
      ],
      "anonymous": false
    },
    {
      "type": "event",
      "name": "ExchangeHalted",
      "inputs": [
        {
          "name": "halted",
          "type": "bool",
          "indexed": false,
          "internalType": "bool"
        }
      ],
      "anonymous": false
    },
    {
      "type": "event",
      "name": "FeeParamsUpdated",
      "inputs": [
        {
          "name": "perpId",
          "type": "uint256",
          "indexed": false,
          "internalType": "uint256"
        },
        {
          "name": "insAmtPer100K",
          "type": "uint256",
          "indexed": false,
          "internalType": "uint256"
        }
      ],
      "anonymous": false
    },
    {
      "type": "event",
      "name": "FundingClampPctUpdated",
      "inputs": [
        {
          "name": "perpId",
          "type": "uint256",
          "indexed": false,
          "internalType": "uint256"
        },
        {
          "name": "clampPctPer100k",
          "type": "uint256",
          "indexed": false,
          "internalType": "uint256"
        }
      ],
      "anonymous": false
    },
    {
      "type": "event",
      "name": "FundingEventCompleted",
      "inputs": [
        {
          "name": "perpId",
          "type": "uint256",
          "indexed": false,
          "internalType": "uint256"
        },
        {
          "name": "fundingEventBlock",
          "type": "uint256",
          "indexed": false,
          "internalType": "uint256"
        },
        {
          "name": "specifiedRatePct100k",
          "type": "int256",
          "indexed": false,
          "internalType": "int256"
        },
        {
          "name": "actualRatePct100k",
          "type": "int256",
          "indexed": false,
          "internalType": "int256"
        },
        {
          "name": "fundingPricePNS",
          "type": "uint256",
          "indexed": false,
          "internalType": "uint256"
        },
        {
          "name": "fundingPaymentPNS",
          "type": "int48",
          "indexed": false,
          "internalType": "int48"
        },
        {
          "name": "fundingSumPNS",
          "type": "int48",
          "indexed": false,
          "internalType": "int48"
        },
        {
          "name": "allowOverwrite",
          "type": "bool",
          "indexed": false,
          "internalType": "bool"
        }
      ],
      "anonymous": false
    },
    {
      "type": "event",
      "name": "FundingEventSetTooEarly",
      "inputs": [
        {
          "name": "perpId",
          "type": "uint256",
          "indexed": false,
          "internalType": "uint256"
        },
        {
          "name": "blockNumber",
          "type": "uint256",
          "indexed": false,
          "internalType": "uint256"
        },
        {
          "name": "fundingEventBlock",
          "type": "uint256",
          "indexed": false,
          "internalType": "uint256"
        }
      ],
      "anonymous": false
    },
    {
      "type": "event",
      "name": "FundingPriceExceedsTol",
      "inputs": [
        {
          "name": "perpId",
          "type": "uint256",
          "indexed": false,
          "internalType": "uint256"
        },
        {
          "name": "fundingPricePNS",
          "type": "uint256",
          "indexed": false,
          "internalType": "uint256"
        },
        {
          "name": "oraclePNS",
          "type": "uint256",
          "indexed": false,
          "internalType": "uint256"
        },
        {
          "name": "tolerancePer100k",
          "type": "uint256",
          "indexed": false,
          "internalType": "uint256"
        }
      ],
      "anonymous": false
    },
    {
      "type": "event",
      "name": "FundingSumAlreadySet",
      "inputs": [
        {
          "name": "perpId",
          "type": "uint256",
          "indexed": false,
          "internalType": "uint256"
        },
        {
          "name": "fundingEventBlock",
          "type": "uint256",
          "indexed": false,
          "internalType": "uint256"
        },
        {
          "name": "storageIndex",
          "type": "uint256",
          "indexed": false,
          "internalType": "uint256"
        },
        {
          "name": "fundingSumOffset",
          "type": "uint256",
          "indexed": false,
          "internalType": "uint256"
        }
      ],
      "anonymous": false
    },
    {
      "type": "event",
      "name": "IgnoreOracleUpdated",
      "inputs": [
        {
          "name": "perpId",
          "type": "uint256",
          "indexed": false,
          "internalType": "uint256"
        },
        {
          "name": "ignOracle",
          "type": "bool",
          "indexed": false,
          "internalType": "bool"
        }
      ],
      "anonymous": false
    },
    {
      "type": "event",
      "name": "ImmediateOrCancelExecuted",
      "inputs": [
        {
          "name": "unmatchedLotLNS",
          "type": "uint256",
          "indexed": false,
          "internalType": "uint256"
        },
        {
          "name": "totalLotLNS",
          "type": "uint256",
          "indexed": false,
          "internalType": "uint256"
        }
      ],
      "anonymous": false
    },
    {
      "type": "event",
      "name": "IncreasePositionCollateral",
      "inputs": [
        {
          "name": "perpId",
          "type": "uint256",
          "indexed": false,
          "internalType": "uint256"
        },
        {
          "name": "accountId",
          "type": "uint256",
          "indexed": false,
          "internalType": "uint256"
        },
        {
          "name": "positionDepositCNS",
          "type": "uint256",
          "indexed": false,
          "internalType": "uint256"
        },
        {
          "name": "amountCNS",
          "type": "uint256",
          "indexed": false,
          "internalType": "uint256"
        },
        {
          "name": "balanceCNS",
          "type": "uint256",
          "indexed": false,
          "internalType": "uint256"
        }
      ],
      "anonymous": false
    },
    {
      "type": "event",
      "name": "InitialMarginFractionUpdated",
      "inputs": [
        {
          "name": "perpId",
          "type": "uint256",
          "indexed": false,
          "internalType": "uint256"
        },
        {
          "name": "initMarginFracHdths",
          "type": "uint256",
          "indexed": false,
          "internalType": "uint256"
        }
      ],
      "anonymous": false
    },
    {
      "type": "event",
      "name": "Initialized",
      "inputs": [
        {
          "name": "version",
          "type": "uint8",
          "indexed": false,
          "internalType": "uint8"
        }
      ],
      "anonymous": false
    },
    {
      "type": "event",
      "name": "InsolventPositionCannotBeForcedClose",
      "inputs": [
        {
          "name": "perpId",
          "type": "uint256",
          "indexed": false,
          "internalType": "uint256"
        },
        {
          "name": "posAccountId",
          "type": "uint256",
          "indexed": false,
          "internalType": "uint256"
        },
        {
          "name": "positionType",
          "type": "uint8",
          "indexed": false,
          "internalType": "enum PositionEnum"
        },
        {
          "name": "bankruptcyPricePNS",
          "type": "uint256",
          "indexed": false,
          "internalType": "uint256"
        },
        {
          "name": "refPricePNS",
          "type": "uint256",
          "indexed": false,
          "internalType": "uint256"
        },
        {
          "name": "refIsMark",
          "type": "bool",
          "indexed": false,
          "internalType": "bool"
        }
      ],
      "anonymous": false
    },
    {
      "type": "event",
      "name": "InsufficientFundsToDecCollateral",
      "inputs": [
        {
          "name": "perpId",
          "type": "uint256",
          "indexed": false,
          "internalType": "uint256"
        },
        {
          "name": "accountId",
          "type": "uint256",
          "indexed": false,
          "internalType": "uint256"
        },
        {
          "name": "amountCNS",
          "type": "uint256",
          "indexed": false,
          "internalType": "uint256"
        },
        {
          "name": "withdrawMaxCNS",
          "type": "uint256",
          "indexed": false,
          "internalType": "uint256"
        }
      ],
      "anonymous": false
    },
    {
      "type": "event",
      "name": "InsuficientFundsForRecycleFee",
      "inputs": [
        {
          "name": "perpId",
          "type": "uint256",
          "indexed": false,
          "internalType": "uint256"
        },
        {
          "name": "accountId",
          "type": "uint256",
          "indexed": false,
          "internalType": "uint256"
        },
        {
          "name": "balanceCNS",
          "type": "uint256",
          "indexed": false,
          "internalType": "uint256"
        },
        {
          "name": "lockedCNS",
          "type": "uint256",
          "indexed": false,
          "internalType": "uint256"
        },
        {
          "name": "recycleFeeCNS",
          "type": "uint256",
          "indexed": false,
          "internalType": "uint256"
        }
      ],
      "anonymous": false
    },
    {
      "type": "event",
      "name": "InsurancePaymentForSettlement",
      "inputs": [
        {
          "name": "perpId",
          "type": "uint256",
          "indexed": false,
          "internalType": "uint256"
        },
        {
          "name": "accountId",
          "type": "uint256",
          "indexed": false,
          "internalType": "uint256"
        },
        {
          "name": "insPaymentCNS",
          "type": "uint256",
          "indexed": false,
          "internalType": "uint256"
        }
      ],
      "anonymous": false
    },
    {
      "type": "event",
      "name": "InvalidAccountFrozenOrder",
      "inputs": [
        {
          "name": "orderType",
          "type": "uint8",
          "indexed": false,
          "internalType": "enum OrderDescEnum"
        },
        {
          "name": "immediateOrCancel",
          "type": "bool",
          "indexed": false,
          "internalType": "bool"
        }
      ],
      "anonymous": false
    },
    {
      "type": "event",
      "name": "InvalidBankruptcyPrice",
      "inputs": [
        {
          "name": "perpId",
          "type": "uint256",
          "indexed": false,
          "internalType": "uint256"
        },
        {
          "name": "accountId",
          "type": "uint256",
          "indexed": false,
          "internalType": "uint256"
        },
        {
          "name": "depositCNS",
          "type": "uint256",
          "indexed": false,
          "internalType": "uint256"
        },
        {
          "name": "posPricePNS",
          "type": "uint256",
          "indexed": false,
          "internalType": "uint256"
        },
        {
          "name": "liqLotLNS",
          "type": "uint256",
          "indexed": false,
          "internalType": "uint256"
        },
        {
          "name": "premiumPnlCNS",
          "type": "int256",
          "indexed": false,
          "internalType": "int256"
        }
      ],
      "anonymous": false
    },
    {
      "type": "event",
      "name": "InvalidExpiryBlock",
      "inputs": [
        {
          "name": "expiryBlock",
          "type": "uint256",
          "indexed": false,
          "internalType": "uint256"
        },
        {
          "name": "blockNumber",
          "type": "uint256",
          "indexed": false,
          "internalType": "uint256"
        }
      ],
      "anonymous": false
    },
    {
      "type": "event",
      "name": "InvalidLinkReportForContract",
      "inputs": [
        {
          "name": "perpId",
          "type": "uint256",
          "indexed": false,
          "internalType": "uint256"
        },
        {
          "name": "perpFeedId",
          "type": "bytes32",
          "indexed": false,
          "internalType": "bytes32"
        },
        {
          "name": "reportFeedId",
          "type": "bytes32",
          "indexed": false,
          "internalType": "bytes32"
        }
      ],
      "anonymous": false
    },
    {
      "type": "event",
      "name": "InvalidLinkReportVersion",
      "inputs": [
        {
          "name": "perpId",
          "type": "uint256",
          "indexed": false,
          "internalType": "uint256"
        },
        {
          "name": "reportVersion",
          "type": "uint256",
          "indexed": false,
          "internalType": "uint256"
        }
      ],
      "anonymous": false
    },
    {
      "type": "event",
      "name": "InvalidLiquidationPrice",
      "inputs": [
        {
          "name": "perpId",
          "type": "uint256",
          "indexed": false,
          "internalType": "uint256"
        },
        {
          "name": "accountId",
          "type": "uint256",
          "indexed": false,
          "internalType": "uint256"
        },
        {
          "name": "depositCNS",
          "type": "uint256",
          "indexed": false,
          "internalType": "uint256"
        },
        {
          "name": "posPricePNS",
          "type": "uint256",
          "indexed": false,
          "internalType": "uint256"
        },
        {
          "name": "liqLotLNS",
          "type": "uint256",
          "indexed": false,
          "internalType": "uint256"
        },
        {
          "name": "premiumPnlCNS",
          "type": "int256",
          "indexed": false,
          "internalType": "int256"
        }
      ],
      "anonymous": false
    },
    {
      "type": "event",
      "name": "InvalidOrderId",
      "inputs": [
        {
          "name": "orderId",
          "type": "uint256",
          "indexed": false,
          "internalType": "uint256"
        },
        {
          "name": "min",
          "type": "uint256",
          "indexed": false,
          "internalType": "uint256"
        },
        {
          "name": "max",
          "type": "uint256",
          "indexed": false,
          "internalType": "uint256"
        }
      ],
      "anonymous": false
    },
    {
      "type": "event",
      "name": "InvalidSynthPerpPrice",
      "inputs": [
        {
          "name": "perpId",
          "type": "uint256",
          "indexed": false,
          "internalType": "uint256"
        },
        {
          "name": "oraclePNS",
          "type": "uint256",
          "indexed": false,
          "internalType": "uint256"
        },
        {
          "name": "oracleTimestamp",
          "type": "uint256",
          "indexed": false,
          "internalType": "uint256"
        }
      ],
      "anonymous": false
    },
    {
      "type": "event",
      "name": "LinkDatastreamConfigured",
      "inputs": [
        {
          "name": "verifierProxy",
          "type": "address",
          "indexed": false,
          "internalType": "address"
        }
      ],
      "anonymous": false
    },
    {
      "type": "event",
      "name": "LinkDsError",
      "inputs": [
        {
          "name": "perpId",
          "type": "uint256",
          "indexed": false,
          "internalType": "uint256"
        },
        {
          "name": "reason",
          "type": "string",
          "indexed": false,
          "internalType": "string"
        }
      ],
      "anonymous": false
    },
    {
      "type": "event",
      "name": "LinkDsError",
      "inputs": [
        {
          "name": "perpId",
          "type": "uint256",
          "indexed": false,
          "internalType": "uint256"
        },
        {
          "name": "lowLevelData",
          "type": "bytes",
          "indexed": false,
          "internalType": "bytes"
        }
      ],
      "anonymous": false
    },
    {
      "type": "event",
      "name": "LinkDsPanic",
      "inputs": [
        {
          "name": "perpId",
          "type": "uint256",
          "indexed": false,
          "internalType": "uint256"
        },
        {
          "name": "errorCode",
          "type": "uint256",
          "indexed": false,
          "internalType": "uint256"
        }
      ],
      "anonymous": false
    },
    {
      "type": "event",
      "name": "LinkPriceUpdated",
      "inputs": [
        {
          "name": "perpId",
          "type": "uint256",
          "indexed": false,
          "internalType": "uint256"
        },
        {
          "name": "oraclePricePNS",
          "type": "uint256",
          "indexed": false,
          "internalType": "uint256"
        },
        {
          "name": "synthPerpPricePNS",
          "type": "uint256",
          "indexed": false,
          "internalType": "uint256"
        },
        {
          "name": "timestamp",
          "type": "uint256",
          "indexed": false,
          "internalType": "uint256"
        }
      ],
      "anonymous": false
    },
    {
      "type": "event",
      "name": "LiquidationBuyerUpdated",
      "inputs": [
        {
          "name": "liquidationBuyer",
          "type": "address",
          "indexed": false,
          "internalType": "address"
        },
        {
          "name": "accountId",
          "type": "uint256",
          "indexed": false,
          "internalType": "uint256"
        },
        {
          "name": "added",
          "type": "bool",
          "indexed": false,
          "internalType": "bool"
        }
      ],
      "anonymous": false
    },
    {
      "type": "event",
      "name": "LiquidationParamsUpdated",
      "inputs": [
        {
          "name": "perpId",
          "type": "uint256",
          "indexed": false,
          "internalType": "uint256"
        },
        {
          "name": "insAmtPer100K",
          "type": "uint256",
          "indexed": false,
          "internalType": "uint256"
        },
        {
          "name": "liqAmtPer100K",
          "type": "uint256",
          "indexed": false,
          "internalType": "uint256"
        },
        {
          "name": "userAmtPer100K",
          "type": "uint256",
          "indexed": false,
          "internalType": "uint256"
        }
      ],
      "anonymous": false
    },
    {
      "type": "event",
      "name": "LotOutOfRange",
      "inputs": [
        {
          "name": "minLotLNS",
          "type": "uint256",
          "indexed": false,
          "internalType": "uint256"
        },
        {
          "name": "maxLotLNS",
          "type": "uint256",
          "indexed": false,
          "internalType": "uint256"
        }
      ],
      "anonymous": false
    },
    {
      "type": "event",
      "name": "MaintenanceMarginFractionUpdated",
      "inputs": [
        {
          "name": "perpId",
          "type": "uint256",
          "indexed": false,
          "internalType": "uint256"
        },
        {
          "name": "maintMarginFracHdths",
          "type": "uint256",
          "indexed": false,
          "internalType": "uint256"
        }
      ],
      "anonymous": false
    },
    {
      "type": "event",
      "name": "MakerFeeUpdated",
      "inputs": [
        {
          "name": "perpId",
          "type": "uint256",
          "indexed": false,
          "internalType": "uint256"
        },
        {
          "name": "makerFeePer100K",
          "type": "uint256",
          "indexed": false,
          "internalType": "uint256"
        }
      ],
      "anonymous": false
    },
    {
      "type": "event",
      "name": "MakerOrderFilled",
      "inputs": [
        {
          "name": "perpId",
          "type": "uint256",
          "indexed": false,
          "internalType": "uint256"
        },
        {
          "name": "accountId",
          "type": "uint256",
          "indexed": false,
          "internalType": "uint256"
        },
        {
          "name": "orderId",
          "type": "uint256",
          "indexed": false,
          "internalType": "uint256"
        },
        {
          "name": "pricePNS",
          "type": "uint256",
          "indexed": false,
          "internalType": "uint256"
        },
        {
          "name": "lotLNS",
          "type": "uint256",
          "indexed": false,
          "internalType": "uint256"
        },
        {
          "name": "feeCNS",
          "type": "uint256",
          "indexed": false,
          "internalType": "uint256"
        },
        {
          "name": "lockedBalanceCNS",
          "type": "uint256",
          "indexed": false,
          "internalType": "uint256"
        },
        {
          "name": "amountCNS",
          "type": "int256",
          "indexed": false,
          "internalType": "int256"
        },
        {
          "name": "balanceCNS",
          "type": "uint256",
          "indexed": false,
          "internalType": "uint256"
        }
      ],
      "anonymous": false
    },
    {
      "type": "event",
      "name": "MakerOrderSettlementFailed",
      "inputs": [
        {
          "name": "perpId",
          "type": "uint256",
          "indexed": false,
          "internalType": "uint256"
        },
        {
          "name": "accountId",
          "type": "uint256",
          "indexed": false,
          "internalType": "uint256"
        },
        {
          "name": "orderId",
          "type": "uint256",
          "indexed": false,
          "internalType": "uint256"
        },
        {
          "name": "orderType",
          "type": "uint8",
          "indexed": false,
          "internalType": "enum OrderEnum"
        },
        {
          "name": "pricePNS",
          "type": "uint256",
          "indexed": false,
          "internalType": "uint256"
        },
        {
          "name": "lotLNS",
          "type": "uint256",
          "indexed": false,
          "internalType": "uint256"
        },
        {
          "name": "reason",
          "type": "uint256",
          "indexed": false,
          "internalType": "uint256"
        },
        {
          "name": "lockedBalanceCNS",
          "type": "uint256",
          "indexed": false,
          "internalType": "uint256"
        },
        {
          "name": "recyclerAccountId",
          "type": "uint256",
          "indexed": false,
          "internalType": "uint256"
        },
        {
          "name": "recyclerAmountCNS",
          "type": "int256",
          "indexed": false,
          "internalType": "int256"
        },
        {
          "name": "recyclerBalanceCNS",
          "type": "uint256",
          "indexed": false,
          "internalType": "uint256"
        }
      ],
      "anonymous": false
    },
    {
      "type": "event",
      "name": "MarkExceedsTol",
      "inputs": [
        {
          "name": "perpId",
          "type": "uint256",
          "indexed": false,
          "internalType": "uint256"
        },
        {
          "name": "markPNS",
          "type": "uint256",
          "indexed": false,
          "internalType": "uint256"
        },
        {
          "name": "synthPerpPricePNS",
          "type": "uint256",
          "indexed": false,
          "internalType": "uint256"
        },
        {
          "name": "tolerancePer100k",
          "type": "uint256",
          "indexed": false,
          "internalType": "uint256"
        }
      ],
      "anonymous": false
    },
    {
      "type": "event",
      "name": "MarkUpdated",
      "inputs": [
        {
          "name": "perpId",
          "type": "uint256",
          "indexed": false,
          "internalType": "uint256"
        },
        {
          "name": "pricePNS",
          "type": "uint256",
          "indexed": false,
          "internalType": "uint256"
        }
      ],
      "anonymous": false
    },
    {
      "type": "event",
      "name": "MaxMatchesReached",
      "inputs": [],
      "anonymous": false
    },
    {
      "type": "event",
      "name": "MaxOpenInterestUpdated",
      "inputs": [
        {
          "name": "perpId",
          "type": "uint256",
          "indexed": false,
          "internalType": "uint256"
        },
        {
          "name": "maxOpenInterestLNS",
          "type": "uint256",
          "indexed": false,
          "internalType": "uint256"
        }
      ],
      "anonymous": false
    },
    {
      "type": "event",
      "name": "MaximumAccountOrders",
      "inputs": [
        {
          "name": "perpId",
          "type": "uint256",
          "indexed": false,
          "internalType": "uint256"
        },
        {
          "name": "accountId",
          "type": "uint256",
          "indexed": false,
          "internalType": "uint256"
        }
      ],
      "anonymous": false
    },
    {
      "type": "event",
      "name": "MinAccountOpenAmountUpdated",
      "inputs": [
        {
          "name": "minAccountOpenCNS",
          "type": "uint256",
          "indexed": false,
          "internalType": "uint256"
        }
      ],
      "anonymous": false
    },
    {
      "type": "event",
      "name": "MinPostUpdated",
      "inputs": [
        {
          "name": "minPostCNS",
          "type": "uint256",
          "indexed": false,
          "internalType": "uint256"
        }
      ],
      "anonymous": false
    },
    {
      "type": "event",
      "name": "MinSettleUpdated",
      "inputs": [
        {
          "name": "minSettleCNS",
          "type": "uint256",
          "indexed": false,
          "internalType": "uint256"
        }
      ],
      "anonymous": false
    },
    {
      "type": "event",
      "name": "OracleAgeExceedsMax",
      "inputs": [
        {
          "name": "perpId",
          "type": "uint256",
          "indexed": false,
          "internalType": "uint256"
        },
        {
          "name": "oracleTimestamp",
          "type": "uint256",
          "indexed": false,
          "internalType": "uint256"
        },
        {
          "name": "timestamp",
          "type": "uint256",
          "indexed": false,
          "internalType": "uint256"
        },
        {
          "name": "maxAgeSec",
          "type": "uint256",
          "indexed": false,
          "internalType": "uint256"
        }
      ],
      "anonymous": false
    },
    {
      "type": "event",
      "name": "OracleDisabled",
      "inputs": [
        {
          "name": "perpId",
          "type": "uint256",
          "indexed": false,
          "internalType": "uint256"
        }
      ],
      "anonymous": false
    },
    {
      "type": "event",
      "name": "OrderBatchCompleted",
      "inputs": [
        {
          "name": "gasLeft",
          "type": "uint256",
          "indexed": false,
          "internalType": "uint256"
        }
      ],
      "anonymous": false
    },
    {
      "type": "event",
      "name": "OrderCancelled",
      "inputs": [
        {
          "name": "lockedBalanceCNS",
          "type": "uint256",
          "indexed": false,
          "internalType": "uint256"
        },
        {
          "name": "amountCNS",
          "type": "int256",
          "indexed": false,
          "internalType": "int256"
        },
        {
          "name": "balanceCNS",
          "type": "uint256",
          "indexed": false,
          "internalType": "uint256"
        }
      ],
      "anonymous": false
    },
    {
      "type": "event",
      "name": "OrderCancelledByAdmin",
      "inputs": [
        {
          "name": "perpId",
          "type": "uint256",
          "indexed": false,
          "internalType": "uint256"
        },
        {
          "name": "accountId",
          "type": "uint256",
          "indexed": false,
          "internalType": "uint256"
        },
        {
          "name": "orderId",
          "type": "uint256",
          "indexed": false,
          "internalType": "uint256"
        },
        {
          "name": "lockedBalanceCNS",
          "type": "uint256",
          "indexed": false,
          "internalType": "uint256"
        }
      ],
      "anonymous": false
    },
    {
      "type": "event",
      "name": "OrderCancelledByLiquidator",
      "inputs": [
        {
          "name": "perpId",
          "type": "uint256",
          "indexed": false,
          "internalType": "uint256"
        },
        {
          "name": "accountId",
          "type": "uint256",
          "indexed": false,
          "internalType": "uint256"
        },
        {
          "name": "orderId",
          "type": "uint256",
          "indexed": false,
          "internalType": "uint256"
        },
        {
          "name": "lockedBalanceCNS",
          "type": "uint256",
          "indexed": false,
          "internalType": "uint256"
        }
      ],
      "anonymous": false
    },
    {
      "type": "event",
      "name": "OrderChanged",
      "inputs": [
        {
          "name": "orderId",
          "type": "uint256",
          "indexed": false,
          "internalType": "uint256"
        },
        {
          "name": "pricePNS",
          "type": "uint256",
          "indexed": false,
          "internalType": "uint256"
        },
        {
          "name": "lotLNS",
          "type": "uint256",
          "indexed": false,
          "internalType": "uint256"
        },
        {
          "name": "expiryBlock",
          "type": "uint256",
          "indexed": false,
          "internalType": "uint256"
        },
        {
          "name": "lockedBalanceCNS",
          "type": "uint256",
          "indexed": false,
          "internalType": "uint256"
        },
        {
          "name": "balanceCNS",
          "type": "uint256",
          "indexed": false,
          "internalType": "uint256"
        }
      ],
      "anonymous": false
    },
    {
      "type": "event",
      "name": "OrderDescIdTooLow",
      "inputs": [
        {
          "name": "lastOrderDescId",
          "type": "uint256",
          "indexed": false,
          "internalType": "uint256"
        }
      ],
      "anonymous": false
    },
    {
      "type": "event",
      "name": "OrderDoesNotExist",
      "inputs": [
        {
          "name": "perpId",
          "type": "uint256",
          "indexed": false,
          "internalType": "uint256"
        },
        {
          "name": "orderId",
          "type": "uint256",
          "indexed": false,
          "internalType": "uint256"
        }
      ],
      "anonymous": false
    },
    {
      "type": "event",
      "name": "OrderForwardingNotAllowed",
      "inputs": [],
      "anonymous": false
    },
    {
      "type": "event",
      "name": "OrderForwardingUpdated",
      "inputs": [
        {
          "name": "accountId",
          "type": "uint256",
          "indexed": false,
          "internalType": "uint256"
        },
        {
          "name": "allowed",
          "type": "bool",
          "indexed": false,
          "internalType": "bool"
        }
      ],
      "anonymous": false
    },
    {
      "type": "event",
      "name": "OrderPlaced",
      "inputs": [
        {
          "name": "orderId",
          "type": "uint256",
          "indexed": false,
          "internalType": "uint256"
        },
        {
          "name": "lotLNS",
          "type": "uint256",
          "indexed": false,
          "internalType": "uint256"
        },
        {
          "name": "lockedBalanceCNS",
          "type": "uint256",
          "indexed": false,
          "internalType": "uint256"
        },
        {
          "name": "amountCNS",
          "type": "int256",
          "indexed": false,
          "internalType": "int256"
        },
        {
          "name": "balanceCNS",
          "type": "uint256",
          "indexed": false,
          "internalType": "uint256"
        }
      ],
      "anonymous": false
    },
    {
      "type": "event",
      "name": "OrderPostFailed",
      "inputs": [
        {
          "name": "reason",
          "type": "uint256",
          "indexed": false,
          "internalType": "uint256"
        }
      ],
      "anonymous": false
    },
    {
      "type": "event",
      "name": "OrderRequest",
      "inputs": [
        {
          "name": "perpId",
          "type": "uint256",
          "indexed": false,
          "internalType": "uint256"
        },
        {
          "name": "accountId",
          "type": "uint256",
          "indexed": false,
          "internalType": "uint256"
        },
        {
          "name": "orderDescId",
          "type": "uint256",
          "indexed": false,
          "internalType": "uint256"
        },
        {
          "name": "orderId",
          "type": "uint256",
          "indexed": false,
          "internalType": "uint256"
        },
        {
          "name": "orderType",
          "type": "uint8",
          "indexed": false,
          "internalType": "enum OrderDescEnum"
        },
        {
          "name": "pricePNS",
          "type": "uint256",
          "indexed": false,
          "internalType": "uint256"
        },
        {
          "name": "lotLNS",
          "type": "uint256",
          "indexed": false,
          "internalType": "uint256"
        },
        {
          "name": "expiryBlock",
          "type": "uint256",
          "indexed": false,
          "internalType": "uint256"
        },
        {
          "name": "postOnly",
          "type": "bool",
          "indexed": false,
          "internalType": "bool"
        },
        {
          "name": "fillOrKill",
          "type": "bool",
          "indexed": false,
          "internalType": "bool"
        },
        {
          "name": "immediateOrCancel",
          "type": "bool",
          "indexed": false,
          "internalType": "bool"
        },
        {
          "name": "maxMatches",
          "type": "uint256",
          "indexed": false,
          "internalType": "uint256"
        },
        {
          "name": "leverageHdths",
          "type": "uint256",
          "indexed": false,
          "internalType": "uint256"
        },
        {
          "name": "gasLeft",
          "type": "uint256",
          "indexed": false,
          "internalType": "uint256"
        }
      ],
      "anonymous": false
    },
    {
      "type": "event",
      "name": "OrderSettlementImpliesInsolvent",
      "inputs": [
        {
          "name": "perpId",
          "type": "uint256",
          "indexed": false,
          "internalType": "uint256"
        },
        {
          "name": "accountId",
          "type": "uint256",
          "indexed": false,
          "internalType": "uint256"
        },
        {
          "name": "orderType",
          "type": "uint8",
          "indexed": false,
          "internalType": "enum OrderEnum"
        },
        {
          "name": "pricePNS",
          "type": "uint256",
          "indexed": false,
          "internalType": "uint256"
        },
        {
          "name": "lotLNS",
          "type": "uint256",
          "indexed": false,
          "internalType": "uint256"
        },
        {
          "name": "perpPositionBalCNS",
          "type": "uint256",
          "indexed": false,
          "internalType": "uint256"
        },
        {
          "name": "perpInsuranceBalCNS",
          "type": "uint256",
          "indexed": false,
          "internalType": "uint256"
        },
        {
          "name": "addedPosCollatReqCNS",
          "type": "uint256",
          "indexed": false,
          "internalType": "uint256"
        },
        {
          "name": "requestedAmountCNS",
          "type": "uint256",
          "indexed": false,
          "internalType": "uint256"
        }
      ],
      "anonymous": false
    },
    {
      "type": "event",
      "name": "OrderSizeExceedsAvailableSize",
      "inputs": [
        {
          "name": "orderLotLNS",
          "type": "uint256",
          "indexed": false,
          "internalType": "uint256"
        },
        {
          "name": "availableLotLNS",
          "type": "uint256",
          "indexed": false,
          "internalType": "uint256"
        },
        {
          "name": "positionLotLNS",
          "type": "uint256",
          "indexed": false,
          "internalType": "uint256"
        }
      ],
      "anonymous": false
    },
    {
      "type": "event",
      "name": "OverCollatDescentThreshUpdated",
      "inputs": [
        {
          "name": "perpId",
          "type": "uint256",
          "indexed": false,
          "internalType": "uint256"
        },
        {
          "name": "threshHdths",
          "type": "uint256",
          "indexed": false,
          "internalType": "uint256"
        }
      ],
      "anonymous": false
    },
    {
      "type": "event",
      "name": "OwnershipTransferStarted",
      "inputs": [
        {
          "name": "previousOwner",
          "type": "address",
          "indexed": true,
          "internalType": "address"
        },
        {
          "name": "newOwner",
          "type": "address",
          "indexed": true,
          "internalType": "address"
        }
      ],
      "anonymous": false
    },
    {
      "type": "event",
      "name": "OwnershipTransferred",
      "inputs": [
        {
          "name": "previousOwner",
          "type": "address",
          "indexed": true,
          "internalType": "address"
        },
        {
          "name": "newOwner",
          "type": "address",
          "indexed": true,
          "internalType": "address"
        }
      ],
      "anonymous": false
    },
    {
      "type": "event",
      "name": "PermissonedCancelParamsUpdated",
      "inputs": [
        {
          "name": "cancelMinOrders",
          "type": "uint256",
          "indexed": false,
          "internalType": "uint256"
        },
        {
          "name": "cancelSegment",
          "type": "uint256",
          "indexed": false,
          "internalType": "uint256"
        }
      ],
      "anonymous": false
    },
    {
      "type": "event",
      "name": "PositionAdministratorUpdated",
      "inputs": [
        {
          "name": "positionAdministrator",
          "type": "address",
          "indexed": false,
          "internalType": "address"
        },
        {
          "name": "added",
          "type": "bool",
          "indexed": false,
          "internalType": "bool"
        }
      ],
      "anonymous": false
    },
    {
      "type": "event",
      "name": "PositionClosed",
      "inputs": [
        {
          "name": "perpId",
          "type": "uint256",
          "indexed": false,
          "internalType": "uint256"
        },
        {
          "name": "accountId",
          "type": "uint256",
          "indexed": false,
          "internalType": "uint256"
        },
        {
          "name": "positionType",
          "type": "uint8",
          "indexed": false,
          "internalType": "enum PositionEnum"
        },
        {
          "name": "pricePNS",
          "type": "uint256",
          "indexed": false,
          "internalType": "uint256"
        },
        {
          "name": "deltaPnlCNS",
          "type": "int256",
          "indexed": false,
          "internalType": "int256"
        },
        {
          "name": "fundingCNS",
          "type": "int256",
          "indexed": false,
          "internalType": "int256"
        }
      ],
      "anonymous": false
    },
    {
      "type": "event",
      "name": "PositionCollateralDecreased",
      "inputs": [
        {
          "name": "perpId",
          "type": "uint256",
          "indexed": false,
          "internalType": "uint256"
        },
        {
          "name": "accountId",
          "type": "uint256",
          "indexed": false,
          "internalType": "uint256"
        },
        {
          "name": "positionType",
          "type": "uint8",
          "indexed": false,
          "internalType": "enum PositionEnum"
        },
        {
          "name": "refPricePNS",
          "type": "uint256",
          "indexed": false,
          "internalType": "uint256"
        },
        {
          "name": "refIsMark",
          "type": "bool",
          "indexed": false,
          "internalType": "bool"
        },
        {
          "name": "impactAdjPricePNS",
          "type": "uint256",
          "indexed": false,
          "internalType": "uint256"
        },
        {
          "name": "startDepositCNS",
          "type": "uint256",
          "indexed": false,
          "internalType": "uint256"
        },
        {
          "name": "endDepositCNS",
          "type": "uint256",
          "indexed": false,
          "internalType": "uint256"
        },
        {
          "name": "startEntryPricePNS",
          "type": "uint256",
          "indexed": false,
          "internalType": "uint256"
        },
        {
          "name": "endEntryPricePNS",
          "type": "uint256",
          "indexed": false,
          "internalType": "uint256"
        },
        {
          "name": "effBmfHdths",
          "type": "uint256",
          "indexed": false,
          "internalType": "uint256"
        },
        {
          "name": "decreaseCNS",
          "type": "uint256",
          "indexed": false,
          "internalType": "uint256"
        },
        {
          "name": "balanceCNS",
          "type": "uint256",
          "indexed": false,
          "internalType": "uint256"
        }
      ],
      "anonymous": false
    },
    {
      "type": "event",
      "name": "PositionDecreased",
      "inputs": [
        {
          "name": "perpId",
          "type": "uint256",
          "indexed": false,
          "internalType": "uint256"
        },
        {
          "name": "accountId",
          "type": "uint256",
          "indexed": false,
          "internalType": "uint256"
        },
        {
          "name": "positionType",
          "type": "uint8",
          "indexed": false,
          "internalType": "enum PositionEnum"
        },
        {
          "name": "startDepositCNS",
          "type": "uint256",
          "indexed": false,
          "internalType": "uint256"
        },
        {
          "name": "endDepositCNS",
          "type": "uint256",
          "indexed": false,
          "internalType": "uint256"
        },
        {
          "name": "startLotLNS",
          "type": "uint256",
          "indexed": false,
          "internalType": "uint256"
        },
        {
          "name": "endLotLNS",
          "type": "uint256",
          "indexed": false,
          "internalType": "uint256"
        },
        {
          "name": "deltaPnlCNS",
          "type": "int256",
          "indexed": false,
          "internalType": "int256"
        },
        {
          "name": "fundingCNS",
          "type": "int256",
          "indexed": false,
          "internalType": "int256"
        }
      ],
      "anonymous": false
    },
    {
      "type": "event",
      "name": "PositionDeleveraged",
      "inputs": [
        {
          "name": "perpId",
          "type": "uint256",
          "indexed": false,
          "internalType": "uint256"
        },
        {
          "name": "accountId",
          "type": "uint256",
          "indexed": false,
          "internalType": "uint256"
        },
        {
          "name": "forceClose",
          "type": "bool",
          "indexed": false,
          "internalType": "bool"
        },
        {
          "name": "positionType",
          "type": "uint8",
          "indexed": false,
          "internalType": "enum PositionEnum"
        },
        {
          "name": "entryPricePNS",
          "type": "uint256",
          "indexed": false,
          "internalType": "uint256"
        },
        {
          "name": "refPricePNS",
          "type": "uint256",
          "indexed": false,
          "internalType": "uint256"
        },
        {
          "name": "refIsMark",
          "type": "bool",
          "indexed": false,
          "internalType": "bool"
        },
        {
          "name": "deleveragePricePNS",
          "type": "uint256",
          "indexed": false,
          "internalType": "uint256"
        },
        {
          "name": "deltaPnlCNS",
          "type": "int256",
          "indexed": false,
          "internalType": "int256"
        },
        {
          "name": "fundingCNS",
          "type": "int256",
          "indexed": false,
          "internalType": "int256"
        },
        {
          "name": "startDepositCNS",
          "type": "uint256",
          "indexed": false,
          "internalType": "uint256"
        },
        {
          "name": "endDepositCNS",
          "type": "uint256",
          "indexed": false,
          "internalType": "uint256"
        },
        {
          "name": "startLotLNS",
          "type": "uint256",
          "indexed": false,
          "internalType": "uint256"
        },
        {
          "name": "endLotLNS",
          "type": "uint256",
          "indexed": false,
          "internalType": "uint256"
        },
        {
          "name": "amountCNS",
          "type": "uint256",
          "indexed": false,
          "internalType": "uint256"
        },
        {
          "name": "balanceCNS",
          "type": "uint256",
          "indexed": false,
          "internalType": "uint256"
        }
      ],
      "anonymous": false
    },
    {
      "type": "event",
      "name": "PositionDoesNotExist",
      "inputs": [
        {
          "name": "perpId",
          "type": "uint256",
          "indexed": false,
          "internalType": "uint256"
        },
        {
          "name": "accountId",
          "type": "uint256",
          "indexed": false,
          "internalType": "uint256"
        }
      ],
      "anonymous": false
    },
    {
      "type": "event",
      "name": "PositionIncreased",
      "inputs": [
        {
          "name": "perpId",
          "type": "uint256",
          "indexed": false,
          "internalType": "uint256"
        },
        {
          "name": "accountId",
          "type": "uint256",
          "indexed": false,
          "internalType": "uint256"
        },
        {
          "name": "positionType",
          "type": "uint8",
          "indexed": false,
          "internalType": "enum PositionEnum"
        },
        {
          "name": "leverageHdths",
          "type": "uint256",
          "indexed": false,
          "internalType": "uint256"
        },
        {
          "name": "startDepositCNS",
          "type": "uint256",
          "indexed": false,
          "internalType": "uint256"
        },
        {
          "name": "endDepositCNS",
          "type": "uint256",
          "indexed": false,
          "internalType": "uint256"
        },
        {
          "name": "pricePNS",
          "type": "uint256",
          "indexed": false,
          "internalType": "uint256"
        },
        {
          "name": "startLotLNS",
          "type": "uint256",
          "indexed": false,
          "internalType": "uint256"
        },
        {
          "name": "endLotLNS",
          "type": "uint256",
          "indexed": false,
          "internalType": "uint256"
        }
      ],
      "anonymous": false
    },
    {
      "type": "event",
      "name": "PositionInverted",
      "inputs": [
        {
          "name": "perpId",
          "type": "uint256",
          "indexed": false,
          "internalType": "uint256"
        },
        {
          "name": "accountId",
          "type": "uint256",
          "indexed": false,
          "internalType": "uint256"
        },
        {
          "name": "positionType",
          "type": "uint8",
          "indexed": false,
          "internalType": "enum PositionEnum"
        },
        {
          "name": "leverageHdths",
          "type": "uint256",
          "indexed": false,
          "internalType": "uint256"
        },
        {
          "name": "startDepositCNS",
          "type": "uint256",
          "indexed": false,
          "internalType": "uint256"
        },
        {
          "name": "endDepositCNS",
          "type": "uint256",
          "indexed": false,
          "internalType": "uint256"
        },
        {
          "name": "pricePNS",
          "type": "uint256",
          "indexed": false,
          "internalType": "uint256"
        },
        {
          "name": "startLotLNS",
          "type": "uint256",
          "indexed": false,
          "internalType": "uint256"
        },
        {
          "name": "endLotLNS",
          "type": "uint256",
          "indexed": false,
          "internalType": "uint256"
        },
        {
          "name": "deltaPnlCNS",
          "type": "int256",
          "indexed": false,
          "internalType": "int256"
        },
        {
          "name": "fundingCNS",
          "type": "int256",
          "indexed": false,
          "internalType": "int256"
        }
      ],
      "anonymous": false
    },
    {
      "type": "event",
      "name": "PositionLiquidated",
      "inputs": [
        {
          "name": "perpId",
          "type": "uint256",
          "indexed": false,
          "internalType": "uint256"
        },
        {
          "name": "posAccountId",
          "type": "uint256",
          "indexed": false,
          "internalType": "uint256"
        },
        {
          "name": "positionType",
          "type": "uint8",
          "indexed": false,
          "internalType": "enum PositionEnum"
        },
        {
          "name": "refPricePNS",
          "type": "uint256",
          "indexed": false,
          "internalType": "uint256"
        },
        {
          "name": "refIsMark",
          "type": "bool",
          "indexed": false,
          "internalType": "bool"
        },
        {
          "name": "liqPricePNS",
          "type": "uint256",
          "indexed": false,
          "internalType": "uint256"
        },
        {
          "name": "liqLotLNS",
          "type": "uint256",
          "indexed": false,
          "internalType": "uint256"
        },
        {
          "name": "posLotLNS",
          "type": "uint256",
          "indexed": false,
          "internalType": "uint256"
        },
        {
          "name": "deltaPnlCNS",
          "type": "int256",
          "indexed": false,
          "internalType": "int256"
        },
        {
          "name": "fundingCNS",
          "type": "int256",
          "indexed": false,
          "internalType": "int256"
        },
        {
          "name": "posAmountCNS",
          "type": "int256",
          "indexed": false,
          "internalType": "int256"
        },
        {
          "name": "posDepositCNS",
          "type": "uint256",
          "indexed": false,
          "internalType": "uint256"
        },
        {
          "name": "accAmountCNS",
          "type": "int256",
          "indexed": false,
          "internalType": "int256"
        },
        {
          "name": "accBalanceCNS",
          "type": "uint256",
          "indexed": false,
          "internalType": "uint256"
        },
        {
          "name": "onOrderBook",
          "type": "bool",
          "indexed": false,
          "internalType": "bool"
        }
      ],
      "anonymous": false
    },
    {
      "type": "event",
      "name": "PositionLiquidationCredit",
      "inputs": [
        {
          "name": "perpId",
          "type": "uint256",
          "indexed": false,
          "internalType": "uint256"
        },
        {
          "name": "accountId",
          "type": "uint256",
          "indexed": false,
          "internalType": "uint256"
        },
        {
          "name": "startDepositCNS",
          "type": "uint256",
          "indexed": false,
          "internalType": "uint256"
        },
        {
          "name": "endDepositCNS",
          "type": "uint256",
          "indexed": false,
          "internalType": "uint256"
        }
      ],
      "anonymous": false
    },
    {
      "type": "event",
      "name": "PositionOpened",
      "inputs": [
        {
          "name": "perpId",
          "type": "uint256",
          "indexed": false,
          "internalType": "uint256"
        },
        {
          "name": "accountId",
          "type": "uint256",
          "indexed": false,
          "internalType": "uint256"
        },
        {
          "name": "positionType",
          "type": "uint8",
          "indexed": false,
          "internalType": "enum PositionEnum"
        },
        {
          "name": "leverageHdths",
          "type": "uint256",
          "indexed": false,
          "internalType": "uint256"
        },
        {
          "name": "depositCNS",
          "type": "uint256",
          "indexed": false,
          "internalType": "uint256"
        },
        {
          "name": "pricePNS",
          "type": "uint256",
          "indexed": false,
          "internalType": "uint256"
        },
        {
          "name": "lotLNS",
          "type": "uint256",
          "indexed": false,
          "internalType": "uint256"
        }
      ],
      "anonymous": false
    },
    {
      "type": "event",
      "name": "PositionTypeMismatch",
      "inputs": [
        {
          "name": "perpId",
          "type": "uint256",
          "indexed": false,
          "internalType": "uint256"
        },
        {
          "name": "accountId",
          "type": "uint256",
          "indexed": false,
          "internalType": "uint256"
        },
        {
          "name": "positionType",
          "type": "uint8",
          "indexed": false,
          "internalType": "enum PositionEnum"
        },
        {
          "name": "specifiedType",
          "type": "uint8",
          "indexed": false,
          "internalType": "enum PositionEnum"
        }
      ],
      "anonymous": false
    },
    {
      "type": "event",
      "name": "PositionUnwound",
      "inputs": [
        {
          "name": "perpId",
          "type": "uint256",
          "indexed": false,
          "internalType": "uint256"
        },
        {
          "name": "accountId",
          "type": "uint256",
          "indexed": false,
          "internalType": "uint256"
        },
        {
          "name": "refPricePNS",
          "type": "uint256",
          "indexed": false,
          "internalType": "uint256"
        },
        {
          "name": "positionType",
          "type": "uint8",
          "indexed": false,
          "internalType": "enum PositionEnum"
        },
        {
          "name": "pricePNS",
          "type": "uint256",
          "indexed": false,
          "internalType": "uint256"
        },
        {
          "name": "lotLNS",
          "type": "uint256",
          "indexed": false,
          "internalType": "uint256"
        },
        {
          "name": "depositCNS",
          "type": "uint256",
          "indexed": false,
          "internalType": "uint256"
        },
        {
          "name": "positionFmvCNS",
          "type": "int256",
          "indexed": false,
          "internalType": "int256"
        },
        {
          "name": "paymentCNS",
          "type": "uint256",
          "indexed": false,
          "internalType": "uint256"
        },
        {
          "name": "balanceCNS",
          "type": "uint256",
          "indexed": false,
          "internalType": "uint256"
        }
      ],
      "anonymous": false
    },
    {
      "type": "event",
      "name": "PositionUnwoundWithoutPayment",
      "inputs": [
        {
          "name": "perpId",
          "type": "uint256",
          "indexed": false,
          "internalType": "uint256"
        },
        {
          "name": "accountId",
          "type": "uint256",
          "indexed": false,
          "internalType": "uint256"
        },
        {
          "name": "refPricePNS",
          "type": "uint256",
          "indexed": false,
          "internalType": "uint256"
        },
        {
          "name": "positionType",
          "type": "uint8",
          "indexed": false,
          "internalType": "enum PositionEnum"
        },
        {
          "name": "pricePNS",
          "type": "uint256",
          "indexed": false,
          "internalType": "uint256"
        },
        {
          "name": "lotLNS",
          "type": "uint256",
          "indexed": false,
          "internalType": "uint256"
        },
        {
          "name": "depositCNS",
          "type": "uint256",
          "indexed": false,
          "internalType": "uint256"
        },
        {
          "name": "positionFmvCNS",
          "type": "int256",
          "indexed": false,
          "internalType": "int256"
        },
        {
          "name": "amountOwedCNS",
          "type": "uint256",
          "indexed": false,
          "internalType": "uint256"
        }
      ],
      "anonymous": false
    },
    {
      "type": "event",
      "name": "PostOrderUnderMinimum",
      "inputs": [
        {
          "name": "orderAmountCNS",
          "type": "uint256",
          "indexed": false,
          "internalType": "uint256"
        },
        {
          "name": "minAmountCNS",
          "type": "uint256",
          "indexed": false,
          "internalType": "uint256"
        }
      ],
      "anonymous": false
    },
    {
      "type": "event",
      "name": "PriceAdministratorUpdated",
      "inputs": [
        {
          "name": "priceAdministrator",
          "type": "address",
          "indexed": false,
          "internalType": "address"
        },
        {
          "name": "added",
          "type": "bool",
          "indexed": false,
          "internalType": "bool"
        }
      ],
      "anonymous": false
    },
    {
      "type": "event",
      "name": "PriceMaxAgeUpdated",
      "inputs": [
        {
          "name": "perpId",
          "type": "uint256",
          "indexed": false,
          "internalType": "uint256"
        },
        {
          "name": "maxAgeSec",
          "type": "uint256",
          "indexed": false,
          "internalType": "uint256"
        }
      ],
      "anonymous": false
    },
    {
      "type": "event",
      "name": "PriceOutOfRange",
      "inputs": [
        {
          "name": "minPricePNS",
          "type": "uint256",
          "indexed": false,
          "internalType": "uint256"
        },
        {
          "name": "maxPricePNS",
          "type": "uint256",
          "indexed": false,
          "internalType": "uint256"
        }
      ],
      "anonymous": false
    },
    {
      "type": "event",
      "name": "PriceTolUpdated",
      "inputs": [
        {
          "name": "perpId",
          "type": "uint256",
          "indexed": false,
          "internalType": "uint256"
        },
        {
          "name": "tolPer100k",
          "type": "uint256",
          "indexed": false,
          "internalType": "uint256"
        }
      ],
      "anonymous": false
    },
    {
      "type": "event",
      "name": "ProtocolBalanceDeposit",
      "inputs": [
        {
          "name": "amountCNS",
          "type": "uint256",
          "indexed": false,
          "internalType": "uint256"
        }
      ],
      "anonymous": false
    },
    {
      "type": "event",
      "name": "ProtocolBalanceWithdraw",
      "inputs": [
        {
          "name": "amountCNS",
          "type": "uint256",
          "indexed": false,
          "internalType": "uint256"
        }
      ],
      "anonymous": false
    },
    {
      "type": "event",
      "name": "RecycleBalanceInsufficientSevere",
      "inputs": [
        {
          "name": "accountId",
          "type": "uint256",
          "indexed": false,
          "internalType": "uint256"
        },
        {
          "name": "orderId",
          "type": "uint256",
          "indexed": false,
          "internalType": "uint256"
        },
        {
          "name": "recycleFeeCNS",
          "type": "uint256",
          "indexed": false,
          "internalType": "uint256"
        },
        {
          "name": "recycleBalanceCNS",
          "type": "uint256",
          "indexed": false,
          "internalType": "uint256"
        }
      ],
      "anonymous": false
    },
    {
      "type": "event",
      "name": "RecycleFeeUpdated",
      "inputs": [
        {
          "name": "recycleFeeCNS",
          "type": "uint256",
          "indexed": false,
          "internalType": "uint256"
        }
      ],
      "anonymous": false
    },
    {
      "type": "event",
      "name": "ReferencePriceAgesExceedMax",
      "inputs": [
        {
          "name": "perpId",
          "type": "uint256",
          "indexed": false,
          "internalType": "uint256"
        },
        {
          "name": "markTimestamp",
          "type": "uint256",
          "indexed": false,
          "internalType": "uint256"
        },
        {
          "name": "oracleTimestamp",
          "type": "uint256",
          "indexed": false,
          "internalType": "uint256"
        },
        {
          "name": "timestamp",
          "type": "uint256",
          "indexed": false,
          "internalType": "uint256"
        },
        {
          "name": "maxAgeSec",
          "type": "uint256",
          "indexed": false,
          "internalType": "uint256"
        }
      ],
      "anonymous": false
    },
    {
      "type": "event",
      "name": "ReportAgeExceedsLastUpdate",
      "inputs": [
        {
          "name": "perpId",
          "type": "uint256",
          "indexed": false,
          "internalType": "uint256"
        },
        {
          "name": "lastUpdateTimestamp",
          "type": "uint256",
          "indexed": false,
          "internalType": "uint256"
        },
        {
          "name": "reportValidFromTimestamp",
          "type": "uint256",
          "indexed": false,
          "internalType": "uint256"
        }
      ],
      "anonymous": false
    },
    {
      "type": "event",
      "name": "ReportExpiresTooSoon",
      "inputs": [
        {
          "name": "perpId",
          "type": "uint256",
          "indexed": false,
          "internalType": "uint256"
        },
        {
          "name": "expiresAt",
          "type": "uint256",
          "indexed": false,
          "internalType": "uint256"
        },
        {
          "name": "minRequired",
          "type": "uint256",
          "indexed": false,
          "internalType": "uint256"
        }
      ],
      "anonymous": false
    },
    {
      "type": "event",
      "name": "ReportFromFuture",
      "inputs": [
        {
          "name": "perpId",
          "type": "uint256",
          "indexed": false,
          "internalType": "uint256"
        },
        {
          "name": "reportTimestamp",
          "type": "uint256",
          "indexed": false,
          "internalType": "uint256"
        },
        {
          "name": "blockTimestamp",
          "type": "uint256",
          "indexed": false,
          "internalType": "uint256"
        }
      ],
      "anonymous": false
    },
    {
      "type": "event",
      "name": "ReportPriceIsNegative",
      "inputs": [
        {
          "name": "perpId",
          "type": "uint256",
          "indexed": false,
          "internalType": "uint256"
        },
        {
          "name": "reportPrice",
          "type": "int256",
          "indexed": false,
          "internalType": "int256"
        }
      ],
      "anonymous": false
    },
    {
      "type": "event",
      "name": "SyntheticPriceError",
      "inputs": [
        {
          "name": "perpId",
          "type": "uint256",
          "indexed": false,
          "internalType": "uint256"
        },
        {
          "name": "linkPricePNS",
          "type": "uint256",
          "indexed": false,
          "internalType": "uint256"
        },
        {
          "name": "fundingRatePct100k",
          "type": "int256",
          "indexed": false,
          "internalType": "int256"
        }
      ],
      "anonymous": false
    },
    {
      "type": "event",
      "name": "TakerFeeUpdated",
      "inputs": [
        {
          "name": "perpId",
          "type": "uint256",
          "indexed": false,
          "internalType": "uint256"
        },
        {
          "name": "takerFeePer100K",
          "type": "uint256",
          "indexed": false,
          "internalType": "uint256"
        }
      ],
      "anonymous": false
    },
    {
      "type": "event",
      "name": "TakerOrderFilled",
      "inputs": [
        {
          "name": "pricePNS",
          "type": "uint256",
          "indexed": false,
          "internalType": "uint256"
        },
        {
          "name": "lotLNS",
          "type": "uint256",
          "indexed": false,
          "internalType": "uint256"
        },
        {
          "name": "feeCNS",
          "type": "uint256",
          "indexed": false,
          "internalType": "uint256"
        },
        {
          "name": "amountCNS",
          "type": "int256",
          "indexed": false,
          "internalType": "int256"
        },
        {
          "name": "balanceCNS",
          "type": "uint256",
          "indexed": false,
          "internalType": "uint256"
        }
      ],
      "anonymous": false
    },
    {
      "type": "event",
      "name": "TransferAccountToProtocol",
      "inputs": [
        {
          "name": "accountId",
          "type": "uint256",
          "indexed": false,
          "internalType": "uint256"
        },
        {
          "name": "amountCNS",
          "type": "uint256",
          "indexed": false,
          "internalType": "uint256"
        },
        {
          "name": "balanceCNS",
          "type": "uint256",
          "indexed": false,
          "internalType": "uint256"
        }
      ],
      "anonymous": false
    },
    {
      "type": "event",
      "name": "TransferPerpInsToProtocol",
      "inputs": [
        {
          "name": "perpId",
          "type": "uint256",
          "indexed": false,
          "internalType": "uint256"
        },
        {
          "name": "amountCNS",
          "type": "uint256",
          "indexed": false,
          "internalType": "uint256"
        }
      ],
      "anonymous": false
    },
    {
      "type": "event",
      "name": "TransferProtocolToAccount",
      "inputs": [
        {
          "name": "accountId",
          "type": "uint256",
          "indexed": false,
          "internalType": "uint256"
        },
        {
          "name": "amountCNS",
          "type": "uint256",
          "indexed": false,
          "internalType": "uint256"
        },
        {
          "name": "balanceCNS",
          "type": "uint256",
          "indexed": false,
          "internalType": "uint256"
        }
      ],
      "anonymous": false
    },
    {
      "type": "event",
      "name": "TransferProtocolToPerp",
      "inputs": [
        {
          "name": "perpId",
          "type": "uint256",
          "indexed": false,
          "internalType": "uint256"
        },
        {
          "name": "amountCNS",
          "type": "uint256",
          "indexed": false,
          "internalType": "uint256"
        },
        {
          "name": "toInsuranceFund",
          "type": "bool",
          "indexed": false,
          "internalType": "bool"
        }
      ],
      "anonymous": false
    },
    {
      "type": "event",
      "name": "TransferProtocolToRecycleBal",
      "inputs": [
        {
          "name": "amountCNS",
          "type": "uint256",
          "indexed": false,
          "internalType": "uint256"
        }
      ],
      "anonymous": false
    },
    {
      "type": "event",
      "name": "UnableToCancelOrder",
      "inputs": [
        {
          "name": "perpId",
          "type": "uint256",
          "indexed": false,
          "internalType": "uint256"
        },
        {
          "name": "orderId",
          "type": "uint256",
          "indexed": false,
          "internalType": "uint256"
        }
      ],
      "anonymous": false
    },
    {
      "type": "event",
      "name": "UnityDescentThreshUpdated",
      "inputs": [
        {
          "name": "perpId",
          "type": "uint256",
          "indexed": false,
          "internalType": "uint256"
        },
        {
          "name": "threshHdths",
          "type": "uint256",
          "indexed": false,
          "internalType": "uint256"
        }
      ],
      "anonymous": false
    },
    {
      "type": "event",
      "name": "UnspecifiedCollateral",
      "inputs": [],
      "anonymous": false
    },
    {
      "type": "event",
      "name": "UnsupportedOperation",
      "inputs": [
        {
          "name": "perpId",
          "type": "uint256",
          "indexed": false,
          "internalType": "uint256"
        },
        {
          "name": "opType",
          "type": "uint8",
          "indexed": false,
          "internalType": "enum OpDescEnum"
        }
      ],
      "anonymous": false
    },
    {
      "type": "event",
      "name": "UnwindCompleted",
      "inputs": [
        {
          "name": "perpId",
          "type": "uint256",
          "indexed": false,
          "internalType": "uint256"
        },
        {
          "name": "positionsUnwound",
          "type": "uint256",
          "indexed": false,
          "internalType": "uint256"
        },
        {
          "name": "perpPositionBalanceCNS",
          "type": "uint256",
          "indexed": false,
          "internalType": "uint256"
        }
      ],
      "anonymous": false
    },
    {
      "type": "event",
      "name": "UnwindInitializationCleared",
      "inputs": [
        {
          "name": "perpId",
          "type": "uint256",
          "indexed": false,
          "internalType": "uint256"
        }
      ],
      "anonymous": false
    },
    {
      "type": "event",
      "name": "UnwindInitialized",
      "inputs": [
        {
          "name": "perpId",
          "type": "uint256",
          "indexed": false,
          "internalType": "uint256"
        },
        {
          "name": "sumPositiveFmvCNS",
          "type": "uint256",
          "indexed": false,
          "internalType": "uint256"
        }
      ],
      "anonymous": false
    },
    {
      "type": "event",
      "name": "UnwindInsufficientBalance",
      "inputs": [
        {
          "name": "perpId",
          "type": "uint256",
          "indexed": false,
          "internalType": "uint256"
        },
        {
          "name": "accountId",
          "type": "uint256",
          "indexed": false,
          "internalType": "uint256"
        },
        {
          "name": "perpPositionBalanceCNS",
          "type": "uint256",
          "indexed": false,
          "internalType": "uint256"
        },
        {
          "name": "paymentCNS",
          "type": "uint256",
          "indexed": false,
          "internalType": "uint256"
        }
      ],
      "anonymous": false
    },
    {
      "type": "event",
      "name": "UnwindIterationCompleted",
      "inputs": [
        {
          "name": "perpId",
          "type": "uint256",
          "indexed": false,
          "internalType": "uint256"
        },
        {
          "name": "positionsUnwound",
          "type": "uint256",
          "indexed": false,
          "internalType": "uint256"
        },
        {
          "name": "perpPositionBalanceCNS",
          "type": "uint256",
          "indexed": false,
          "internalType": "uint256"
        }
      ],
      "anonymous": false
    },
    {
      "type": "event",
      "name": "UpdateOracleFailed",
      "inputs": [
        {
          "name": "perpId",
          "type": "uint256",
          "indexed": false,
          "internalType": "uint256"
        }
      ],
      "anonymous": false
    },
    {
      "type": "event",
      "name": "Upgraded",
      "inputs": [
        {
          "name": "implementation",
          "type": "address",
          "indexed": true,
          "internalType": "address"
        }
      ],
      "anonymous": false
    },
    {
      "type": "event",
      "name": "WRLSMinWithdrawLimitUpdated",
      "inputs": [
        {
          "name": "limitCNS",
          "type": "uint256",
          "indexed": false,
          "internalType": "uint256"
        }
      ],
      "anonymous": false
    },
    {
      "type": "event",
      "name": "WRLSThousandthsTvlUpdated",
      "inputs": [
        {
          "name": "thousandthsTvl",
          "type": "uint256",
          "indexed": false,
          "internalType": "uint256"
        }
      ],
      "anonymous": false
    },
    {
      "type": "event",
      "name": "WhitelistAddress",
      "inputs": [
        {
          "name": "addr",
          "type": "address",
          "indexed": true,
          "internalType": "address"
        },
        {
          "name": "whitelisted",
          "type": "bool",
          "indexed": false,
          "internalType": "bool"
        }
      ],
      "anonymous": false
    },
    {
      "type": "event",
      "name": "WhitelistingEnabledChanged",
      "inputs": [
        {
          "name": "enabled",
          "type": "bool",
          "indexed": false,
          "internalType": "bool"
        }
      ],
      "anonymous": false
    },
    {
      "type": "event",
      "name": "WithdrawRateLimitBypassSet",
      "inputs": [
        {
          "name": "addr",
          "type": "address",
          "indexed": true,
          "internalType": "address"
        },
        {
          "name": "enabled",
          "type": "bool",
          "indexed": false,
          "internalType": "bool"
        }
      ],
      "anonymous": false
    },
    {
      "type": "event",
      "name": "WithdrawRateLimitForceReset",
      "inputs": [
        {
          "name": "newExpiryBlock",
          "type": "uint256",
          "indexed": false,
          "internalType": "uint256"
        },
        {
          "name": "newLimitCNS",
          "type": "uint256",
          "indexed": false,
          "internalType": "uint256"
        },
        {
          "name": "perBlockCNS",
          "type": "uint256",
          "indexed": false,
          "internalType": "uint256"
        }
      ],
      "anonymous": false
    },
    {
      "type": "event",
      "name": "WithdrawRateLimitReset",
      "inputs": [
        {
          "name": "newExpiryBlock",
          "type": "uint256",
          "indexed": false,
          "internalType": "uint256"
        },
        {
          "name": "newLimitCNS",
          "type": "uint256",
          "indexed": false,
          "internalType": "uint256"
        },
        {
          "name": "perBlockCNS",
          "type": "uint256",
          "indexed": false,
          "internalType": "uint256"
        }
      ],
      "anonymous": false
    },
    {
      "type": "event",
      "name": "WrongAccountForOrder",
      "inputs": [],
      "anonymous": false
    }
  ],
  "bytecode": {
    "object": "0x60a080604052346100dc57306080525f549060ff8260081c1661008a575060ff80821603610050575b604051620195149081620000e18239608051818181614de20152818161524d0152615a350152f35b60ff90811916175f557f7f26b83ff96e1f2b6a682f133852f6798a09c465da95921460cefb3847402498602060405160ff8152a15f610028565b62461bcd60e51b815260206004820152602760248201527f496e697469616c697a61626c653a20636f6e747261637420697320696e697469604482015266616c697a696e6760c81b6064820152608490fd5b5f80fdfe6104c080604052600436101562000014575f80fd5b5f905f3560e01c908162092cce1462006b105750806303cfe83c1462006a5757806305aca1411462006a215780630697afae1462006998578063075367f6146200696e5780630a2eb301146200692d5780630d3e87a7146200690f5780630e517f4114620068465780630f03e4c3146200681a5780631201415614620067595780631275d14c146200672457806312e8eb2c1462006673578063156352e614620065c857806316a06593146200653557806316a483ea1462006517578063182b01f214620064cd5780631973c619146200648f5780631df87ade14620064215780631eebd35e14620061d757806320c801d21462006145578063229c249214620060a7578063252c3594146200601c5780632709b7461462005f88578063279289e91462005efb5780632ca0b8121462005e7a5780632f32509b1462005d7357806332b9203b1462005caf5780633659cfe61462005a0a57806338ecd8851462005932578063396d7e4714620058f35780633a63dabe14620058d55780633bf45a2f14620058935780634119f930146200585e57806343559bbf146200581c57806345c8c92414620057815780634a1feb1214620057555780634a9a415814620056c45780634b8344fb14620055fb5780634d3282b414620055845780634d574c5614620054e95780634f1ef286146200520657806350ef5c3514620050995780635180d5a81462004e9e57806352d1902d1462004dc6578063540561191462004d4c57806358087a741462004cc7578063586d92ca1462004c385780635b0c29eb1462004c135780635bf9264c1462004ab15780635e1a35731462004a405780635f40c1f714620049da57806360ad17fd146200487b5780636112fe2e146200477157806361bd6f44146200469a578063653a6bd714620046435780636728641b14620045e35780636825e9e5146200455a5780636975215914620044335780636b69ebbe14620042885780636debf8fa1462004234578063715018a614620041c7578063751de4211462003fc05780637962f9101462003ebb57806379ba50971462003e205780637b158d681462003d8d5780637cca3b061462003c3b5780637d45678e1462003b725780637dd7e7591462003b3a5780637ddbdc2a1462003a7257806387c9505814620039b0578063893d20e8146200356d5780638a92464014620038da5780638bc5b3c514620038665780638bcf1b2714620037185780638c031164146200364e5780638c1c2cef14620035955780638da5cb5b146200356d5780638f3ffc8514620034ff57806392f54b3a1462002d945780639a6d76301462002d3f5780639c64b2b51462002c255780639d2ec1881462002b7c5780639e430eda146200292e5780639fc8afd714620028ad5780639fffdfe21462002886578063a5e9c41114620027cf578063a9bd5cee146200270c578063abce7b201462002670578063ae0d4442146200262f578063b10824861462002567578063b216d0d214620024df578063b5fcf76214620024b3578063bad4a01f1462002471578063bbf979ac14620023f8578063be0783f51462002384578063be70473d14620022a3578063bed97b71146200223d578063c2852f381462002164578063c4d66de81462001eb1578063c7ff15841462001e88578063cab139151462001cb4578063cdc4c4c41462001be0578063d360dd311462001b70578063d3b8c49d1462001a16578063d541abc1146200196b578063d6f34bd614620018f0578063d780ece81462001865578063d8b442681462001824578063d936547e14620017e2578063dbfbf7e814620017a1578063dec92b691462001781578063e2e1cb5714620016d6578063e30c397814620016ad578063e548bb5714620012de578063e68073c31462001222578063e74e2c9b14620011cd578063ed6760fe14620010f7578063edb1314e14620010c2578063efb629041462000ffa578063f12bb3891462000f95578063f28b98f31462000ef5578063f2fde38b1462000e7f578063f75283da1462000dbc578063f769f0d31462000d07578063fb05acb714620007ca578063fb455f6b14620007595763fe37fe121462000613575f80fd5b346200075657620006243662006fe0565b9082918360108192620006476200063c84966200914e565b91600983016200c7b6565b50910190805b6200068257505050906200067e91604051948594859094939260609260808301968352602083015260408201520152565b0390f35b8252806020526040822054946200069f60ff8760201c166200ee6e565b620006b363ffffffff8860781c166200e691565b620007085715620006e557620006d861ffff9164ffffffffff8860401c169062007e6e565b955b60c81c16806200064d565b94926200070161ffff9164ffffffffff8660401c169062007e6e565b93620006da565b959690951562000733576200072c61ffff9164ffffffffff8960401c169062007e6e565b96620006da565b95936200074f61ffff9164ffffffffff8760401c169062007e6e565b94620006da565b80fd5b503462000756576200076b3662006fe0565b919062ffffff8311620007b057602092600c6200078c62000793936200914e565b016200ed54565b905f198214620007a7575b50604051908152f35b90505f6200079e565b5060449163c6ebaaa160e01b825260045262ffffff602452fd5b50346200075657620007dc36620071fa565b60a09291925260c052620007ef6200919f565b620007fc60c0516200914e565b9160018301548060f81c1562000cf25760f01c60ff161562000cdd5760ff600284015460e81c161562000c85575b6001600160501b038354166004840154608052600584015463ffffffff600186015460201c16839163ffffffff601188015416925b8315158062000c7b575b1562000c6e5783865260128801602052604086209380875260d56020526040872090848654620008d7620008c28d64ffffffffff8460b81c169063ffffffff8560981c16908560e01c908760ff8860401c16916200c62b565b50506001600160501b038360481c166200bf7f565b8a918280831362000a4d575b936200099b9363ffffffff93620009a89793620009ae9a99975f14620009b457917f2ce44e296cf9f36d06b56fb77dfebb744f984a66a7a32a9c1982adde5719a10893916001600160501b03610120946040519460c051865288602087015260408601526200095c6060860160ff8360401c166200723a565b888160981c16608086015264ffffffffff8160b81c1660a086015260481c1660c084015260e0830152610100820152a15b9854169760118d01620125dc565b600560c05191016201272c565b62007d9c565b6200085f565b610140927f8e75a224410b0b5b54b88738c69eb996a4225e1720432903a1b03693c3fcb6f894926001600160501b03808b5416936040519560c0518752896020880152604087015262000a116060870160ff8360401c166200723a565b898160981c16608087015264ffffffffff8160b81c1660a087015260481c1660c085015260e0840152610100830152610120820152a16200098d565b608051909450919250901562000c675762000a7660805162000a70848a62007924565b6200b6cf565b80938b82115f1462000c29575060019060a0511562000abc57509388620009ae9796946200099b9463ffffffff94620009a8985b9397999a5093975093509350620008e3565b969a9b9d9c50505050509450507f8c6452308f4aa5da3dd7582bf4f08c41c0bd9378806d96ce939fbddad72bf926925062000b1a9150604051918291878660c051859094939260609260808301968352602083015260408201520152565b0390a15b1562000b8357825469ffffffffffffffffffff19166001600160501b038316179092556040805160c051815260208101939093528201527fbdbd36cd24c97780cb0f5652a6498a852056dcb4863f8714110142e501b251449080606081015b0390a180f35b6040805160c05181526020810192909252810182905262000bdc91907fefeda965577e696236292c2f584176f4a4f16d597d0a0818a3836f146b071ce990606090a1825469ffffffffffffffffffff191683556200c893565b60018101805460ff60f01b191690556002810180546005830184905560049092018390557fffff00ffffffffffffffffffffffffffffffffffffff00000000000000000000909116905580f35b919294909a62000c3f8c8b92999896996200796a565b9b62000c4c90866200b6a3565b620009ae97620009a8966200099b9563ffffffff9562000aaa565b8a62000a76565b9394969550505062000b1e565b5086811062000869565b62000cb26001600160501b03845460501c1669ffffffffffffffffffff60501b198554168555846200b6a3565b82546001600160501b0316600584015560028301805460ff60e81b1916600160e81b1790556200082a565b631750b76d60e11b815260c051600452602490fd5b631512f56d60e31b825260c051600452602482fd5b5034620007565762000d193662006fe0565b62000d269291926200926c565b62000dad5762000d36336200995c565b80835260d5602052604083209360ff855460a01c1662000d568162006f4c565b8062000d8e575062000d68906200914e565b93821562000d7f5762000d7c93946200eb72565b80f35b631fccd51f60e01b8452600484fd5b63e0860e5f60e01b8552602490859062000da88162006f4c565b600452fd5b630b15863d60e41b8252600482fd5b5034620007565762000dce3662006fe0565b33835260dc60205260ff6040842054161562000e6c5762000dee6200926c565b62000e5d576103fc821162000e49577fec6840031b1a62fe8b6af132515a91284d68ea4e37bec84708f14e3693da47d09181600462000e2f604094620091f8565b01828652602052848381205582519182526020820152a180f35b63324f0d9160e21b83526004829052602483fd5b630b15863d60e41b8352600483fd5b631d37e03560e31b835233600452602483fd5b50346200075657602036600319011262000756576001600160a01b0362000ea562006fc9565b62000eaf6200919f565b16806001600160a01b031960655416176065556001600160a01b03603354167f38d16b8cac22d99fc7c124b9cd0de2d3fa1faef420bfe791d8c362d765e227008380a380f35b503462000756576020366003190112620007565760043562000f166200919f565b6309c3d8f080821162000f7b575060c95462000f3162009250565b91612710613fff9104831b921b19161760c9557f8ad800de6b48db2a4430821a66e9ea34dee8c66fea63f8a83559bf91279cf77c602062000f716200b7fe565b604051908152a180f35b60649291630c8f0a6960e41b835260045281602452604452fd5b5034620007565762000fa73662006fe0565b9033835260db60205260ff6040842054161562000fe75762000fc86200926c565b62000e5d579062000fdd62000fe3926200914e565b6200d6df565b5080f35b636dfc4d6160e11b835233600452602483fd5b5034620007565762001027600962001012366200721f565b9291620010219491946200919f565b6200914e565b016200103483826200e03b565b600282108015620010b7575b620010995791604091837fbb5907b6810f0c2966db8e0939fbf4a19724f4e58e2bfd1d15195fdf8b4908a2945468ff000000000000000083861b169068ff0000000000000000191617905582519182526020820152a180f35b630c8f0a6960e41b8452600482905260026024526009604452606484fd5b506009821162001040565b5034620007565780600319360112620007565760209060c95490506c1fffffffffffffffffffffffff6040519160701c168152f35b50346200075657620011093662006fe0565b620011136200919f565b6200111e826200914e565b600182108015620011c2575b620011a65760020160ff815460d81c16808311156200118f5750805460ff60e01b191660e083901b60ff60e01b161790557fb0459c2e01b889e7e78bb7d1400cb3049a1d98ef3d6949439b173c5ffba92dd1916040915b82519182526020820152a180f35b630ba8360160e41b85526004526024829052604484fd5b60648483630c8f0a6960e41b8252600452600160245281604452fd5b50606482116200112a565b503462000756577f6bf5f38f4e94f47ae7a4d6e56dbf388c856f890b5f0f2808b66914710b0266ca6040620012023662006fe0565b6200120c6200919f565b62001181816200121c846200914e565b6200df4f565b503462000756576200123436620071fa565b906200123f6200919f565b60c9546001600160701b0316818110620012ca5750916060917fe3bcf60a5994e7328c2ddfbbf2c18d6e57c1cc69502d1ee3900c1e1f08ca555d9362001285836200914e565b620012908262009cc9565b818315620012b957620012a3916200eb54565b604051928352602083015215156040820152a180f35b620012c4916200b6a3565b620012a3565b62fae2d560e21b8552600452602452604483fd5b5034620007565760203660031901126200075657600435906001600160401b03821162000756573660238301121562000756578160040135906001600160401b0382116200075657602483013660248460061b86010111620016a95733825260da60205260ff6040832054161562001696576200135a6200926c565b62000dad5782156200168257803562001373816200914e565b6009810193600182015460f81c93815b878110156200167e578062001640575b6001908760208401358015801562001634575b6200162c57808652600782016020526040862063ffffffff81541615620016235780548863ffffffff821692838a5260d560205260408a2092620013f363ffffffff8260781c166200e691565b9081156200161a575b8115620015fc575b8115620014de575b5015620014a257846200146c81620014979561ffff60027f3669d8cc87cc659246c535cf34b73f019e2da2a48e04d14093701e877fb6eac69b976200145f62001459620014739962008be4565b6200e6cf565b015460a81c16906200e783565b926200eb15565b6040519384938c859094939260609260808301968352602083015260408201520152565b0390a15b0162001383565b505050507fa2f88eaf96334c482f1071c105643f009253e044dc7767b94cd01f787c7d92ad91506040908151908982526020820152a16200149b565b90508a90875461ffff8160301c1661ffff8260201c161162001504575b50505f6200140c565b60ff8160401c166200151c60ff8460201c166200ee6e565b15620015945762ffffff808360781c169260901c1691801515806200158a575b6200154f575b505050505b5f80620014fb565b62ffffff93945082916200156c620015799462001572936200796a565b62011d59565b9062007e6e565b9160281c1611155f80808062001542565b508215156200153c565b62ffffff808360481c169260601c1682151580620015f2575b620015bd575b5050505062001547565b62ffffff93945082916200156c620015da92620015e1956200796a565b906200796a565b9160281c1610155f808080620015b3565b50801515620015ad565b905060ff845460a01c16620016118162006f4c565b15159062001404565b8e9150620013fc565b5050506200149b565b50506200149b565b5061ffff8111620013a6565b600681901b8901602401915081358514620013935794509450905062001666826200914e565b90600982019460018084015460f81c95905062001393565b8280f35b634e487b7160e01b82526032600452602482fd5b63a37849fb60e01b825233600452602482fd5b5080fd5b5034620007565780600319360112620007565760206001600160a01b0360655416604051908152f35b50346200075657620016e83662006fe0565b620016f26200919f565b620016fd826200914e565b600281015461ffff8160c81c16808410156200174557857f9c6091bfb36035e2973fb3ad5c07d8c5d74d0981770feea276a41c4221246f0e604087876200118181896200df84565b6040516322b85af560e11b8152600481018690526024810185905260b89290921c61ffff908116604484015216606482015280608481015b0390fd5b50346200075657806003193601126200075657602060cd54604051908152f35b503462000756576020366003190112620007565760ff60406020926001600160a01b03620017ce62006fc9565b16815260dc84522054166040519015158152f35b503462000756576020366003190112620007565760ff60406020926001600160a01b036200180f62006fc9565b16815261011184522054166040519015158152f35b503462000756576020366003190112620007565760ff60406020926001600160a01b036200185162006fc9565b16815260db84522054166040519015158152f35b5034620007565760203660031901126200075657600435620018866200919f565b600181108015620018e5575b620018c9576020817fc6edc4969138bba547ff56e984b415e7a1ec1181d6199d6946c48e3a858906369260ce55604051908152a180f35b63034bd7dd60e31b8252600160045260fa602452604452606490fd5b5060fa811162001892565b5034620007565760203660031901126200075657600435620019116200919f565b64e8d4a51000811162001950576020817f0fface2454d594caf83c2c1b1f8da428b41a8585fcf72713ea6ce39cd6cba9fc9260cd55604051908152a180f35b6395d41f3f60e01b825260045264e8d4a51000602452604490fd5b503462000756576200197d36620070d3565b9092919233835260da60205260ff6040842054161562001a0357620019a16200926c565b62000e5d576103fc8411620019ef5783835260d96020526040832093620019c8856200b5e5565b620019dd5750600962000d7c9394016200e63f565b63b934a7fb60e01b8452600452602483fd5b63324f0d9160e21b83526004849052602483fd5b63a37849fb60e01b835233600452602483fd5b50346200075657604036600319011262000756576004356001600160401b038111620016a95736602382011215620016a9578060040135906001600160401b03821162001b6c5760248101903660248460071b8301011162001b685762001a7c62006ff7565b9133855260dc60205260ff6040862054161562001b555762001a9d6200926c565b62001b4657831562001b3257803562001ab6816200914e565b92865b8681101562001b2e578062001af7575b60019062001af08762001adf60608801620076c5565b604088013560208901358a6200e523565b0162001ab9565b925060248360071b82010192833580840362001b15575b5062001ac9565b92509350600162001b26836200914e565b949062001b0e565b8780f35b634e487b7160e01b85526032600452602485fd5b630b15863d60e41b8552600485fd5b631d37e03560e31b855233600452602485fd5b8380fd5b8280fd5b50346200075657602036600319011262000756577fa9a3e53f31ef1464015e1b64897b819880bcc9787e25987d6d4336f3613ade2660206001600160a01b0362001bb962006fc9565b62001bc36200919f565b16806001600160a01b031960ca54161760ca55604051908152a180f35b5034620007565762001bf23662006fe0565b919062001bfe6200762f565b506103fc831162001ca15790608092600462001c1c604094620091f8565b019082526020522062001c9f6040519162001c37836200740d565b5463ffffffff8116835261ffff6020840163ffffffff8360201c16815263ffffffff6040860191838560401c16835262001c7c60ff606089019660501c168662007e7c565b81604051975116875251166020860152511660408401525160608301906200723a565bf35b5060249163324f0d9160e21b8252600452fd5b503462000756576020366003190112620007565760043562001cd56200d940565b62001cdf6200926c565b62000dad5733825261011060205260ff60408320541662001e755760ff61011254168062001e5c575b62001e495760cd54811062001e335733825260d660205260408220548062001e1d575060d754906001820180831162001e095763ffffffff811162001dfa579060209362001ded9260d75583815260d585528360406001818420019283546bffffffffffffffffffffffff80193360601b16911617845533815260d68852205563ffffffff8085161663ffffffff198254161790557f7325fb14450d3e5eb288c620b4ff1d6b43a41b33b4a4f143ae88cd4c12f99ea36040518062001de4863383602090939291936001600160a01b0360408201951681520152565b0390a16200e0ea565b6001609755604051908152f35b634e5bb58160e01b8452600484fd5b634e487b7160e01b84526011600452602484fd5b630c8c12bd60e31b835233600452602452604482fd5b630cfe73bb60e41b825233600452602452604490fd5b636f8bf18b60e11b825233600452602482fd5b5033825261011160205260ff6040832054161562001d08565b6371fa9c9960e01b825233600452602482fd5b50346200075657806003193601126200075657602062001ea76200926c565b6040519015158152f35b503462000756576020366003190112620007565762001ecf62006fc9565b815460ff8160081c16159182809362002156575b80156200213d575b15620020d25760ff19821660011784556001600160a01b039183620020c0575b5016806001600160a01b031960cb54161760cb5560405163313ce56760e01b8152602081600481855afa8015620020b557849062002071575b60ff9150169060068203620020565750506305f5e10060cd55600160d7819055606460ce5564e8d4a5100060d355610112805460ff1916909117905560c980547ffffffff8001fffffffffffffffffffffffffffffffffffffffffffffffffffff167b01400000000000000000000000000000000000000000000000000000179055815462001fe49060081c60ff1662001fde816200e5cc565b6200e5cc565b62001fef336200de0a565b8154906200201360ff8360081c1662002008816200e5cc565b62001fde816200e5cc565b600160975562002021575080f35b61ff00191681557f7f26b83ff96e1f2b6a682f133852f6798a09c465da95921460cefb3847402498602060405160018152a180f35b630f30f42960e01b8452600452602452506006604452606490fd5b506020813d602011620020ac575b816200208e602093836200747e565b8101031262001b68575160ff8116810362001b685760ff9062001f44565b3d91506200207f565b6040513d86823e3d90fd5b61ffff19166101011784555f62001f0b565b60405162461bcd60e51b815260206004820152602e60248201527f496e697469616c697a61626c653a20636f6e747261637420697320616c72656160448201527f647920696e697469616c697a65640000000000000000000000000000000000006064820152608490fd5b50303b15801562001eeb5750600160ff83161462001eeb565b50600160ff83161062001ee3565b503462000756576020366003190112620007565733815260da60205260ff604082205416156200222a57620021986200926c565b6200221b57620021aa6004356200914e565b600181019081549160018360f81c151503620021c4578380f35b600260409261ffff927f2bf3500d8e3b78624f68716bdcfccb30df6b6ef393561a3ffa32e8d357ac7e43956001600160f81b03600160f81b9116179055015460a81c16815190815260016020820152a15f80808380f35b630b15863d60e41b8152600490fd5b63a37849fb60e01b815233600452602490fd5b503462000756578060031936011262000756576200225a6200919f565b8060cf558060d0558060d1558060d2557f4a1c1830c45941cc05cf110c5d7424a3e493f0e42be2522c05ab26c0221062cf6060604051838152836020820152836040820152a180f35b50346200075657620022b536620071ba565b9033845260da60205260ff60408520541615620023715790918215159190845b828110620022e1578580f35b806001600160a01b0362002303620022fd600194878762009128565b62009139565b1687526101116020526200232686604089209060ff801983541691151516179055565b6001600160a01b036200233f620022fd83878762009128565b167f33e0bf3ce98fac4118d5a0a8fe49e83b6acdfdef32871c9eca20e1528d7701ba6020604051888152a201620022d5565b63a37849fb60e01b845233600452602484fd5b5034620007565760203660031901126200075657600435620023a56200919f565b6309c3d8f080821162000f7b575060c954612710613fff920460d51b9160d51b19161760c9557f4151e59ddd8ffe35ce0b539f837d353ed0ff884e058b715910c7f4688a5da736602062000f7162009ca5565b503462000756576080366003190112620007565733815260dc60205260ff604082205416156200245e576200242c6200926c565b6200221b576200243e6004356200914e565b606435801515810362001b6c5762000d7c9160443590602435906200e1d6565b631d37e03560e31b815233600452602490fd5b50346200075657602036600319011262000756576200248f6200d940565b620024996200926c565b6200221b57620024ab6004356200e0ea565b600160975580f35b5034620007565780600319360112620007565760209060c95490506001600160701b0360405191168152f35b50346200075657608036600319011262000756576004356044356001600160401b03811162001b6c576200251890369060040162007027565b916200252362007017565b9333815260dc60205260ff604082205416156200245e57620025446200926c565b6200221b57602062001ea78686866024358762002561816200914e565b6200b878565b503462000756576200257936620071ba565b9033845260da60205260ff60408520541615620023715790918215159190845b828110620025a5578580f35b806001600160a01b03620025c1620022fd600194878762009128565b168752610110602052620025e486604089209060ff801983541691151516179055565b6001600160a01b03620025fd620022fd83878762009128565b167f78ba4d4e021eac2ff3a6a2337dc61ca2b49986705a2438b5764b9c18bd1c25fd6020604051888152a20162002599565b503462000756576020366003190112620007565760ff60406020926001600160a01b036200265c62006fc9565b16815260dd84522054166040519015158152f35b50346200075657602036600319011262000756576004356001600160401b038111620016a95736602382011215620016a9578060040135916001600160401b03831162000756573660248460091b84010111620007565733815260da60205260ff604082205416156200222a57620026e76200926c565b6200221b576200067e620026ff846024850162008f5b565b604051918291826200705a565b50346200075657604036600319011262000756577f6259c67b83c17d274bef178edcf79755337c12fdc6de65b955b5ab3f95e82e056200274b62006fc9565b6200275562006ff7565b90620027606200919f565b8115620027ac576001600160a01b038116845260db60205260408420805460ff191660011790555b604080516001600160a01b0390921682529115156020820152908190810162000b7d565b6001600160a01b038116845260db60205260408420805460ff1916905562002788565b50346200075657620027e13662006fe0565b620027eb6200919f565b620027f6826200914e565b60018101908154908160f81c15620028725760ff8260f01c166200285e5760040183905560ff60f01b1916600160f01b1790556040805192835260208301919091527f7101921841f3f86b1db94836f0b095d276833a7b6669c5d7628161978ae7e68691a180f35b633e626edf60e01b86526004859052602486fd5b631512f56d60e31b86526004859052602486fd5b503462000756578060031936011262000756576020620028a56200b6ee565b604051908152f35b5034620007565760a03660031901126200075657620028cb620071a6565b90620028d662007017565b60843590811515820362001b6c5733835260db60205260ff6040842054161562000fe757620029046200926c565b62000e5d5762000d7c929363ffffffff620029216004356200914e565b911690602435906200cf2e565b50346200075657604036600319011262000756576004356200294f62006ff7565b620029596200919f565b62002964826200914e565b901591828062002b69575b620029d5575b507f2bf3500d8e3b78624f68716bdcfccb30df6b6ef393561a3ffa32e8d357ac7e439161ffff60028360016040950193159380546001600160f81b0360ff60f81b8760f81b169116179055015460a81c169082519182526020820152a180f35b600182015460ff8160f01c1662002b5557600283015460f01c60ff1662002b03576001600160a01b0360ca54168015801562002af6575b62002ad6575060601c63ffffffff161562002ac457507f2bf3500d8e3b78624f68716bdcfccb30df6b6ef393561a3ffa32e8d357ac7e439161ffff60026040935b805463ffffffff8160a01c161562002a6c575b50935050509162002975565b7fffffffffffffffff00000000ffffffffffffffffffffffffffffffffffffffff77ffffffff000000000000000000000000000000000000000062002ab1436200e09a565b91505060a01b1691161781555f62002a60565b630c5eed9d60e11b8452600452602483fd5b8583606492600687015491631744ee4f60e31b8452600452602452604452fd5b5060068401541562002a0c565b60201c63ffffffff161562002b4357507f2bf3500d8e3b78624f68716bdcfccb30df6b6ef393561a3ffa32e8d357ac7e439161ffff600260409362002a4d565b63136618cd60e01b8452600452602483fd5b633e626edf60e01b85526004829052602485fd5b5060018083015460f81c1515146200296f565b5034620007565762002b8e3662006fe0565b62002b986200919f565b62002ba3826200914e565b620186a0821162002bfe57805462ffffff60e01b191660e083901b62ffffff60e01b161790556040805192835260208301919091527f95e1172237a02916c6d5aba284d04aa4e02e876b0c666387d62f03d0cd77719a91a180f35b60020154630dbcc17f60e31b845260a81c61ffff16600452602452620186a0604452606482fd5b503462000756576020366003190112620007565760043562002c466200926c565b62000dad5762002c56336200995c565b60ff62002c6382620091f8565b5460a01c1662002c738162006f4c565b8062002d255750601262002c87836200914e565b018184526020526040832064ffffffffff815460b81c161562002d0e579164ffffffffff60a0927fca2b8f16356ee341ab16bc4651db6b07efbca1bb9f20a9984f73bb9041e8a4a2945490604051938452602084015262002cf26040840160ff8360401c166200723a565b63ffffffff8160981c16606084015260b81c166080820152a180f35b50604492916334a4033d60e11b8352600452602452fd5b63e0860e5f60e01b8452602490849062000da88162006f4c565b503462000756577f672c0a156ee23d5a79ee89b233d6d30458115eabf152fb294cb8a894eadeeb11604062002d743662006fe0565b62002d7e6200919f565b620011818162002d8e846200914e565b6200dfc7565b34620034fb57610140366003190112620034fb576004356001600160401b038111620034fb5762002dca90369060040162007518565b906024356001600160401b038111620034fb5762002ded90369060040162007518565b9290604435916064359160843560a4356101043597610124359062002e116200919f565b62002e1b6200d940565b60508611620034ac57601081116200345d576103fc88116200344a57875f5260d960205260405f209562002e4f876200b5e5565b6200343757600662002e62858762007e6e565b116200340c5760078701996001600160401b0382116200334f5762002e888b5462007548565b601f8111620033d8575b505f90601f83116001146200336f5762002ec492915f918362003363575b50508160011b915f199060031b1c19161790565b89555b60088601946001600160401b0382116200334f5762002ee7865462007548565b601f81116200330f575b505f90601f8311600114620032a65762002f2292915f91836200329a5750508160011b915f199060031b1c19161790565b84555b60028501805461ffff60a81b191660a889901b61ffff60a81b16178155986001860180546001600160f81b0316600160f81b17815593600681116200328357845460ff60e01b191660e09190911b60ff60e01b16178455600683116200326b57835460ff60e81b191660e884901b60ff60e81b1617845562002faa60c435876200dda8565b62002fb860e435876200df4f565b81811015620032565762002fe4929162002fd762002fde92886200df84565b866200deee565b62008ec5565b80620f42400290620f424082040362003242576200300390846200dfc7565b865461ffff60d81b19167c5f5a000000000000000000000000000000000000000000000000000000178755600a83018054600985019491901562003222575b5063feffffff8086116200320c5750835463ffffffff191663ffffffff861617845581547a3c138800000000000000000000000000000000000000000000000063ffffffff60c01b19909116178255875461ffff60981b1916742710000000000000000000000000000000000000001788557f0b2efc0af76436c4033a79c6ea9b6120b41fd2abd5fdb32a0bca3b28fb1f4dd29761ffff9460ff939192620031b0929160039190620030f761d8ef826200e03b565b805468ff0000000000000000191668020000000000000000179055805462ffffff60e01b1916610c3560e41b1781550180547a010061a80061a80061a801731800823500823500000000000000007fffffffffff00000000000000000000000000000000000000ffffffffffffffff90911617905560d8546200317a9062007d9c565b60d85554915493620031a1604051998a998a5261016060208b01526101608a019062008ed4565b9088820360408a015262008ed4565b948160f81c151560608801526080870152818160e01c1660a087015260e81c1660c0850152818160781c1660e0850152818160881c16610100850152818160b81c1661012085015260c81c166101408301520390a16001609755005b856395d41f3f60e01b5f5260045260245260445ffd5b5f1990555f8052600b810160205260405f20600181541790558862003042565b634e487b7160e01b5f52601160045260245ffd5b6322e659c160e11b5f5260045260245260445ffd5b826395d41f3f60e01b5f52600452600660245260445ffd5b6395d41f3f60e01b5f52600452600660245260445ffd5b013590508c8062002eb0565b601f19831691875f5260205f20925f5b818110620032f65750908460019594939210620032dc575b505050811b01845562002f25565b01355f19600384901b60f8161c191690558b8080620032ce565b91936020600181928787013581550195019201620032b6565b6200333d90875f5260205f20601f850160051c8101916020861062003344575b601f0160051c019062008e4c565b8b62002ef1565b90915081906200332f565b634e487b7160e01b5f52604160045260245ffd5b013590508d8062002eb0565b601f198316918c5f5260205f20925f5b818110620033bf5750908460019594939210620033a5575b505050811b01895562002ec7565b01355f19600384901b60f8161c191690558c808062003397565b919360206001819287870135815501950192016200337f565b62003405908c5f5260205f20601f850160051c810191602086106200334457601f0160051c019062008e4c565b8c62002e92565b60848985876040519263bc42e62760e01b845260048401526006602484015260448301526064820152fd5b8863c401953760e01b5f5260045260245ffd5b8763324f0d9160e21b5f5260045260245ffd5b60808582604051938492631ffb247760e11b84526060600485015281606485015260848401375f8360048385010101526004601f19601f83011683010190602483015260106044830152030190fd5b60405163ab94bf3960e01b8152606060048201526064810187905260808188808d60848401375f8360048385010101526004601f19601f83011683010190602483015260506044830152030190fd5b5f80fd5b34620034fb576040366003190112620034fb576004356024356001600160401b038111620034fb5762003537903690600401620074f7565b620035416200926c565b6200355e5781620035566200355c936200914e565b62009b8e565b005b630b15863d60e41b5f5260045ffd5b34620034fb575f366003190112620034fb5760206001600160a01b0360335416604051908152f35b34620034fb576020366003190112620034fb57620035b5600435620091f8565b8054908160f01c90620035c88262007d43565b91600263ffffffff5f9560b01c169201915b8015158062003644575b1562003634575f528160205263ffffffff60405f2062003628620036088762007d9c565b96620036148362007dab565b62003620828962007a68565b528662007a68565b505460201c16620035da565b604051806200067e86826200710a565b50818510620035e4565b34620034fb576200365f3662006fe0565b620036696200919f565b62003674826200914e565b600281015461ffff8160c81c16808410801562003706575b620036cf577f258cfea0edc89c1ba4ce7d75bd475712ab2a06ce19794e2193cbd64f182a3f7860408686620036c281886200deee565b82519182526020820152a1005b60405163be5707cb60e01b8152600481018690526024810185905261ffff918216604482015260b89290921c166064820152608490fd5b5061ffff8260b81c168411156200368c565b34620034fb576020366003190112620034fb575f8080806004354381101562003766575b50906200067e91604051948594859094939260609260808301968352602083015260408201520152565b935050505060cf549060d1549160d25460d054908484115f146200382657505050905061217b810180821162003242579061085f810180911162003242576103e8620037b860ce5460cc549062007924565b0460d3548082115f146200381e57505b61217b810461217b81029181159282810461217b148417156200324257620037f0916200796a565b61085f82029282840461085f14171562003242576200067e92620038149162007e6e565b925b90916200373c565b9050620037c8565b8084116200383c575b6200067e92935062003816565b6200067e926200157283620038566200385c94886200796a565b62007924565b928392506200382f565b34620034fb575f366003190112620034fb5760c060cc5460c9546001600160701b03906c1fffffffffffffffffffffffff6001600160a01b0360cb5416916001600160a01b0360ca5416936040519586528116602086015260701c16604084015260066060840152608083015260a0820152f35b34620034fb576020366003190112620034fb57600435620038fa6200919f565b60c9546001600160701b03168082116200399c575060cc5480821162003987577ffbebce9e66eea6596d62b805af61b4b1ea406128e73ffb928faa091b17d524f960208362003949816200dae8565b620039548162009cc9565b620039628160cc546200796a565b60cc556200397e816001600160a01b0360cb541633906200dc9e565b604051908152a1005b6303dc938760e61b5f5260045260245260445ffd5b62fae2d560e21b5f5260045260245260445ffd5b34620034fb576040366003190112620034fb577f184fbff1cd7a3d3af1fd538263d79328e135402c70c68de9b795ee4fcc0440bc620039ee62006fc9565b620039f862006ff7565b9062003a036200919f565b811562003a4f576001600160a01b0381165f5260da60205260405f20600160ff198254161790555b604080516001600160a01b039092168252911515602082015290819081015b0390a1005b6001600160a01b0381165f5260da60205260405f2060ff19815416905562003a2b565b34620034fb576040366003190112620034fb577ffe982a540a46b78ba39fe94b2fec322414acda6ca69e165520017d474e0dee48606062003ab262006fc9565b62003abc62006ff7565b62003ac66200919f565b62003ad1826200995c565b811562003b17576001600160a01b0383165f5260dd60205260405f20600160ff198254161790555b6001600160a01b0360405193168352602083015215156040820152a1005b6001600160a01b0383165f5260dd60205260405f2060ff19815416905562003af9565b34620034fb57604062003b6362003b5d62003b553662006fe0565b91906200914e565b6200de60565b82519160050b82526020820152f35b34620034fb5762003b833662006fe0565b9062003b8e6200919f565b614e20821162003c2057807f29246c8aee392e4f61a964c88192adac4afc12ed286fcbd7698783763467475f92600162003bca6040946200914e565b0180547fffffffffffff0000ffffffffffffffffffffffffffffffffffffffffffffffff1660c083901b79ffff0000000000000000000000000000000000000000000000001617905582519182526020820152a1005b634dcc027160e11b5f52600452602452614e2060445260645ffd5b34620034fb576020366003190112620034fb5760043562003c5b6200919f565b62003c66816200914e565b600281015464ffffffffff8116159081159162003d78575b50801562003d68575b62003d55576009015460201c61ffff168062003d3f577fc1c33d1bd4abb6d1a8ed08f6a49cdf51c1db8b81ce6810a713fcd0291cc63f97602083805f5260d982525f60116040822082815582600182015582600282015582600382015582600482015582600582015582600682015562003d046007820162008e64565b62003d126008820162008e64565b82600982015582600a82015582600c820155015562003d3360d85462008eb8565b60d855604051908152a1005b9063e47393c360e01b5f5260045260245260445ffd5b50631bb9ae6f60e11b5f5260045260245ffd5b50600181015460f81c1562003c87565b64ffffffffff915060281c1615158362003c7e565b34620034fb5762003d9e3662006fe0565b335f5260dc60205260ff60405f2054161562003e0d5762003dbe6200926c565b6200355e578160409162003df37fe5f6c336d6f09556f9de132773e6c5a8a34c2c4222f52ebbadf4a20682ca7746946200914e565b5062003dff81620091f8565b5082519182526020820152a1005b631d37e03560e31b5f523360045260245ffd5b34620034fb575f366003190112620034fb57336001600160a01b03606554160362003e50576200355c336200de0a565b60405162461bcd60e51b815260206004820152602960248201527f4f776e61626c6532537465703a2063616c6c6572206973206e6f74207468652060448201527f6e6577206f776e657200000000000000000000000000000000000000000000006064820152608490fd5b34620034fb576020366003190112620034fb5762003ed862007007565b62003ee26200926c565b6200355e5762003ef2336200995c565b90815f5260d560205260405f209182549260ff8460a01c169362003f168562006f4c565b8462003fa2577f743a9ef374d6b3c905b8fd725a33cc63980a202108bfd3cbf65e94a23640a02e94507fffffffffffffffffffff00ffffffffffffffffffffffffffffffffffffffffff75ff00000000000000000000000000000000000000000085151560a81b16911617905562003a4a60405192839283909291602090604083019483521515910152565b63e0860e5f60e01b5f528462003fb88162006f4c565b60045260245ffd5b34620034fb5762003fe862003fd53662006fe0565b919062003fe162008803565b506200914e565b815f526012810160205260405f20604051906200400582620073d4565b549163ffffffff83168252602082019163ffffffff8460201c16835260408101916200403860ff8660401c168462007e7c565b60608201936001600160501b038660481c168552608083019563ffffffff8160981c16875260a0840164ffffffffff8260b81c16815260c085019160e01c825262004083846200c56b565b9c9493505050509760058a1015620041915789151580620041bb575b620041a5575b87519760028910156200419157620040da63ffffffff99978b8b998a895116908b8851169264ffffffffff8a5116946200c62b565b9a91989099511696511690519160028310156200419157516001600160501b0316925163ffffffff16935164ffffffffff16945163ffffffff16956040519c620041248e620073f0565b8d5260208d015260408c01526200413f9060608c0162007e7c565b60808a015260a089015260c088015260e08701526101008601526101208501526101408401526040519283620041759162007248565b61016083015261018082016200418b91620072c0565b6101a090f35b634e487b7160e01b5f52602160045260245ffd5b600186015460201c63ffffffff169850620040a5565b5060018a14156200409f565b34620034fb575f366003190112620034fb57620041e36200919f565b6001600160a01b0319606554166065555f6001600160a01b036033546001600160a01b03198116603355167f8be0079c531659141344cd1fd0a4f28419497f9722a3daafe3b4186f6b6457e08280a3005b34620034fb577f8e37539629486a88c6a6083eb90030fb61cb856d56d96f53a326fda0d399ef326040620042683662006fe0565b620042726200919f565b620036c28162004282846200914e565b6200dda8565b34620034fb576101c0366003190112620034fb57620042a6620079e9565b50620042b16200926c565b6200355e57620042c1336200995c565b805f5260d560205260405f209060ff825460a01c16620042e18162006f4c565b801515806200441b575b6200440657506024359062004300826200914e565b90604435936007851015620034fb5760e43580151590818103620034fb5750610104359485151595868103620034fb5750610124359081151597888303620034fb57604098620043f4987fb5197c172faba5dd033bce9dda5c7f7a28a1451f539d3b287a0964c3b9283fa6956101c095506200439c5a948d519687528a60208801526004358e88015260643560608801526080870190620076d3565b60843560a086015260a43560c086015260c43560e086015261010085015261012084015261014083015261014435610160830152610164356101808301526101a0820152a161ffff600284015460781c1692620093c2565b60208251918051835201516020820152f35b63e0860e5f60e01b5f5262003fb88162006f4c565b506044356007811015620034fb5760041415620042eb565b34620034fb576040366003190112620034fb576004356200445362006ff7565b6200445d6200919f565b62004468826200914e565b600281019060ff825460f01c168062004551575b620044dc575b50805460ff60f01b191691151560f081901b60ff60f01b169290921790556040805192835260208301919091527f8ac110193a47d8207dd88897368f2031dd31bfea6bcfd9a2b3ea6759e81c4e1491908190810162003a4a565b6001600160a01b0360ca54168015801562004544575b6200452557506001015460601c63ffffffff161562004512578362004482565b82630c5eed9d60e11b5f5260045260245ffd5b60068592015491631744ee4f60e31b5f5260045260245260445260645ffd5b50600682015415620044f2565b5082156200447c565b34620034fb5760c06200457b6002620045733662006fe0565b92906200914e565b015461ffff8160b81c169164ffffffffff8260501c168261ffff620045bd60ff849660d81c16948560ff8560e01c1697889264ffffffffff8716908b6200dd79565b9160405196875260c81c16602086015260408501526060840152608083015260a0820152f35b34620034fb576020366003190112620034fb576080620046056004356200914e565b60ff600182015460f01c169060ff600282015460e81c1690600560048201549101549160405193151584521515602084015260408301526060820152f35b34620034fb576200465a6009620045733662006fe0565b0162ffffff8211620046805760409162004674916200c7b6565b82519182526020820152f35b5063c6ebaaa160e01b5f5260045262ffffff60245260445ffd5b34620034fb576020366003190112620034fb57600435620046ba6200926c565b6200355e57620046ca336200995c565b90815f5260d560205260405f209160ff835460a01c16620046eb8162006f4c565b6002811462004406575062003a4a6001600160501b03846200472f857f2687926b167b6633deaaa80c3d106be87c0530fbc9ecba972ef8da4a3f2c489b976200d9b8565b506200473c85826200dc85565b62004747856200c893565b5416604051938493849160409194936001600160501b039160608501968552602085015216910152565b34620034fb576020366003190112620034fb57600435620047916200d940565b6200479b6200926c565b6200355e57620047ab336200995c565b90815f5260d560205260405f209160ff835460a01c16620047cc8162006f4c565b80620044065750620047df82846200d9b8565b5060cc548083116200486457506200485a6001600160501b037f8a087568cf2efa04e1e6c72c7f61b68a1ac013d6a33bd6e978e1ba2b4efc04d49462004825856200dae8565b6200483185826200dc85565b6200483f8560cc546200796a565b60cc556200474785336001600160a01b0360cb54166200dc9e565b0390a16001609755005b90506303dc938760e61b5f5260045260245260445ffd5b34620034fb576200488c366200721f565b91620048976200919f565b620048a2816200914e565b620048ae848462007e6e565b90620186a08211620049b057620186a08411620049965760030180546affffff00000000000000001916604085901b6affffff000000000000000016178155620186a085116200497c5780546dffffff00000000000000000000001916605886901b6dffffff000000000000000000000016179055620186a090810390811162003242577f61c468e821b1662263e339e465b2b8aa3c36b504f804ffac4a19ad8eae3df8139362003a4a91604051948594859094939260609260808301968352602083015260408201520152565b846395d41f3f60e01b5f52600452620186a060245260445ffd5b836395d41f3f60e01b5f52600452620186a060245260445ffd5b6084838686604051926334af053b60e21b8452600484015260248301525f60448301526064820152fd5b34620034fb576020366003190112620034fb577f4837c28a17fa53b7af0fe87d3e7cf2a681119d768391e182ed4dfd33497e288f602062004a1a62007007565b62004a246200919f565b151560ff19610112541660ff82161761011255604051908152a1005b34620034fb5762004a6162004a553662006fe0565b919062003fe162008b98565b61ffff821162004a94576010915f520160205261014062004a8560405f2062008be4565b62001c9f6040518092620072ed565b50630c8f0a6960e41b5f526004525f60245261ffff60445260645ffd5b34620034fb576020366003190112620034fb576004356001600160401b038111620034fb5762004ae690369060040162007027565b335f5260db60205260ff60405f2054161562004c005762004b066200926c565b6200355e575f5b81811062004b1757005b62004b2481838562007978565b9060208201359162004b36836200914e565b6040820135936003851015620034fb5760019480860362004b7b57505063ffffffff62004b6a606062004b72940162008e3a565b16906200d3e6565b505b0162004b0d565b8062004bb0575062004ba262004b9a8460c062004ba99601906200799c565b3691620074bc565b9162009990565b5062004b74565b600291501462004bc3575b505062004b74565b8162004bd6606062004bf8940162008e3a565b91608063ffffffff62004bec60a08501620076c5565b9416920135906200c9aa565b848062004bbb565b636dfc4d6160e11b5f523360045260245ffd5b34620034fb575f366003190112620034fb57602060ff61011254166040519015158152f35b34620034fb5762004c493662006fe0565b9062004c546200919f565b62004c5f816200914e565b6001600160501b03815460501c1683811062004cb1577f6cbcbbf194e245478b88cdee7b07dd6402cf492bcef0df03eae198637a0724746040848662004ca681876200c8f5565b620036c2816200c893565b839062fae2d560e21b5f5260045260245260445ffd5b34620034fb576020366003190112620034fb577fb405a09f729f41978995eba596767f10784a912a3e8d56a978e5e167c1b23d7d602062004d0762007007565b62004d116200919f565b60c954811562004d44576001905b600160ff62004d2d62009262565b9316831b921b19161760c9556040519015158152a1005b5f9062004d1f565b34620034fb576020366003190112620034fb577f06d9a2e5d1f47e8b66c517104114f36514593b09c9b90cb622a6883e595d4bcd602060043562004d8f6200919f565b62004d9a816200c893565b62004da88160cc5462007e6e565b60cc556200397e816001600160a01b0360cb5416309033906200c8ab565b34620034fb575f366003190112620034fb576001600160a01b037f000000000000000000000000000000000000000000000000000000000000000016300362004e335760206040517f360894a13ba1a3210667c828492db98dca3e2076cc3735a920a3ca505d382bbc8152f35b60405162461bcd60e51b815260206004820152603860248201527f555550535570677261646561626c653a206d757374206e6f742062652063616c60448201527f6c6564207468726f7567682064656c656761746563616c6c00000000000000006064820152608490fd5b34620034fb5762004eaf36620072ce565b62004ebc9391936200919f565b62004ec7826200914e565b62004ede8262004ed8878762007e6e565b62007e6e565b90620186a082116200506657620186a085116200497c5760030180547fffffffffffffffffffffffff000000ffffffffffffffffffffffffffffffffff16608886901b73ffffff000000000000000000000000000000000016178155620186a086116200504c5780547fffffffffffffffffff000000ffffffffffffffffffffffffffffffffffffffff1660a087901b76ffffff000000000000000000000000000000000000000016178155620186a08311620050325780547fffffffffffff000000ffffffffffffffffffffffffffffffffffffffffffffff79ffffff0000000000000000000000000000000000000000000000808660b81b16169116179055620186a00390620186a0821162003242577f58735d184c71d18d22f8f2eb43be3e299cad7d465faac909163477072a58f9e99460a0946040519485526020850152604084015260608301526080820152a1005b826395d41f3f60e01b5f52600452620186a060245260445ffd5b856395d41f3f60e01b5f52600452620186a060245260445ffd5b5050604051631121702960e01b815260048101929092526024820192909252604481018390526064810191909152608490fd5b34620034fb576020366003190112620034fb575f610100604051620050be81620073b7565b8281528260208201528260408201528260608201528260808201528260a08201528260c08201528260e082015201526003620050fc6004356200914e565b015462ffffff8160401c1662ffffff8260581c16916200511d838362007e6e565b620186a00392620186a08411620032425762ffffff8260881c1662ffffff8360a01c1662ffffff8460b81c16916200515b8362004ed8848462007e6e565b620186a00393620186a08511620032425761012097604051916200517f83620073b7565b888352602083019081526040830191825260ff610100606085019462ffffff8b60701c1686526080810196875260a0810197885260c0810198895260e08101998a52019860d01c16151588526040519889525160208901525160408801525160608701525160808601525160a08501525160c08401525160e0830152511515610100820152f35b6040366003190112620034fb576200521d62006fc9565b6024356001600160401b038111620034fb576200523f903690600401620074f7565b620052ad6001600160a01b037f0000000000000000000000000000000000000000000000000000000000000000166200527b81301415620081c9565b6001600160a01b037f360894a13ba1a3210667c828492db98dca3e2076cc3735a920a3ca505d382bbc5416146200823c565b620052b76200919f565b7f4910fdfa16fed3260ed0e7147f7cc6da11a60208b5b9406d12a635614ffd91435460ff1615620052ee57506200355c906201080b565b6040516352d1902d60e01b81526001600160a01b03831690602081600481855afa5f9181620054af575b506200537a5760405162461bcd60e51b815260206004820152602e60248201527f45524331393637557067726164653a206e657720696d706c656d656e7461746960448201526d6f6e206973206e6f74205555505360901b6064820152608490fd5b7f360894a13ba1a3210667c828492db98dca3e2076cc3735a920a3ca505d382bbc036200545857620053ac836201080b565b7fbc7cd75a20ee27fd9adebab32041f755214dbc6bffa90cc0225b39da2e5c2d3b5f80a28051158015906200544f575b620053e357005b6200355c915f8060405193620053fb6060866200747e565b602785527f416464726573733a206c6f772d6c6576656c2064656c65676174652063616c6c6020860152660819985a5b195960ca1b6040860152602081519101845af462005448620136c4565b9162016b55565b506001620053dc565b60405162461bcd60e51b815260206004820152602960248201527f45524331393637557067726164653a20756e737570706f727465642070726f786044820152681a58589b195555525160ba1b6064820152608490fd5b9091506020813d602011620054e0575b81620054ce602093836200747e565b81010312620034fb5751908562005318565b3d9150620054bf565b34620034fb576020366003190112620034fb57600435620055096200919f565b64e8d4a510008110801562005574575b6200554f576020817f2407f52a609c844e44dbad3e5a8ec9347e6aa702684e124256f81ef7504b9d1b9260d355604051908152a1005b63747693eb60e11b5f5264e8d4a51000600452655af3107a400060245260445260645ffd5b50655af3107a4000811162005519565b34620034fb57620055a36200559936620072ce565b9291909162008c7f565b9060405190604082019260408352815180945260206060840192015f945b808610620055d757505082935060208301520390f35b9092602061014082620055ee6001948851620072ed565b01940195019490620055c1565b34620034fb576200560c36620070a1565b90335f5260da60205260ff60405f20541615620056b1576200562d6200926c565b6200355e576200563d8262006f4c565b8115620056a2577f287a1a0be47186fe812cf10628edc8c56638095124099fea05c3e3f59e3a0dc691620056736040926200995c565b90815f5260d56020526200568a81845f2062007cc0565b82519182526200569a8162006f4c565b6020820152a1005b633f068f8760e11b5f5260045ffd5b63a37849fb60e01b5f523360045260245ffd5b34620034fb57620056e0620056d9366200721f565b9162008856565b906104405191610460519091906040519260808401608085528351809152602060a086019401905f5b8181106200573157505050936200067e918495602086015260408501526060840190620072c0565b909194602061016082620057496001948a5162007248565b01960192910162005709565b34620034fb576200576636620071fa565b90620057716200926c565b6200355e576200355c92620083cf565b34620034fb57620057923662006fe0565b906200579d6200919f565b620057a8816200914e565b620186a083116200503257600301805470ffffff00000000000000000000000000001916607084901b70ffffff0000000000000000000000000000161790556040805191825260208201929092527f82af0435eb6aa1e7cd302eaf1f32e10e8d7bb8e96d1f724a6006fbaa4571890f9190a1005b34620034fb576200582d36620071ba565b90335f5260dc60205260ff60405f2054161562003e0d576200584e6200926c565b6200355e576200355c92620082af565b34620034fb576020366003190112620034fb57602061ffff6002620058856004356200914e565b015460781c16604051908152f35b34620034fb576020366003190112620034fb576001600160a01b03620058b862006fc9565b165f52610110602052602060ff60405f2054166040519015158152f35b34620034fb575f366003190112620034fb576020620028a56200b7fe565b34620034fb576020366003190112620034fb5760406009620059176004356200914e565b015460ff82519161ffff8160301c168352831c166020820152f35b34620034fb576020366003190112620034fb57620059526004356200914e565b600a81015490612020604051916200596b82846200747e565b61010083526020830191601f1901368337600b81015f5b6101008110620059e7575050600961ffff91015460201c166040519260608401948452606060208501525180945260808301915f945b808610620059ce57505082935060408301520390f35b90926020806001928651815201940195019490620059b8565b806001915f528260205260405f205462005a02828862007a68565b520162005982565b34620034fb576020366003190112620034fb5762005a2762006fc9565b62005a636001600160a01b037f0000000000000000000000000000000000000000000000000000000000000000166200527b81301415620081c9565b62005a6d6200919f565b60405190602062005a7f81846200747e565b5f8352808301601f1982013682377f4910fdfa16fed3260ed0e7147f7cc6da11a60208b5b9406d12a635614ffd91435460ff161562005ac65750506200355c91506201080b565b6001600160a01b03839293166040516352d1902d60e01b81528481600481855afa5f918162005c7a575b5062005b525760405162461bcd60e51b815260048101869052602e60248201527f45524331393637557067726164653a206e657720696d706c656d656e7461746960448201526d6f6e206973206e6f74205555505360901b6064820152608490fd5b7f360894a13ba1a3210667c828492db98dca3e2076cc3735a920a3ca505d382bbc0362005c235762005b84836201080b565b7fbc7cd75a20ee27fd9adebab32041f755214dbc6bffa90cc0225b39da2e5c2d3b5f80a283511580159062005c1b575b62005bbb57005b5f80916200355c957f416464726573733a206c6f772d6c6576656c2064656c65676174652063616c6c6040519662005bf56060896200747e565b60278852870152660819985a5b195960ca1b60408701525190845af462005448620136c4565b505f62005bb4565b60405162461bcd60e51b815260048101859052602960248201527f45524331393637557067726164653a20756e737570706f727465642070726f786044820152681a58589b195555525160ba1b6064820152608490fd5b9091508581813d831162005ca7575b62005c9581836200747e565b81010312620034fb5751908762005af0565b503d62005c89565b34620034fb576040366003190112620034fb577ffff8b0b240abf69d0ca9160bd7dcc49339068496d45e0bf7aab7468fc6a6c2c760043562005cf062006ff7565b9062005cfb6200919f565b600362005d08826200914e565b0180547fffffffffff00ffffffffffffffffffffffffffffffffffffffffffffffffffff7aff000000000000000000000000000000000000000000000000000085151560d01b16911617905562003a4a60405192839283909291602090604083019483521515910152565b34620034fb5762005d843662006fe0565b62005d8e6200919f565b62005d99826200914e565b60018210801562005e6f575b62005e525760020160ff815460e01c168083101562005e3c5781547fffffffff00ffffffffffffffffffffffffffffffffffffffffffffffffffffff1660d884901b7bff0000000000000000000000000000000000000000000000000000001617825560408051858152602081018590527ff4b59dd9ee04b23a163fa42f622d424f19a1cc0f76d4455f900106cef0e3c5129190a1005b82630ba8360160e41b5f5260045260245260445ffd5b50630c8f0a6960e41b5f526004526001602452606460445260645ffd5b506064821162005da5565b34620034fb5760c0366003190112620034fb5762005e97620071a6565b60643563ffffffff81168103620034fb5760843561ffff81168103620034fb5760a435916002831015620034fb57335f5260dc60205260ff60405f2054161562003e0d5762005ee56200926c565b6200355e576200355c9360243560043562007e89565b34620034fb576020366003190112620034fb5760043562005f1b6200919f565b6309c3d8f080821162005f6e575060c95460e391612710613fff9104831b921b19161760c9557fcd3426b08e2946f33fe401b723f71049867976631425553ecf95848fc4b088a960206200397e6200b6ee565b90630c8f0a6960e41b5f526004525f60245260445260645ffd5b34620034fb5762005fa562005f9d3662006fe0565b9190620091f8565b905f526003810160205260405f20549061ffff8260401c169062005fc98262007d43565b91600263ffffffff5f95169201915b8015158062006012575b1562003634575f528160205263ffffffff60405f2062006006620036088762007d9c565b505460201c1662005fd8565b5081851062005fe2565b34620034fb576040366003190112620034fb576200603962006fc9565b7f8b91d2cd88f6e870c2beaa65e6299f6dee33511ff403ab0ffb32f926e3a9a28360206001600160a01b036200606e62006ff7565b93620060796200919f565b1692835f5260d482526200609c8160405f209060ff801983541691151516179055565b6040519015158152a2005b34620034fb57620060b83662006fe0565b620060c26200919f565b60c9546001600160701b03168181106200399c5750620060e282620091f8565b9160ff835460a01c16620060f68162006f4c565b6002811462004406575062003a4a6001600160501b037f85b48f5618e9d5b21320fb47ad01cfbf4f739a3e7f7950a445c97099d578911e94620061398562009cc9565b6200474785826200b6a3565b34620034fb576200615636620070d3565b90335f5260da60205260ff60405f20541615620056b157620061776200926c565b6200355e576103fc8311620061c457825f5260d960205260405f20926200619e846200b5e5565b620061b2575060096200355c93016200b60c565b63b934a7fb60e01b5f5260045260245ffd5b8263324f0d9160e21b5f5260045260245ffd5b34620034fb576040366003190112620034fb576004356001600160401b038111620034fb5736602382011215620034fb5780600401356001600160401b038111620034fb576024820136602460a0840285010111620034fb576200623a62006ff7565b90620062456200926c565b6200355e5762006255336200995c565b93845f5260d560205260ff60405f205460a01c16620062748162006f4c565b8062004406575083156200640d5781359462006290866200914e565b9060ff600383015460d01c16335f5260dd60205260ff60405f205416935f5b888110156200355c5780620063cb575b87600186015460f81c62006380578a8860408101358015620063735786806200636a575b620063135791816200630c93608060019796940135928a60206060850135940135918d62009db0565b01620062af565b50505062006353576001907f4cd1188857d86056fa3ff56966c92f1f952217fe7328696137d42b1043a5d91c604080518d8152336020820152a16200630c565b8963099a231160e31b5f526004523360245260445ffd5b508915620062e3565b505050506001906200630c565b620063b8576001907f2d9298a2800f5fd1e25aee8b166aa673704bf4d5e1e346bd5cabc5413b50566660206040518d8152a16200630c565b896316c94c5160e11b5f5260045260245ffd5b60a08102820160240196508635808b03620063e8575b50620062bf565b995091509250620063f9886200914e565b9260ff600385015460d01c16918a620063e1565b634e487b7160e01b5f52603260045260245ffd5b34620034fb576020366003190112620034fb57600435620064416200919f565b60c9546001600160701b03168181106200399c577f3926c691232881614240a3ec84f5910abdac662ecb616cf8ab9b9fe44d932bc8602083620064848162009cc9565b6200397e8162009cf2565b34620034fb576020366003190112620034fb5760406011620064b36004356200914e565b015463ffffffff825191818116835260201c166020820152f35b34620034fb577f287a1a0be47186fe812cf10628edc8c56638095124099fea05c3e3f59e3a0dc66040620056736200650536620070a1565b9190620065116200919f565b6200995c565b34620034fb575f366003190112620034fb576020620028a562009ca5565b34620034fb57620065463662006fe0565b90620065516200919f565b613a988211620065ad57807f70df7db68793145153f083606826dfc0e51ef634e3d99f5a8ff74d7fd27405e692620036c26200658f6040946200914e565b600201805461ffff60981b1916609884901b61ffff60981b16179055565b631b71514f60e11b5f52600452602452613a9860445260645ffd5b34620034fb576060366003190112620034fb576004356001600160401b038111620034fb57620065fd90369060040162007027565b90602435906001600160401b038211620034fb5736602383011215620034fb5781600401356001600160401b038111620034fb573660246101c0830285010111620034fb57604435918215158303620034fb576200665a6200926c565b6200355e576200067e946024620026ff95019162007a7d565b34620034fb576020366003190112620034fb576200067e620066a96200669862006fc9565b620066a262007655565b506200995c565b620067126005620066ba83620091f8565b805460ff8160a01c166001600160501b03600184015460601c9260405197620066e3896200739b565b8852818116602089015260501c166040870152620067018162006f4c565b606086015260808501520162007691565b60a08201526040519182918262006f57565b34620034fb576020366003190112620034fb57602061ffff60026200674b6004356200914e565b015460881c16604051908152f35b34620034fb576040366003190112620034fb577f44f632293c2bd117a0d277a1057b0a5495dfbd57d2e3636bb80f0912ee6d0ba96200679762006fc9565b620067a162006ff7565b90620067ac6200919f565b8115620067f7576001600160a01b0381165f5260dc60205260405f20600160ff19825416179055604080516001600160a01b0390921682529115156020820152908190810162003a4a565b6001600160a01b0381165f5260dc60205260405f2060ff19815416905562003a2b565b34620034fb575f366003190112620034fb5760d7545f1981019081116200324257602090604051908152f35b34620034fb57620068573662006fe0565b620068616200919f565b61012c808211620068f6577fd947284a0ec09f0204c4d87a28d7f12ae5979a8c58b1456b5aa2c5066f9732956040848460016200689e836200914e565b0180547fffffffff0000ffffffffffffffffffffffffffffffffffffffffffffffffffff1660d083901b7bffff00000000000000000000000000000000000000000000000000001617905582519182526020820152a1005b916335d09a8f60e21b5f5260045260245260445260645ffd5b34620034fb575f366003190112620034fb57602060405161217b8152f35b34620034fb576020366003190112620034fb576001600160a01b036200695262006fc9565b165f5260da602052602060ff60405f2054166040519015158152f35b34620034fb576020366003190112620034fb576200698b6200919f565b6200355c600435620098d5565b34620034fb576020366003190112620034fb576004356001600160401b038111620034fb5736602382011215620034fb5780600401356001600160401b038111620034fb573660246101e0830284010111620034fb57335f5260dc60205260ff60405f2054161562003e0d5762006a0e6200926c565b6200355e5760246200355c9201620076e1565b34620034fb576020366003190112620034fb576200067e60043562006a4562007655565b50620067126005620066ba83620091f8565b34620034fb576040366003190112620034fb5760043560243562006a7a6200919f565b62006a85826200914e565b600181015460f81c1562006afd576001600160a01b0360ca5416801562006ade577f9c03c6796385c736172929a88c5f8c4fc7c287d6df80c75f290d4f18ca9ece726040858580600687015582519182526020820152a1005b60068492015491631744ee4f60e31b5f5260045260245260445260645ffd5b82631512f56d60e31b5f5260045260245ffd5b34620034fb576020366003190112620034fb576103808162006b335f936200737e565b60608152606060208201528260408201528260608201528260808201528260a08201528260c08201528260e08201528261010082015282610120820152826101408201528261016082015282610180820152826101a0820152826101c0820152826101e08201528261020082015282610220820152826102408201528261026082015282610280820152826102a0820152826102c0820152826102e082015282610300820152826103208201528261034082015282610360820152015262006c3c60ff62006c036004356200914e565b61ffff60018201549160068101549263ffffffff825481600385015460028601549762006c5460086009890154986040519d8e6200737e565b8d62006c4b6007830162007583565b90520162007583565b60208c0152898660e01c1660408c0152898660e81c1660608c015260808b0152868560c01c1660a08b0152868560d01c1660c08b01526001600160501b03831660e08b01526001600160501b038360501c166101008b0152818560201c166101208b0152818560401c166101408b01528181166101608b015260201c16610180890152818360601c166101a0890152818360801c166101c089015264ffffffffff86166101e089015264ffffffffff8660281c1661020089015260a01c166102208701528060a01c60010b61024087015263ffffffff8116610260870152828460981c1661028087015260f81c15156102a086015263ffffffff81166102c086015262ffffff8160781c166102e086015262ffffff8160901c1661030086015262ffffff8160481c1661032086015262ffffff8160601c1661034086015260201c1661036084015260f01c16151561038082015260405180916020825261038062006de962006dd283516103a060208701526103c086019062006f28565b6020840151858203601f1901604087015262006f28565b916040810151606085015260608101516080850152608081015160a085015260a081015160c085015260c081015160e085015260e08101516101008501526101008101516101208501526101208101516101408501526101408101516101608501526101608101516101808501526101808101516101a08501526101a08101516101c08501526101c08101516101e08501526101e081015161020085015261020081015161022085015261022081015161024085015261024081015160010b6102608501526102608101516102808501526102808101516102a08501526102a081015115156102c08501526102c08101516102e08501526102e081015161030085015261030081015161032085015261032081015161034085015261034081015161036085015261036081015182850152015115156103a08301520390f35b805180835260209291819084018484015e5f828201840152601f01601f1916010190565b600411156200419157565b919091610100606060a06101208401958051855260208101516020860152604081015160408601528281015162006f8e8162006f4c565b838601526001600160a01b0360808201511660808601520151805160a0850152602081015160c0850152604081015160e08501520151910152565b600435906001600160a01b0382168203620034fb57565b6040906003190112620034fb576004359060243590565b602435908115158203620034fb57565b600435908115158203620034fb57565b606435908115158203620034fb57565b9181601f84011215620034fb578235916001600160401b038311620034fb576020808501948460051b010111620034fb57565b60206040818301928281528451809452019201905f5b8181106200707e5750505090565b825180518552602090810151818601526040909401939092019160010162007070565b6040906003190112620034fb576004356001600160a01b0381168103620034fb57906024356004811015620034fb5790565b906040600319830112620034fb5760043591602435906001600160401b038211620034fb57620071069160040162007027565b9091565b60206040818301928281528451809452019201905f5b8181106200712e5750505090565b909192602060c06001926001600160501b0360a0885163ffffffff815116845263ffffffff86820151168685015263ffffffff604082015116604085015260608101516200717c8162006f4c565b606085015260808181015164ffffffffff169085015201511660a082015201940192910162007120565b6044359063ffffffff82168203620034fb57565b6040600319820112620034fb57600435906001600160401b038211620034fb57620071e89160040162007027565b90916024358015158103620034fb5790565b6060906003190112620034fb5760043590602435906044358015158103620034fb5790565b6060906003190112620034fb57600435906024359060443590565b906002821015620041915752565b610140809180518452602081015160208501526040810151604085015262007279606082015160608601906200723a565b6080810151608085015260a081015160a085015260c081015160c085015260e081015160e08501526101008101516101008501526101208101516101208501520151910152565b906005821015620041915752565b6080906003190112620034fb5760043590602435906044359060643590565b61ffff610120809263ffffffff815116855260208101516200730f8162006f4c565b602086015262ffffff604082015116604086015264ffffffffff606082015116606086015282608082015116608086015263ffffffff60a08201511660a08601528260c08201511660c08601528260e08201511660e08601528261010082015116610100860152015116910152565b6103a081019081106001600160401b038211176200334f57604052565b60c081019081106001600160401b038211176200334f57604052565b61012081019081106001600160401b038211176200334f57604052565b60e081019081106001600160401b038211176200334f57604052565b61016081019081106001600160401b038211176200334f57604052565b608081019081106001600160401b038211176200334f57604052565b604081019081106001600160401b038211176200334f57604052565b61014081019081106001600160401b038211176200334f57604052565b60a081019081106001600160401b038211176200334f57604052565b90601f801991011681019081106001600160401b038211176200334f57604052565b6001600160401b0381116200334f57601f01601f191660200190565b929192620074ca82620074a0565b91620074da60405193846200747e565b829481845281830111620034fb578281602093845f960137010152565b9080601f83011215620034fb578160206200751593359101620074bc565b90565b9181601f84011215620034fb578235916001600160401b038311620034fb5760208381860195010111620034fb57565b90600182811c9216801562007578575b60208310146200756457565b634e487b7160e01b5f52602260045260245ffd5b91607f169162007558565b9060405191825f825492620075988462007548565b80845293600181169081156200760b5750600114620075c3575b50620075c1925003836200747e565b565b90505f9291925260205f20905f915b818310620075ee575050906020620075c1928201015f620075b2565b6020919350806001915483858901015201910190918492620075d2565b905060209250620075c194915060ff191682840152151560051b8201015f620075b2565b604051906200763e826200740d565b5f6060838281528260208201528260408201520152565b6040519062007664826200739b565b815f81525f60208201525f60408201525f60608201525f608082015260a06200768c6200762f565b910152565b90604051620076a0816200740d565b6060600382948054845260018101546020850152600281015460408501520154910152565b358015158103620034fb5790565b906007821015620041915752565b9181156200791f5782602084019060408501359462007700866200914e565b935f5b86811015620078ea5780620078af575b8335906200772386838b62009282565b6040860135916007831015620034fb575f600284141580620078a1575b80156200788a575b62007832575060019250805f5260d56020528660405f20916001600160401b038584015460201c169282359384811015620077fb575060ff815460a01c1693620077928562006f4c565b8415620077bb57620077b29450620077ab908262009368565b8a62009508565b505b0162007703565b5050505060207fe0860e5ff8578b025fc8a7f42c449c575b7a19600e8d2b3fd6ab0ae6e2e084039160405190620077f28162006f4c565b8152a1620077b4565b9150507f6be50b396ca4962b3810cd9e65b8160cd24180a1e7adbc2c795e8dd090891284925060209150604051908152a1620077b4565b9050620034fb577fcbb789ca59a70c9d9ac308b2f773480d433619886320ba81e8e871690fc220c360406001936200786e6101208a01620076c5565b6200787c83518093620076d3565b15156020820152a1620077b4565b506200789a6101208901620076c5565b1562007748565b50505f600384141562007740565b6101e08102830160208101955093506040840135808903620078d3575b5062007713565b97509450620078e2876200914e565b945f620078cc565b50955050505050507fc2813e86d911b51775079b03b9fcab443ec450bc1634cf75dd578874a0af7add60205a604051908152a1565b915050565b818102929181159184041417156200324257565b6102fc198101919082116200324257565b6101fc198101919082116200324257565b60fc198101919082116200324257565b919082039182116200324257565b91908110156200640d5760051b8101359060de1981360301821215620034fb570190565b903590601e1981360301821215620034fb57018035906001600160401b038211620034fb57602001918136038313620034fb57565b6001600160401b0381116200334f5760051b60200190565b60405190620079f88262007429565b5f6020838281520152565b9062007a0f82620079d1565b62007a1e60405191826200747e565b828152809262007a31601f1991620079d1565b01905f5b82811062007a4257505050565b60209060405162007a538162007429565b5f81525f838201528282850101520162007a35565b80518210156200640d5760209160051b010190565b909491949392935f5b81811062007bf25750505062007a9c336200995c565b93845f5260d560205260405f209460ff865460a01c1662007abd8162006f4c565b8062004406575062007acf8562007a03565b9586511562007be95785156200640d5782602081013562007af0816200914e565b9161ffff600284015460781c16965f5b8a81101562007bb1578b8a8a8362007b55575b92809262007b3a62007b4d936001968e8e8e8e62007b348f84869162009282565b6200960c565b62007b46838362007a68565b5262007a68565b500162007b00565b5050506101c08102830197508b8a60208a013580870362007b79575b508a62007b13565b955095508699509087818a938762007b9281996200914e565b600281015460781c61ffff169e50939b50929893945092915062007b71565b50985050505050505050507fc2813e86d911b51775079b03b9fcab443ec450bc1634cf75dd578874a0af7add60205a604051908152a1565b50919350505050565b62007bff81838562007978565b90602082013562007c10816200914e565b926040810135600381108015620034fb575f8a8362007c5257505050509262007c499162004ba262004b9a8660c060019801906200799c565b505b0162007a86565b91935091955062007ca157620034fb5760405191825215620041915760408160019460207f74df229c3b7e119176af42fd67d1f14e8e08bdff875d3977a74ad26da66a89c0940152a162007c4b565b508390631d37c8a760e21b5f526044926004521562004191576024525ffd5b9062007ccc8162006f4c565b7fffffffffffffffffffffff00ffffffffffffffffffffffffffffffffffffffff74ff000000000000000000000000000000000000000083549260a01b169116179055565b6040519062007d20826200739b565b5f60a0838281528260208201528260408201528260608201528260808201520152565b9062007d4f82620079d1565b62007d5e60405191826200747e565b828152809262007d71601f1991620079d1565b01905f5b82811062007d8257505050565b60209062007d8f62007d11565b8282850101520162007d75565b5f198114620032425760010190565b9060405162007dba816200739b565b60a06001600160501b0382945463ffffffff8116845263ffffffff8160201c16602085015263ffffffff8160401c16604085015260ff8160601c1662007e008162006f4c565b606085015264ffffffffff8160681c16608085015260901c16910152565b62007e44620075c19460609397969460808401988452602084015260408301906200723a565b01906200723a565b60010190816001116200324257565b62ffffff01908162ffffff116200324257565b919082018092116200324257565b6002821015620041915752565b9294909462007e98846200914e565b9062007ea487620091f8565b9560ff875460a01c1662007eb88162006f4c565b80620044065750875f526012830160205260405f2064ffffffffff815460b81c161562008162575460401c60ff166002851015620041915760028110156200419157848103620080f1575062007f1d63ffffffff80600986015416931692836200b714565b506078420194854211620032425763ffffffff16944286108015620080e7575b620080bd575061ffff1691600183108015620080a8575b6200807157506040519562007f69876200740d565b84875262007ffc61ffff8862007fdb63ffffffff602083018781526004606060408601958b8752019762007f9e8c8a62007e7c565b8d5f5201602052818060405f209e5116168d8319905416178d5551168b9063ffffffff60201b82549160201b169063ffffffff60201b1916179055565b51895469ffff00000000000000001916911660401b61ffff60401b16178855565b5193600285101562004191577fb57717d5054e374702f3afef3e2ba7dd6ff2bf63bb643c3adabb844530ccb24c9760c0976200806e9660ff60501b82549160501b169060ff60501b1916179055604051968752602087015260408601526060850152608084015260a08301906200723a565ba1565b858361ffff6002608494015460b81c1690604051926321b82b4d60e01b845260048401526024830152600160448301526064820152fd5b5061ffff600282015460b81c16831162007f54565b86608491876040519263692f36ed60e11b8452600484015260248301524260448301526064820152fd5b5080861162007f3d565b915050604095507fe5f6c336d6f09556f9de132773e6c5a8a34c2c4222f52ebbadf4a20682ca77469693507ffa8b1174c18b80bd81465d44fd9e02b7253761ac6d4ee5e4563524b2e8d8bcc592915062008152865192839286888562007e1e565b0390a182519182526020820152a1565b505050505050604091507fe5f6c336d6f09556f9de132773e6c5a8a34c2c4222f52ebbadf4a20682ca7746927f6948067a0ba575890268b9a7eaf592a5832287e4402201145ce0768a9d9533fc838051848152836020820152a182519182526020820152a1565b15620081d157565b60405162461bcd60e51b815260206004820152602c60248201527f46756e6374696f6e206d7573742062652063616c6c6564207468726f7567682060448201527f64656c656761746563616c6c00000000000000000000000000000000000000006064820152608490fd5b156200824457565b60405162461bcd60e51b815260206004820152602c60248201527f46756e6374696f6e206d7573742062652063616c6c6564207468726f7567682060448201527f6163746976652070726f787900000000000000000000000000000000000000006064820152608490fd5b9290918215620083935736849003605e190191843583811215620034fb57850192833595620082de876200914e565b925f5b878110156200838857806200834a575b6040870135601e1988360301811215620034fb578701908135916001600160401b038311620034fb57602001918060051b36038313620034fb578762008342916001948d60208d0135908b6200bdc0565b5001620082e1565b95508560051b82013583811215620034fb578201958635808a0362008371575b50620082f1565b9850935062008380886200914e565b935f6200836a565b509650505050505050565b50915050565b949160a09491979693620083be9160c08801998852602088015260408701906200723a565b606085015260808401521515910152565b9190620083dc336200995c565b92620083e884620091f8565b60ff815460a01c16620083fb8162006f4c565b806200440657506200840d826200914e565b9160048201815f528060205260405f209663ffffffff8854168015620087ec578042116200879c57506001600160501b0386116200873e57805f526012850160205260405f209060ff825460401c169360ff8a5460501c1664ffffffffff845460b81c1615620086f5576002811015620041915760028610156200419157808603620086b557506200849f876200c56b565b9497949360058510939291908415806200419157600287148015620086a8575b156200865a575062008617565b156200419157159463ffffffff8c5460201c16968015806200860d575b8015620085f7575b620085a85750506200857c620085336200852062002fde60018c015460ff808260e81c169160e01c1662007e6e565b64ffffffffff845460b81c168762010c37565b9b61ffff6200857060028c015460ff8160e01c169060ff8160d81c169064ffffffffff8160501c16908564ffffffffff82169160b81c166200dcdd565b915460401c1662010c67565b9660648c029b808d04606414901517156200324257620085a188620075c19d62011d59565b986200bfb4565b98509a5050975093507f71fd114d8463356b4bb984454434df34b1c0f67567c216363d8d25836e29c23d9550620085e792604051958695898762008399565b0390a15f526020525f6040812055565b50600181148015620084f15750858810620084f1565b50858811620084e9565b60028e0154604051632317b0b160e11b815260a89190911c61ffff166004820152602481019490945260448401929092526064830191909152608482015260a490fd5b9350505050620041915760048203620084cc5789600161ffff600283015460a81c1691015490634253b25560e01b5f5260045263ffffffff8160601c1660245260a01c60010b60445260645ffd5b50505f60038714620084bf565b93995097509350507ffa8b1174c18b80bd81465d44fd9e02b7253761ac6d4ee5e4563524b2e8d8bcc59450620085e7919350604051938493878562007e1e565b5097509350509550507f6948067a0ba575890268b9a7eaf592a5832287e4402201145ce0768a9d9533fc9250604080925051908482526020820152a15f526020525f6040812055565b92509550935060a091507fbe710e2eaacadf4813e150dbeee7840d88a0ff1bf3cdf156816b8b183485cc2b9260405191858352602083015260408201525f60608201526001600160501b036080820152a15f526020525f6040812055565b6040805185815260208101939093528201524260608201529096509094507fe340e0dc33793d2dd0be71c21050ae4ae5b8f0b8d7cbe40d5e9246d4ba7029ae9350915081905060808101620085e7565b5082631c03858960e31b5f5260045260245260445ffd5b604051906200881282620073f0565b5f610140838281528260208201528260408201528260608201528260808201528260a08201528260c08201528260e082015282610100820152826101208201520152565b919290925f610460525f61044052620088705f936200914e565b610480526011610480510154906200888b610480516200c56b565b99949350505050866104405261046052600586101562004191578515158062008b8c575b62008b71575b8062008b6a575063ffffffff8216945b851562008b5b57508015158062008b4f575b5f610400521562008b4157610400525b620088f561040051620079d1565b6200890460405191826200747e565b610400518152601f196200891b61040051620079d1565b015f5b81811062008b2757505080945b6104005185106200893b57505050565b805f526012610480510160205260405f2090604051916200895c83620073d4565b5463ffffffff81168352602083019063ffffffff8160201c1682526200898c60ff8260401c166040860162007e7c565b6001600160501b038160481c16606085015263ffffffff8160981c16608085015264ffffffffff8160b81c1660a085015260e01c60c084015260408301516002811015620041915762008a0b9063ffffffff60c08601511663ffffffff6080870151169064ffffffffff60a0880151169261046051610480516200c62b565b9263ffffffff808794939451169151166104a0526040860151600281101562004191576001600160501b0360608801511663ffffffff6080890151169062008aa164ffffffffff60a08b0151169363ffffffff60c08c015116956040516104205262008a7a61042051620073f0565b8a610420515260206104205101526104a05160406104205101526060610420510162007e7c565b608061042051015260a061042051015260c061042051015260e061042051015261010061042051015261012061042051015261014061042051015262008b0462008aeb8762007d9c565b966104205162008afc828762007a68565b528462007a68565b5063ffffffff8460201c161462008b22575163ffffffff166200892b565b505050565b60209062008b3462008803565b828286010152016200891e565b5061138861040052620088e7565b506113888110620088d7565b6104405250606093505f925050565b94620088c5565b63ffffffff600161048051015460201c1661046052620088b5565b506001861415620088af565b6040519062008ba78262007445565b5f610120838281528260208201528260408201528260608201528260808201528260a08201528260c08201528260e0820152826101008201520152565b9060405162008bf38162007445565b61012061ffff82945463ffffffff8116845260ff8160201c1662008c178162006f4c565b602085015262ffffff8160281c16604085015264ffffffffff8160401c166060850152818160681c16608085015263ffffffff8160781c1660a0850152818160981c1660c0850152818160a81c1660e0850152818160b81c1661010085015260c81c16910152565b919390936060935f861562008e2f5762008c99856200914e565b9562008ca988600989016200c7b6565b949091821562008e2157508062008e1957505b918015158062008e0d575b1562008e0157919490945b62008cdd83620079d1565b9562008ced60405197886200747e565b838752601f1962008cfe85620079d1565b015f5b81811062008ddd5750506010879801915b8482108062008dd3575b1562008dc757805f528260205262008d3760405f2062008be4565b9162ffffff6040840151168b810362008d9d57508894939291879162008d77908462008d6f8262008d688162007d9c565b9a62007a68565b528b62007a68565b501462008d915761012001519192909161ffff1662008d12565b50505094955050509050565b85608491848e604051936324bfc58760e01b85526004850152602484015260448301526064820152fd5b50969750505050509050565b5080151562008d1c565b60209062008def969395949662008b98565b82828c01015201949293919462008d01565b50936113889162008cd2565b50611388811062008cc7565b905062008cbc565b965050509550505091509190565b505050925050905f90565b3563ffffffff81168103620034fb5790565b81811062008e58575050565b5f815560010162008e4c565b62008e70815462007548565b908162008e7b575050565b81601f5f931160011462008e8d575055565b8183526020832062008eab91601f0160051c81019060010162008e4c565b8082528160208120915555565b801562003242575f190190565b604d81116200324257600a0a90565b5f929181549162008ee58362007548565b808352926001811690811562008f3e575060011462008f0357505050565b5f9081526020812093945091925b83831062008f23575060209250010190565b60018160209294939454838587010152019101919062008f11565b915050602093945060ff929192191683830152151560051b010190565b62008f668262007a03565b928351156200791f5782156200640d5781906040830160608401359362008f8d856200914e565b925f5b87811015620078ea5780620090eb575b600190863562008fb286828b62009282565b805f5260d560205260405f20866001600160401b038583015460201c169281359384811015620090b45750825460ff8160a01c1662008ff18162006f4c565b8062009071575060a81c60ff161562009043576200901462009021948462009368565b60208b0135928a6200977c565b6200902d828c62007a68565b526200903a818b62007a68565b505b0162008f90565b505050507fcb7f793535461714e08fcb65e21b3379d2aedbf9c04354ade356a824dcefe9f55f80a16200903c565b925050507fe0860e5ff8578b025fc8a7f42c449c575b7a19600e8d2b3fd6ab0ae6e2e0840392506020915060405190620090ab8162006f4c565b8152a16200903c565b9150507f6be50b396ca4962b3810cd9e65b8160cd24180a1e7adbc2c795e8dd090891284925060209150604051908152a16200903c565b600981901b8301955060408601935060608601358088036200910f575b5062008fa0565b96509350600162009120876200914e565b949062009108565b91908110156200640d5760051b0190565b356001600160a01b0381168103620034fb5790565b906103fc82116200918c57815f5260d960205260405f209162009171836200b5e5565b156200917a5750565b63264fcda560e11b5f5260045260245ffd5b5063324f0d9160e21b5f5260045260245ffd5b6001600160a01b03603354163303620091b457565b606460405162461bcd60e51b815260206004820152602060248201527f4f776e61626c653a2063616c6c6572206973206e6f7420746865206f776e65726044820152fd5b9063ffffffff82116200923557815f5260d560205260405f2091600183015460601c15620092235750565b6305b58f2560e51b5f5260045260245ffd5b506395d41f3f60e01b5f5260045263ffffffff60245260445ffd5b60e35b600e8101809111620032425790565b6200925362009250565b60018060c9546200927c62009262565b1c161490565b604083013592916007841015620034fb57610160837fb5197c172faba5dd033bce9dda5c7f7a28a1451f539d3b287a0964c3b9283fa695620092ca60e06101c09701620076c5565b620092d96101008401620076c5565b9062009317620092ed6101208601620076c5565b935a97604051998a5260208a0152853560408a0152606086013560608a01526080890190620076d3565b608084013560a088015260a084013560c088015260c084013560e08801521515610100870152151561012086015215156101408501526101408101358285015201356101808301526101a0820152a1565b6001600160401b038211620093a457600101906bffffffffffffffff0000000082549160201b16906bffffffffffffffff000000001916179055565b506395d41f3f60e01b5f526004526001600160401b0360245260445ffd5b929190604051620093d38162007429565b5f81525f602082015280620093ec60016004886200ee9a565b15620094ff5750604435906007821015620034fb5760048214620094e45760ff835460a01c166200941d8162006f4c565b80620044065750600186015460f81c62009480576005821462009468575060061462009456575060019160045f9262007515956200f335565b6001925060049062007515946200f1e6565b949162007515945060019391506101a435926200ec90565b9493505050506001620094c657602061ffff60027f2d9298a2800f5fd1e25aee8b166aa673704bf4d5e1e346bd5cabc5413b50566693015460a81c16604051908152a190565b600261ffff91015460a81c166316c94c5160e11b5f5260045260245ffd5b9462007515945060019392506064359150602435906200f0c6565b94505050505090565b6040515f9392906200951a8162007429565b5f81525f602082015280620095315f88866200ee9a565b156200960257506040860135906007821015620034fb5760048214620095e457600184015460f81c620095a357600582146200958d5750600614620095815750620075159360019284926200f335565b6200751594916200f1e6565b956200751595949291506101a00135926200ec90565b955050507f2d9298a2800f5fd1e25aee8b166aa673704bf4d5e1e346bd5cabc5413b505666925060209150600261ffff91015460a81c16604051908152a190565b959150506200751593505f929160206060830135920135906200f0c6565b9550505050505090565b909493929194604051620096208162007429565b5f81525f602082015280620096378786866200ee9a565b156200977157506040840135906007821015620034fb5760048214620097535760ff835460a01c166200966a8162006f4c565b806200970c5750600184015460f81c620096c65760058214620096ae5750600614620096a057509062007515945f93926200f335565b90620075159593506200f1e6565b969293620075159695506101a091500135926200ec90565b9650505092915050620094c657602061ffff60027f2d9298a2800f5fd1e25aee8b166aa673704bf4d5e1e346bd5cabc5413b50566693015460a81c16604051908152a190565b969550965050505050620044065760207fe0860e5ff8578b025fc8a7f42c449c575b7a19600e8d2b3fd6ab0ae6e2e0840391604051906200974d8162006f4c565b8152a190565b9693929150506200751594935060206060830135920135906200f0c6565b965050505050505090565b9391939290925f93604051620097928162007429565b5f81525f602082015280620097a95f86866200ee9a565b156200977157506040840135906007821015620034fb5760048214620098b55760ff835460a01c16620097dc8162006f4c565b80620098785750600184015460f81c620098135760058214620096ae5750600614620096a05750906200751594600193926200f335565b9650505092915050806200985b5750602061ffff60027f2d9298a2800f5fd1e25aee8b166aa673704bf4d5e1e346bd5cabc5413b50566693015460a81c16604051908152a190565b61ffff6002602493015460a81c166316c94c5160e11b8252600452fd5b945096505050507fe0860e5ff8578b025fc8a7f42c449c575b7a19600e8d2b3fd6ab0ae6e2e08403925060209150604051906200974d8162006f4c565b9693929150506200751594505f935060206060830135920135906200f0c6565b620098e0816200914e565b600181019081549060ff8260f01c1615620099565760ff600282015460e81c1662009943579160ff60f01b197fd92eee87539b24ad02a6f03980106354cd078a3eb9c2c4257685215063c61ecd94925f60046020960155169055604051908152a1565b83633534376760e21b5f5260045260245ffd5b50505050565b6001600160a01b031690815f5260d660205260405f20549182156200997e5750565b6303a0e27760e01b5f5260045260245ffd5b9291905f9160ff600286015460f01c1662009b5a575f620099b39183876200f858565b909390911562009b2857509062009ab47f30d7a7d613ae4c59a6e10f71f527786ce466f150b4d76b040b2d167ebdee643a93926001870162009a7b81546fffffffff0000000000000000000000008760601b169963ffffffff60801b8560801b1691828c73ffffffffffffffff00000000000000000000000019831617179283865560019c848e9560a01c860b958160b01c900b9485870362009ab9575b50505050505062009a7162009a66436200e09a565b91505043906200796a565b908a0b8762013930565b9063ffffffff8083161663ffffffff19825416179055604051948594859094939260609260808301968352602083015260408201520152565b0390a1565b5460c01c63ffffffff1643101562009ad3575b8062009a51565b7fffffffffffffffffffff00000000000000000000ffffffffffffffffffffffff91929394955075ffff00000000000000000000000000000000000000009060101c16931617171783555f8080808062009acc565b9450507fa8c2945f7db53a36d192551c9b4c3ea4cbc53140f60d0dc8b1a8b58499958cdf9150602090604051908152a1565b507f36f8ddb481e1d66678af53feb8d0fdddc463c11ce08cda4e93ac2065d26634dd92935060209150604051908152a15f90565b929160ff600285015460f01c1662009c7257600162009baf9183866200f858565b9092911562009c5f579062009ab47f30d7a7d613ae4c59a6e10f71f527786ce466f150b4d76b040b2d167ebdee643a93926001870162009a7b81546fffffffff0000000000000000000000008760601b169963ffffffff60801b8560801b1691828c73ffffffffffffffff00000000000000000000000019831617179283865560019c848e9560a01c860b958160b01c900b9485870362009ab95750505050505062009a7162009a66436200e09a565b5063a8c2945f60e01b5f5260045260245ffd5b507f36f8ddb481e1d66678af53feb8d0fdddc463c11ce08cda4e93ac2065d26634dd919250602090604051908152a15f90565b60c954613fff9060d51c166127108102908082046127101490151715620032425790565b62009ce160c954916001600160701b0383166200fd85565b906001600160701b0319161760c955565b7fffffffffffe0000000000000000000000000ffffffffffffffffffffffffffff62009d3460c954926c1fffffffffffffffffffffffff8460701c166200fe1a565b60701b91161760c955565b949160e0969362009d68919a999895929a61010088019b8852602088015260408701906200723a565b60608501521515608084015260a083015260c08201520152565b9160809362009da791979695929760a08501988552602085015260408401906200723a565b60608201520152565b95949561032052610300526104405261040052610400515f526012610320510160205260405f20610160528364ffffffffff610160515460b81c16156200b5885762009e08916104005161016051610320516200fed3565b6101e0526102005261024092909252919592909190156200b5805762009e408662ffffff600361032051015460701c168484620102da565b9086806200b572575b806200b564575b80156200b537575b156200b49c57505050816200b3f1575b505062009f079060ff610160515460401c16610180525f610380525f6103c0525f6102e052610160515462009eb8610240516001600160501b038360481c1664ffffffffff8460b81c16620139d4565b62009ec6819592956200c93e565b6103805262009ef860ff8460401c1693610240519063ffffffff8160981c169060e01c8661020051610320516200c62b565b6102a05261028052906200bf7f565b905f8213156200b39a57506001600160501b036200a00b8262009f2e6200a03c946200c93e565b6103e0525f6103405260036103205101546104205262009fd2620186a062009f6262ffffff6104205160881c16846200c96a565b0591620186a062009f7f62ffffff6104205160a01c16836200c96a565b056103608190526103c05261042051620186a09062009fa79060b81c62ffffff16836200c96a565b056103a08190526103605162009fcb919062009fc59086906200bf7f565b6200bf7f565b906200bf9b565b6103405262009fe86103a0516103e0516200bf7f565b6103e0528515806200b391575b6200b35a575b82610320515460501c1662015bfd565b16610320519069ffffffffffffffffffff60501b1969ffffffffffffffffffff60501b83549260501b169116179055565b6200a04a6103e051620139f5565b5f6103e051125f146200b345576200a06a90610400516103205162010d46565b610400515f5260d560205260405f206200a0886103c0518262013a05565b6102e05260c9546200a0a86001600160701b036103405190831662015bfd565b906001600160701b0319161760c95560ff610160515460401c1692600284101562004191576200a178936200b32d576200a0e9610240516103205162013a82565b156200b302576200a122906200a1096104005160116103205101620125dc565b600561ffff600261032051015460a81c1691016201272c565b6200a1716002610320510154845f146200b2f05764ffffffffff8116905b60ff8160e01c169160ff8260d81c169164ffffffffff808260501c1692169061ffff610240519160b81c166200dd79565b9062010c67565b6102c0525f61012052156200b2e4575f610120525b610440515f5260d560205260405f20610140526001600160501b03610140515416610440515f526012610320510160205260405f206101c0526200a1dc61024051610120516101c05162015c45565b6200a1e78162006f4c565b806200aa0457506200a2115f6102c051610240516102005161012051610140516103205162015cf8565b9192919083156200a4e0575b50505b61014051546001600160501b0316908082108015906200a4cd576200a24682846200796a565b915b6001600160ff1b0383116200a4b75750156200a4a6575b5050600781036200a4735750610440515f9081526103205160120160205260409020805460b81c64ffffffffff16156200a3e8576080816001600160501b03807ff14b2e916a38315c52d00796f7301d83d24a889ea889ef230a501c9dcb524d20945460481c16916200a2d66103a0518262013aad565b5460481c166040519161030051835261044051602084015260408301526060820152a15b6200a30c610400516103005162010643565b7ff288ff71e48024f69c19f117c124c6d0d73466b99bd7d1439c3c2cefdcec42686101e061016051546001600160501b03604051916103005183526104005160208401526200a36260408401610180516200723a565b6102005160608401528351151560808401526102005160a08401526102405160c084015264ffffffffff8160b81c1660e0840152610280516101008401526102a0516101208401526103805161014084015260481c166101608201526103c0516101808201526102e0516101a08201525f6101c0820152a1620075c161032051620107d7565b50610440515f5260d56020527f66c4fd8d726a62e549cbf66bc9a8e005cb6e30b73e027b3d86c4df1388d2b16f60405f206200a44a6001600160501b03825416916200a43f6103a051610440516103205162010d46565b6103a0519062013a05565b60408051610440516103005182526020820152908101929092526060820152608090a16200a2fa565b6200177d90604051918291633e3906a760e21b835261024051610200516101205161044051610300516004880162010610565b6200a4b1906200c93e565b6200a25f565b8363e69a04b360e01b5f5260045260245260445ffd5b6200a4d983836200796a565b916200a248565b909192506200a4f26101205162006f4c565b610120516200a9fb575f915b61ffff600261032051015460a81c16905f60c06040516200a51f81620073d4565b8281528260208201528260408201528260608201528260808201528260a082015201526001600160501b0383116200a9dd5764ffffffffff61024051116200a9be57604051916200a57083620073d4565b5f83525f60208401526200a588856040850162007e7c565b6001600160501b038416606084015263ffffffff6102005116608084015264ffffffffff610240511660a084015263ffffffff431660c0840152610440515f526012610320510160205264ffffffffff60405f205460b81c166200a9a55750610320516011015460201c63ffffffff16806200a97b57506200a614610440516011610320510162014b71565b610440515f526012610320510160205260405f2063ffffffff808451161663ffffffff198254161781556200a66e63ffffffff602085015116829063ffffffff60201b82549160201b169063ffffffff60201b1916179055565b6040830151906002821015620041915763ffffffff60c06200a817956200a69a6200a76b958562016aec565b6060810151845472ffffffffffffffffffff000000000000000000191660489190911b72ffffffffffffffffffff000000000000000000161784556080810151845463ffffffff60981b191690841660981b63ffffffff60981b1617845560a0810151845464ffffffffff60b81b191660b89190911b64ffffffffff60b81b16178455015182547bffffffffffffffffffffffffffffffffffffffffffffffffffffffff16911660e01b7fffffffff0000000000000000000000000000000000000000000000000000000016179055565b6200a780610440516011610320510162014baf565b6005610140510161ffff600261032051015460a81c1660fc8111155f146200a8d0576001901b81541790555b6200a7c66200a7bc828562007e6e565b610140516200dc85565b6200a7d583610320516200b6a3565b6200a80d6200a8076200a7ff6200a7f98462ffffff610320515460e01c1662007924565b62011d2b565b80936200796a565b6200c893565b610320516200eb54565b600282101562004191577f15186d79b32cb4800a4d85134007523ec20911a37b484eb263da5831cc191e8e9160e091816200a8b8576200a85e610240516103205162016b3b565b6200a88c61ffff600261032051015460a81c169260405193845261044051602085015260408401906200723a565b6102c051606083015260808201526102005160a08201526102405160c0820152a16007905f806200a21d565b6200a8ca610240516103205162016b1a565b6200a85e565b6101fc81116200a905576200a8e76001916200795a565b1b60066101405101908154179055600160fd1b81541790556200a7ac565b6102fc81116200a93a576200a91c60019162007949565b1b60076101405101908154179055600160fe1b81541790556200a7ac565b6103fc8111156200a94e575b50506200a7ac565b6200a95b60019162007938565b1b60086101405101908154179055600160ff1b81541790555f806200a946565b8060208401525f52601261032051016020526200a99f6104405160405f2062014b71565b6200a614565b633f1ed2e160e21b5f526004526104405160245260445ffd5b6395d41f3f60e01b5f526102405160045264ffffffffff60245260445ffd5b826395d41f3f60e01b5f526004526001600160501b0360245260445ffd5b6001916200a4fe565b6200aa0f8162006f4c565b600181036200adb757506200aa3c5f6102c0516102405161020051610140516101c0516103205162016315565b610260919091526102208590529190600a85036200aac35761ffff600261032051015460a81c166103205154906200177d6200aa7b61026051620139f5565b60405163063c641b60e41b815261ffff90931660048401526001600160501b03808516602485015260509490941c909316604483015260648201929092529081906084820190565b61022051156200aad9575b50505050906200a220565b6200aaeb919294506101405162013a05565b506200aafa61026051620139f5565b5f61026051125f146200ada2576200ab1a90610440516103205162010d46565b6200ab4a6200ab3a6200a7f98562ffffff610320515460e01c1662007924565b6200a80d6200a80782876200796a565b6200ab676101c05154916001600160501b038360481c166200bf7f565b5f81126200ad9357600260ff8360401c16101562004191577f7026918e3bf251d8904050f685ad390b1075bff141e27c077fb2e86f194438e391610120916200abc4600161032051015460ff808260e81c169160e01c1662010eb9565b6200abd98263ffffffff8660981c1662007924565b6200abef8264ffffffffff8760b81c1662007924565b6200ac0d6200ac02856102005162007924565b936102405162007924565b906200ac1a828262007e6e565b9260ff8860401c16155f146200ad72576200156c926200ac446200ac4b9693620015729362007924565b9262007924565b905b60ff8460401c16155f146200ad61576200ac679162011d59565b60ff8360401c16155f146200ad49576200ac88610240516103205162016b3b565b64ffffffffff6101c0515460b81c16906200aca7610240518362007e6e565b926200acda61ffff600261032051015460a81c16858484439360ff8b60401c1690610440519060116103205101620170c8565b6001600160501b0361ffff600261032051015460a81c16956040519687526104405160208801526200ad166040880160ff8360401c166200723a565b6102c051606088015260481c16608086015260a085015260c084015260e0830152610100820152a16007915f806200aace565b6200ad5b610240516103205162016b1a565b6200ac88565b6200ad6c916200b6cf565b6200ac67565b62000a70926200ac446200ad8c9693620015729362007924565b906200ac4d565b63b42b26c760e01b5f5260045ffd5b6200adb190610320516200b6a3565b6200ab1a565b6003906200adc58162006f4c565b036200b049576200adee5f6102c0516102405161020051610140516101c0516103205162016170565b6101a0939093529293929087600a81036200ae2a5761ffff600261032051015460a81c166103205154906200177d6200aa7b6101a051620139f5565b156200ae3f575b50505050505050906200a220565b6200ae819192939497506200ae576101a051620139f5565b5f6101a051125f146200b034576200ae7790610440516103205162010d46565b6101405162013a05565b506200aeb26200aea26200a7f98862ffffff610320515460e01c1662007924565b6200a80d6200a807828a6200796a565b6101c051549160ff8360401c1691600283101562004191577f6f5d98efdac4a6966f0e3b214c333ce1ea22cc1e13f5c56cb46bddbfc890b38e9461016094846200b00657506200af1464ffffffffff6101c0515460b81c166103205162013a82565b6200af23816103205162016b1a565b64ffffffffff6101c051546200af6961ffff600261032051015460a81c1687155f146200affd57846001915b8d43936102005192610440519060116103205101620170c8565b610320516002015460a81c61ffff16956200aff2576200af9f60015b60405197885261044051602089015260408801906200723a565b6102c05160608701526001600160501b038160481c1660808701528960a08701526102005160c087015260b81c1660e0850152610100840152610120830152610140820152a16007925f8080806200ae31565b6200af9f5f6200af85565b845f916200af4f565b64ffffffffff6200b01f9160b81c166103205162013a3c565b6200b02e816103205162016b3b565b6200af23565b6200b04390610320516200b6a3565b6200ae77565b6200b0676102c05161024051610200516101c0516103205162016079565b6101009490945260e08690529390600a86036200b0d457610320516002810154905460405163063c641b60e41b81526101005160a89390931c61ffff1660048201526001600160501b03808316602483015260509290921c90911660448201526064810191909152608490fd5b60e051156200b0ef575b50505050506101005150906200a220565b90919294506200b10a61010051610440516103205162010d46565b6200b11c61010051610140516200b6a3565b60ff6101c0515460401c169160028310156200419157826200b2cc576200b14a610240516103205162013a82565b85156200b1fc57509060c0917f599b5f439ed4daf1f28ae8638e5439d3982e8001fb26dd8f70021b38672eb26f936200b18d6104405160116103205101620125dc565b6200b1ad61ffff600261032051015460a81c16600561014051016201272c565b6200b1db61ffff600261032051015460a81c169360405194855261044051602086015260408501906200723a565b610200516060840152608083015260a0820152a15b6007915f80806200b0de565b907fcd4a9f7ae1cc250eaa0be6bdb30d07efaf0faafb4ff0e76d8fe09a8373e43f859364ffffffffff610120946200b23d6101c05154956101c05162015df9565b6200b24f610240516101c05162013b02565b8161ffff600261032051015460a81c16956200b2846101c05154936040519889526104405160208a015260408901906200723a565b6001600160501b038160481c1660608801526001600160501b038360481c16608088015260b81c1660a086015260b81c1660c084015260e0830152610100820152a16200b1f0565b6200b2de610240516103205162013a3c565b6200b14a565b6001610120526200a18d565b64ffffffffff8160281c16906200a140565b506200b315610380516101605162013aad565b6200b327610240516101605162013b02565b6200a122565b6200b33f610240516103205162013a3c565b6200a0e9565b6200b35490610320516200b6a3565b6200a06a565b6200b36c610360516103e0516200bf7f565b6103e0526200b38261036051610380516200bf7f565b610380525f6103c05262009ffb565b50600162009ff5565b60c4916200b3d861ffff600261032051015460a81c169260405193630c62a44b60e11b8552600485015261040051602485015260448401906200723a565b61024051606483015261020051608483015260a4820152fd5b83156200b48f57816102005111155b62009e6857915091506200b459577f1f008bb4cf7968d3043531816710a52872a7cd65b725fdf40176bbe0ff8215979060ff610160515460401c1662009ab4604051928392610200519061040051610300518662009d82565b60ff610160515460401c166200177d6040519283926307c022ed60e21b8452610200519061040051610300516004870162009d82565b816102005110156200b400565b935093509493506200b4fa5762009ab47f26f4d1afbedf86de15aae3a8119d531a83d8503be3af4cd39c1bd8407eb45c91939460ff610160515460401c16926040519485946101e05190610200519061040051610300518962009d3f565b6200177d8460ff610160515460401c16926040519485946326f4d1af60e01b86526101e051906102005190610400516103005160048a0162009d3f565b508615806200b556575b801562009e5857508261020051111562009e58565b50610200518211156200b541565b508161020051111562009e50565b506102005183111562009e49565b505050505050565b505050506200b5c8577f6948067a0ba575890268b9a7eaf592a5832287e4402201145ce0768a9d9533fc60408051610300518152610400516020820152a1565b6334a4033d60e11b5f52610300516004526104005160245260445ffd5b6002015461ffff8160b81c16151590816200b5fe575090565b61ffff915060c81c16151590565b919091811562008b225763ffffffff915f5b8181106200b62d575050505050565b6200b63a81838762009128565b356001811080156200b696575b6200b68c576200b65c9060078106906200796a565b938085146200b6815750600190845f52600684016020525f60408120555b016200b61e565b93506001906200b67a565b506001906200b67a565b508062ffffff106200b647565b906001600160501b036200b6bc8192828554166200fe1a565b16166001600160501b0319825416179055565b81156200b6da570490565b634e487b7160e01b5f52601260045260245ffd5b60c95460e35b90613fff911c166127108102908082046127101490151715620032425790565b91906200b72c6200b7258262007e4c565b9162007e5b565b908381119384156200b75c575b846200b74457505050565b630caa980960e21b5f5260045260245260445260645ffd5b82811194506200b739565b9291926200b7806200b7798362007e4c565b9262007e5b565b908083119485156200b7f3575b856200b7995750505050565b6200b7d957507f9c6cd57b23ccacf841857c1eb7892bef39f27d0c1197bb0bf7646c90dc7fb8709160409182519182526020820152a15f80808062009956565b8290630caa980960e21b5f5260045260245260445260645ffd5b82821195506200b78d565b60c9546200b6f462009250565b9493916200b82d9391865260208601521515604085015260608401906200723a565b608082015260c060a08201528260c08201527f07ffffffffffffffffffffffffffffffffffffffffffffffffffffffffffffff8311620034fb5760e09260051b809284830137010190565b9295935f9681156200bd6957835f526012850160205260405f209664ffffffffff885460b81c16156200bd12576200b8b181876200bddf565b98909160058a10158062004191578a159a8b1590816200bd02575b506200bcf4576200419157815460ff8160401c1660028110156200419157808a91156104605263ffffffff8360981c169264ffffffffff8160b81c16936200b95160016001600160501b036200b92b88858d898960e01c918c6200c62b565b9691505060481c1695015460ff808260e81c169160e01c168488858961046051620108d8565b9384156200bc1357505050610460515f146200bc0a578186115b156200bb98575050995f9a5b868c106200bac2575b839495969798999a9b5064ffffffffff6200b9a29293945460b81c166200796a565b806200ba295750506200b9fe57927faad1caf83451874ebc06a35849e4a295d8bfa856d05d1fbac2876702c7d5074394926200b9f59260ff620075c19998965460401c166001604051978897886200b80b565b0390a1620107d7565b9060ff6200177d9493925460401c16600160405197889763155a395f60e31b8952600489016200b80b565b839b5081965084809650600193505f9282968b8b8e9f9e986200ba4c9962010c17565b156200ba70575050506200ba639293945062010643565b620075c1600192620107d7565b6200baab6101049560ff8a5460401c169060405196634b04a99560e01b8852600488015260248701526001604487015260648601906200723a565b60848401528060a484015260c483015260e4820152fd5b6200bacf8c888862009128565b3590815f5260128b0160205260405f209164ffffffffff835460b81c16156200bb8c57825460ff8160401c16600281101562004191571561046051146200bb7f578c8886816200bb3d958f64ffffffffff60019760b81c16898110155f146200bb76575088998a96620109e7565b156200bb6b57906200bb4f916200796a565b9a8b156200bb63576001905b019a6200b977565b508a6200b980565b9b600191506200bb5b565b998a96620109e7565b50509b600191506200bb5b565b509b600191506200bb5b565b9550955050919496505097969395976200bbea57917fb83a69585ca162073fd697b3fcff0ddc60c661ba689b5ee1f4eb20a8bf69ca93959493916200bbe4936040519687968762008399565b0390a190565b6040516317074d2b60e31b8152965086956200177d956004880162008399565b8186106200b96b565b98509850999b9d9c5050509597509150506200bc98576040805195865260208601969096526001600160501b03169484019490945263ffffffff909316606083015264ffffffffff909216608082015260a08101919091527f2e92846d5b5d5dd9cf60dd19064afe4a911e6751cdad455cb26a600db66e963c908060c081016200bbe4565b6200177d94959650604051968796632e92846d60e01b8852600488019260a0946001600160501b0363ffffffff9264ffffffffff959a9998949a60c088019b885260208801521660408601521660608401521660808201520152565b509798505050505050505050565b91505060015f9114155f6200b8cc565b9394505050929493506200bd53577f6948067a0ba575890268b9a7eaf592a5832287e4402201145ce0768a9d9533fc9160409182519182526020820152a190565b906334a4033d60e11b5f5260045260245260445ffd5b50509391509193506200bdaa577f64846a095feab375f007bd15ab65eefdf07957e365b3c7ee4711cd9dbdecabe79160409182519182526020820152a15f90565b906364846a0960e01b5f5260045260245260445ffd5b610460525f610420526200bdd894939291906201735c565b6104205190565b916200bdeb836200c56b565b979092949688949294979860058110158062004191576002821480156200bf72575b156200beb95750506200be7757600201546040805160a89290921c61ffff168252602082019590955293840192909252606083019190915260808201527f462f6162298dca9e5d41e18bce420c615636b3469c2581b67264561d926944f8908060a0810162009ab4565b60020154604051632317b0b160e11b815260a89190911c61ffff166004820152602481019490945260448401929092526064830191909152608482015260a490fd5b935093509350935062004191576004146200bed2575050565b6200bf385760028101546001918201546040805160a89390931c61ffff168352606082811c63ffffffff16602085015260a09290921c90930b928201929092527f4253b255779a38a9226931f0ad5a5358185b8d6adbe1dac7c22757e096712b849190a1565b600161ffff600283015460a81c1691015490634253b25560e01b5f5260045263ffffffff8160601c1660245260a01c60010b60445260645ffd5b50505f600382146200be0d565b9190915f83820193841291129080158216911516176200324257565b81810392915f1380158285131691841216176200324257565b97949591909a9396929a610480526104a0526104a051549263ffffffff8460981c16996200c0146200bfff64ffffffffff8760b81c168d8860e01c8d8960ff8c60401c16916200c62b565b50506001600160501b038760481c166200bf7f565b808b12156200c50e578a6200c029916200bf9b565b91816200c47e575050945b6104a0515460481c6001600160501b03168b818811156200c46857506200c05c90876200796a565b976200c079600182015460ff808260e81c169160e01c1662007e6e565b6006036006811162003242576200c0946200c0a59162008ec5565b64ffffffffff8760b81c1662007924565b9a809b600260ff8860401c16101562004191578d9c60ff8860401c16155f146200c449576200c0d96200c0e0928d62011d59565b906200bf7f565b995b5f8b13156200c3cc5750508863ffffffff6009830154166200c1086200b7258262007e4c565b8282119283156200c3c0575b50826200c388575b50506200c369575f995b6200c15a6200c15164ffffffffff8860b81c168c6104a0515460e01c60ff8b60401c168a886200c62b565b50508c6200bf7f565b908082126200c282575b50509463ffffffff6101a0956200c26e9c958a958a956200c1ae6200c2649e9c869e7f6c6503c775bb04a85332328c533ca513dd4ca679e2846be3bbe7d9073a940f489d62010d46565b6200c1bd87610480516200b6a3565b6200c1f26104a05154946001600160501b03610480515416996040519b8c5260208c015260ff60408c019160401c166200723a565b60608901521515608088015260a08701526001600160501b038160481c1660c08701528b60e087015260981c1661010085015286610120850152610140840152610160830152610180820152a1166104a0519063ffffffff60981b1963ffffffff60981b83549260981b169116179055565b6104a05162010e61565b5f52600461048051016020525f6040812055565b5f82138015906200c2f1575b156200c1645797509798505050505050507fa3cd1f19e02df00e3aa13cca19961f43eeedbfb5f34c064e278a6e2554a4508894506080935060405192868452602084015260408301526060820152a15f52600461048051016020525f6040812055565b50801580806200c360575b156200c30d575060015b156200c28e565b5f5f9115806200c320575b50106200c306565b915050818311156200c35357620186a08284035b0290156200c34957816064025b905f6200c318565b826064026200c341565b620186a08383036200c334565b5082156200c2fc565b50505050505050505050505f52600461048051016020525f6040812055565b7f9c6cd57b23ccacf841857c1eb7892bef39f27d0c1197bb0bf7646c90dc7fb8709160409182519182526020820152a15f806200c11c565b81935011915f6200c114565b94509496925050507f5af9ac97cf247d243434484869b838e2197714f1588e5d33e67505161e003687985060e097506200c43495969350604051968a8852602088015260408701526060860152608085015260a084015260ff60c084019160401c166200723a565ba15f52600461048051016020525f6040812055565b506200c45a6200c461918c62011d59565b826200bf9b565b996200c0e2565b9a9890876200c477916200796a565b996200c126565b8282989392116200c492575b50506200c034565b96909196156200c4a65750945f806200c48a565b604080518d815260208101999099528801526060870152507f2d1899850ba9b9c9b74657311b57a098fafc67bacd47c2572b10b1d4815864659750939550859450506080840192506200c4f7915050565b0390a15f52600461048051016020525f6040812055565b509697505050505050507f2d1899850ba9b9c9b74657311b57a098fafc67bacd47c2572b10b1d48158646593506080925060405191858352602083015260408201525f6060820152a15f52600461048051016020525f6040812055565b5f5f904292600181015463ffffffff8160401c169361ffff8260d01c16925f8642116200c616575b156200c600576002015460f01c60ff166200c5f8575063ffffffff8160801c16925f8487116200c5e3575b6200c5dc575063ffffffff169485156200c5d757600190565b600490565b9560039150565b50826200c5f185886200796a565b116200c5be565b929560029150565b505060201c63ffffffff16944294505f92508290565b50836200c62487426200796a565b116200c593565b959493906200c64b600188015460ff808260e81c169160e01c1662010eb9565b9190975f958043106200c79157906200c6766200c66b8b9493836200de60565b91909243906200de60565b9091036200c780575b5050916200c6a2826200c69b6200c6a994620f42409662007924565b9562007924565b9662007924565b918281871196875f146200c768576200c6c79262003856916200796a565b04905b60028310156200419157620038566200c71692620f4240941596875f146200c761575b156200c75a576200c6fe906200c93e565b975b5f8612958615620038565762003856906200c93e565b0491156200c74957156200c73757905b6200c73282846200bf7f565b929190565b6200c742906200c93e565b906200c726565b156200c742576200c742906200c93e565b976200c700565b156200c6ed565b62003856906200c778936200796a565b04906200c6ca565b0360050b95506200c6a2826200c67f565b61ffff600283015460a81c16635d00a16960e01b5f526004526024524360445260645ffd5b6006906200c7c96007840680946200796a565b5f520160205260405f209080155f146200c7f15750549061ffff808360081c169260181c1690565b600181036200c80e5750549061ffff808360281c169260381c1690565b600281036200c82b5750549061ffff808360481c169260581c1690565b600381036200c8485750549061ffff808360681c169260781c1690565b600481036200c8655750549061ffff808360881c169260981c1690565b6005036200c88057549061ffff808360a81c169260b81c1690565b549061ffff808360c81c169260d81c1690565b62009ce160c954916001600160701b0383166200fe1a565b9091926001600160a01b03620075c19481604051956323b872dd60e01b60208801521660248601521660448401526064830152606482526200c8ef6084836200747e565b62010fbf565b6001600160501b036200c913620075c19382845460501c166200fd85565b825469ffffffffffffffffffff60501b1916911660501b69ffffffffffffffffffff60501b16179055565b600160ff1b811462003242575f0390565b90620f4240820291808305620f424014901517156200324257565b81810292915f8212600160ff1b821416620032425781840514901517156200324257565b81156200b6da57600160ff1b81145f1983141662003242570590565b909291925f936200c9bb436200e09a565b9691608f9491944301804311620032425788116200ced7576013860195818452866020526040842054936200c9f087620110c8565b98159889806200cecb575b6200ce25576002830193845460ff8160f01c1615806200cd4d575b6200ca2d8563ffffffff6009890154168c6200b767565b6200cd3d576200cc79575b60981c61ffff166200ca4a816200c93e565b8790828213156200cc5c575050965b620186a06200ca69898b6200c96a565b0560050b998d859063ffffffff885460a01c1680911190816200cc51575b506200cbce575b937f9c0e05c2bbc786a75afe5fed63ff9274f7c690af8ea4e843e07f2a525295c1049e9c9a98969361ffff96936101009f9d9b9996938c604095019d8e918790600181145f146200cb6a57505065ffffffffffff9182916030955b895260205216831b921b1916171791205560018101805461ffff60b01b198760b01b61ffff60b01b169116179055805463ffffffff60c01b1963ffffffff60c01b8c60c01b1691161790555460a81c1696604051978852602088015260408701526060860152608085015260a084015260050b60c08301521560e0820152a1565b600281036200cb8857505065ffffffffffff9182916060956200cae9565b600381036200cba657505065ffffffffffff9182916090956200cae9565b9094906004146200cbc4575b9165ffffffffffff929183926200cae9565b60c094506200cbb2565b505f198e018e81116200cc3d579386937f9c0e05c2bbc786a75afe5fed63ff9274f7c690af8ea4e843e07f2a525295c1049f9d9b9997936101009f9d9b9996938c6200cc2160409661ffff9b986200de60565b5094989b9d509e9850935093969e509396989a9c9e506200ca8e565b634e487b7160e01b86526011600452602486fd5b905015155f6200ca87565b809199925088126200cc70575b506200ca59565b97505f6200cc69565b600185015461ffff63ffffffff8260601c169160c01c16906200cc9e82828d62010ca8565b156200ccac5750506200ca38565b9b509b509b505050949550505050506200cd0d576040805160a89590951c61ffff168552602085019190915283015260608201527f2030ce993f9f888e4d2a20dcbf75ead5d3de6742ef5fa8e75a47849a41a4af5790806080810162009ab4565b604051632030ce9960e01b815260a89490941c61ffff166004850152602484015260448301526064820152608490fd5b5050505050505050505050505050565b600186015463ffffffff8160801c16908142116200cd6e575b50506200ca16565b60d01c61ffff1690816200cd8382426200796a565b106200cd66579c509e9d50509a505050955050505050506200cdf2576040805160a89390931c61ffff168352602083019190915242908201526060810192909252907fa8ea47e93f284c6600be84b692d51af848f0cc9115e2c7d7d4048983348f9b2d90806080810162009ab4565b60405163a8ea47e960e01b815260a89290921c61ffff166004830152602482015242604482015260648101839052608490fd5b50945098979650945050506200ce905762009ab49061ffff60027fdd8c0c9dcb3ad98da85346fa23e456a8128ec3fc478eaacb4990e450880308cc9697015460a81c1692604051948594859094939260609261ffff6080840197168352602083015260408201520152565b600285015460405163dd8c0c9d60e01b815260a89190911c61ffff166004820152602481019390935260448301919091526064820152608490fd5b5080861615156200c9fb565b50505050600291909101546040805160a89290921c61ffff168252436020830152810193909352507fe0a0c6a40b4bf56f73bec44f57f213f583e95a0be298411ea97afbe135c07d82919050806060810162009ab4565b9093916200cf3c436200e09a565b9591969094608f4301804311620032425787116200d367576013850194885f528560205260405f2054936200cf7188620110c8565b9015998a806200d35b575b6200d2f057600283019384549060ff8260f01c1615806200d24b575b6200cfaf8263ffffffff6009890154168c6200b767565b6200cd3d576200d1b7575b5060981c61ffff166200cfcd816200c93e565b8690828213156200d19a575050955b620186a06200cfec888a6200c96a565b0560050b985f8c63ffffffff875460a01c1680911190816200d18f575b506200d126575b926101009c9b9997959261ffff95927f9c0e05c2bbc786a75afe5fed63ff9274f7c690af8ea4e843e07f2a525295c1049f9c809b9996019b5f90600181145f146200d0e75750506030925b5f5260205265ffffffffffff808c16831b921b1916171760405f205560018101805461ffff60b01b198760b01b61ffff60b01b169116179055805463ffffffff60c01b1963ffffffff60c01b8c60c01b1691161790555460a81c1696604051978852602088015260408701526060860152608085015260a084015260050b60c08301521560e0820152a1565b600281036200d0fc5750506060925b6200d05b565b600381036200d1105750506090926200d05b565b909390600319016200d0f65760c093506200d05b565b509a99979593909b98969491925f198b01938b851162003242577f9c0e05c2bbc786a75afe5fed63ff9274f7c690af8ea4e843e07f2a525295c1049d6101009d8a6200d17661ffff98876200de60565b509396999b509c9f50929550929597999b9c506200d010565b905015155f6200d009565b809198925087126200d1ae575b506200cfdc565b96505f6200d1a7565b600185015461ffff63ffffffff8260601c169160c01c16916200d1dc83838d62010ca8565b156200d1ea5750506200cfba565b999a509a509a509a505050505050506200cd0d576040805160a89590951c61ffff168552602085019190915283015260608201527f2030ce993f9f888e4d2a20dcbf75ead5d3de6742ef5fa8e75a47849a41a4af5790806080810162009ab4565b600186015463ffffffff8160801c16908142116200d26c575b50506200cf98565b60d01c61ffff1690816200d28182426200796a565b106200d264579c509e9d505098509950505050505050506200cdf2576040805160a89390931c61ffff168352602083019190915242908201526060810192909252907fa8ea47e93f284c6600be84b692d51af848f0cc9115e2c7d7d4048983348f9b2d90806080810162009ab4565b97965050989750925050506200ce905762009ab49061ffff60027fdd8c0c9dcb3ad98da85346fa23e456a8128ec3fc478eaacb4990e450880308cc9697015460a81c1692604051948594859094939260609261ffff6080840197168352602083015260408201520152565b5081861615156200cf7c565b94505050509192506200d3c157600201546040805160a89290921c61ffff1682524360208301528101919091527fe0a0c6a40b4bf56f73bec44f57f213f583e95a0be298411ea97afbe135c07d8290806060810162009ab4565b600261ffff91015460a81c1663382831a960e21b5f526004524360245260445260645ffd5b91905f925f600282019485549061ffff8260a81c1691600185019485549160ff8360f01c166200d6cc5760f01c60ff16159081806200d639575b6200d62d578363ffffffff60096200d43c93015416896200b767565b6200d622576200d4d7575b5050825467ffffffff000000001916602085901b63ffffffff60201b16178355507f65ec400f2e8b22c7064f99991d01828c6a55acaa066b3fdba3bf5a491b1a6a4c92916200d4b091505b805463ffffffff60401b19164260401b63ffffffff60401b16179055565b92546040805160a89290921c61ffff16825260208201949094526001938190810162009ab4565b63ffffffff81169081156200d59b5760c01c61ffff16916200d4fb83838962010ca8565b156200d50857506200d447565b91939697509193506200d565577f3988d14888f50c39e6b838927480e13c79fd6c5cfdfb08a1b02febe997a3571e9392916200bbe491604051948594859094939260609261ffff6080840197168352602083015260408201520152565b6040516307311a2960e31b815261ffff939093166004840152602483019390935260448201929092526064810191909152608490fd5b955050919495509150806200d5fa57506040805191825263ffffffff606084811c8216602085015260809490941c16908201527fd253a46959c281f34bbccc6d07b3dd2e08e409e31e7ce4abe6ede8bf372f17a291819081016200bbe4565b63ffffffff8360649363d253a46960e01b8452600452818160601c1660245260801c16604452fd5b509296505050505050565b50919750505050505050565b5063ffffffff8360801c1661ffff8460d01c16905f918142116200d6b5575b826200d667575b50506200d420565b6040805161ffff8a1681526020810193909352429083015260608201525f95507fa8ea47e93f284c6600be84b692d51af848f0cc9115e2c7d7d4048983348f9b2d90608090a15f806200d65f565b8092506200d6c482426200796a565b11916200d658565b84633e626edf60e01b5f5260045260245ffd5b91905f926002810193845461ffff8160a81c1690600184019384549160ff8360f01c166200d92d5760f01c60ff16159081806200d8ba575b6200d8ae57600163ffffffff60096200d73493015416886200b767565b6200d8a4576200d78e575b5050815467ffffffff000000001916602084901b63ffffffff60201b16178255507f65ec400f2e8b22c7064f99991d01828c6a55acaa066b3fdba3bf5a491b1a6a4c91906200d4b0906200d492565b63ffffffff81169081156200d81d5760c01c61ffff16906200d7b282828862010ca8565b156200d7bf57506200d73f565b9193509194955060016200d565577f3988d14888f50c39e6b838927480e13c79fd6c5cfdfb08a1b02febe997a3571e9392916200bbe491604051948594859094939260609261ffff6080840197168352602083015260408201520152565b945050915092935060016200d87b576040805191825263ffffffff606084811c8216602085015260809490941c16908201527fd253a46959c281f34bbccc6d07b3dd2e08e409e31e7ce4abe6ede8bf372f17a291819081016200bbe4565b63ffffffff925063d253a46960e01b5f52600452818160601c1660245260801c1660445260645ffd5b5091955050505050565b505f9750505050505050565b5063ffffffff8360801c1661ffff8460d01c16905f918142116200d916575b826200d8e75750506200d717565b60405163a8ea47e960e01b815261ffff8816600482015260248101929092524260448301526064820152608490fd5b8092506200d92582426200796a565b11916200d8d9565b83633e626edf60e01b5f5260045260245ffd5b6002609754146200d952576002609755565b60405162461bcd60e51b815260206004820152601f60248201527f5265656e7472616e637947756172643a207265656e7472616e742063616c6c006044820152606490fd5b906001600160501b03809116911603906001600160501b0382116200324257565b9190915f9054906001600160501b038083169260501c168083116200da00575b5080841193846200d9e857505050565b632e14f96160e21b5f5260045260245260445260645ffd5b6001600160501b0391506200da1690836200d997565b165f6200d9d8565b9290925f9054936001600160501b038086169560501c168086116200dac8575b5081811193846200da52575b505050909150565b6200daad576040805191825260208201929092526001600160501b039094169084015290917fb853e5846ad52919c794f709695100094681c458cd1864d5217c6c897b6858b19080606081015b0390a181905f80806200da4a565b849250632e14f96160e21b5f5260045260245260445260645ffd5b6001600160501b039192506200dadf90866200d997565b16905f6200da3e565b335f5260d460205260ff60405f2054166200dc825760d1544311156200dc3a5761217b430180431162003242578060d1556103e86200db2d60ce5460cc549062007924565b0460d3548082115f146200dc3257505b61217b8104918260d05561085f4301804311620032425760d25561217b830283159084810461217b1482171562003242576200db7a90846200796a565b9361085f81029181830461085f14171562003242576200dbc06200dbe0927fbed1e76d359c53e2dbafd4561fa97daac567d51974f6317c2f583ef17cddaa9d9662007e6e565b60cf55604051938493846040919493926060820195825260208201520152565b0390a15b60cf548082116200dc0057906200dbfb916200796a565b60cf55565b60d05460d1546040516356cb4a3d60e01b81526004810194909452602484019290925260448301526064820152608490fd5b90506200db3d565b60d2548043116200dc4d575b506200dbe4565b6200dc6b6200dc616200dc7492436200796a565b60d0549062007924565b60cf5462007e6e565b60cf554360d2555f6200dc46565b50565b906001600160501b036200b6bc8192828554166200fd85565b60405163a9059cbb60e01b60208201526001600160a01b03929092166024830152604480830193909352918152620075c1916200c8ef6064836200747e565b939291906064810292818404606414821517156200324257826200dd019162007924565b938484106200dd7157826200dd169162007924565b938484106200dd61575081116200dd305750505050600190565b60648102908082046064149015171562003242576200dd4f92620111b8565b818111156200dd5c575090565b905090565b90506200dd4f9391508462011132565b505050505090565b949392916200dd889162007e6e565b6064810292818404606414821517156200324257826200dd019162007924565b9061271081116200dde3576002909101805470ffff000000000000000000000000000000191660789290921b61ffff60781b16919091179055565b61ffff600283015460a81c16630dbcc17f60e31b5f5260045260245261271060445260645ffd5b6001600160a01b0319606554166065556001600160a01b0380603354921691826001600160a01b0319821617603355167f8be0079c531659141344cd1fd0a4f28419497f9722a3daafe3b4186f6b6457e05f80a3565b9063ffffffff825460a01c1681106200dee6576013916200de8865ffffffffffff92620111f5565b5f928352949092016020526040902054905f1981016200deae575060301c5b1660050b91565b600281036200dec2575060601c5b6200dea7565b600381036200ded5575060901c6200dea7565b6004036200debc5760c01c6200dea7565b50505f905f90565b9190916001831080156200df43575b6200df2557600201805461ffff60c81b191660c89390931b61ffff60c81b1692909217909155565b82630c8f0a6960e41b5f52600452600160245261271060445260645ffd5b5061271083116200defd565b9061271081116200dde35790600261ffff620075c1931691019061ffff60881b1961ffff60881b83549260881b169116179055565b9190916001831080156200dfbb575b6200df2557600201805461ffff60b81b191660b89390931b61ffff60b81b1692909217909155565b5061271083116200df93565b6001821080156200e02c575b6200e00b57600201906effffffffff0000000000000000000082549160501b16906effffffffff000000000000000000001916179055565b50630c8f0a6960e41b5f52600452600160245264ffffffffff60445260645ffd5b5064ffffffffff82116200dfd3565b906103e8811080156200e08e575b6200e06f5767ffff00000000000082549160301b169067ffff0000000000001916179055565b61ffff9063d24aa9ff60e01b5f526004526103e860245260445260645ffd5b5061ffff81116200e049565b6200e0a590620111f5565b92908290600481036200e0d55750505f9161a76781018091116200324257925b61217b8101809111620032425790565b6200e0e39194935062007d9c565b916200e0c5565b906200e0f6336200995c565b91825f5260d560205260405f209260ff845460a01c166200e1178162006f4c565b806200440657506200e139826001600160a01b0360cb5416309033906200c8ab565b6200e14582856200b6a3565b60cc546200e154838262007e6e565b906001600160501b0382116200e1b4575060cc5592546040805194855260208501929092526001600160501b031690830152907f84b5adc99a7d46a960b87da6e4882021bab65d63c6d02c9bcfc52f02e710b1e390806060810162009ab4565b8390632242001360e21b5f526004526024526001600160501b0360445260645ffd5b92815f526012840160205260405f209264ffffffffff845460b81c16156200e5015760016200e208918486886200fed3565b949391929795969096156200e4f55783159260028b01988b8585848d5460a81c61ffff16938c845f146200e2d0967fb5197c172faba5dd033bce9dda5c7f7a28a1451f539d3b287a0964c3b9283fa6926101c0926200e4e9576200e28b5f5b5a9260405194855260208501525f60408501525f60608501526080840190620076d3565b8560a08301528660c08301525f60e08301525f6101008301525f61012083015260016101408301526103e86101608301525f6101808301526101a0820152a16201128c565b61026051948181116200e2f6575b50505050505050505050505050620075c190620107d7565b906200e302916200796a565b938486156200e4d7576200e3169162011d59565b955b60ff8c5460401c1695816200e4cc575b81156200e4b2575b506200e4695750506200e348908285888c8e62010380565b979498939a925095909a89815460a81c61ffff16906200e3689162010643565b604051858152866020820152604081015f90528b60608201528c608082015260a07f555809b9cabb2c3df7af8353069bd02e72c4d8b4dd0dac9654ed855bdf3be85291a15460a81c61ffff169b54986040519c8d5260208d015260408c016200e3d1916200723a565b60608b0152151560808a015260a089015260c08801528360b81c64ffffffffff1660e088015261010087015261012086015261014085015260481c6001600160501b03166101608401526101808301526101a08201526101c08101600190526101e07ff288ff71e48024f69c19f117c124c6d0d73466b99bd7d1439c3c2cefdcec426891a15f8080808080808080808080806200e2de565b60c4918891876200e4a18861ffff8f5460a81c16956040519663fbe5086f60e01b88526004880152602487015260448601906200723a565b6064840152608483015260a4820152fd5b9050806200e4c2575b5f6200e330565b508582106200e4bb565b87841191506200e328565b6200e4e2916200b6cf565b956200e318565b6200e28b60016200e267565b50505050505050505050565b8261ffff600287015460a81c166334a4033d60e11b5f5260045260245260445ffd5b9392909192825f526012850160205260405f209364ffffffffff855460b81c16156200e55857906200e208918486886200fed3565b5091939250506200e5ab57600201546040805160a89290921c61ffff16825260208201929092527f6948067a0ba575890268b9a7eaf592a5832287e4402201145ce0768a9d9533fc918190810162009ab4565b600261ffff91015460a81c166334a4033d60e11b5f5260045260245260445ffd5b156200e5d457565b60405162461bcd60e51b815260206004820152602b60248201527f496e697469616c697a61626c653a20636f6e7472616374206973206e6f74206960448201527f6e697469616c697a696e670000000000000000000000000000000000000000006064820152608490fd5b9091801562008b22575f5b8181106200e6585750505050565b806200e668600192848762009128565b358061ffff106200e68a575f52600784016020525f60408120555b016200e64a565b506200e683565b905f9180151590816200e6c4575b81156200e6b5575b506200e6af57565b60019150565b63ffffffff9150115f6200e6a7565b43811091506200e69f565b61ffff60808201511690811580156200e6e757505050565b6127108302928304612710141715620032425760c95460701c6c1fffffffffffffffffffffffff16908183116200e72a575050806200a807620075c19262011d8c565b9160809161ffff60e07f5d8e434afef436d0cbafab1ae9386b8f70c885ee513868335f9474f61202d3469501511691604051925f8452602084015260408301526060820152a1565b61ffff16801562003242575f190190565b5f939183156200eaf45761ffff948585166303ff00008360101b1617906002840192825f528360205260405f209687549063ffffffff8216156200eace5750855460b01c63ffffffff1684036200ea9557506200e7eb63ffffffff885460201c168662011dce565b63ffffffff875460201c16806200ea76575b505b845460d01c63ffffffff1683036200ea3a576200e82763ffffffff885460401c168662011e6c565b63ffffffff875460401c16806200ea1b575b505b6003850191815f52826020526200e8816200e86060405f209a8b5460401c166200e772565b8a5469ffff0000000000000000191660409190911b61ffff60401b16178a55565b87546200e89460ff8260601c1662011ef9565b156200e9fc5750506200e8b56001600160501b03885460901c168662011f6e565b965b885463ffffffff8116851480806200e9e9575b156200e95057505050620075c1959697505f526020525f60408120555b5f526020525f60408120556200e901815460f01c6200e772565b81547dffffffffffffffffffffffffffffffffffffffffffffffffffffffffffff1660f09190911b7fffff00000000000000000000000000000000000000000000000000000000000016179055565b9193509150156200e9aa57505460201c63ffffffff16956303fcffff8088116200e994575063ffffffff620075c19596971663ffffffff198254161790556200e8e7565b876395d41f3f60e01b5f5260045260245260445ffd5b968263ffffffff620075c197989960201c16146200e9cb575b50506200e8e7565b63ffffffff6200e9e1925460401c169062011ec9565b5f806200e9c3565b508563ffffffff8360201c16146200e8ca565b64ffffffffff6200ea159160689a939a1c168a62011f21565b6200e8b7565b5f528360205260405f2063ffffffff60201b1981541690555f6200e839565b8654602081811c63ffffffff165f9081529086905260409020805463ffffffff60401b191663ffffffff60401b9092169190911790556200e83b565b5f528360205260405f2063ffffffff60401b1981541690555f6200e7fd565b604081811c63ffffffff165f908152602087905220805467ffffffff00000000191663ffffffff60201b9092169190911790556200e7ff565b905063ffffffff60018701541691638d5bba0f60e01b5f5260045260245260445260645ffd5b63ffffffff600183015416906369bc91ef60e11b5f5260045260245260445ffd5b620075c1915f526007810160205261ffff60405f206200eb486200eb4060ff835460201c166200ee6e565b828562011fb9565b5460a81c169062012525565b6001600160501b036200c913620075c19382845460501c166200fe1a565b929061ffff600285015460a81c16936200eb8f600184846200da1e565b6200ec8957835f526012810160205260405f209064ffffffffff825460b81c16156200ec7257916001600160501b038085936200ebfe8560a099976200ebf87f577ed0a8f65f2feb5a407660b0a3009c2ee155a17d0e34947c58ecdd6c8b37719c9a886200dc85565b6200b6a3565b6200ec4c826200ec158782855460481c166200fe1a565b835472ffffffffffffffffffff0000000000000000001916911660481b72ffffffffffffffffffff00000000000000000016178255565b5460481c16915416926040519485526020850152604084015260608301526080820152a1565b84866334a4033d60e11b5f5260045260245260445ffd5b5050505050565b9392919261ffff600286015460a81c16946200ecae8285856200da1e565b6200b58057845f526012810160205260405f209164ffffffffff835460b81c16156200ed185750916001600160501b038085936200ebfe8560a099976200ebf87f577ed0a8f65f2feb5a407660b0a3009c2ee155a17d0e34947c58ecdd6c8b37719c9a886200dc85565b93505050506200bd53577f6948067a0ba575890268b9a7eaf592a5832287e4402201145ce0768a9d9533fc9160409182519182526020820152a1565b908060081c9060ff8116806200ee3e575b5060101c9060ff8116806200eddc575b5050806200ed85575b50505f1990565b6200ed929082546201282d565b60018101156200ed7e57806002915f52600183016020526200edb860405f205462012853565b9060081b1791825f52016020526200edd460405f205462012853565b9060081b1790565b6200edf690835f526001850160205260405f20546201282d565b9060018201156200ed7557600292507effffffffffffffffffffffffffffffffffffffffffffffffffffffffffff00161791825f52016020526200edd460405f205462012853565b6200ee5890835f526002850160205260405f20546201282d565b60018101156200ed65579250905060ff19161790565b6200ee798162006f4c565b80159081156200ee87575090565b600391506200ee968162006f4c565b1490565b91905f92610180820135801515806200f0bc575b6200f072575060408201356007811015620034fb57600681036200ef7457506200eedd83606084013562012a51565b6200ef6e57826080830135806200ef4a575b50905060a0820135806200ef2c575b505060c0013590816200ef14575b505050600190565b6200ef1f91620129eb565b620075155780806200ef0c565b906200ef389162012965565b6200ef4557815f6200eefe565b505090565b63ffffffff60096200ef6094015416906200b767565b6200ef45575f82816200eeef565b50505090565b919291600581036200efd0575050906101a00135156200ef95575050600190565b6200efc1577f1fccd51f56ecc3a71d5e32721dbf2bb0690bf050c6147a84fd5f83717d8c5d225f80a190565b631fccd51f60e01b5f5260045ffd5b6004036200eff3575060606200efe892013562012a51565b620075155750600190565b8163ffffffff60096200f00e9301541660808501356200b767565b6200ef45576200f0238160a084013562012965565b6200ef45576200f0376101008301620076c5565b15806200f05b575b6200f04c57505050600190565b60c06200ef1f920135620129eb565b506200f06b6101208301620076c5565b156200f03f565b935050506200f0aa5760207f9f38a7d29e6c9e707bfe5fee47b29748083dc31546de0135d48ed99db5e190f091604051908152a15f90565b634f9c53e960e11b5f5260045260245ffd5b504381106200eeae565b91909293815f526010830160205260405f209363ffffffff855416156200f19357906200f0fe91868463ffffffff8854169262012abe565b156200f10a5750505050565b836200f1786200f1487fe9805f82cb3729e97b234bb6bb4f90ea971e2c274201ff71818ebde153e1b0a6966200f14260609762008be4565b62012b29565b9390925f5260d560205260096200f1708260405f2061ffff60028a015460a81c16906200e783565b95016200eb15565b60405192835260208301526040820152a15f80808062009956565b9450915091506200f1d0577f69b92a906c4fe940cd3de572076c4a5181ddced80218575cc4959b1d8f6a6e3f9160409182519182526020820152a1565b9063069b92a960e41b5f5260045260245260445ffd5b94929093916040516200f1f98162007429565b5f81525f6020820152809561ffff600289015460a81c16606084013590815f5260108a0160205260405f209363ffffffff855416156200f2f2575083546200f24b8863ffffffff831689868662012abe565b6200f2e55760ff6200f2619160201c1662012c1a565b6200f2755750506200dc8295969762012c35565b94985094925050509392936200f2ca576200bbe47fe03d6e5b9ada2bee571a0faed84b4da12ba5afc5c10f1c29d8fbbb6dcd7519d8939495604051938493846040919493926060820195825260208201520152565b84925063e03d6e5b60e01b5f5260045260245260445260645ffd5b5050505050505050915090565b98509698509493505050506200f1d0577f69b92a906c4fe940cd3de572076c4a5181ddced80218575cc4959b1d8f6a6e3f9160409182519182526020820152a190565b9493919290604051936200f3498562007429565b5f85525f6020860152846040820135956007871015620034fb576200f36e8762006f4c565b60a0830135916200f37f8862012c1a565b6200f578575b5061012083016200f39681620076c5565b80156200f562575b6200f49157506200f3af8762012c1a565b6200f472575b506040516200f3c48162007429565b5f81525f602082015297600981019163ffffffff835416966200f3ed608086013598896200796a565b9682986200f3fe60e08801620076c5565b156200f449575b505050866200f41b575b50505050505050505090565b6200f42f9950886200f43e575b5062015bc7565b5f80808080808080806200f40f565b861497505f6200f428565b6200f468939950610140870135908a610160890135918d8b8962014f2b565b955f80806200f405565b6200f4808883868c6201345a565b6200f3b55797505050505050505090565b958398506200f4c391999495839885610100956101406200f4cb980135926080610160840135930135908b8b62014f2b565b9601620076c5565b806200f558575b6200f5325750506200f4e490620076c5565b806200f528575b6200f4f557505090565b7f59468f520017226c0116472def96f905dbeff518444091b355de591a2161cdbe9160409182519182526020820152a190565b508115156200f4eb565b9061ffff60028693015460a81c1663578f7fed60e01b5f5260045260245260445260645ffd5b508415156200f4d2565b506200f5726101008501620076c5565b6200f39e565b845f5260128a0160205260405f209064ffffffffff825460b81c161515806200f69d575b6200f60e57505460b81c64ffffffffff16808311156200f38557979550975094505050506200f5f8577f604559a5e01ca154dad1c02a9ef408530f8fa41f3506e6a57f7d2ac727e148229160409182519182526020820152a190565b9063604559a560e01b5f5260045260245260445ffd5b99509697955050505050506200f66c577f189a4ff828fb1a93c81a2248c39ac499b67bf632ade3d5f89935821e8d1ec9989160ff60409254831c16906200f658835180936200723a565b6200f6638162006f4c565b6020820152a190565b5463031349ff60e31b5f5260401c60ff16600281101562004191576004526200f6958162006f4c565b60245260445ffd5b506200f6b18960ff845460401c166201343a565b6200f59c565b81601f82011215620034fb578051906200f6d182620074a0565b926200f6e160405194856200747e565b82845260208383010111620034fb57815f9260208093018386015e8301015290565b90602082820312620034fb5781516001600160401b038111620034fb576200751592016200f6b7565b90916200f746620075159360408452604084019062006f28565b91602081840391015262006f28565b519063ffffffff82168203620034fb57565b519077ffffffffffffffffffffffffffffffffffffffffffffffff82168203620034fb57565b51908160170b8203620034fb57565b9081610120910312620034fb576200f84f610100604051926200f7bf84620073b7565b805184526200f7d1602082016200f755565b60208501526200f7e4604082016200f755565b60408501526200f7f7606082016200f767565b60608501526200f80a608082016200f767565b60808501526200f81d60a082016200f755565b60a08501526200f83060c082016200f78d565b60c08501526200f84360e082016200f78d565b60e0850152016200f78d565b61010082015290565b915f905f905f918151820160808360208301920312620034fb5780603f84011215620034fb57604051606081018181106001600160401b038211176200334f576040526080840190828211620034fb5760208501905b8282106200fd7457505051906001600160401b038211620034fb5760206200f8d9928501016200f6b7565b8051156200640d5761ff0080602083015160f01c1616908051600110156200640d576021015160f81c17600381036200fd1a57506020916040516200f91f84826200747e565b5f815288156200fcf2575f906200f95b926001600160a01b0360ca54169083604051809681958294637bf41d7760e11b8452600484016200f72c565b03925af19081156200fce7575f916200fcc0575b50925b8351956200f9888480870198870101886200f79c565b516006890154908181036200fc5257505063ffffffff60406200f9b18688518901018a6200f79c565b015116964288116200fbe25760018901549463ffffffff8660801c16808a11156200fb6c575060c06200f9ea8289518a0101846200f79c565b0151968760170b5f81126200fb0e575063ffffffff9260a092826200fa1393510101906200f79c565b015116906200fa2a61ffff8660d01c164262007e6e565b8083106200fa985750505050506200fa869177ffffffffffffffffffffffffffffffffffffffffffffffff6200fa6a60ff6200fa729460e01c16620138ab565b91166200b6cf565b9463ffffffff60098596015416866200b767565b6200fa92575050600192565b93909150565b9450945094955096909795506200faf4576040805192835263ffffffff9093166020830152918101919091527f7f93aebf261535cb0331009511ba8896f348b68b1e0d448196c002a6bfcbdb7a9080606081015b0390a1929190565b9250637f93aebf60e01b5f5260045260245260445260645ffd5b97505094505094955096909795506200fb5557916040917f4d8c851d919cf102ec02f76a35ca2f0b9e8ca3e9cd36ecc7128c03c7048e247a938351928352820152a1929190565b5090634d8c851d60e01b5f5260045260245260445ffd5b979895505050935096909795506200fbc8576040805192835263ffffffff93841660208401529216918101919091527fac23cd4bf85c84f3aa74c4752cbc1abc6ca3871a6e6b676f56bd64f992b700ae9080606081016200faec565b925063ac23cd4b60e01b5f5260045260245260445260645ffd5b50949593509691509694506200fc38576040805192835263ffffffff909116602083015242908201527f560f753ea20ff5d3b404893dc8502570dec81bbc02626784a8f3d635f9c21b299080606081016200faec565b90632b07ba9f60e11b5f526004526024524260445260645ffd5b9450959650935096909795506200fca657604080519283526020830193909352918101919091527fe9ab5ccfbd8b803e0bd519630f62d1a32b22e517a5bfcd78e8c860b36c98386b9080606081016200faec565b925063e9ab5ccf60e01b5f5260045260245260445260645ffd5b6200fce091503d805f833e6200fcd781836200747e565b8101906200f703565b5f6200f96f565b6040513d5f823e3d90fd5b6200fcfe9187620136f8565b90156200fd0c57926200f972565b509694505093509050929190565b955050505050916200fd5e577f09c9ec7d8ebb7546d7aa7fae159f14736cab80420326900e4b1ce60942f331d89160409182519182526020820152a15f905f905f90565b906309c9ec7d60e01b5f5260045260245260445ffd5b81518152602091820191016200f8ae565b91908281116200fdc657808303926001600160501b0384116200fda6575050565b63733cc1d960e11b5f526004526024526001600160501b0360445260645ffd5b9050637509da4360e11b5f5260045260245260445ffd5b91908281116200fdc6578083039264ffffffffff84116200fdfc575050565b63733cc1d960e11b5f5260045260245264ffffffffff60445260645ffd5b91906200fe28818462007e6e565b926001600160501b0384116200fe3c575050565b632242001360e21b5f526004526024526001600160501b0360445260645ffd5b91906200fe6a818462007e6e565b9264ffffffffff84116200fe7c575050565b632242001360e21b5f5260045260245264ffffffffff60445260645ffd5b926200fec39060a095929897969361ffff60c087019a168652602086015260408501906200723a565b6060830152151560808201520152565b9054935f939091849160b887901c64ffffffffff16811115620102d3575064ffffffffff8660b81c16915b829660018301546200ff366200ff2562002fde60ff8460e81c1660ff8560e01c1662007e6e565b8663ffffffff8560981c1662010c37565b6200ff4f60028601549161ffff8360c81c169062010c88565b986200ff5c88876200bddf565b9990809860058c1015918262004191578c151580620102c4575b620102a757505062004191576200ffa98c8b159863ffffffff8860981c16908860e01c908c60ff8b60401c16916200c62b565b959150506200ffd08d6001600160501b038860481c1664ffffffffff8960b81c16620139d4565b939050600260ff8860401c16101562004191578d9c8760401c60ff16159e8f91888560e81c60ff16928660e01c60ff1692898d60981c63ffffffff169162010018976201099f565b9b8c15620101e057508d80620101d6575b8015620101c2575b620101385750808d868e60ff806201005f9660e81c169460e01c16928763ffffffff8c60981c1691620108d8565b988915620100735750505050505050600196565b9c969798999a9b9c620100ec576040805160a89490941c61ffff168452602084019190915282015260989290921c63ffffffff1660608301526080820189905260a08201527f2e92846d5b5d5dd9cf60dd19064afe4a911e6751cdad455cb26a600db66e963c908060c081015b0390a196959493929190565b604051632e92846d60e01b815260a89390931c61ffff1660048401526024830152604482015260989290921c63ffffffff1660648301526084820189905260a48201528060c481010390fd5b9a9b9c9d979899925050919250620101905791620100e089878960ff957f1ae2d36bf92917b7a1d46b202b08d846857974213d6d8801cfb7ce7112a727fa9761ffff60405198899860401c169260a81c16876200fe9a565b88868860ff95946200177d9461ffff604051988998631ae2d36b60e01b8a5260401c169260a81c16600488016200fe9a565b508d1580156201003157508b8a1062010031565b508b8a1162010029565b999a91509a9b9c9d97506201025b576040805160a89490941c61ffff168452602084019190915282015260989290921c63ffffffff1660608301526080820189905260a08201527f0df65f0bfef22299d2332a74323c24d136c79b82d668afc82cfe8dfb0d75a2f2908060c081010390a19695949392911590565b604051630df65f0b60e01b815260a89390931c61ffff1660048401526024830152604482015260989290921c63ffffffff1660648301526084820189905260a48201528060c481010390fd5b9c509c5050505050505050505050505f925f92915f915f91905f90565b505f925060018d14156200ff76565b916200fefe565b90929182156201036d5783821062010365576201030c915b848415620103595762010305916200796a565b9062007924565b81156201034757620186a09004905b156201032d5790620075159162007e6e565b80821115620103415762007515916200796a565b50505f90565b620103529062011d2b565b906201031b565b9062010305916200796a565b505050505f90565b81841062010365576201030c91620102f2565b95620103f3919296959394955f9584549888620103b68b9a6001600160501b038c60481c1664ffffffffff8d60b81c16620139d4565b979093620103e98360ff620103cb8c6200c93e565b9f60401c169d8e63ffffffff8260981c169160e01c90858b6200c62b565b9991909a6200bf7f565b9b5f8d1315620105d55750506201040a8b6200c93e565b8b620186a06201043c60038901549262ffffff836201042f828760401c16846200c96a565b059460581c16906200c96a565b056201044f819e62009fcb84846200bf7f565b9b87159081620105cc575b50620105a1575b506001600160501b0362010480620104ab92828a5460501c1662015bfd565b885469ffffffffffffffffffff60501b1916911660501b69ffffffffffffffffffff60501b16178755565b5f620104b782620139f5565b9112156201058f57620104cc90848762010d46565b825f5260d560205260405f2093620104e58c8662013a05565b99620104fe60c954916001600160701b03831662015bfd565b906001600160701b0319161760c95560ff825460401c16600281101562004191576201057d5762010530838762013a82565b156201056157505061ffff600284620105536005946011620075c19801620125dc565b015460a81c1691016201272c565b91509150620075c19250620105778a8262013aad565b62013b02565b62010589838762013a3c565b62010530565b6201059b90866200b6a3565b620104cc565b909c50620105b481620105bb936200bf7f565b9d6200bf7f565b9b5f9b6001600160501b0362010461565b90505f6201045a565b8c60c492856200e4a1889461ffff60028d015460a81c169560405196630c62a44b60e11b88526004880152602487015260448601906200723a565b9260a094919796959260c085019885526020850152620106308162006f4c565b6040840152606083015260808201520152565b90805f5260d560205260405f2092825f526003840160205260405f20549061ffff8260401c168015620107cf579394936201067e81620079d1565b936201068e60405195866200747e565b818552601f196201069f83620079d1565b0136602087013760028601965f9463ffffffff165b80151580620107c5575b15620106fd5761ffff95620106e2620106d78262007d9c565b978316918962007a68565b525f528760205263ffffffff60405f205460201c16620106b4565b509350939195509362010710836200914e565b600981019260105f9201915b8781106201072e575050505050505050565b807fb52688454dfd5028443d05c10bc78a9ca263b7c7645d2e8bfef428d0e8b3b0476201075e6001938562007a68565b51805f5285602052620107786200145960405f2062008be4565b62010785818a896200e783565b9062010792818a6200eb15565b620107bb6040519283928d8d859094939260609260808301968352602083015260408201520152565b0390a1016201071c565b50838610620106be565b509350505050565b6002015464ffffffffff8082169160281c1690818103620107f6575050565b6395626a2760e01b5f5260045260245260445ffd5b803b156201086d576001600160a01b03166001600160a01b03197f360894a13ba1a3210667c828492db98dca3e2076cc3735a920a3ca505d382bbc5416177f360894a13ba1a3210667c828492db98dca3e2076cc3735a920a3ca505d382bbc55565b60405162461bcd60e51b815260206004820152602d60248201527f455243313936373a206e657720696d706c656d656e746174696f6e206973206e60448201527f6f74206120636f6e7472616374000000000000000000000000000000000000006064820152608490fd5b949591620108f26200ac44620108f9939596948962010eb9565b9462007924565b90811562010995576201092062010926916201091a6201092c955f6200bf9b565b6200bf9b565b6200c94f565b6200c98e565b821562010983576201093e916200bf7f565b915b5f83126201097c576006036006811162003242576201095f9062008ec5565b90156201097157620075159162011d59565b62007515916200b6cf565b5050505f90565b6201098e916200bf9b565b9162010940565b5050505050505f90565b9596926200c69b6200ac44620109bb9394959796978a62010eb9565b918215620109dc576201092c936201091a620109209262010926946200bf9b565b505050505050505f90565b979294939195979690966104a05262010a075f828a8a6104a051620148b7565b909398949c91610480529291979b8062010bbf57508a5493895f5260d560205260405f209662010a3c8a8c6104a05162010d46565b62010a488a896200b6a3565b60ff8d5460401c169860028a101562004191576001600160501b037fd703c4a5a6df297a33d23db6017052526cadd6a581a903e554fc97dcd35a0ea39f9e6102009f64ffffffffff9c9a8f918e9c155f1462010baa5762010aad826104a05162013a82565b1562010b88575062010ac69060116104a05101620125dc565b62010ae361ffff60026104a051015460a81c1660058d016201272c565b549954169b60206040519e8f9081520152151560408d015262010b1060608d0160ff8860401c166200723a565b63ffffffff8660981c1660808d015260a08c0152151560c08b015260e08a01526101008901526101208801526001600160501b038160481c166101408801526001600160501b038360481c1661016088015260b81c1661018086015260b81c166101a08401526101c08301526101e0820152a1600190565b62010ba4915062010b9d610480518462015df9565b8262013b02565b62010ae3565b62010bb9826104a05162013a3c565b62010aad565b9850505050505050509250600a9193501462010bdb5750505f90565b608492506001600160501b036104a051546040519363063c641b60e41b85526004850152818116602485015260501c1660448301526064820152fd5b9762010a07919899949396999792976104a052828a8a6104a051620148b7565b9062010c439162007924565b90620f4240820291808304620f424014901517156200324257620075159162011d59565b9060018210158062010c7e575b156200dd5c575090565b5080821062010c74565b906064820291808304606414901517156200324257620075159162011d59565b81159291838062010d1c575b1562010cc35750505050600190565b5f925f9415928362010cd8575b505050501090565b9193509193508281115f1462010d0f57620186a08382035b02931562010d065750025b905f80808062010cd0565b91500262010cfb565b620186a081840362010cf0565b50811562010cb4565b906001600160501b03809116911601906001600160501b0382116200324257565b80546001600160501b0381169493929085841162010d6d575050620075c19293506200dc85565b6001600160501b039060509492941c166001600160501b0362010d91828862010d25565b16821162010e17575061ffff600262010dd17f24600c3aa8cc38cbdf9648ea5ebfea6227de49651807d1a2a58fe70ea24953cc969762009ab4946200796a565b845469ffffffffffffffffffff191685559362010def85826200c8f5565b015460a81c16916040519384938460409194939261ffff606083019616825260208201520152565b6002830154604051635b80bdb960e11b815260a89190911c61ffff1660048201526001600160501b0380881660248301529091166044820152606481019190915280608481010390fd5b9190916001600160501b0383116200a9dd576001600160501b03620075c192931672ffffffffffffffffffff0000000000000000001972ffffffffffffffffffff00000000000000000083549260481b169116179055565b90915f5f9280155f1462010f40575050620f4240925b8062010ede5750620f42409150565b6001810362010ef05750620186a09150565b6002810362010f0157506127109150565b6003810362010f1257506103e89150565b6004810362010f22575060649150565b6005810362010f325750600a9150565b600603620075c15760019150565b6001810362010f57575050620186a0925b62010ecf565b6002810362010f6c5750506127109262010ecf565b6003810362010f815750506103e89262010ecf565b6004810362010f9557505060649262010ecf565b6005810362010fa9575050600a9262010ecf565b9093906005190162010f51576001935062010ecf565b906001600160a01b036201101f92165f806040519362010fe16040866200747e565b602085527f5361666545524332303a206c6f772d6c6576656c2063616c6c206661696c6564602086015260208151910182855af162005448620136c4565b8051908115918215620110a2575b5050156201103757565b60405162461bcd60e51b815260206004820152602a60248201527f5361666545524332303a204552433230206f7065726174696f6e20646964206e60448201527f6f742073756363656564000000000000000000000000000000000000000000006064820152608490fd5b8192509060209181010312620034fb57602001518015158103620034fb575f806201102d565b60018103620110da5750600160f11b90565b60028103620110ec5750600160f21b90565b60038103620110fe5750600160f31b90565b6004036201110e57600160f41b90565b600160f01b90565b156201111e57565b634e487b7160e01b5f52600160045260245ffd5b9262009fc5906201092662011167946201116087956201115981620111598960646200bf9b565b946200bf9b565b906200c96a565b8160648293125f14620111945713158062011188575b620075159062011116565b5060648113156201117d565b6200751591606413159081620111ac575b5062011116565b90508213155f620111a5565b620111df92620109266064936201116062009fc5946201115981620111598960016200bf9b565b8060011315806201118857620075159062011116565b6201120661a767820680926200796a565b915f5f9261217b81101562011224575b506200751590928462007e6e565b919250506142f681101562011246575061217b906200751560015b9062011216565b6164718110156201126257506142f6906200751560026201123f565b6185ec11156201127c57616471906200751560036201123f565b6185ec906200751560046201123f565b6101e08190526102a08490525f6102605290926103e891620112b2919060090162014982565b610320525f61024052610280839052915b8015158062011d1e575b1562011cda578315158062011ce5575b62011cda57505f610200525f6102e0525f610220525f61020052620113098260096101e051016200c7b6565b506101c052610280516102e052610220525b6102e05115158062011ccd575b8062011cc0575b1562011bce576101c0515f5260106101e0510160205260405f20805463ffffffff81165f5260d560205260405f206102c05260ff6102c0515460a01c16620113778162006f4c565b156201141b57505f8161ffff7f86ad99b48b2565c9720e33335db58e8c7468d6af03a5e6238b20d4a562f5b8b4935460c81c166101c05262011412620113d760018461ffff60026101e051015460a81c16809560096101e0510162016bf4565b9096916040949394519788978893909796959260c0959260e08601998652602086015260408501526060840152608083015260a08201520152565b0390a16201131b565b6201142f63ffffffff8260781c166200e691565b156201148f57505f8161ffff7fb95e250f9f017dcb1bb1806916771df0c04a269e5f46d5db7519382a0f7bb477935460c81c166101c05262011412620113d760018461ffff60026101e051015460a81c16809560096101e0510162016bf4565b63ffffffff8116620114f557505f8161ffff7f52d5291dc7b477ebda965d0693c67e6ccec5b3667b530305685465384756d3fd935460c81c166101c05262011412620113d760018461ffff60026101e051015460a81c16809560096101e0510162016bf4565b5f6201150760ff8360201c1662012c1a565b62011b76575b156201156d57505f8161ffff7fae6369c6e529c86dd87431d10e0db70657c834daa75356e1efd7c0ac79f934b7935460c81c166101c05262011412620113d760018461ffff60026101e051015460a81c16809560096101e0510162016bf4565b9064ffffffffff8260401c166201158a60ff8460201c1662012c1a565b62011b3b575b6102e051811180156103005262011b2d5762011619815b60026101e05101549061ffff620115f5620115e960ff8560e01c1660ff8660d81c1664ffffffffff8760501c1664ffffffffff881687878a60b81c166200dd79565b828960981c1662010c67565b9260881c1691610320519060ff8860201c169063ffffffff89166101e05162013b3f565b94979588935090506006198101620119de575061030051156201196d576201165362011649876103205162007924565b6102005162007e6e565b6102005262011666866102e0516200796a565b6102e0525b620116796102205162008eb8565b6102205261030051156201179b575050509161012093918593620116d4620116cd63ffffffff7ff5f5aef063f495816b6982c44c70c97c8fbec2fa24b73487e6542ce02143121499166200f1428562008be4565b956200bf7f565b9261ffff835460c81c166101c0526201172c6201170b61ffff8860a81c1661ffff60026101e051015460a81c166102c0516200e783565b936201171e60ff825460201c166200ee6e565b9060096101e0510162011fb9565b6201174561ffff8760a81c1660096101e0510162012525565b61ffff8060026101e051015460a81c169660405197885263ffffffff8116602089015260a81c166040870152610320516060870152608086015260a085015260c084015260e0830152610100820152a16201131b565b90949391955060ff60026101e0510154925460201c165f9061ffff8960a81c1615620119415761ffff8960a81c166303ff00008560981c16175f5260026102c0510160205260405f209384549163ffffffff8316156201190c57967ff5f5aef063f495816b6982c44c70c97c8fbec2fa24b73487e6542ce0214312149a98969492819694926201182f6101209c9a62011ef9565b1562011898575050505062011887826001600160501b036201185c848262011891975460901c16620149cf565b825469ffffffffffffffffffff60901b1916911660901b69ffffffffffffffffffff60901b16179055565b6102c05162011f6e565b9162011745565b6201190694509461ffff620119009293949660a81c165f5260036102c0510160205264ffffffffff620118d5858260405f209660681c166200fddd565b825471ffffffffff000000000000000000000000001916911660681b64ffffffffff60681b16179055565b62011f21565b62011891565b5061ffff8a8163ffffffff60016102c05101541693638d5bba0f60e01b5f5260a81c1660045260a81c1660245260445260645ffd5b8361ffff63ffffffff60016102c051015416916369bc91ef60e11b5f5260a81c1660045260245260445ffd5b945062011985620116496102e0516103205162007924565b61020052620119ce64ffffffffff620119a86102e05182885460401c166200fddd565b86546cffffffffff00000000000000001916911660401b64ffffffffff60401b16178555565b6102e051945f6102e0526201166b565b9650505050509250600d821462011acf5782610160927f72777d4856cf973d1b0f65b47f675f18842c122c2a529a294343fd22a6c1354794549061ffff8260c81c166101c05261ffff60026101e051015460a81c169384610300515f1462011ab8575f60019160ff62011a5f94965b60201c169660096101e0510162016bf4565b949395929691906040519889526020890152604088015262011a818162006f4c565b606087015261032051608087015260a086015260c085015260e08401525f610100840152610120830152610140820152a16201131b565b62011a5f91505f60019160ff6102e0519662011a4d565b60a461ffff60026101e051015460a81c1661ffff60016101e051015460405192632317b0b160e11b8452600484015263ffffffff8160401c16602484015263ffffffff8160801c16604484015242606484015260d01c166084820152fd5b620116196102e051620115a7565b63ffffffff83165f5260126101e0510160205264ffffffffff60405f205460b81c1681811062011b6d575b5062011590565b90505f62011b66565b5063ffffffff81165f5260126101e0510160205260405f2064ffffffffff815460b81c1615151590811562011bad575b506201150d565b62011bc7915060ff808460201c16915460401c166201343a565b5f62011ba6565b61022051916102e0519062011bea610200516102605162007e6e565b610260526102e051610280510362011caa575b610220511562011c3b576102e05162011c19575b9290620112c3565b915062011c306102a05160096101e0510162014982565b610320529162011c11565b50929150507fb492fac0bb9e8c8d824bf2a4c19ec1efd3e98e987de34e127bc17eb2b5c0605e5f80a15b6102405162011c7057565b6101e05161024051600391909101805467ffffffffffffffff191663ffffffff92909216919091174260201b63ffffffff60201b16179055565b61032051610240526102e0516102805262011bfd565b506102205115156201132f565b506101c051151562011328565b939250505062011c65565b506102a0518062011d11575b80620112dd57506102a051158015620112dd5750610320518411620112dd565b5061032051841062011cf1565b50610320511515620112cd565b5f908062011d37575090565b5f198101915081116200324257620186a0900460018101809111620032425790565b908162011d665750505f90565b5f198201918211620032425762011d7d916200b6cf565b60018101809111620032425790565b7fffffffffffe0000000000000000000000000ffffffffffffffffffffffffffff62009d3460c954926c1fffffffffffffffffffffffff8460701c166200fd85565b906303fcffff80821162011e2757507fffffffffffff00000000ffffffffffffffffffffffffffffffffffffffffffff79ffffffff0000000000000000000000000000000000000000000083549260b01b169116179055565b906395d41f3f60e01b5f5260045260245260445ffd5b906303fcffff80821162011e275750815463ffffffff60401b191660409190911b63ffffffff60401b16179055565b906303fcffff80821162011e2757507fffff00000000ffffffffffffffffffffffffffffffffffffffffffffffffffff7dffffffff000000000000000000000000000000000000000000000000000083549260d01b169116179055565b906303fcffff80821162011e275750815467ffffffff00000000191660209190911b63ffffffff60201b16179055565b62011f048162006f4c565b801590811562011f12575090565b600191506200ee968162006f4c565b64ffffffffff62011f3d620075c19382845460581c166200fddd565b82546fffffffffff00000000000000000000001916911660581b6fffffffffff000000000000000000000016179055565b919062011f8d620075c1916001600160501b03855460501c16620149cf565b835469ffffffffffffffffffff60501b1916605082901b69ffffffffffffffffffff60501b1617909355565b9080548060281c9062ffffff821694859262011fd684876200c7b6565b9061ffff8560a81c1680911491826201251a575b505062012344575b50505050805461ffff8160b81c1690811580809162012334575b15620120f95750505050600690620120296007840680946200796a565b5f520160205260405f2090600160ff1983541617825580155f14620120575750805464ffffffff0019169055565b60018103620120735750805468ffffffff000000000019169055565b6002810362012093575080546cffffffff00000000000000000019169055565b60038103620120b75750805470ffffffff0000000000000000000000000019169055565b60048103620120d15750805463ffffffff60881b19169055565b600503620120e957805463ffffffff60a81b19169055565b805463ffffffff60c81b19169055565b92949215620122825750508261ffff91826007955460c81c166201212186830680936200796a565b5f526006850160205260405f2091600160ff1984541617835580155f14620121785750815462ffff00191660089190911b62ffff00161790555b5460c81c165f520160205260405f2061ffff60b81b198154169055565b60018103620121a65750815466ffff0000000000191660289190911b66ffff0000000000161790556201215b565b60028103620121dc575081546affff000000000000000000191660489190911b6affff000000000000000000161790556201215b565b6003810362012210575081546effff00000000000000000000000000191660689190911b61ffff60681b161790556201215b565b600481036201223a5750815461ffff60881b191660889190911b61ffff60881b161790556201215b565b6005036201226257815461ffff60a81b191660a89190911b61ffff60a81b161790556201215b565b815461ffff60c81b191660c89190911b61ffff60c81b161790556201215b565b60c81c61ffff1680620122c857505082620122ab61ffff92836007965460b81c169085620149fa565b5460b81c165f520160205260405f2061ffff60c81b198154169055565b620075c1949192506201230390600761ffff9501935f528360205260405f209061ffff60c81b1961ffff60c81b83549260c81b169116179055565b5490828260c81c165f5260205260b81c1660405f209061ffff60b81b1961ffff60b81b83549260b81b169116179055565b5061ffff8260c81c16156201200c565b6003860192600587018160301c9261ffff841690815f5282602052600160ff60405f2092161b1981541690555f5260205260405f205415620124cb575b5050156201242e57835462ffffff8160781c1683145f14620123f7575090620123aa916200ed54565b5f198103620123e5575081547fffffffffffffffffffffff000000000000ffffffffffffffffffffffffffffff1682555b825f808062011ff2565b620123f190836201600b565b620123db565b60901c62ffffff1682146201240f575b5050620123db565b62012426916201241f9162015e17565b8362015fba565b825f62012407565b835462ffffff8160481c1683145f146201249d5750906201244f916200ed54565b5f19811480156201248a575b156201247e575081546effffffffffff00000000000000000019168255620123db565b620123f1908362015f85565b5062ffffff835460781c1681146201245b565b60601c62ffffff168214620124b4575050620123db565b6201242691620124c49162015e17565b8362015f31565b60ff9060381c16906004870190825f5281602052600160ff60405f2092161b198154169055815f5260205260405f20541562012509575b8062012381565b6001901b1982541682555f62012502565b1490505f8062011fea565b5f828152600782016020526040902080547fffffffffff0000000000000000000000000000000000000000000000000000001663ffffffff60781b1790558115620125cd576201259d82620075c19360081c90815f5260028401602052600160ff60405f2092161b198154169055600183016201604c565b620125b061ffff825460201c166200e772565b65ffff0000000082549160201b169065ffff000000001916179055565b6302f9530760e61b5f5260045ffd5b906001820191815f528260205260405f209064ffffffffff825460b81c16620126055750505050565b805463ffffffff168303620126fb576201262763ffffffff8354168262014b71565b63ffffffff82541680620126dc575b505b805460201c63ffffffff168303620126a257906201266363ffffffff9283835460201c169062014baf565b5460201c168062012686575b505b5f526020525f60408120555f80808062009956565b5f528160205260405f2063ffffffff1981541690555f6201266f565b505463ffffffff81165f908152602084905260409020805467ffffffff00000000191663ffffffff60201b90921691909117905562012671565b5f528360205260405f2063ffffffff60201b1981541690555f62012636565b815463ffffffff8160201c165f528460205263ffffffff8060405f2092161663ffffffff1982541617905562012638565b9060fc811162012742576001901b198154169055565b6101fc81116201279757620127596001916200795a565b1b196001820190815416809155156201276f5750565b7fdfffffffffffffffffffffffffffffffffffffffffffffffffffffffffffffff8154169055565b6102fc8111620127ec57620127ae60019162007949565b1b19600282019081541680915515620127c45750565b7fbfffffffffffffffffffffffffffffffffffffffffffffffffffffffffffffff8154169055565b6103fc811115620127fb575050565b6201280860019162007938565b1b196003820190815416809155156201281e5750565b6001600160ff1b038154169055565b9061010003610100811162003242575f19901c16806201284d57505f1990565b62007515905b905f916fffffffffffffffffffffffffffffffff811162012959575b6001600160401b03811162012942575b63ffffffff81116201292b575b61ffff811162012914575b60ff8111620128fd575b600f8111620128e6575b60038111620128cf575b600110620128bf57565b9060018101809111620032425790565b916002810180911162003242579160021c620128b5565b916004810180911162003242579160041c620128ab565b916008810180911162003242579160081c620128a1565b916010810180911162003242579160101c62012897565b916020810180911162003242579160201c6201288c565b916040810180911162003242579160401c6201287f565b60809250821c6201286f565b6001811092918315620129da575b836201297d575050565b620129ba57507f36bcd027a371ec05acd4f563a155f51be204511b55fb95d0451703d02e3ca185604080516001815264ffffffffff6020820152a1565b630793b30360e11b5f52600452600160245264ffffffffff60445260645ffd5b92508064ffffffffff109262012973565b919091620129f9816200e691565b928362012a04575050565b62012a3b5760407f8ecb05e775f8b004d0796e497a6b28cfe97a6f8acd115327138350b5a08347ed918151908152436020820152a1565b638ecb05e760e01b5f526004524360245260445ffd5b61ffff811192918362012a62575050565b62012aa25760607fe99e76b7075a2c30a8d971cb3f247cba3e1995e4d12ff31053b190b2f71dcc7b916040519081525f602082015261ffff6040820152a1565b63e99e76b760e01b5f526004525f60245261ffff60445260645ffd5b90919294935f95840362012ad25750505050565b90919293945062012b11575050507fd4c307936a68788d79a4dbca49cc3521ff20fa2e5984a45ab8ea332e9d1796b55f80a16001905f80808062009956565b6303fd97ab60e21b5f5260045260245260445260645ffd5b91905f92815f5260d560205260405f209161ffff608083015116918215801562012b60575b505050506001600160501b0390541690565b6127108495979402948504612710141715620032425760c95460701c6c1fffffffffffffffffffffffff169081851162012bc457505050508062012bac6001600160501b039262011d8c565b62012bb881856200b6a3565b925b905f808062012b4e565b916080916001600160501b039561ffff60e07f5d8e434afef436d0cbafab1ae9386b8f70c885ee513868335f9474f61202d346969a979a015116604051938452602084015260408301526060820152a162012bba565b62012c258162006f4c565b600281149081156200ee87575090565b610400526103a05260405190949362012c4e8262007429565b5f82525f602083015281905f5f6103c0525f6103c05260026104005101549388546104405263ffffffff6104405160781c169060c087013592821515806201342f575b156201340e575060016103c0528215620133675750506103c05190925b5f9264ffffffffff6104405160401c169760a0880135801515806201335c575b62013329575b5061040051600901546104405160281c62ffffff16949063ffffffff168562013317575f5b99608001358015158b816201330b575b50620132e5575b505015620132d85790888893928861ffff6104405160981c169762012d5e60ff8360e01c1660ff8460d81c1664ffffffffff8560501c1664ffffffffff86168861ffff8860b81c166200dd79565b90806104205215620132cb575b62012d7f60ff6104405160201c166200ee6e565b6103e0525f9861042051620130d3575b505050505050505062ffffff62012dcb916103c051620130b7575b895467ffffff00000000001916911660281b67ffffff000000000016178855565b865463ffffffff60781b607884901b167fffffffffffffffffffffffffff00000000ffff0000000000ffffffffffffffff90911664ffffffffff60401b604088901b16171787556103c05162013072575b61042051156201302f5760ff875460201c1661ffff6104405160a81c1615620130035761ffff6104405160a81c166303ff00008560981c16175f5260026103a0510160205260405f209081549063ffffffff82161562012fc95762012e819062011ef9565b1562012fa1576001600160501b0362012ea29160901c166103a05162011f6e565b506001600160501b03821162012f83579161ffff62012f258362012f1b60c098966001600160501b037fbf5d27a683d1ce858f6095fde2cc9837ba595c533e97576c5ff3de4376ccbf3c9b99971669ffffffffffffffffffff60901b1969ffffffffffffffffffff60901b83549260901b169116179055565b6103a05162016a36565b925b816040519162012f378362007429565b60a81c168152816104405160a81c166020820152985460a81c16936001600160501b036103a051541693604051958652602086015260408501526060840152608083015260a0820152a1565b506395d41f3f60e01b5f526004526001600160501b0360245260445ffd5b61ffff8563086415b760e01b5f5260a81c1660045261ffff6104405160a81c1660245260445ffd5b8561ffff63ffffffff60016103a05101541691638d5bba0f60e01b5f5260a81c1660045261ffff6104405160a81c1660245260445260645ffd5b8361ffff63ffffffff60016103a051015416916369bc91ef60e11b5f5260a81c1660045260245260445ffd5b50917fbf5d27a683d1ce858f6095fde2cc9837ba595c533e97576c5ff3de4376ccbf3c939160c09361ffff6001600160501b036103a0515460501c169262012f27565b86547fffffffffff00000000ffffffffffffffffffffffffffffffffffffffffffffff1687556103e05161040051620130b191908990600901620166b3565b62012e1c565b620130cd6103e0518b6009610400510162011fb9565b62012daa565b879950918486979861ffff620130f26201310e95620131329762010c67565b9360881c169260ff6104405160201c1690876104005162014c04565b50979390968b889493949d6103e05160ff6104405160201c168a6104005162014d04565b15620132bc5761ffff6104405160a81c166303ff00008a60981c16175f5260026103a0510160205260405f20549063ffffffff8216156201329157506001600160501b039060901c16906103a05154926001600160501b038460501c16928084116201327d575b506001600160501b035f94169280841162013267575b5080156201325f57620131c29162007e6e565b905b818311159384620131f1575b50505050620131e7578080888188818b9662012d8f565b9750505050505050565b62013245576040805192835260208301939093526001600160501b0316918101919091527fb853e5846ad52919c794f709695100094681c458cd1864d5217c6c897b6858b190606090a15f808080620131d0565b9250632e14f96160e21b5f5260045260245260445260645ffd5b5090620131c4565b62013275919450836200796a565b925f620131af565b6201328991936200796a565b915f62013199565b61ffff8a638d5bba0f60e01b5f5260a81c1660045261ffff6104405160a81c1660245260445260645ffd5b50929a50505050505050505050565b8881106104205262012d6b565b5090985050505050505050565b60016103c08190529a508a97509550620133019150856200796a565b93975f8062012d10565b90508114155f62012d09565b62013323818762007e6e565b62012cf9565b9350979093506103c051906103c0511562013351575b506103c0526001928392975f62012cd4565b905082115f6201333f565b508981141562012cce565b9695509750509050620133d0576200bbe47fef9c486e607431362e32f87055ecc54107d0bde504cfbca8d6a59a6108b99ead93949560405193849361ffff806104405160a81c169160a81c16859094939260609260808301968352602083015260408201520152565b6040516377ce243760e11b81526104405161ffff60a893841c81166004840152921c9091166024820152604481019190915260648101849052608490fd5b9280915094919462013422575b5062012cae565b9350600191505f6201341b565b504383111562012c91565b60028110156200419157600290620134528362006f4c565b159114141590565b939190805f5260d5602052600360405f20019061ffff600287015460a81c1691825f5260205260405f205464ffffffffff8160581c169687156201363f57601290835f520160205260ff60405f209160501c1690549260ff8460401c16926002841015620041915783158315150362013575575050505060b81c64ffffffffff1693808511156201356c57620134f190856200796a565b905b818111938415946201350757505050909150565b62013551576200da9f7f1b7ba008cbebdd0330e64275c62765a671adbce08d86e7b894f0601a886b78cf939495604051938493846040919493926060820195825260208201520152565b84925063036f740160e31b5f5260045260245260445260645ffd5b505f90620134f3565b929597969194509250620135e957505091620135d86060927f04d93c80531ebbd61ebd9906714391b8431ec4437abe44969d252210244128de945f14620135dd57620135cd5f5b60405194855260208501906200723a565b60408301906200723a565ba15f90565b620135cd6001620135bc565b836201362962013634928760a4965f1462013636575f915b60405196634298a83160e01b885260048801526024870152604486015260648501906200723a565b60848301906200723a565bfd5b60019162013601565b5050505050915050600190565b5f60443d1062007515576040513d600319016004823e8051913d60248401116001600160401b03841117620136be57828201928351916001600160401b038311620136b6573d84016003190185840160200111620136b6575062007515929101602001906200747e565b949350505050565b92915050565b3d15620136f3573d90620136d882620074a0565b91620136e860405193846200747e565b82523d5f602084013e565b606090565b92919092620137315f80936060966001600160a01b0360ca54169083604051809681958294637bf41d7760e11b8452600484016200f72c565b03925af15f91816201388b575b506201388157505f60033d1162013870575b806308c379a0146201381857634e487b7114620137ba575b7f7d7f9345462f0c85c00b5c2083a2ddd2d72fb70e98d0ebed71562cba6feef6879062013794620136c4565b90620137b3604051928392835260406020840152604083019062006f28565b0390a19190565b5f8060233d1162013806575b620137d2575062013768565b7fe526d22a15e94c788050d8c0ca8cddc836ce3580e3dbe7ac64afb9229c7d633e9160409182519182526020820152a19190565b5050602060045f3e5f516001620137c6565b50620138236201364c565b8062013830575062013768565b7fd83687e05ff302f677e5adcaeee1a4cb3c6473e57b9000d71f2c42ff6ada466c91620137b3604051928392835260406020840152604083019062006f28565b5060045f803e5f5160e01c62013750565b9293505050600191565b620138a39192503d805f833e6200fcd781836200747e565b905f6201373e565b60068103620138be575064e8d4a5100090565b60058103620138d257506509184e72a00090565b60048103620138e65750655af3107a400090565b60038103620138fb575066038d7ea4c6800090565b60028103620139105750662386f26fc1000090565b6001146201392457670de0b6b3a764000090565b67016345785d8a000090565b916201394490620038565f841293620139f5565b908080620139c6575b6201097c5715620139a2576333164ee0036333164ee0811162003242576333164ee0916201397c919062007924565b049081806201398c575060019150565b63ffffffff106201399957565b63ffffffff9150565b6333164ee001806333164ee01162003242576333164ee0916201397c919062007924565b506333164ee082116201394d565b82811493928415620139e557505090565b62000a7090620075159362007924565b5f811262013a005790565b5f0390565b919062013a1d906001600160501b0384541662015bfd565b825469ffffffffffffffffffff19166001600160501b03821617909255565b9064ffffffffff62013a5d6002620075c194019282845460281c166200fddd565b825469ffffffffff00000000001916911660281b69ffffffffff000000000016179055565b64ffffffffff62013a9c600282930193828554166200fddd565b161664ffffffffff19825416179055565b6001600160501b0362013acb620075c19382845460481c1662015bfd565b825472ffffffffffffffffffff0000000000000000001916911660481b72ffffffffffffffffffff00000000000000000016179055565b64ffffffffff62013b1e620075c19382845460b81c166200fddd565b825464ffffffffff60b81b1916911660b81b64ffffffffff60b81b16179055565b6104408190526103e08290525f61036081905291825260d560209081526040808420610420819052546001600160501b031661040052601290920190528120929694959192909190828062013b96898b8562015c45565b62013ba18162006f4c565b8062014085575050505062013bc2908387868a610420516104405162015cf8565b8094919294978396869a85971562013c63575b5050505050505b6001600160501b036104205154169461040051861015805f1462013c4d5762013c0961040051886200796a565b905b6001600160ff1b03821162013c33571562013c24579594565b62013c2f906200c93e565b9594565b8763e69a04b360e01b5f526004526104005160245260445ffd5b62013c5c87610400516200796a565b9062013c0b565b9091929394959a5062013c768162006f4c565b6201407c575f925b61ffff600261044051015460a81c16905f60c060405162013c9f81620073d4565b8281528260208201528260408201528260608201528260808201528260a082015201526001600160501b0387116201405e5764ffffffffff841162014042576040519162013ced83620073d4565b5f83525f602084015262013d05866040850162007e7c565b6001600160501b038816606084015263ffffffff8416608084015264ffffffffff851660a084015263ffffffff431660c08401526103e0515f526012610440510160205264ffffffffff60405f205460b81c16620140295750610440516011015460201c63ffffffff168062013fff575062013d8b6103e0516011610440510162014b71565b6103e0515f526012610440510160205260405f2063ffffffff808451161663ffffffff1982541617815562013de563ffffffff602085015116829063ffffffff60201b82549160201b169063ffffffff60201b1916179055565b6040830151906002821015620041915763ffffffff60c062013ea9956200a69a62013e11958562016aec565b62013e266103e0516011610440510162014baf565b6005610420510161ffff600261044051015460a81c1660fc8111155f1462013f54576001901b81541790555b62013e6c62013e62828962007e6e565b610420516200dc85565b62013e7b87610440516200b6a3565b62013e9f6200a8076200a7ff6200a7f98462ffffff610440515460e01c1662007924565b610440516200eb54565b600283101562004191577f15186d79b32cb4800a4d85134007523ec20911a37b484eb263da5831cc191e8e9460e0948462013f3f5762013eed846104405162016b3b565b62013f1b61ffff600261044051015460a81c16956040519687526103e051602088015260408701906200723a565b6060850152608084015260a083015260c0820152a16007945f808080808062013bd5565b62013f4e846104405162016b1a565b62013eed565b6101fc811162013f895762013f6b6001916200795a565b1b60066104205101908154179055600160fd1b815417905562013e52565b6102fc811162013fbe5762013fa060019162007949565b1b60076104205101908154179055600160fe1b815417905562013e52565b6103fc81111562013fd2575b505062013e52565b62013fdf60019162007938565b1b60086104205101908154179055600160ff1b81541790555f8062013fca565b8060208401525f5260126104405101602052620140236103e05160405f2062014b71565b62013d8b565b633f1ed2e160e21b5f526004526103e05160245260445ffd5b836395d41f3f60e01b5f5260045264ffffffffff60245260445ffd5b866395d41f3f60e01b5f526004526001600160501b0360245260445ffd5b60019262013c7e565b909192949899505f97969597506201409d8162006f4c565b600181036201439c57505050620140c09085888561042051866104405162016315565b959496939891879b919b97600a81145f14620140fa578c61ffff600261044051015460a81c166200177d6200aa7b610440515493620139f5565b9b9192939495969798999a9b156201411e575b505050505050509280919462013bdc565b620141359192939495969798506104205162013a05565b505f6201414282620139f5565b91121562014387576201415d906103e0516104405162010d46565b6201418d6201417d6200a7f98862ffffff610440515460e01c1662007924565b62013e9f6200a807828a6200796a565b8454620141a86001600160501b038260481c1694856200bf7f565b5f81126200ad935760ff8260401c169460028610156200419157620142bc64ffffffffff7f7026918e3bf251d8904050f685ad390b1075bff141e27c077fb2e86f194438e3996101209989159662014214600161044051015460ff808260e81c169160e01c1662010eb9565b919092620142556201424d8562014246868a6201423b8463ffffffff8a60981c1662007924565b9760b81c1662007924565b9362007924565b938c62007924565b9062014262828262007e6e565b928b1562014366576200156c926200ac44620142849693620015729362007924565b905b87156201435457620142989162011d59565b955b156201433f57620142af876104405162016b3b565b5460b81c16948562007e6e565b946201430f61ffff60026104405101620142ef8a8a898986865460a81c169343946103e0519060116104405101620170c8565b5460a81c16976040519889526103e05160208a015260408901906200723a565b6060870152608086015260a085015260c084015260e0830152610100820152a16007905f8080808080806201410d565b6201434e876104405162016b1a565b620142af565b6201435f916200b6cf565b956201429a565b62000a70926200ac44620143809693620015729362007924565b9062014286565b6201439690610440516200b6a3565b6201415d565b6003905f9a9495969798999a50620143b48162006f4c565b036201462f5750509085620143d8925f610380528561042051866104405162016170565b6103c0939093526103a0889052610380889052949a95989297929692959491939192600a03620144295761ffff600261044051015460a81c166104405154906200177d6200aa7b6103c051620139f5565b6103a0511562014447575b5050505050505092610380519462013bdc565b62014484906201445a6103c051620139f5565b5f6103c051125f146201461a576201447a906103e0516104405162010d46565b6104205162013a05565b50620144b5620144a56200a7f98962ffffff610440515460e01c1662007924565b62013e9f6200a807828b6200796a565b84549360ff8560401c1690600282101562004191577f6f5d98efdac4a6966f0e3b214c333ce1ea22cc1e13f5c56cb46bddbfc890b38e976101609764ffffffffff931597885f14620145f157506201451784825460b81c166104405162013a82565b62014526856104405162016b1a565b549161ffff8c620145618a8886600261044051019486865460a81c16935f14620145ea5760015b43946103e0519060116104405101620170c8565b5460a81c169715620145df576201458e60015b604051998a526103e05160208b015260408a01906200723a565b60608801526001600160501b038260481c1660808801528a60a088015260c087015260b81c1660e0850152610100840152610120830152610140820152a16007610380525f80808080808062014434565b6201458e5f62014574565b5f6201454d565b84620146059160b81c166104405162013a3c565b62014614856104405162016b3b565b62014526565b6201462990610440516200b6a3565b6201447a565b9493975095620146489192508284896104405162016079565b909694959792936103409c929c52959a929487600a81145f14620146bc57610440516002810154905460405163063c641b60e41b81526103405160a89390931c61ffff1660048201526001600160501b03808316602483015260509290921c90911660448201526064810191909152608490fd5b15620146da575b505050505050949061034051610360529462013bdc565b9091929394959650620146f8610340516103e0516104405162010d46565b6201470a61034051610420516200b6a3565b60ff825460401c16946002861015620041915785620148a25762014732816104405162013a82565b8715620147de57505050907f599b5f439ed4daf1f28ae8638e5439d3982e8001fb26dd8f70021b38672eb26f9360c09392620147786103e05160116104405101620125dc565b620147be61ffff600261044051016201479e82825460a81c16600561042051016201272c565b5460a81c16946040519586526103e051602087015260408601906200723a565b6060840152608083015260a0820152a15b6007905f8080808080620146c3565b829493509464ffffffffff80926201482a61012098620148237fcd4a9f7ae1cc250eaa0be6bdb30d07efaf0faafb4ff0e76d8fe09a8373e43f859b9754938a62015df9565b8862013b02565b6201485a61ffff600261044051015460a81c169754936040519889526103e05160208a015260408901906200723a565b6001600160501b038160481c1660608801526001600160501b038360481c16608088015260b81c1660a086015260b81c1660c084015260e0830152610100820152a1620147cf565b620148b1816104405162013a3c565b62014732565b926201490a91955f965495620148e5836001600160501b038960481c1664ffffffffff8a60b81c16620139d4565b9490938596859963ffffffff8160981c169160ff8260e01c9260401c16908b6200c62b565b94919590856201491c8298846200bf7f565b94156201495c5750505050505f5b6001600160501b036201494882975482808260501c16911662010d25565b16811015620149545750565b600a97509450565b5f85126201496e57505050506201492a565b600c9b509299505f98509096509450925050565b919015620149b95763ffffffff62ffffff80845460601c165b1692541682155f14620149ad57505f90565b62007515908362007e6e565b63ffffffff62ffffff80845460781c166201499b565b919080831115620149f257808303925b6001600160501b0384116200fda6575050565b5f92620149df565b60069062014a0d6007840680946200796a565b5f520160205260405f2090600160ff1983541617825580155f1462014a51575061ffff620075c1921664ffff00000082549160181b169064ffff0000001916179055565b6001810362014a87575061ffff620075c1921668ffff0000000000000082549160381b169068ffff000000000000001916179055565b6002810362014ac5575061ffff620075c192166cffff000000000000000000000082549160581b16906cffff00000000000000000000001916179055565b6003810362014af3575061ffff620075c1921661ffff60781b82549160781b169061ffff60781b1916179055565b6004810362014b21575061ffff620075c1921661ffff60981b1961ffff60981b83549260981b169116179055565b60050362014b4d5761ffff620075c1921661ffff60b81b1961ffff60b81b83549260b81b169116179055565b61ffff620075c1921661ffff60d81b1961ffff60d81b83549260d81b169116179055565b9063ffffffff811162014b9557815463ffffffff191663ffffffff91909116179055565b6395d41f3f60e01b5f5260045263ffffffff60245260445ffd5b91909163ffffffff831162014be95763ffffffff620075c192931663ffffffff60201b82549160201b169063ffffffff60201b1916179055565b826395d41f3f60e01b5f5260045263ffffffff60245260445ffd5b939592959490945f965f965f965f99825f5260d560205260405f20925f526012820160205260405f209062014c3b87868462015c45565b9962014c478b62006f4c565b8a62014c655750505062014c5c975062015cf8565b91949093849291565b9194509192949596979862014c7a8162006f4c565b6001810362014ca6575050509062014c9796959493929162016315565b94979396879594909350915050565b600391929b9a5062014cb88162006f4c565b0362014ce5575062014ccc97985062016170565b50506104605196989597949592949350620075c1915050565b975090915062014cf6955062016079565b925092949593505090929395565b939498919295969997909961ffff600286015460a81c16978115158062014e91575b62014e2a57505062014d499288925f9262014d406200b6ee565b928d8b6201655e565b620109dc5782600962014d6192019688868962016dcf565b909682989262014d82575b505050505050505062014d7e57600190565b5f90565b5463ffffffff168162014e185750505f945b62014ddf575050604080519384529315156020840152507fc0ed4041bfe51a7b847f46f096b9d2495866089371037e3efd436bd858f46edd92919050a15f8080808080808062014d6c565b9160c4949186936040519563beb3942960e01b8752600487015260248601526044850152151560648401526084830152151560a4820152fd5b62014e239162007e6e565b9462014d94565b97989450999850505091925062014e6f57505050505060207f18a118a5bb122057e420b1bcf7903a57ebc749be0d1981d112c6e257e7bd5e8891604051908152a15f90565b9185916200177d936040519687966321b303f960e11b88526004880162010610565b50600a82141562014d26565b9499939597909a9891929661ffff600287015460a81c16988115158062014f1f575b62014ed95750509162014d499391899362014d406200b6ee565b989995509a995050509293505062014e6f57505050505060207f18a118a5bb122057e420b1bcf7903a57ebc749be0d1981d112c6e257e7bd5e8891604051908152a15f90565b50600a82141562014ebf565b97949392969597610320526102c052610200526101c052610140526102a05262014f58610200516200ee6e565b610220525f61018052612710811162015bad57610180525b5f61016052811582811562015ba0575b5062015b95575b9062014f9d610220516009610320510162014982565b6102e0525f610100526101c0516101208190529091905b8015158062015b88575b1562015b44578315158462015b4f575b62015b4457505f610280525f610300525f610260525f6102805262014ffa82600961032051016200c7b6565b506101a0526101205161030052610260525b6103005115158062015b37575b8062015b2a575b1562015896576101a0515f526010610320510160205260405f2061024052610240515463ffffffff81165f5260d560205260405f2060ff815460a01c16620150688162006f4c565b156201511c57505061ffff610240515460c81c166101a0527f86ad99b48b2565c9720e33335db58e8c7468d6af03a5e6238b20d4a562f5b8b46201511361ffff600261032051015460a81c16620150d26102a0516102c05183610240516009610320510162016bf4565b604096949296959195519687966102c051938893909796959260c0959260e08601998652602086015260408501526060840152608083015260a08201520152565b0390a16201500c565b6201513063ffffffff8360781c166200e691565b156201519a57505061ffff610240515460c81c166101a0527fb95e250f9f017dcb1bb1806916771df0c04a269e5f46d5db7519382a0f7bb4776201511361ffff600261032051015460a81c16620150d26102a0516102c05183610240516009610320510162016bf4565b6102c05163ffffffff8316036201520f57505061ffff610240515460c81c166101a0527f52d5291dc7b477ebda965d0693c67e6ccec5b3667b530305685465384756d3fd6201511361ffff600261032051015460a81c16620150d26102a0516102c05183610240516009610320510162016bf4565b5f6201522160ff8460201c1662012c1a565b6201583e575b156201529157505061ffff610240515460c81c166101a0527fae6369c6e529c86dd87431d10e0db70657c834daa75356e1efd7c0ac79f934b76201511361ffff600261032051015460a81c16620150d26102a0516102c05183610240516009610320510162016bf4565b64ffffffffff8260401c1690620152ae60ff8460201c1662012c1a565b62015803575b61030051821180156101e052620157f55762015331825b60026103205101549061ffff6201530d620115e960ff8560e01c1660ff8660d81c1664ffffffffff8760501c1664ffffffffff881687878a60b81c166200dd79565b9260881c16916102e0519060ff8860201c169063ffffffff89166103205162013b3f565b60e092909252509295938691506006198101620156a257506101e051156201562d576201537062015366856102e05162007924565b6102805162007e6e565b610280526201538384610300516200796a565b610300525b620153966102605162008eb8565b610260526101e05115620154c1575050916101209391859362015427620153f7620153f063ffffffff7ff5f5aef063f495816b6982c44c70c97c8fbec2fa24b73487e6542ce0214312149a166200f1426102405162008be4565b966200bf7f565b9361ffff610240515460c81c166101a05261ffff8760a81c169061ffff600261032051015460a81c16906200e783565b91620154526201544160ff610240515460201c166200ee6e565b610240516009610320510162011fb9565b6201546b61ffff8760a81c166009610320510162012525565b61ffff80600261032051015460a81c169660405197885263ffffffff8116602089015260a81c1660408701526102e0516060870152608086015260a085015260c084015260e0830152610100820152a16201500c565b9390945060026103205101549060ff610240515460201c165f9061ffff8960a81c1615620156045761ffff8960a81c166303ff00008560981c16175f526002830160205260405f209384549163ffffffff831615620155d257967ff5f5aef063f495816b6982c44c70c97c8fbec2fa24b73487e6542ce0214312149a9896949281969492620155546101209c9a62011ef9565b15620155945750505050620155836201558d926001600160501b036201185c60e05182845460901c16620149cf565b60e0519062011f6e565b916201546b565b946003620155cc9561ffff620119009495969860a81c165f520160205264ffffffffff620118d5858260405f209660681c166200fddd565b6201558d565b5061ffff8a8163ffffffff60018801541693638d5bba0f60e01b5f5260a81c1660045260a81c1660245260445260645ffd5b8361ffff63ffffffff600186015416916369bc91ef60e11b5f5260a81c1660045260245260445ffd5b92506201564562015366610300516102e05162007924565b610280526201569264ffffffffff6201566b6103005182610240515460401c166200fddd565b16610240519064ffffffffff60401b82549160401b169064ffffffffff60401b1916179055565b61030051925f6103005262015388565b9550505050925050600d811462015797577f72777d4856cf973d1b0f65b47f675f18842c122c2a529a294343fd22a6c135479161016091610240515461ffff8160c81c166101a05261ffff600261032051015460a81c16926101e0515f14620157895760ff90915b60201c16916201572d6102a0516102c05186610240516009610320510162016bf4565b94939592969190604051988952602089015260408801526201574f8162006f4c565b60608701526102e051608087015260a086015260c085015260e08401526102c051610100840152610120830152610140820152a16201500c565b5060ff61030051916201570a565b60a461ffff600261032051015460a81c1661ffff600161032051015460405192632317b0b160e11b8452600484015263ffffffff8160401c16602484015263ffffffff8160801c16604484015242606484015260d01c166084820152fd5b6201533161030051620152cb565b63ffffffff83165f526012610320510160205264ffffffffff60405f205460b81c1682811062015835575b50620152b4565b91505f6201582e565b5063ffffffff82165f526012610320510160205260405f2064ffffffffff815460b81c1615151590811562015875575b5062015227565b6201588f915060ff808560201c16915460401c166201343a565b5f6201586e565b61026051916103005190620158b2610280516101605162007e6e565b6101605261030051610120510362015b14575b6102605115620159035761030051620158e1575b929062014fb4565b9150620158f8610220516009610320510162014982565b6102e05291620158d9565b50929150507fb492fac0bb9e8c8d824bf2a4c19ec1efd3e98e987de34e127bc17eb2b5c0605e5f80a15b6101005162015ad6575b81806101c0511162015953575b50620075c161032051620107d7565b62015962816101c0516200796a565b90610220515f1462015ac0576201597d826101605162011d59565b905b600261032051019062015a28620159f0835486866101805192620159e2620159d8610200519260ff8160e01c169060ff8160d81c169064ffffffffff8160501c16908861ffff64ffffffffff83169260b81c166200dd79565b6101405162010c67565b6102c0516103205162013b3f565b61036051995494999598909760a89590951c61ffff16969590949391925062015a186200b7fe565b91610200516102c051896201661a565b506007820362015a885750506040805195865260208601969096525093830193909352606082019290925260808101919091527f555809b9cabb2c3df7af8353069bd02e72c4d8b4dd0dac9654ed855bdf3be8529060a090a15f62015944565b60c49350878760405194631966e31560e31b865260048601526102c051602486015260448501526064840152608483015260a4820152fd5b62015acf82610160516200b6cf565b906201597f565b6103205161010051600391909101805467ffffffffffffffff191663ffffffff92909216919091174260201b63ffffffff60201b1617905562015937565b6102e051610100526103005161012052620158c5565b5061026051151562015020565b506101a051151562015019565b93925050506201592d565b50610220518062015b7b575b8062014fce57506102205115801562014fce57506102e051841162014fce565b506102e051841062015b5b565b506102e051151562014fbe565b6103e8915062014f87565b6103e89150115f62014f80565b5061ffff600261032051015460781c166101805262014f70565b9162015bf6979496939195926103c0526103e05261034052610380526103a052610420525f6104005262017883565b6104005190565b91905f62015c0b82620139f5565b91131562015c32576200fe28818462007e6e565b6001600160501b0384116200fe3c575050565b62015c3e81846200796a565b9262015c1f565b91909162015c538362012c1a565b1562015c6157505050600290565b5464ffffffffff8160b81c169283155f1462015c7f57505050505f90565b62015c8a8162006f4c565b801590811562015ce1575b501562015cd65760ff5f915b60401c1660028210156200419157600281101562004191570362015cc6575050600190565b1162015cd157600290565b600390565b60ff60019162015ca1565b6003915062015cf08162006f4c565b145f62015c95565b9694919590925f945f9862015d0e5f9962012c1a565b62015de65762015d1e816200c56b565b945050505050600581101580620041915760028214801562015dd9575b1562015d5157505050505050505050600d929190565b9a92949699919395979a620041915760041462015dc95750509062015d9262002fde600162015d9997969594015460ff808260e81c169160e01c1662007e6e565b9162016a9b565b9190826001600160501b038295541662015db4828462007e6e565b1162015dbe575050565b600195509093509150565b975097505050505050600e929190565b50505f6003821462015d3b565b505050505050509150506006905f905f90565b6001600160501b0362013acb620075c19382845460481c166200fd85565b908060081c9060ff811660ff810362015f01575b5060101c9060ff811660ff810362015e9f575b505060ff810362015e505750505f1990565b62015e5d90825462016c9f565b60018101156200ed7e57806002915f526001830160205262015e8360405f205462016cc5565b9060081b1791825f52016020526200edd460405f205462016cc5565b62015eb990835f526001850160205260405f205462016c9f565b90600182011562015e3e57600292507effffffffffffffffffffffffffffffffffffffffffffffffffffffffffff00161791825f52016020526200edd460405f205462016cc5565b62015f1b90835f526002850160205260405f205462016c9f565b600181011562015e2b579250905060ff19161790565b9062ffffff811162015f6c576effffff00000000000000000000000082549160601b16906effffff0000000000000000000000001916179055565b6395d41f3f60e01b5f5260045262ffffff60245260445ffd5b9062ffffff811162015f6c576bffffff00000000000000000082549160481b16906bffffff0000000000000000001916179055565b9062ffffff811162015f6c577fffffffffffffffffffffff000000ffffffffffffffffffffffffffffffffffff74ffffff00000000000000000000000000000000000083549260901b169116179055565b9062ffffff811162015f6c5771ffffff00000000000000000000000000000082549160781b169071ffffff0000000000000000000000000000001916179055565b906001811b905f52600182016020525f1960405f2054145f146201607257198154169055565b8154179055565b9294919390945f9554620160a5826001600160501b038360481c1664ffffffffff8460b81c16620139d4565b9490938597620160cf85879563ffffffff8160981c169060ff8160e01c9160401c16858d6200c62b565b96919890978798620160e3819b846200bf7f565b985f8a12620161575750505050906201611e92916201611762002fde60018c015460ff808260e81c169160e01c1662007e6e565b9162016a69565b5092836001600160501b036201613f83995482808260501c16911662010d25565b168210156201614c575050565b600a99509096509250565b600c9e50929c505f9b5099509097508996509450505050565b96839695929197946201623494956104a052610480525f610460526201624f5f98549164ffffffffff8360b81c1694620161c48663ffffffff8660981c168660e01c60ff8860401c168c6104a0516200c62b565b979194906201623d84620161e78b986001600160501b03859b60481c166200bf7f565b9d8e5f8113156201630c57620161fd90620139f5565b955b86610460526201622762002fde60016104a051015460ff808260e81c169160e01c1662007e6e565b9d8e91610480516200796a565b9e8f9062016a9b565b929094839b869f610480519062016a69565b50986201625e8a9d866200bf9b565b996201626f846201091a8d6200c93e565b995f8b129081620162ec575b50620162d3575050505050505f8512806201629e575b6201629857565b600a9950565b50620162aa85620139f5565b6001600160501b03620162ca6104a0515482808260501c16911662010d25565b16111562016291565b6104609490945260059e50939c50919a50975093509150565b90506001600160501b03620163018c620139f5565b915416105f6201627b565b505f95620161ff565b949295939691965f915f985f985f985f985f9862016333836200c56b565b9350505050600581989298101580620041915760028214801562016551575b156201636d575050505050505050505050600d959493929190565b94999f50949a50949a50949a50949a50620041915760041462016538576201644595949392916201640d915492620163ca64ffffffffff8560b81c16809b63ffffffff8760981c16908760e01c9060ff8960401c16908a6200c62b565b9b91509b620164068462016400620163f762002fde60018c015460ff808260e81c169160e01c1662007e6e565b80958d62010c37565b62010c88565b9862016a9b565b9590916001600160501b03620164398897859c865f915f811262016520575b5062009fc5919262007e6e565b9160481c16906200bf9b565b9662016451886200c93e565b5f8212156201650b579062016466916200bf7f565b945b6201647f8162016478886200c93e565b976200bf9b565b965f88129081620164eb575b50620164df5750505f84129081620164ac575b50620164a657565b600a9650565b90506001600160501b03620164d6620164c586620139f5565b925482808260501c16911662010d25565b16105f6201649e565b60039950909750925050565b90506001600160501b036201650089620139f5565b915416105f6201648b565b95979062016519916200bf7f565b9662016468565b62009fc5925062016531906200c93e565b916201642c565b50505050945050505050600e905f905f905f905f905f90565b50505f6003821462016352565b50506201657390969596949291939462011ef9565b928315620166125790620165879162007e6e565b915b15908162016609575b5015620165fe575f93845b620165a757505050565b91939092909115620165ca57505063587d2a9760e01b5f5260045260245260445ffd5b916040907f587d2a97a31a5894b097ff75ad27cad3e726d27474d08c959bcb5e51c5244d0a929482519182526020820152a1565b81811093846201659d565b90505f62016592565b509162016589565b939094929695916201662c9062011ef9565b968715620166ab5790620166409162007e6e565b955b159081620166a2575b501562016697575f94855b620166615750505050565b906200177d91604051948594635e7f12af60e11b8652600486019094939260609260808301968352602083015260408201520152565b808510948562016656565b90505f6201664b565b509562016642565b908054928360281c62ffffff811694620166ce86866200c7b6565b90620169c85750916006939161ffff8094600388019060ff8160381c169060301c916001821b81541790555f526004880160205260405f20600160ff83161b8154179055165f5260058601602052600160ff60405f2092161b81541790555f146201695b57835462ffffff808260781c169160901c169080158062016952575b15620169235750506201676285856201600b565b6201676e858562015fba565b5460a81c1691620167846007850680956200796a565b5f520160205260405f2091600160ff1984541617835580155f14620167cb5750815464ffffffff00191662ffff00600883901b161760189190911b64ffff00000016179055565b60018103620168085750815468ffffffff0000000000191666ffff0000000000602883901b161760389190911b68ffff0000000000000016179055565b6002810362016851575081546cffffffff00000000000000000019166affff000000000000000000604883901b161760589190911b6cffff000000000000000000000016179055565b60038103620168905750815470ffffffff00000000000000000000000000191661ffff60681b606883901b161760789190911b61ffff60781b16179055565b60048103620168c55750815463ffffffff60881b191661ffff60881b608883901b161760989190911b61ffff60981b16179055565b600503620168f857815463ffffffff60a81b191661ffff60a81b60a883901b161760b89190911b61ffff60b81b16179055565b815463ffffffff60c81b191661ffff60c81b60c883901b161760d89190911b61ffff60d81b16179055565b8611156201693e57506201693885856201600b565b6201676e565b8510156201676e5762016938858562015fba565b5081156201674e565b835462ffffff808260481c169160601c1690801580620169bf575b15620169965750506201698a858562015f85565b62016938858562015f31565b861115620169ab575062016938858562015f85565b851015620169385762016938858562015f31565b50811562016976565b61ffff9350620075c1969492508062016a0f8562016a2a9481945f5260078a0160205260a81c1660405f209061ffff60c81b1961ffff60c81b83549260c81b169116179055565b835461ffff60b81b1916911660b81b61ffff60b81b16178255565b5460a81c1691620149fa565b919062011f8d620075c1916001600160501b03855460501c166200fe1a565b61ffff1661ffff8114620032425760010190565b9062016a76929162010c37565b90606482029180830460641490151715620032425762016a969162011d59565b905f90565b9062016aac92919594939562010c37565b90606482029082820460641483151715620032425762016acc9162011d59565b925f918162016ada57505090565b620075159250906200a7f99162007924565b906002811015620041915768ff000000000000000082549160401b169068ff00000000000000001916179055565b9064ffffffffff62013a5d6002620075c194019282845460281c166200fe5c565b64ffffffffff62013a9c600282930193828554166200fe5c565b9192901562016bba575081511562016b6b575090565b3b1562016b755790565b60405162461bcd60e51b815260206004820152601d60248201527f416464726573733a2063616c6c20746f206e6f6e2d636f6e74726163740000006044820152606490fd5b82519091501562016bce5750805190602001fd5b60405162461bcd60e51b8152602060048201529081906200177d90602483019062006f28565b945f94859490801562016c96575b1562016c705750620075c163ffffffff94959662016c24620014598562008be4565b83549062016c6a62016c4f61ffff8460a81c16809981951698895f5260d560205260405f206200e783565b9562016c6260ff825460201c166200ee6e565b908362011fb9565b62012525565b620075c1955063ffffffff945062016c8d906200f1428462008be4565b95909662016c24565b50801562016c02565b600182018092116200324257811c908162016cbb5750505f1990565b6200157262007515925b905f916fffffffffffffffffffffffffffffffff81161562016dc3575b6001600160401b0381161562016dac575b63ffffffff81161562016d95575b61ffff81161562016d7e575b60ff81161562016d67575b600f81161562016d50575b600381161562016d39575b60011615620128bf57565b916002810180911162003242579160021c62016d2e565b916004810180911162003242579160041c62016d23565b916008810180911162003242579160081c62016d18565b916010810180911162003242579160101c62016d0d565b916020810180911162003242579160201c62016d01565b916040810180911162003242579160401c62016cf3565b60809250821c62016ce2565b92939190821562016fd35762ffffff80855460601c165b169062016df5848784620172e7565b1562016fc65762016e0782866200c7b6565b50915f5b6103e881108062016fbc575b1562016fa857835f526007870160205260405f209363ffffffff8554161562016f92575062016e469062007d9c565b835462016e5c63ffffffff8260781c166200e691565b1562016f8157867fb95e250f9f017dcb1bb1806916771df0c04a269e5f46d5db7519382a0f7bb47760e08a62016ede61ffff62016f1e9660c81c169962016ea88c6200f1428362008be4565b9290938262016ed58d82549063ffffffff82165f5260d560205261ffff60405f209260a81c16916200e783565b98159162011fb9565b549161ffff8360a81c169563ffffffff604051948c865216602085015286604085015260608401528b608084015260a083015260c0820152a18862012525565b8362016e0b57925050831562016f705762ffffff80865460601c165b1662016f48858883620172e7565b1562016f625762016f5a81876200c7b6565b509262016e0b565b955050505050505f915f9190565b62ffffff80865460781c1662016f3a565b5050955050505050506001915f9190565b8363cf25731d60e01b5f5260045260245260445ffd5b935094505093506103e89150101591151592565b5083151562016e17565b5093505050505f915f9190565b62ffffff80855460781c1662016de6565b9062016ff0826201730d565b91939091845f198114620170235750908291620075c1935f5260018201602052600160405f20911b81541790556201604c565b9450505050565b9190915f60806040516201703e8162007462565b82815282602082015282604082015282606082015201526303fcffff80821162011e27575064ffffffffff8211620170ac576040519264ffffffffff929163ffffffff166201708d8562007462565b8085526020850152600160408501521515606084015216608082015290565b506395d41f3f60e01b5f5260045264ffffffffff60245260445ffd5b90959796949392916001820191815f528260205260405f209764ffffffffff895460b81c1615620172d057506201714e95936201712f9363ffffffff969383620171289454928c8a8560201c168403620171e1575b935050505062016aec565b8662010e61565b845463ffffffff60981b1916911660981b63ffffffff60981b16178355565b64ffffffffff8411620140425763ffffffff906201719564ffffffffff620075c1959616849064ffffffffff60b81b1964ffffffffff60b81b83549260b81b169116179055565b82547bffffffffffffffffffffffffffffffffffffffffffffffffffffffff16911660e01b7fffffffff0000000000000000000000000000000000000000000000000000000016179055565b62017268948b16840362017273578a620171fe9154168362014b71565b898d54165f528060205260405f2063ffffffff60201b1981541690555b89825460201c165f52602052620172368260405f2062014b71565b80548c5467ffffffff000000001916602091821c8b1690911b63ffffffff60201b16178c5588198c54168c5562014baf565b5f8080808c6201711d565b8a81620172ca9254828160201c165f5284602052828060405f209216168319825416179055548181165f528360205260201c1660405f209063ffffffff60201b82549160201b169063ffffffff60201b1916179055565b6201721b565b90506334a4033d60e11b5f5260045260245260445ffd5b909291925f9382620172f857505050565b9293509091156201730857101590565b111590565b8054801562017351576201732360019162016cc5565b91825f52016020526201734860405f2054196201734281151562011116565b62016cc5565b808260081b1792565b505f19915f91508190565b919290925f6104205281156201784457835f526012610460510160205260405f2064ffffffffff815460b81c161562017809576201739e86610460516200bddf565b919096600583101580620041915783159384159081620177f9575b50620177ee57620041915781549260ff8460401c169860028a1015620041915789159963ffffffff8660981c169564ffffffffff8160b81c16610440526001600160501b036201741761044051898460e01c8688610460516200c62b565b9391505060481c16906201744a8d6001610460510154908360ff808460e81c169360e01c16918c876104405192620108d8565b9788156201770c575050508a5f146201770257858211155b156201769a5750610440515f5b888110620175bb575b508495969798999a5064ffffffffff6201749a929394955460b81c166200796a565b806201752457505050620174fa57917faad1caf83451874ebc06a35849e4a295d8bfa856d05d1fbac2876702c7d507439594939160ff620174e8945460401c165f604051978897886200b80b565b0390a15b620075c161046051620107d7565b9060ff6200177d9493925460401c165f60405197889763155a395f60e31b8952600489016200b80b565b9250939298979695509350620175485f6001838588888c8f8d906104605162010c17565b156201756b57505050506201755f92935062010643565b600161042052620174ec565b620175a56101049660ff8a5460401c169060405197634b04a99560e01b8952600489015260248801525f604488015260648701906200723a565b608485015260a484015260c483015260e4820152fd5b620175c8818a8a62009128565b35805f526012610460510160205260405f2064ffffffffff815460b81c16156201768f57805460ff8160401c1692600284101562004191578f88918f959389928e9515146201767f57916201764195939164ffffffffff5f969460b81c168a8110158714620176765750899788955b61046051620109e7565b156201766c576201765391926200796a565b90811562017666576001905b016201746f565b62017478565b506001906201765f565b97889562017637565b505050505050506001906201765f565b50506001906201765f565b9495509550959697509050620176e257917fc1cc5e312a3f39bfb853352bbb60e3be1d95285a9c702396ba48058c17e7a7439594939162009ab4936040519687968762008399565b60405163c1cc5e3160e01b8152965086956200177d956004880162008399565b8582101562017462565b98509998509a5050505091505062017794579162009ab4917f2e92846d5b5d5dd9cf60dd19064afe4a911e6751cdad455cb26a600db66e963c9594936040519586956104405193879260a0946001600160501b0363ffffffff9264ffffffffff959a9998949a60c088019b885260208801521660408601521660608401521660808201520152565b604051632e92846d60e01b815261044051600482019390935260248101949094526001600160501b0394909416604484015263ffffffff909316606483015264ffffffffff909216608482015260a481019190915260c490fd5b505050505050505050565b91505060015f9114155f620173b9565b505050916200bd53577f6948067a0ba575890268b9a7eaf592a5832287e4402201145ce0768a9d9533fc9160409182519182526020820152a1565b5050916200bdaa577f64846a095feab375f007bd15ab65eefdf07957e365b3c7ee4711cd9dbdecabe79160409182519182526020820152a15f61042052565b6201797960405192620178968462007429565b5f84525f60208501528361040052620178b26103a0516200ee6e565b610440526201793460026103c051015461ffff6201790d620178fe60ff8460e01c1660ff8560d81c1664ffffffffff8660501c1664ffffffffff871661038051878960b81c166200dd79565b6101606103e051013562010c67565b9160881c1690610380519060806103e0510135906103a05190610340516103c05162014c04565b91949098936103609793975261030052969294966104205190886103605161030051610380518960806103e0510135610440516103a051610340516103c05162014e9d565b15620194b3575060c954610320819052613fff6102e081905260d59190911c16612710808202829004149015171562003242576127106102e0516103205160d51c160290620179cb6103a05162011ef9565b6201948f575b806201947d575b50610340515f5260d560205260405f20805460f01c5f6102c05261ffff6102c0526102c05114620193ee5762017a139161042051916200da1e565b62009956576102c05160026103c051015460a81c165f610260525f610280525f610260525f61028052610340515f5260d560205260405f206102a0526102a051546001600160501b038116906001600160501b038160501c16821180620193bc575b15620192cc5750505062017a9c6127106102e0516103205160d51c16026102a0516200dc85565b62017ab66127106102e0516103205160d51c160262009cf2565b62017ad06127106102e0516103205160d51c16026200c93e565b610280526001610260525b6001600160501b036102a051541661022052610260511562009956576102c05160026103c051015460a81c169262017b12620079e9565b5062017b216001820162016fe4565b6102408190525f1914620192b95762017b6562017b476102c051835460201c1662016a55565b825465ffff00000000191660209190911b65ffff0000000016178255565b62017b6f62008b98565b50600161034051108015620192a8575b62019285578115801562019278575b620046805760016103805110801562019266575b62019242576102e0516103205160d51c8116116201921e5763ffffffff60c06103e051013511620191fc576127106101606103e051013511620191db5762017dd59062017db860405162017bf68162007445565b63ffffffff6103405116815262017c106103a05162006f4c565b6103a051602082015262ffffff8516604082015264ffffffffff610380511660608201526102e0516103205160d51c16608082015263ffffffff60c06103e05101351660a08201526102c0516101606103e05101351660c08201526102c051610240511660e08201525f6101008201525f610120820152610240515f526007830160205260405f209063ffffffff808251161663ffffffff19835416178255602081015162017cbf8162006f4c565b62017cca8162006f4c565b825460408381015160608501516102c051608087015160a088015160c089015160e08a01516101008b0151610120909b015161ffff60c81b90861660c81b169a851660b81b61ffff60b81b1690851660a81b61ffff60a81b1691851660981b61ffff60981b1660789390931b63ffffffff60781b169390941660681b61ffff60681b169490961b64ffffffffff60401b1660289590951b67ffffff00000000001660209890981b64ff00000000167fffffffffff0000000000000000000000000000000000000000000000ffffffff9097169690961796909617929092171793909317919091171717179055565b610240515f5260078101602052610440519060405f2090620166b3565b6040519262017de48462007429565b835261024051602084015282610400526102405115620191795750610340515f5260d560205260405f2062017e1c6103a05162011ef9565b15620189af5760026103c05101549160208401515f938115620189855762017e476103a05162011ef9565b9162017e566103a05162006f4c565b6103a05115801562018969575b6102c05182166303ff0000609885901c16175f908152600287016020526040902063ffffffff9062017e959062007dab565b51166201893b5783156201893457845b84156201892c575f905b62017eb962007d11565b506303fcffff806102c05186166303ff000063ffff000062010000600160681b038a60981c1616161711620188f457506001600160501b038111620188d75764ffffffffff8211620170ac5762017f136103a05162012c1a565b15620188c2578062018897576001600160501b03905b64ffffffffff6040519362017f3e856200739b565b6102c05187166303ff000063ffff000062010000600160681b038b60981c1616161785525f60208601525f604086015262017f7c6103a05162006f4c565b6103a05160608601521660808401521660a0820152865460d01c63ffffffff16620183785792620181655f516020620194bf5f395f51905f529a9997959362018247936201814460209b999762017ff56102c05185166303ff000063ffff000062010000600160681b038a60981c161616178b62011dce565b6102c051620180139085166303ff0000609889901c16178b62011e6c565b6102c05184166303ff000063ffff000062010000600160681b038960981c161616175f5260028a018d526001600160501b0360a060405f209263ffffffff808251161663ffffffff198554161784558f63ffffffff620180929183015116859063ffffffff60201b82549160201b169063ffffffff60201b1916179055565b604081810151855463ffffffff60401b1916911b63ffffffff60401b161784556060810151620180c28162006f4c565b620180cd8162006f4c565b8454608083015171ffffffffffff0000000000000000000000001990911660609290921b6cff000000000000000000000000169190911760689190911b64ffffffffff60681b161784550151825469ffffffffffffffffffff60901b1916911660901b69ffffffffffffffffffff60901b16179055565b851562018370575f915b6102c051166303ff0000609886901c16176201702a565b906102c0519060a81c165f5260038501885264ffffffffff608060405f209263ffffffff808251161663ffffffff19855416178455620181c963ffffffff8c83015116859063ffffffff60201b82549160201b169063ffffffff60201b1916179055565b6102c051604082810151865469ffff000000000000000019169216901b61ffff60401b16178455606081015184546aff00000000000000000000191690151560501b60ff60501b16178455015182546fffffffffff00000000000000000000001916911660581b6fffffffffff000000000000000000000016179055565b62018355575b5062018263905b6200e901815460f01c62016a55565b925b600a6103005114620182af575b50015160408051610220516102805161038051948352602083019490945291810193909352606083019190915260808201528060a0810162009ab4565b6101207fb971bdbd8f44fbf3ba501ee287c2533eb61b09097d638c664566aac00bbb3e65916102c05160026103c051015460a81c16906001600160501b036103c0515460405193845261034051888501526201830e6103a05162006f4c565b6103a051604085015260806103e0510135606085015261038051608085015281811660a085015260501c1660c08301526103605160e0830152610100820152a15f62018272565b8192506201836890620182639262016a36565b91906201824d565b5f916201814e565b6102c0518460a81c165f526003870160205260405f20805463ffffffff8116155f14620184e55750509262018165879593620184b8936201849a60209b999763ffffffff5f516020620194bf5f395f51905f529f9e9c5460d01c165f5260028a018d526201840b6102c05185166303ff000063ffff000062010000600160681b038a60981c1616161760405f2062011ec9565b63ffffffff8a5460d01c1660408201526102c05184166303ff000063ffff000062010000600160681b038960981c161616175f5260028a018d526001600160501b0360a060405f209263ffffffff808251161663ffffffff198554161784558f63ffffffff620180929183015116859063ffffffff60201b82549160201b169063ffffffff60201b1916179055565b6102c051620181449083166303ff0000609887901c16178962011e6c565b620184ca575b50620182639062018254565b819250620184dd90620182639262016a36565b9190620184be565b602062018685936201854763ffffffff8094849e9b989a99969e1c16805f5260028d01845260405f20906040840152848154851c16848401526102c05186166303ff000063ffff000062010000600160681b038c60981c161616179062011ec9565b8282820151168062018858575b506102c05184166303ff0000609889901c16175f90815260028c01835260409020815181548385015163ffffffff60201b90871660201b1691861686199091161767ffffffff00000000191617815562018663905b604083810151825463ffffffff60401b191690871690911b63ffffffff60401b161781556060830151620185dd8162006f4c565b620185e88162006f4c565b8154608085015171ffffffffffff0000000000000000000000001990911660609290921b6cff000000000000000000000000169190911760689190911b64ffffffffff60681b1617815560a0830151815469ffffffffffffffffffff60901b191660909190911b69ffffffffffffffffffff60901b16179055565b0151161562018834575b6102c051166303ff0000609885901c16178862011ec9565b15620186ee57505050916201826382620186e8620186b76020965f516020620194bf5f395f51905f5299989662016a36565b935b620186cd6102c051825460401c1662016a55565b61ffff60401b82549160401b169061ffff60401b1916179055565b62018254565b9091948093505460ff8160501c169083151582151514158062018820575b620187a7575050505f516020620194bf5f395f51905f52959492620186e883620187546201826394602098969060ff60501b825491151560501b169060ff60501b1916179055565b620187a164ffffffffff620187705f82855460581c166200fe5c565b83546fffffffffff00000000000000000000001916911660581b6fffffffffff000000000000000000000016178255565b620186b9565b906201362960a49464ffffffffff620136349463ffffffff60018b015416945f1462018817575f925b156201880e575f945b60405197634298a83160e01b89526102c0519060a81c166004890152602488015260581c16604486015260648501906200723a565b600194620187d9565b600192620187d0565b5064ffffffffff8160581c1615156201870c565b6102c051620188529082166303ff0000609887901c16178962011e6c565b6201866d565b5f5260028b018252620188906102c05185166303ff000063ffff000062010000600160681b038b60981c1616161760405f2062011e3d565b5f62018554565b63a9c0cecd60e01b5f526103a051620188b09062006f4c565b6103a05160045260245260445260645ffd5b8162018897576001600160501b039062017f29565b6395d41f3f60e01b5f526004526001600160501b0360245260445ffd5b856303ff000063ffff000062010000600160681b03886395d41f3f60e01b5f526102c051169360981c1616161760045260245260445ffd5b5f9062017eaf565b5f62017ea5565b5063ffffffff6001860154169163feefcc0b60e01b5f526102c0519060a81c1660045260245260445260645ffd5b50620189786103a05162006f4c565b60026103a0511462017e63565b63ffffffff600185015416906369bc91ef60e11b5f526102c0519060a81c1660045260245260445ffd5b6103c0516002015460208401515f93509081156201914f57620189d56103a05162011ef9565b91620189e46103a05162006f4c565b6103a05115801562019133575b6102c05182166303ff0000609885901c16175f908152600286016020526040902063ffffffff9062018a239062007dab565b511662019105578315620190fe575f5b8415620190f3575f905b62018a4762007d11565b506303fcffff806102c05186166303ff000063ffff000062010000600160681b038a60981c1616161711620188f457506001600160501b038111620188d75764ffffffffff8211620170ac5762018aa16103a05162012c1a565b15620190de578062018897576001600160501b03905b64ffffffffff6040519362018acc856200739b565b6102c05187166303ff000063ffff000062010000600160681b038b60981c1616161785525f60208601525f604086015262018b0a6103a05162006f4c565b6103a05160608601521660808401521660a0820152855460d01c63ffffffff1662018d04579262018c23602097959362018c879362018c035f516020620194bf5f395f51905f529c9b999762018b826102c05185166303ff000063ffff000062010000600160681b038a60981c161616178a62011dce565b6102c05162018ba09085166303ff0000609889901c16178a62011e6c565b6102c05184166303ff0000609888901c16175f90815260028a018d526040902081518154838f015163ffffffff60201b60209190911b1663ffffffff90921667ffffffffffffffff1990911617178155906001600160501b039060a09062018092565b851562018cf9576102c0515f92166303ff0000609886901c16176201702a565b906102c0519060a81c165f5260038401875264ffffffffff608060405f209263ffffffff808251161663ffffffff19855416178455620181c963ffffffff8b83015116859063ffffffff60201b82549160201b169063ffffffff60201b1916179055565b62018ca8575b62018ca1906200e901815460f01c62016a55565b9262018265565b905062018ca162018cc75f6001600160501b03845460501c166200fe1a565b825469ffffffffffffffffffff60501b1916605082901b69ffffffffffffffffffff60501b1617835591905062018c8d565b61038051916201814e565b6102c0518460a81c165f526003860160205260405f20805463ffffffff8116155f1462018e8c5750509262018c23602097959362018e2a9362018e0c899763ffffffff5f516020620194bf5f395f51905f529e9d9b5460d01c165f52600289018c5262018d966102c05185166303ff000063ffff000062010000600160681b038a60981c1616161760405f2062011ec9565b885460d01c63ffffffff9081166040838101919091526102c051609889901c6303ff000016908716175f90815260028c018f5220825181548f85015167ffffffffffffffff19909116919093161760209290921b63ffffffff60201b16919091178155906001600160501b039060a09062018092565b6102c05162018c039083166303ff0000609887901c16178862011e6c565b62018e3b575b62018ca19062018254565b905062018ca162018e5a5f6001600160501b03845460501c166200fe1a565b825469ffffffffffffffffffff60501b1916605082901b69ffffffffffffffffffff60501b1617835591905062018e30565b602062018f779362018eee63ffffffff8094849d9b989a99969d1c16805f5260028c01845260405f20906040840152848154851c16848401526102c05186166303ff000063ffff000062010000600160681b038c60981c161616179062011ec9565b828282015116806201909f575b506102c05184166303ff0000609889901c16175f90815260028b01835260409020815181548385015163ffffffff60201b90871660201b1691861686199091161767ffffffff00000000191617815562018f5590620185a9565b015116156201907b575b6102c051166303ff0000609885901c16178762011ec9565b1562018fe5575050509160209162018ca15f516020620194bf5f395f51905f529594620186e862018fb65f6001600160501b03845460501c166200fe1a565b825469ffffffffffffffffffff60501b1916605082901b69ffffffffffffffffffff60501b16178355620186b7565b8492945460ff8160501c169083151582151514158062019067575b620187a7575050505f516020620194bf5f395f51905f52959492620186e8836201904862018ca194602098969060ff60501b825491151560501b169060ff60501b1916179055565b620187a164ffffffffff620187706103805182855460581c166200fe5c565b5064ffffffffff8160581c16151562019000565b6102c051620190999082166303ff0000609887901c16178862011e6c565b62018f5f565b5f5260028a018252620190d76102c05185166303ff000063ffff000062010000600160681b038b60981c1616161760405f2062011e3d565b5f62018efb565b8162018897576001600160501b039062018ab7565b610380519062018a3d565b5f62018a33565b5063ffffffff6001850154169163feefcc0b60e01b5f526102c0519060a81c1660045260245260445260645ffd5b50620191426103a05162006f4c565b60026103a05114620189f1565b63ffffffff600184015416906369bc91ef60e11b5f526102c0519060a81c1660045260245260445ffd5b60c4906102c05160026103c051015460a81c169060405191635f4d015360e01b83526004830152610340516024830152620191b76103a05162006f4c565b6103a0516044830152606482015261038051608482015261044051151560a4820152fd5b6395d41f3f60e01b5f526101606103e051013560045261271060245260445ffd5b6395d41f3f60e01b5f5260c06103e051013560045263ffffffff60245260445ffd5b6395d41f3f60e01b5f9081526102e0516103205160d51c8116600452602452604490fd5b630c8f0a6960e41b5f5261038051600452600160245264ffffffffff60445260645ffd5b5064ffffffffff610380511162017ba2565b5062ffffff821162017b8e565b630c8f0a6960e41b5f5261034051600452600160245263ffffffff60445260645ffd5b5063ffffffff610340511162017b7f565b836313d2887b60e01b5f5260045260245ffd5b610420516201935e5790620193557fe45a99fff28c6d15925d1e2d85178b939f8809e353ffdd55bc03edb410aa24de93926040519384936001600160501b036127106102e0516103205160d51c16029360501c169161034051908691936001600160501b03608094819398979660a0860199865260208601521660408401521660608201520152565b0390a162017adb565b60405163e45a99ff60e01b81526102e0516103205161034051600484019690965260248301959095526001600160501b03938416604483015260509290921c909216606483015260d59290921c90911661271002608482015260a490fd5b506127106102e0516103205160d51c16026001600160501b03620193e6818460501c16856200d997565b161162017a75565b5050505050506104205162019454577fbd608c77710b601b3c0b0f34d13295beb58c48631119b910d8d6067ad650d5b862009ab46102c05160026103c051015460a81c166040519182916103405190836020909392919361ffff60408201951681520152565b6102c05160026103c051015460a81c1663bd608c7760e01b5f526004526103405160245260445ffd5b620194889162007e6e565b5f620179d8565b9050620194ac836127106102e0516103205160d51c160262007e6e565b90620179d1565b61040052505050505056fe5d5d31f82cb7d7cf1b09787031cd282c6accc62145d50de980d298bb340a9abaa2646970667358221220b34eb678f754f6545909eeb9ffee0137a6459402553a35f3137731763055c29b64736f6c634300081e0033",
    "linkReferences": {}
  },
  "methodIdentifiers": {
    "acceptOwnership()": "79ba5097",
    "addContract(string,string,uint256,uint256,uint256,uint256,uint256,uint256,uint256,uint256)": "92f54b3a",
    "addressBlocked(address)": "3bf45a2f",
    "adminCancelOrders((uint256,uint256)[])": "e548bb57",
    "allowOrderForwarding(bool)": "7962f910",
    "autoDeleverage((uint256,uint256,uint256[])[],bool)": "43559bbf",
    "buyLiquidations((uint256,uint256,uint256,uint256,uint256)[],bool)": "1eebd35e",
    "clearDecreaseCollatParams(uint256,uint256)": "f75283da",
    "clearInitUnwindContract(uint256)": "075367f6",
    "clearOrderSlots(uint256,uint256[])": "d541abc1",
    "clearPricePointerSlots(uint256,uint256[])": "20c801d2",
    "createAccount(uint256)": "cab13915",
    "declineDecreaseCollateral(uint256,uint256)": "7b158d68",
    "decreasePositionCollateral(uint256,uint256,bool)": "4a1feb12",
    "depositCollateral(uint256)": "bad4a01f",
    "depositToProtocol(uint256)": "54056119",
    "execFwdPositionOps((uint256,uint256,(uint256,uint256,uint8,uint256,uint256,uint256,uint256,bool,bool,bool,uint256,uint256,uint256,uint256))[])": "abce7b20",
    "execFznAccountPosOps((uint256,(uint256,uint256,uint8,uint256,uint256,uint256,uint256,bool,bool,bool,uint256,uint256,uint256,uint256))[])": "0697afae",
    "execOpsAndOrders((uint256,uint256,uint8,uint32,int256,bool,bytes)[],(uint256,uint256,uint8,uint256,uint256,uint256,uint256,bool,bool,bool,uint256,uint256,uint256,uint256)[],bool)": "156352e6",
    "execOrder((uint256,uint256,uint8,uint256,uint256,uint256,uint256,bool,bool,bool,uint256,uint256,uint256,uint256))": "6b69ebbe",
    "execPerpOps((uint256,uint256,uint8,uint32,int256,bool,bytes)[])": "5bf9264c",
    "forceClose(uint256,uint256,uint256[],bool)": "b216d0d2",
    "forceResetWithdrawRateLimit()": "bed97b71",
    "getAccountByAddr(address)": "12e8eb2c",
    "getAccountById(uint256)": "05aca141",
    "getDecreaseCollateralParams(uint256,uint256)": "cdc4c4c4",
    "getExchangeInfo()": "8bc5b3c5",
    "getFundingInterval()": "0d3e87a7",
    "getFundingSumAtBlock(uint256,uint256)": "7dd7e759",
    "getLiquidationInfo(uint256)": "50ef5c35",
    "getMakerFee(uint256)": "1275d14c",
    "getMarginFractions(uint256,uint256)": "6825e9e5",
    "getMinAccountOpenCNS()": "dec92b69",
    "getMinimumPostCNS()": "9fffdfe2",
    "getMinimumSettleCNS()": "3a63dabe",
    "getNextPriceBelowWithOrders(uint256,uint256)": "fb455f6b",
    "getOrder(uint256,uint256)": "5e1a3573",
    "getOrderIdIndex(uint256)": "38ecd885",
    "getOrderLocks(uint256)": "8c1c2cef",
    "getOrdersAtPriceLevel(uint256,uint256,uint256,uint256)": "4d3282b4",
    "getOwner()": "893d20e8",
    "getPermissionedCancelParams(uint256)": "396d7e47",
    "getPerpOrderLocks(uint256,uint256)": "2709b746",
    "getPerpetualInfo(uint256)": "00092cce",
    "getPosition(uint256,uint256)": "751de421",
    "getPositionIds(uint256)": "1973c619",
    "getPositions(uint256,uint256,uint256)": "4a9a4158",
    "getPriceLevelOrderIds(uint256,uint256)": "653a6bd7",
    "getProtocolBalanceCNS()": "b5fcf762",
    "getRecycleBalanceCNS()": "edb1314e",
    "getRecycleFeeCNS()": "16a483ea",
    "getTakerFee(uint256)": "4119f930",
    "getUnwindInfo(uint256)": "6728641b",
    "getVolumeAtBookPrice(uint256,uint256)": "fe37fe12",
    "getWithdrawAllowanceData(uint256)": "8bcf1b27",
    "increasePositionCollateral(uint256,uint256)": "f769f0d3",
    "initUnwindContract(uint256,uint256)": "a5e9c411",
    "initialize(address)": "c4d66de8",
    "isAdministrator(address)": "0a2eb301",
    "isHalted()": "c7ff1584",
    "isLiquidationBuyer(address)": "ae0d4442",
    "isPositionAdministrator(address)": "dbfbf7e8",
    "isPriceAdministrator(address)": "d8b44268",
    "liquidation((uint256,uint256,uint256,bool))": "bbf979ac",
    "liquidations((uint256,uint256,uint256,bool)[],bool)": "d3b8c49d",
    "numberOfAccounts()": "0f03e4c3",
    "owner()": "8da5cb5b",
    "pauseContract(uint256)": "c2852f38",
    "pendingOwner()": "e30c3978",
    "proxiableUUID()": "52d1902d",
    "removeContract(uint256)": "7cca3b06",
    "renounceOwnership()": "715018a6",
    "requestDecreasePositionCollateral(uint256)": "9c64b2b5",
    "setAddressBlockStatus(address[],bool)": "b1082486",
    "setAddressWhitelisted(address[],bool)": "be70473d",
    "setAdministrator(address,bool)": "87c95058",
    "setBuyToLiquidateBuyerRestriction(uint256,bool)": "32b9203b",
    "setBuyToLiquidateParams(uint256,uint256,uint256,uint256)": "5180d5a8",
    "setBuyToLiquidatePriceThreshold(uint256,uint256)": "45c8c924",
    "setContractPaused(uint256,bool)": "9e430eda",
    "setDecreaseCollatParams(uint256,uint256,uint32,uint32,uint16,uint8)": "2ca0b812",
    "setExchangeHalted(bool)": "58087a74",
    "setFeeParams(uint256,uint256)": "9d2ec188",
    "setFreezeStatus(address,uint8)": "182b01f2",
    "setFrozen(address,uint8)": "4b8344fb",
    "setFundingClampPct(uint256,uint256)": "16a06593",
    "setFundingSum(uint256,int256,uint32,bool,bool)": "9fc8afd7",
    "setIgnOracle(uint256,bool)": "69752159",
    "setInitialMarginFraction(uint256,uint256)": "e2e1cb57",
    "setLinkDsVerifier(address)": "d360dd31",
    "setLiquidationBuyer(address,bool)": "7ddbdc2a",
    "setLiquidationParams(uint256,uint256,uint256)": "60ad17fd",
    "setMaintenanceMarginFraction(uint256,uint256)": "8c031164",
    "setMakerFee(uint256,uint256)": "e74e2c9b",
    "setMaxOpenInterest(uint256,uint256)": "9a6d7630",
    "setMinAccountOpenAmount(uint256)": "d6f34bd6",
    "setMinPost(uint256)": "279289e9",
    "setMinSettle(uint256)": "f28b98f3",
    "setMinWithdrawLimit(uint256)": "4d574c56",
    "setOverCollatDescentThreshold(uint256,uint256)": "ed6760fe",
    "setPermissionedCancelParams(uint256,uint256,uint256)": "efb62904",
    "setPerpLinkDsFeedId(uint256,bytes32)": "03cfe83c",
    "setPositionAdministrator(address,bool)": "12014156",
    "setPriceAdministrator(address,bool)": "a9bd5cee",
    "setPriceMaxAge(uint256,uint256)": "0e517f41",
    "setPriceTolPer100K(uint256,uint256)": "7d45678e",
    "setRecycleFee(uint256)": "be0783f5",
    "setTakerFee(uint256,uint256)": "6debf8fa",
    "setThousandthsTvlWRLS(uint256)": "d780ece8",
    "setUnityDescentThreshold(uint256,uint256)": "2f32509b",
    "setWhitelistingEnabled(bool)": "5f40c1f7",
    "setWithdrawBypass(address,bool)": "252c3594",
    "transferOwnership(address)": "f2fde38b",
    "unwindContract(uint256,uint256,bool)": "fb05acb7",
    "updateMarkPricePNS(uint256,uint256)": "f12bb389",
    "updateOraclePrice(uint256,bytes)": "8f3ffc85",
    "upgradeTo(address)": "3659cfe6",
    "upgradeToAndCall(address,bytes)": "4f1ef286",
    "whitelisted(address)": "d936547e",
    "whitelistingEnabled()": "5b0c29eb",
    "withdrawCollateral(uint256)": "6112fe2e",
    "withdrawFromProtocol(uint256)": "8a924640",
    "xferAcctToProtocol(uint256)": "61bd6f44",
    "xferPerpInsToProtocol(uint256,uint256)": "586d92ca",
    "xferProtocolToAcct(uint256,uint256)": "229c2492",
    "xferProtocolToPerp(uint256,uint256,bool)": "e68073c3",
    "xferProtocolToRecycleBal(uint256)": "1df87ade"
  },
  "id": 14
}