{
  "abi": [
    {
      "type": "constructor",
      "inputs": [
        {
          "name": "collateralToken",
          "type": "address",
          "internalType": "address"
        },
        {
          "name": "fundingInterval",
          "type": "uint256",
          "internalType": "uint256"
        },
        {
          "name": "isTest",
          "type": "bool",
          "internalType": "bool"
        }
      ],
      "stateMutability": "nonpayable"
    },
    {
      "type": "function",
      "name": "acceptOwnership",
      "inputs": [],
      "outputs": [],
      "stateMutability": "nonpayable"
    },
    {
      "type": "function",
      "name": "addContract",
      "inputs": [
        {
          "name": "name",
          "type": "string",
          "internalType": "string"
        },
        {
          "name": "symbol",
          "type": "string",
          "internalType": "string"
        },
        {
          "name": "perpId",
          "type": "uint256",
          "internalType": "uint256"
        },
        {
          "name": "basePricePNS",
          "type": "uint256",
          "internalType": "uint256"
        },
        {
          "name": "priceDecimals",
          "type": "uint256",
          "internalType": "uint256"
        },
        {
          "name": "lotDecimals",
          "type": "uint256",
          "internalType": "uint256"
        },
        {
          "name": "takerFeePer100K",
          "type": "uint256",
          "internalType": "uint256"
        },
        {
          "name": "makerFeePer100K",
          "type": "uint256",
          "internalType": "uint256"
        },
        {
          "name": "initMarginFracHdths",
          "type": "uint256",
          "internalType": "uint256"
        },
        {
          "name": "maintMarginFracHdths",
          "type": "uint256",
          "internalType": "uint256"
        }
      ],
      "outputs": [],
      "stateMutability": "nonpayable"
    },
    {
      "type": "function",
      "name": "adminCancelOrders",
      "inputs": [
        {
          "name": "signatures",
          "type": "tuple[]",
          "internalType": "struct OrderSignature[]",
          "components": [
            {
              "name": "perpId",
              "type": "uint256",
              "internalType": "uint256"
            },
            {
              "name": "orderId",
              "type": "uint256",
              "internalType": "uint256"
            }
          ]
        }
      ],
      "outputs": [],
      "stateMutability": "nonpayable"
    },
    {
      "type": "function",
      "name": "allowOrderForwarding",
      "inputs": [
        {
          "name": "allow",
          "type": "bool",
          "internalType": "bool"
        }
      ],
      "outputs": [],
      "stateMutability": "nonpayable"
    },
    {
      "type": "function",
      "name": "autoDeleverage",
      "inputs": [
        {
          "name": "adlDescs",
          "type": "tuple[]",
          "internalType": "struct AdlDesc[]",
          "components": [
            {
              "name": "perpId",
              "type": "uint256",
              "internalType": "uint256"
            },
            {
              "name": "posAccountId",
              "type": "uint256",
              "internalType": "uint256"
            },
            {
              "name": "sortedPositionIds",
              "type": "uint256[]",
              "internalType": "uint256[]"
            }
          ]
        },
        {
          "name": "revertOnFail",
          "type": "bool",
          "internalType": "bool"
        }
      ],
      "outputs": [],
      "stateMutability": "nonpayable"
    },
    {
      "type": "function",
      "name": "buyLiquidations",
      "inputs": [
        {
          "name": "liquidationDescs",
          "type": "tuple[]",
          "internalType": "struct BuyToLiquidateDesc[]",
          "components": [
            {
              "name": "perpId",
              "type": "uint256",
              "internalType": "uint256"
            },
            {
              "name": "posAccountId",
              "type": "uint256",
              "internalType": "uint256"
            },
            {
              "name": "lotLNS",
              "type": "uint256",
              "internalType": "uint256"
            },
            {
              "name": "leverageHdths",
              "type": "uint256",
              "internalType": "uint256"
            }
          ]
        },
        {
          "name": "revertOnFail",
          "type": "bool",
          "internalType": "bool"
        }
      ],
      "outputs": [],
      "stateMutability": "nonpayable"
    },
    {
      "type": "function",
      "name": "clearInitUnwindContract",
      "inputs": [
        {
          "name": "perpId",
          "type": "uint256",
          "internalType": "uint256"
        }
      ],
      "outputs": [],
      "stateMutability": "nonpayable"
    },
    {
      "type": "function",
      "name": "clearOrderSlots",
      "inputs": [
        {
          "name": "perpId",
          "type": "uint256",
          "internalType": "uint256"
        },
        {
          "name": "orderIds",
          "type": "uint256[]",
          "internalType": "uint256[]"
        }
      ],
      "outputs": [],
      "stateMutability": "nonpayable"
    },
    {
      "type": "function",
      "name": "clearPricePointerSlots",
      "inputs": [
        {
          "name": "perpId",
          "type": "uint256",
          "internalType": "uint256"
        },
        {
          "name": "pricesONS",
          "type": "uint256[]",
          "internalType": "uint256[]"
        }
      ],
      "outputs": [],
      "stateMutability": "nonpayable"
    },
    {
      "type": "function",
      "name": "createAccount",
      "inputs": [
        {
          "name": "amountCNS",
          "type": "uint256",
          "internalType": "uint256"
        }
      ],
      "outputs": [
        {
          "name": "accountId",
          "type": "uint256",
          "internalType": "uint256"
        }
      ],
      "stateMutability": "nonpayable"
    },
    {
      "type": "function",
      "name": "depositCollateral",
      "inputs": [
        {
          "name": "amountCNS",
          "type": "uint256",
          "internalType": "uint256"
        }
      ],
      "outputs": [],
      "stateMutability": "nonpayable"
    },
    {
      "type": "function",
      "name": "depositToProtocol",
      "inputs": [
        {
          "name": "amountCNS",
          "type": "uint256",
          "internalType": "uint256"
        }
      ],
      "outputs": [],
      "stateMutability": "nonpayable"
    },
    {
      "type": "function",
      "name": "execFwdPositionOps",
      "inputs": [
        {
          "name": "forwardedOrders",
          "type": "tuple[]",
          "internalType": "struct FwdOrderDesc[]",
          "components": [
            {
              "name": "accountId",
              "type": "uint256",
              "internalType": "uint256"
            },
            {
              "name": "feePer100K",
              "type": "uint256",
              "internalType": "uint256"
            },
            {
              "name": "orderDesc",
              "type": "tuple",
              "internalType": "struct OrderDesc",
              "components": [
                {
                  "name": "orderDescId",
                  "type": "uint256",
                  "internalType": "uint256"
                },
                {
                  "name": "perpId",
                  "type": "uint256",
                  "internalType": "uint256"
                },
                {
                  "name": "orderType",
                  "type": "uint8",
                  "internalType": "enum OrderDescEnum"
                },
                {
                  "name": "orderId",
                  "type": "uint256",
                  "internalType": "uint256"
                },
                {
                  "name": "pricePNS",
                  "type": "uint256",
                  "internalType": "uint256"
                },
                {
                  "name": "lotLNS",
                  "type": "uint256",
                  "internalType": "uint256"
                },
                {
                  "name": "expiryBlock",
                  "type": "uint256",
                  "internalType": "uint256"
                },
                {
                  "name": "postOnly",
                  "type": "bool",
                  "internalType": "bool"
                },
                {
                  "name": "fillOrKill",
                  "type": "bool",
                  "internalType": "bool"
                },
                {
                  "name": "immediateOrCancel",
                  "type": "bool",
                  "internalType": "bool"
                },
                {
                  "name": "maxMatches",
                  "type": "uint256",
                  "internalType": "uint256"
                },
                {
                  "name": "leverageHdths",
                  "type": "uint256",
                  "internalType": "uint256"
                },
                {
                  "name": "lastExecutionBlock",
                  "type": "uint256",
                  "internalType": "uint256"
                },
                {
                  "name": "amountCNS",
                  "type": "uint256",
                  "internalType": "uint256"
                }
              ]
            }
          ]
        }
      ],
      "outputs": [
        {
          "name": "signatures",
          "type": "tuple[]",
          "internalType": "struct OrderSignature[]",
          "components": [
            {
              "name": "perpId",
              "type": "uint256",
              "internalType": "uint256"
            },
            {
              "name": "orderId",
              "type": "uint256",
              "internalType": "uint256"
            }
          ]
        }
      ],
      "stateMutability": "nonpayable"
    },
    {
      "type": "function",
      "name": "execFznAccountPosOps",
      "inputs": [
        {
          "name": "fznAccountCloseOrders",
          "type": "tuple[]",
          "internalType": "struct FznOrderDesc[]",
          "components": [
            {
              "name": "accountId",
              "type": "uint256",
              "internalType": "uint256"
            },
            {
              "name": "orderDesc",
              "type": "tuple",
              "internalType": "struct OrderDesc",
              "components": [
                {
                  "name": "orderDescId",
                  "type": "uint256",
                  "internalType": "uint256"
                },
                {
                  "name": "perpId",
                  "type": "uint256",
                  "internalType": "uint256"
                },
                {
                  "name": "orderType",
                  "type": "uint8",
                  "internalType": "enum OrderDescEnum"
                },
                {
                  "name": "orderId",
                  "type": "uint256",
                  "internalType": "uint256"
                },
                {
                  "name": "pricePNS",
                  "type": "uint256",
                  "internalType": "uint256"
                },
                {
                  "name": "lotLNS",
                  "type": "uint256",
                  "internalType": "uint256"
                },
                {
                  "name": "expiryBlock",
                  "type": "uint256",
                  "internalType": "uint256"
                },
                {
                  "name": "postOnly",
                  "type": "bool",
                  "internalType": "bool"
                },
                {
                  "name": "fillOrKill",
                  "type": "bool",
                  "internalType": "bool"
                },
                {
                  "name": "immediateOrCancel",
                  "type": "bool",
                  "internalType": "bool"
                },
                {
                  "name": "maxMatches",
                  "type": "uint256",
                  "internalType": "uint256"
                },
                {
                  "name": "leverageHdths",
                  "type": "uint256",
                  "internalType": "uint256"
                },
                {
                  "name": "lastExecutionBlock",
                  "type": "uint256",
                  "internalType": "uint256"
                },
                {
                  "name": "amountCNS",
                  "type": "uint256",
                  "internalType": "uint256"
                }
              ]
            }
          ]
        }
      ],
      "outputs": [],
      "stateMutability": "nonpayable"
    },
    {
      "type": "function",
      "name": "execOpsAndOrders",
      "inputs": [
        {
          "name": "operations",
          "type": "tuple[]",
          "internalType": "struct OpDesc[]",
          "components": [
            {
              "name": "opDescId",
              "type": "uint256",
              "internalType": "uint256"
            },
            {
              "name": "perpId",
              "type": "uint256",
              "internalType": "uint256"
            },
            {
              "name": "opType",
              "type": "uint8",
              "internalType": "enum OpDescEnum"
            },
            {
              "name": "pricePNS",
              "type": "uint32",
              "internalType": "uint32"
            },
            {
              "name": "fundingRatePct100k",
              "type": "int256",
              "internalType": "int256"
            },
            {
              "name": "allowOverwrite",
              "type": "bool",
              "internalType": "bool"
            },
            {
              "name": "unverifiedReport",
              "type": "bytes",
              "internalType": "bytes"
            }
          ]
        },
        {
          "name": "orderDescs",
          "type": "tuple[]",
          "internalType": "struct OrderDesc[]",
          "components": [
            {
              "name": "orderDescId",
              "type": "uint256",
              "internalType": "uint256"
            },
            {
              "name": "perpId",
              "type": "uint256",
              "internalType": "uint256"
            },
            {
              "name": "orderType",
              "type": "uint8",
              "internalType": "enum OrderDescEnum"
            },
            {
              "name": "orderId",
              "type": "uint256",
              "internalType": "uint256"
            },
            {
              "name": "pricePNS",
              "type": "uint256",
              "internalType": "uint256"
            },
            {
              "name": "lotLNS",
              "type": "uint256",
              "internalType": "uint256"
            },
            {
              "name": "expiryBlock",
              "type": "uint256",
              "internalType": "uint256"
            },
            {
              "name": "postOnly",
              "type": "bool",
              "internalType": "bool"
            },
            {
              "name": "fillOrKill",
              "type": "bool",
              "internalType": "bool"
            },
            {
              "name": "immediateOrCancel",
              "type": "bool",
              "internalType": "bool"
            },
            {
              "name": "maxMatches",
              "type": "uint256",
              "internalType": "uint256"
            },
            {
              "name": "leverageHdths",
              "type": "uint256",
              "internalType": "uint256"
            },
            {
              "name": "lastExecutionBlock",
              "type": "uint256",
              "internalType": "uint256"
            },
            {
              "name": "amountCNS",
              "type": "uint256",
              "internalType": "uint256"
            }
          ]
        },
        {
          "name": "revertOnFail",
          "type": "bool",
          "internalType": "bool"
        }
      ],
      "outputs": [
        {
          "name": "signatures",
          "type": "tuple[]",
          "internalType": "struct OrderSignature[]",
          "components": [
            {
              "name": "perpId",
              "type": "uint256",
              "internalType": "uint256"
            },
            {
              "name": "orderId",
              "type": "uint256",
              "internalType": "uint256"
            }
          ]
        }
      ],
      "stateMutability": "nonpayable"
    },
    {
      "type": "function",
      "name": "execOrder",
      "inputs": [
        {
          "name": "orderDesc",
          "type": "tuple",
          "internalType": "struct OrderDesc",
          "components": [
            {
              "name": "orderDescId",
              "type": "uint256",
              "internalType": "uint256"
            },
            {
              "name": "perpId",
              "type": "uint256",
              "internalType": "uint256"
            },
            {
              "name": "orderType",
              "type": "uint8",
              "internalType": "enum OrderDescEnum"
            },
            {
              "name": "orderId",
              "type": "uint256",
              "internalType": "uint256"
            },
            {
              "name": "pricePNS",
              "type": "uint256",
              "internalType": "uint256"
            },
            {
              "name": "lotLNS",
              "type": "uint256",
              "internalType": "uint256"
            },
            {
              "name": "expiryBlock",
              "type": "uint256",
              "internalType": "uint256"
            },
            {
              "name": "postOnly",
              "type": "bool",
              "internalType": "bool"
            },
            {
              "name": "fillOrKill",
              "type": "bool",
              "internalType": "bool"
            },
            {
              "name": "immediateOrCancel",
              "type": "bool",
              "internalType": "bool"
            },
            {
              "name": "maxMatches",
              "type": "uint256",
              "internalType": "uint256"
            },
            {
              "name": "leverageHdths",
              "type": "uint256",
              "internalType": "uint256"
            },
            {
              "name": "lastExecutionBlock",
              "type": "uint256",
              "internalType": "uint256"
            },
            {
              "name": "amountCNS",
              "type": "uint256",
              "internalType": "uint256"
            }
          ]
        }
      ],
      "outputs": [
        {
          "name": "signature",
          "type": "tuple",
          "internalType": "struct OrderSignature",
          "components": [
            {
              "name": "perpId",
              "type": "uint256",
              "internalType": "uint256"
            },
            {
              "name": "orderId",
              "type": "uint256",
              "internalType": "uint256"
            }
          ]
        }
      ],
      "stateMutability": "nonpayable"
    },
    {
      "type": "function",
      "name": "execPerpOps",
      "inputs": [
        {
          "name": "operations",
          "type": "tuple[]",
          "internalType": "struct OpDesc[]",
          "components": [
            {
              "name": "opDescId",
              "type": "uint256",
              "internalType": "uint256"
            },
            {
              "name": "perpId",
              "type": "uint256",
              "internalType": "uint256"
            },
            {
              "name": "opType",
              "type": "uint8",
              "internalType": "enum OpDescEnum"
            },
            {
              "name": "pricePNS",
              "type": "uint32",
              "internalType": "uint32"
            },
            {
              "name": "fundingRatePct100k",
              "type": "int256",
              "internalType": "int256"
            },
            {
              "name": "allowOverwrite",
              "type": "bool",
              "internalType": "bool"
            },
            {
              "name": "unverifiedReport",
              "type": "bytes",
              "internalType": "bytes"
            }
          ]
        }
      ],
      "outputs": [],
      "stateMutability": "nonpayable"
    },
    {
      "type": "function",
      "name": "forceClose",
      "inputs": [
        {
          "name": "perpId",
          "type": "uint256",
          "internalType": "uint256"
        },
        {
          "name": "posAccountId",
          "type": "uint256",
          "internalType": "uint256"
        },
        {
          "name": "sortedPositionIds",
          "type": "uint256[]",
          "internalType": "uint256[]"
        },
        {
          "name": "revertOnFail",
          "type": "bool",
          "internalType": "bool"
        }
      ],
      "outputs": [
        {
          "name": "success",
          "type": "bool",
          "internalType": "bool"
        }
      ],
      "stateMutability": "nonpayable"
    },
    {
      "type": "function",
      "name": "getAccountByAddr",
      "inputs": [
        {
          "name": "accountAddress",
          "type": "address",
          "internalType": "address"
        }
      ],
      "outputs": [
        {
          "name": "accountInfo",
          "type": "tuple",
          "internalType": "struct AccountInfo",
          "components": [
            {
              "name": "accountId",
              "type": "uint256",
              "internalType": "uint256"
            },
            {
              "name": "balanceCNS",
              "type": "uint256",
              "internalType": "uint256"
            },
            {
              "name": "lockedBalanceCNS",
              "type": "uint256",
              "internalType": "uint256"
            },
            {
              "name": "frozen",
              "type": "uint8",
              "internalType": "enum FreezeStatusEnum"
            },
            {
              "name": "accountAddr",
              "type": "address",
              "internalType": "address"
            },
            {
              "name": "positions",
              "type": "tuple",
              "internalType": "struct PositionBitMap",
              "components": [
                {
                  "name": "bank1",
                  "type": "uint256",
                  "internalType": "uint256"
                },
                {
                  "name": "bank2",
                  "type": "uint256",
                  "internalType": "uint256"
                },
                {
                  "name": "bank3",
                  "type": "uint256",
                  "internalType": "uint256"
                },
                {
                  "name": "bank4",
                  "type": "uint256",
                  "internalType": "uint256"
                }
              ]
            }
          ]
        }
      ],
      "stateMutability": "view"
    },
    {
      "type": "function",
      "name": "getAccountById",
      "inputs": [
        {
          "name": "accountId",
          "type": "uint256",
          "internalType": "uint256"
        }
      ],
      "outputs": [
        {
          "name": "accountInfo",
          "type": "tuple",
          "internalType": "struct AccountInfo",
          "components": [
            {
              "name": "accountId",
              "type": "uint256",
              "internalType": "uint256"
            },
            {
              "name": "balanceCNS",
              "type": "uint256",
              "internalType": "uint256"
            },
            {
              "name": "lockedBalanceCNS",
              "type": "uint256",
              "internalType": "uint256"
            },
            {
              "name": "frozen",
              "type": "uint8",
              "internalType": "enum FreezeStatusEnum"
            },
            {
              "name": "accountAddr",
              "type": "address",
              "internalType": "address"
            },
            {
              "name": "positions",
              "type": "tuple",
              "internalType": "struct PositionBitMap",
              "components": [
                {
                  "name": "bank1",
                  "type": "uint256",
                  "internalType": "uint256"
                },
                {
                  "name": "bank2",
                  "type": "uint256",
                  "internalType": "uint256"
                },
                {
                  "name": "bank3",
                  "type": "uint256",
                  "internalType": "uint256"
                },
                {
                  "name": "bank4",
                  "type": "uint256",
                  "internalType": "uint256"
                }
              ]
            }
          ]
        }
      ],
      "stateMutability": "view"
    },
    {
      "type": "function",
      "name": "getExchangeInfo",
      "inputs": [],
      "outputs": [
        {
          "name": "balanceCNS",
          "type": "uint256",
          "internalType": "uint256"
        },
        {
          "name": "protocolBalanceCNS",
          "type": "uint256",
          "internalType": "uint256"
        },
        {
          "name": "recycleBalanceCNS",
          "type": "uint256",
          "internalType": "uint256"
        },
        {
          "name": "collateralDecimals",
          "type": "uint256",
          "internalType": "uint256"
        },
        {
          "name": "collateralToken",
          "type": "address",
          "internalType": "address"
        },
        {
          "name": "verifierProxy",
          "type": "address",
          "internalType": "address"
        }
      ],
      "stateMutability": "view"
    },
    {
      "type": "function",
      "name": "getFundingInterval",
      "inputs": [],
      "outputs": [
        {
          "name": "fundingInterval",
          "type": "uint256",
          "internalType": "uint256"
        }
      ],
      "stateMutability": "view"
    },
    {
      "type": "function",
      "name": "getFundingSumAtBlock",
      "inputs": [
        {
          "name": "perpId",
          "type": "uint256",
          "internalType": "uint256"
        },
        {
          "name": "blockNumber",
          "type": "uint256",
          "internalType": "uint256"
        }
      ],
      "outputs": [
        {
          "name": "fundingSumPNS",
          "type": "int48",
          "internalType": "int48"
        },
        {
          "name": "fundingEventBlock",
          "type": "uint256",
          "internalType": "uint256"
        }
      ],
      "stateMutability": "view"
    },
    {
      "type": "function",
      "name": "getLiquidationInfo",
      "inputs": [
        {
          "name": "perpId",
          "type": "uint256",
          "internalType": "uint256"
        }
      ],
      "outputs": [
        {
          "name": "liquidationInfo",
          "type": "tuple",
          "internalType": "struct LiquidationInfo",
          "components": [
            {
              "name": "liqInsAmtPer100K",
              "type": "uint256",
              "internalType": "uint256"
            },
            {
              "name": "liqUserAmtPer100K",
              "type": "uint256",
              "internalType": "uint256"
            },
            {
              "name": "liqProtocolAmtPer100K",
              "type": "uint256",
              "internalType": "uint256"
            },
            {
              "name": "btlPriceThreshPer100K",
              "type": "uint256",
              "internalType": "uint256"
            },
            {
              "name": "btlInsAmtPer100K",
              "type": "uint256",
              "internalType": "uint256"
            },
            {
              "name": "btlUserAmtPer100K",
              "type": "uint256",
              "internalType": "uint256"
            },
            {
              "name": "btlBuyerAmtPer100K",
              "type": "uint256",
              "internalType": "uint256"
            },
            {
              "name": "btlProtocolAmtPer100K",
              "type": "uint256",
              "internalType": "uint256"
            },
            {
              "name": "btlRestrictBuyers",
              "type": "bool",
              "internalType": "bool"
            }
          ]
        }
      ],
      "stateMutability": "view"
    },
    {
      "type": "function",
      "name": "getMakerFee",
      "inputs": [
        {
          "name": "perpId",
          "type": "uint256",
          "internalType": "uint256"
        }
      ],
      "outputs": [
        {
          "name": "",
          "type": "uint256",
          "internalType": "uint256"
        }
      ],
      "stateMutability": "view"
    },
    {
      "type": "function",
      "name": "getMarginFractions",
      "inputs": [
        {
          "name": "perpId",
          "type": "uint256",
          "internalType": "uint256"
        },
        {
          "name": "lotLNS",
          "type": "uint256",
          "internalType": "uint256"
        }
      ],
      "outputs": [
        {
          "name": "perpInitMarginFracHdths",
          "type": "uint256",
          "internalType": "uint256"
        },
        {
          "name": "perpMaintMarginFracHdths",
          "type": "uint256",
          "internalType": "uint256"
        },
        {
          "name": "dynamicInitMarginFracHdths",
          "type": "uint256",
          "internalType": "uint256"
        },
        {
          "name": "oiMaxLNS",
          "type": "uint256",
          "internalType": "uint256"
        },
        {
          "name": "unityDescentThreshHdths",
          "type": "uint256",
          "internalType": "uint256"
        },
        {
          "name": "overColDescentThreshHdths",
          "type": "uint256",
          "internalType": "uint256"
        }
      ],
      "stateMutability": "view"
    },
    {
      "type": "function",
      "name": "getMinAccountOpenCNS",
      "inputs": [],
      "outputs": [
        {
          "name": "minAccountOpenCNS",
          "type": "uint256",
          "internalType": "uint256"
        }
      ],
      "stateMutability": "view"
    },
    {
      "type": "function",
      "name": "getMinimumPostCNS",
      "inputs": [],
      "outputs": [
        {
          "name": "minimumPostCNS",
          "type": "uint256",
          "internalType": "uint256"
        }
      ],
      "stateMutability": "view"
    },
    {
      "type": "function",
      "name": "getMinimumSettleCNS",
      "inputs": [],
      "outputs": [
        {
          "name": "minimumSettleCNS",
          "type": "uint256",
          "internalType": "uint256"
        }
      ],
      "stateMutability": "view"
    },
    {
      "type": "function",
      "name": "getNextPriceBelowWithOrders",
      "inputs": [
        {
          "name": "perpId",
          "type": "uint256",
          "internalType": "uint256"
        },
        {
          "name": "priceONS",
          "type": "uint256",
          "internalType": "uint256"
        }
      ],
      "outputs": [
        {
          "name": "priceBelowONS",
          "type": "uint256",
          "internalType": "uint256"
        }
      ],
      "stateMutability": "view"
    },
    {
      "type": "function",
      "name": "getOrder",
      "inputs": [
        {
          "name": "perpId",
          "type": "uint256",
          "internalType": "uint256"
        },
        {
          "name": "orderId",
          "type": "uint256",
          "internalType": "uint256"
        }
      ],
      "outputs": [
        {
          "name": "order",
          "type": "tuple",
          "internalType": "struct Order",
          "components": [
            {
              "name": "accountId",
              "type": "uint32",
              "internalType": "uint32"
            },
            {
              "name": "orderType",
              "type": "uint8",
              "internalType": "enum OrderEnum"
            },
            {
              "name": "priceONS",
              "type": "uint24",
              "internalType": "uint24"
            },
            {
              "name": "lotLNS",
              "type": "uint40",
              "internalType": "uint40"
            },
            {
              "name": "recycleFeeRaw",
              "type": "uint16",
              "internalType": "uint16"
            },
            {
              "name": "expiryBlock",
              "type": "uint32",
              "internalType": "uint32"
            },
            {
              "name": "leverageHdths",
              "type": "uint16",
              "internalType": "uint16"
            },
            {
              "name": "orderId",
              "type": "uint16",
              "internalType": "uint16"
            },
            {
              "name": "prevOrderId",
              "type": "uint16",
              "internalType": "uint16"
            },
            {
              "name": "nextOrderId",
              "type": "uint16",
              "internalType": "uint16"
            }
          ]
        }
      ],
      "stateMutability": "view"
    },
    {
      "type": "function",
      "name": "getOrderIdIndex",
      "inputs": [
        {
          "name": "perpId",
          "type": "uint256",
          "internalType": "uint256"
        }
      ],
      "outputs": [
        {
          "name": "root",
          "type": "uint256",
          "internalType": "uint256"
        },
        {
          "name": "leaves",
          "type": "uint256[]",
          "internalType": "uint256[]"
        },
        {
          "name": "numOrders",
          "type": "uint256",
          "internalType": "uint256"
        }
      ],
      "stateMutability": "view"
    },
    {
      "type": "function",
      "name": "getOrderLocks",
      "inputs": [
        {
          "name": "accountId",
          "type": "uint256",
          "internalType": "uint256"
        }
      ],
      "outputs": [
        {
          "name": "orderLocks",
          "type": "tuple[]",
          "internalType": "struct OrderLock[]",
          "components": [
            {
              "name": "orderLockId",
              "type": "uint32",
              "internalType": "uint32"
            },
            {
              "name": "nextOrderLockId",
              "type": "uint32",
              "internalType": "uint32"
            },
            {
              "name": "prevOrderLockId",
              "type": "uint32",
              "internalType": "uint32"
            },
            {
              "name": "orderType",
              "type": "uint8",
              "internalType": "enum OrderEnum"
            },
            {
              "name": "lotLNS",
              "type": "uint40",
              "internalType": "uint40"
            },
            {
              "name": "amountCNS",
              "type": "uint80",
              "internalType": "uint80"
            }
          ]
        }
      ],
      "stateMutability": "view"
    },
    {
      "type": "function",
      "name": "getOrdersAtPriceLevel",
      "inputs": [
        {
          "name": "perpId",
          "type": "uint256",
          "internalType": "uint256"
        },
        {
          "name": "priceONS",
          "type": "uint256",
          "internalType": "uint256"
        },
        {
          "name": "pageStartOrderId",
          "type": "uint256",
          "internalType": "uint256"
        },
        {
          "name": "ordersPerPage",
          "type": "uint256",
          "internalType": "uint256"
        }
      ],
      "outputs": [
        {
          "name": "ordersAtPriceLevel",
          "type": "tuple[]",
          "internalType": "struct Order[]",
          "components": [
            {
              "name": "accountId",
              "type": "uint32",
              "internalType": "uint32"
            },
            {
              "name": "orderType",
              "type": "uint8",
              "internalType": "enum OrderEnum"
            },
            {
              "name": "priceONS",
              "type": "uint24",
              "internalType": "uint24"
            },
            {
              "name": "lotLNS",
              "type": "uint40",
              "internalType": "uint40"
            },
            {
              "name": "recycleFeeRaw",
              "type": "uint16",
              "internalType": "uint16"
            },
            {
              "name": "expiryBlock",
              "type": "uint32",
              "internalType": "uint32"
            },
            {
              "name": "leverageHdths",
              "type": "uint16",
              "internalType": "uint16"
            },
            {
              "name": "orderId",
              "type": "uint16",
              "internalType": "uint16"
            },
            {
              "name": "prevOrderId",
              "type": "uint16",
              "internalType": "uint16"
            },
            {
              "name": "nextOrderId",
              "type": "uint16",
              "internalType": "uint16"
            }
          ]
        },
        {
          "name": "numOrders",
          "type": "uint256",
          "internalType": "uint256"
        }
      ],
      "stateMutability": "view"
    },
    {
      "type": "function",
      "name": "getOwner",
      "inputs": [],
      "outputs": [
        {
          "name": "",
          "type": "address",
          "internalType": "address"
        }
      ],
      "stateMutability": "view"
    },
    {
      "type": "function",
      "name": "getPermissionedCancelParams",
      "inputs": [
        {
          "name": "perpId",
          "type": "uint256",
          "internalType": "uint256"
        }
      ],
      "outputs": [
        {
          "name": "permCancelMinOrders",
          "type": "uint256",
          "internalType": "uint256"
        },
        {
          "name": "permCancelSegment",
          "type": "uint256",
          "internalType": "uint256"
        }
      ],
      "stateMutability": "view"
    },
    {
      "type": "function",
      "name": "getPerpOrderLocks",
      "inputs": [
        {
          "name": "accountId",
          "type": "uint256",
          "internalType": "uint256"
        },
        {
          "name": "perpId",
          "type": "uint256",
          "internalType": "uint256"
        }
      ],
      "outputs": [
        {
          "name": "perpOrderLocks",
          "type": "tuple[]",
          "internalType": "struct OrderLock[]",
          "components": [
            {
              "name": "orderLockId",
              "type": "uint32",
              "internalType": "uint32"
            },
            {
              "name": "nextOrderLockId",
              "type": "uint32",
              "internalType": "uint32"
            },
            {
              "name": "prevOrderLockId",
              "type": "uint32",
              "internalType": "uint32"
            },
            {
              "name": "orderType",
              "type": "uint8",
              "internalType": "enum OrderEnum"
            },
            {
              "name": "lotLNS",
              "type": "uint40",
              "internalType": "uint40"
            },
            {
              "name": "amountCNS",
              "type": "uint80",
              "internalType": "uint80"
            }
          ]
        }
      ],
      "stateMutability": "view"
    },
    {
      "type": "function",
      "name": "getPerpetualInfo",
      "inputs": [
        {
          "name": "perpId",
          "type": "uint256",
          "internalType": "uint256"
        }
      ],
      "outputs": [
        {
          "name": "perpetualInfo",
          "type": "tuple",
          "internalType": "struct PerpetualInfo",
          "components": [
            {
              "name": "name",
              "type": "string",
              "internalType": "string"
            },
            {
              "name": "symbol",
              "type": "string",
              "internalType": "string"
            },
            {
              "name": "priceDecimals",
              "type": "uint256",
              "internalType": "uint256"
            },
            {
              "name": "lotDecimals",
              "type": "uint256",
              "internalType": "uint256"
            },
            {
              "name": "linkFeedId",
              "type": "bytes32",
              "internalType": "bytes32"
            },
            {
              "name": "priceTolPer100K",
              "type": "uint256",
              "internalType": "uint256"
            },
            {
              "name": "refPriceMaxAgeSec",
              "type": "uint256",
              "internalType": "uint256"
            },
            {
              "name": "positionBalanceCNS",
              "type": "uint256",
              "internalType": "uint256"
            },
            {
              "name": "insuranceBalanceCNS",
              "type": "uint256",
              "internalType": "uint256"
            },
            {
              "name": "markPNS",
              "type": "uint256",
              "internalType": "uint256"
            },
            {
              "name": "markTimestamp",
              "type": "uint256",
              "internalType": "uint256"
            },
            {
              "name": "lastPNS",
              "type": "uint256",
              "internalType": "uint256"
            },
            {
              "name": "lastTimestamp",
              "type": "uint256",
              "internalType": "uint256"
            },
            {
              "name": "oraclePNS",
              "type": "uint256",
              "internalType": "uint256"
            },
            {
              "name": "oracleTimestampSec",
              "type": "uint256",
              "internalType": "uint256"
            },
            {
              "name": "longOpenInterestLNS",
              "type": "uint256",
              "internalType": "uint256"
            },
            {
              "name": "shortOpenInterestLNS",
              "type": "uint256",
              "internalType": "uint256"
            },
            {
              "name": "fundingStartBlock",
              "type": "uint256",
              "internalType": "uint256"
            },
            {
              "name": "fundingRatePct100k",
              "type": "int16",
              "internalType": "int16"
            },
            {
              "name": "synthPerpPricePNS",
              "type": "uint256",
              "internalType": "uint256"
            },
            {
              "name": "absFundingClampPctPer100K",
              "type": "uint256",
              "internalType": "uint256"
            },
            {
              "name": "paused",
              "type": "bool",
              "internalType": "bool"
            },
            {
              "name": "basePricePNS",
              "type": "uint256",
              "internalType": "uint256"
            },
            {
              "name": "maxBidPriceONS",
              "type": "uint256",
              "internalType": "uint256"
            },
            {
              "name": "minBidPriceONS",
              "type": "uint256",
              "internalType": "uint256"
            },
            {
              "name": "maxAskPriceONS",
              "type": "uint256",
              "internalType": "uint256"
            },
            {
              "name": "minAskPriceONS",
              "type": "uint256",
              "internalType": "uint256"
            },
            {
              "name": "numOrders",
              "type": "uint256",
              "internalType": "uint256"
            },
            {
              "name": "ignOracle",
              "type": "bool",
              "internalType": "bool"
            }
          ]
        }
      ],
      "stateMutability": "view"
    },
    {
      "type": "function",
      "name": "getPosition",
      "inputs": [
        {
          "name": "perpId",
          "type": "uint256",
          "internalType": "uint256"
        },
        {
          "name": "accountId",
          "type": "uint256",
          "internalType": "uint256"
        }
      ],
      "outputs": [
        {
          "name": "positionInfo",
          "type": "tuple",
          "internalType": "struct PositionInfo",
          "components": [
            {
              "name": "accountId",
              "type": "uint256",
              "internalType": "uint256"
            },
            {
              "name": "nextNodeId",
              "type": "uint256",
              "internalType": "uint256"
            },
            {
              "name": "prevNodeId",
              "type": "uint256",
              "internalType": "uint256"
            },
            {
              "name": "positionType",
              "type": "uint8",
              "internalType": "enum PositionEnum"
            },
            {
              "name": "depositCNS",
              "type": "uint256",
              "internalType": "uint256"
            },
            {
              "name": "pricePNS",
              "type": "uint256",
              "internalType": "uint256"
            },
            {
              "name": "lotLNS",
              "type": "uint256",
              "internalType": "uint256"
            },
            {
              "name": "entryBlock",
              "type": "uint256",
              "internalType": "uint256"
            },
            {
              "name": "pnlCNS",
              "type": "int256",
              "internalType": "int256"
            },
            {
              "name": "deltaPnlCNS",
              "type": "int256",
              "internalType": "int256"
            },
            {
              "name": "premiumPnlCNS",
              "type": "int256",
              "internalType": "int256"
            }
          ]
        },
        {
          "name": "refPricePNS",
          "type": "uint256",
          "internalType": "uint256"
        },
        {
          "name": "refPriceStatus",
          "type": "uint8",
          "internalType": "enum RefPriceStatusEnum"
        }
      ],
      "stateMutability": "view"
    },
    {
      "type": "function",
      "name": "getPositionIds",
      "inputs": [
        {
          "name": "perpId",
          "type": "uint256",
          "internalType": "uint256"
        }
      ],
      "outputs": [
        {
          "name": "startNodeId",
          "type": "uint256",
          "internalType": "uint256"
        },
        {
          "name": "endNodeId",
          "type": "uint256",
          "internalType": "uint256"
        }
      ],
      "stateMutability": "view"
    },
    {
      "type": "function",
      "name": "getPositions",
      "inputs": [
        {
          "name": "perpId",
          "type": "uint256",
          "internalType": "uint256"
        },
        {
          "name": "pageStartPositionId",
          "type": "uint256",
          "internalType": "uint256"
        },
        {
          "name": "positionsPerPage",
          "type": "uint256",
          "internalType": "uint256"
        }
      ],
      "outputs": [
        {
          "name": "positions",
          "type": "tuple[]",
          "internalType": "struct PositionInfo[]",
          "components": [
            {
              "name": "accountId",
              "type": "uint256",
              "internalType": "uint256"
            },
            {
              "name": "nextNodeId",
              "type": "uint256",
              "internalType": "uint256"
            },
            {
              "name": "prevNodeId",
              "type": "uint256",
              "internalType": "uint256"
            },
            {
              "name": "positionType",
              "type": "uint8",
              "internalType": "enum PositionEnum"
            },
            {
              "name": "depositCNS",
              "type": "uint256",
              "internalType": "uint256"
            },
            {
              "name": "pricePNS",
              "type": "uint256",
              "internalType": "uint256"
            },
            {
              "name": "lotLNS",
              "type": "uint256",
              "internalType": "uint256"
            },
            {
              "name": "entryBlock",
              "type": "uint256",
              "internalType": "uint256"
            },
            {
              "name": "pnlCNS",
              "type": "int256",
              "internalType": "int256"
            },
            {
              "name": "deltaPnlCNS",
              "type": "int256",
              "internalType": "int256"
            },
            {
              "name": "premiumPnlCNS",
              "type": "int256",
              "internalType": "int256"
            }
          ]
        },
        {
          "name": "numPositions",
          "type": "uint256",
          "internalType": "uint256"
        },
        {
          "name": "refPricePNS",
          "type": "uint256",
          "internalType": "uint256"
        },
        {
          "name": "refPriceStatus",
          "type": "uint8",
          "internalType": "enum RefPriceStatusEnum"
        }
      ],
      "stateMutability": "view"
    },
    {
      "type": "function",
      "name": "getPriceLevelOrderIds",
      "inputs": [
        {
          "name": "perpId",
          "type": "uint256",
          "internalType": "uint256"
        },
        {
          "name": "priceONS",
          "type": "uint256",
          "internalType": "uint256"
        }
      ],
      "outputs": [
        {
          "name": "startOrderId",
          "type": "uint256",
          "internalType": "uint256"
        },
        {
          "name": "endOrderId",
          "type": "uint256",
          "internalType": "uint256"
        }
      ],
      "stateMutability": "view"
    },
    {
      "type": "function",
      "name": "getProtocolBalanceCNS",
      "inputs": [],
      "outputs": [
        {
          "name": "protocolBalanceCNS",
          "type": "uint256",
          "internalType": "uint256"
        }
      ],
      "stateMutability": "view"
    },
    {
      "type": "function",
      "name": "getRecycleBalanceCNS",
      "inputs": [],
      "outputs": [
        {
          "name": "recycleBalanceCNS",
          "type": "uint256",
          "internalType": "uint256"
        }
      ],
      "stateMutability": "view"
    },
    {
      "type": "function",
      "name": "getRecycleFeeCNS",
      "inputs": [],
      "outputs": [
        {
          "name": "recycleFeeCNS",
          "type": "uint256",
          "internalType": "uint256"
        }
      ],
      "stateMutability": "view"
    },
    {
      "type": "function",
      "name": "getTakerFee",
      "inputs": [
        {
          "name": "perpId",
          "type": "uint256",
          "internalType": "uint256"
        }
      ],
      "outputs": [
        {
          "name": "",
          "type": "uint256",
          "internalType": "uint256"
        }
      ],
      "stateMutability": "view"
    },
    {
      "type": "function",
      "name": "getUnwindInfo",
      "inputs": [
        {
          "name": "perpId",
          "type": "uint256",
          "internalType": "uint256"
        }
      ],
      "outputs": [
        {
          "name": "unwindInitialized",
          "type": "bool",
          "internalType": "bool"
        },
        {
          "name": "unwindStarted",
          "type": "bool",
          "internalType": "bool"
        },
        {
          "name": "unwindSumPositiveFmvCNS",
          "type": "uint256",
          "internalType": "uint256"
        },
        {
          "name": "unwindInitPosBalCNS",
          "type": "uint256",
          "internalType": "uint256"
        }
      ],
      "stateMutability": "view"
    },
    {
      "type": "function",
      "name": "getVolumeAtBookPrice",
      "inputs": [
        {
          "name": "perpId",
          "type": "uint256",
          "internalType": "uint256"
        },
        {
          "name": "priceONS",
          "type": "uint256",
          "internalType": "uint256"
        }
      ],
      "outputs": [
        {
          "name": "bids",
          "type": "uint256",
          "internalType": "uint256"
        },
        {
          "name": "expBids",
          "type": "uint256",
          "internalType": "uint256"
        },
        {
          "name": "asks",
          "type": "uint256",
          "internalType": "uint256"
        },
        {
          "name": "expAsks",
          "type": "uint256",
          "internalType": "uint256"
        }
      ],
      "stateMutability": "view"
    },
    {
      "type": "function",
      "name": "getWithdrawAllowanceData",
      "inputs": [
        {
          "name": "blockNumber",
          "type": "uint256",
          "internalType": "uint256"
        }
      ],
      "outputs": [
        {
          "name": "allowanceCNS",
          "type": "uint256",
          "internalType": "uint256"
        },
        {
          "name": "expiryBlock",
          "type": "uint256",
          "internalType": "uint256"
        },
        {
          "name": "lastAllowanceBlock",
          "type": "uint256",
          "internalType": "uint256"
        },
        {
          "name": "cnsPerBlock",
          "type": "uint256",
          "internalType": "uint256"
        }
      ],
      "stateMutability": "view"
    },
    {
      "type": "function",
      "name": "increasePositionCollateral",
      "inputs": [
        {
          "name": "perpId",
          "type": "uint256",
          "internalType": "uint256"
        },
        {
          "name": "amountCNS",
          "type": "uint256",
          "internalType": "uint256"
        }
      ],
      "outputs": [],
      "stateMutability": "nonpayable"
    },
    {
      "type": "function",
      "name": "initUnwindContract",
      "inputs": [
        {
          "name": "perpId",
          "type": "uint256",
          "internalType": "uint256"
        },
        {
          "name": "sumPositiveFmvCNS",
          "type": "uint256",
          "internalType": "uint256"
        }
      ],
      "outputs": [],
      "stateMutability": "nonpayable"
    },
    {
      "type": "function",
      "name": "isAdministrator",
      "inputs": [
        {
          "name": "anAddress",
          "type": "address",
          "internalType": "address"
        }
      ],
      "outputs": [
        {
          "name": "",
          "type": "bool",
          "internalType": "bool"
        }
      ],
      "stateMutability": "view"
    },
    {
      "type": "function",
      "name": "isHalted",
      "inputs": [],
      "outputs": [
        {
          "name": "halted",
          "type": "bool",
          "internalType": "bool"
        }
      ],
      "stateMutability": "view"
    },
    {
      "type": "function",
      "name": "isLiquidationBuyer",
      "inputs": [
        {
          "name": "anAddress",
          "type": "address",
          "internalType": "address"
        }
      ],
      "outputs": [
        {
          "name": "",
          "type": "bool",
          "internalType": "bool"
        }
      ],
      "stateMutability": "view"
    },
    {
      "type": "function",
      "name": "isPositionAdministrator",
      "inputs": [
        {
          "name": "anAddress",
          "type": "address",
          "internalType": "address"
        }
      ],
      "outputs": [
        {
          "name": "",
          "type": "bool",
          "internalType": "bool"
        }
      ],
      "stateMutability": "view"
    },
    {
      "type": "function",
      "name": "isPriceAdministrator",
      "inputs": [
        {
          "name": "anAddress",
          "type": "address",
          "internalType": "address"
        }
      ],
      "outputs": [
        {
          "name": "",
          "type": "bool",
          "internalType": "bool"
        }
      ],
      "stateMutability": "view"
    },
    {
      "type": "function",
      "name": "liquidation",
      "inputs": [
        {
          "name": "liquidationDesc",
          "type": "tuple",
          "internalType": "struct LiquidationDesc",
          "components": [
            {
              "name": "perpId",
              "type": "uint256",
              "internalType": "uint256"
            },
            {
              "name": "posAccountId",
              "type": "uint256",
              "internalType": "uint256"
            },
            {
              "name": "lotLNS",
              "type": "uint256",
              "internalType": "uint256"
            },
            {
              "name": "userProceedsToPosition",
              "type": "bool",
              "internalType": "bool"
            }
          ]
        }
      ],
      "outputs": [],
      "stateMutability": "nonpayable"
    },
    {
      "type": "function",
      "name": "liquidations",
      "inputs": [
        {
          "name": "liquidationDescs",
          "type": "tuple[]",
          "internalType": "struct LiquidationDesc[]",
          "components": [
            {
              "name": "perpId",
              "type": "uint256",
              "internalType": "uint256"
            },
            {
              "name": "posAccountId",
              "type": "uint256",
              "internalType": "uint256"
            },
            {
              "name": "lotLNS",
              "type": "uint256",
              "internalType": "uint256"
            },
            {
              "name": "userProceedsToPosition",
              "type": "bool",
              "internalType": "bool"
            }
          ]
        },
        {
          "name": "revertOnFail",
          "type": "bool",
          "internalType": "bool"
        }
      ],
      "outputs": [],
      "stateMutability": "nonpayable"
    },
    {
      "type": "function",
      "name": "numberOfAccounts",
      "inputs": [],
      "outputs": [
        {
          "name": "numAccounts",
          "type": "uint256",
          "internalType": "uint256"
        }
      ],
      "stateMutability": "view"
    },
    {
      "type": "function",
      "name": "owner",
      "inputs": [],
      "outputs": [
        {
          "name": "",
          "type": "address",
          "internalType": "address"
        }
      ],
      "stateMutability": "view"
    },
    {
      "type": "function",
      "name": "pauseContract",
      "inputs": [
        {
          "name": "perpId",
          "type": "uint256",
          "internalType": "uint256"
        }
      ],
      "outputs": [],
      "stateMutability": "nonpayable"
    },
    {
      "type": "function",
      "name": "pendingOwner",
      "inputs": [],
      "outputs": [
        {
          "name": "",
          "type": "address",
          "internalType": "address"
        }
      ],
      "stateMutability": "view"
    },
    {
      "type": "function",
      "name": "removeContract",
      "inputs": [
        {
          "name": "perpId",
          "type": "uint256",
          "internalType": "uint256"
        }
      ],
      "outputs": [],
      "stateMutability": "nonpayable"
    },
    {
      "type": "function",
      "name": "renounceOwnership",
      "inputs": [],
      "outputs": [],
      "stateMutability": "nonpayable"
    },
    {
      "type": "function",
      "name": "setAdministrator",
      "inputs": [
        {
          "name": "administrator",
          "type": "address",
          "internalType": "address"
        },
        {
          "name": "add",
          "type": "bool",
          "internalType": "bool"
        }
      ],
      "outputs": [],
      "stateMutability": "nonpayable"
    },
    {
      "type": "function",
      "name": "setBuyToLiquidateBuyerRestriction",
      "inputs": [
        {
          "name": "perpId",
          "type": "uint256",
          "internalType": "uint256"
        },
        {
          "name": "restrictBuyers",
          "type": "bool",
          "internalType": "bool"
        }
      ],
      "outputs": [],
      "stateMutability": "nonpayable"
    },
    {
      "type": "function",
      "name": "setBuyToLiquidateParams",
      "inputs": [
        {
          "name": "perpId",
          "type": "uint256",
          "internalType": "uint256"
        },
        {
          "name": "insAmtPer100K",
          "type": "uint256",
          "internalType": "uint256"
        },
        {
          "name": "userAmtPer100K",
          "type": "uint256",
          "internalType": "uint256"
        },
        {
          "name": "buyerAmtPer100K",
          "type": "uint256",
          "internalType": "uint256"
        }
      ],
      "outputs": [],
      "stateMutability": "nonpayable"
    },
    {
      "type": "function",
      "name": "setBuyToLiquidatePriceThreshold",
      "inputs": [
        {
          "name": "perpId",
          "type": "uint256",
          "internalType": "uint256"
        },
        {
          "name": "thresholdPer100K",
          "type": "uint256",
          "internalType": "uint256"
        }
      ],
      "outputs": [],
      "stateMutability": "nonpayable"
    },
    {
      "type": "function",
      "name": "setContractPaused",
      "inputs": [
        {
          "name": "perpId",
          "type": "uint256",
          "internalType": "uint256"
        },
        {
          "name": "paused",
          "type": "bool",
          "internalType": "bool"
        }
      ],
      "outputs": [],
      "stateMutability": "nonpayable"
    },
    {
      "type": "function",
      "name": "setExchangeHalted",
      "inputs": [
        {
          "name": "halted",
          "type": "bool",
          "internalType": "bool"
        }
      ],
      "outputs": [],
      "stateMutability": "nonpayable"
    },
    {
      "type": "function",
      "name": "setFeeParams",
      "inputs": [
        {
          "name": "perpId",
          "type": "uint256",
          "internalType": "uint256"
        },
        {
          "name": "insAmtPer100K",
          "type": "uint256",
          "internalType": "uint256"
        }
      ],
      "outputs": [],
      "stateMutability": "nonpayable"
    },
    {
      "type": "function",
      "name": "setFreezeStatus",
      "inputs": [
        {
          "name": "account",
          "type": "address",
          "internalType": "address"
        },
        {
          "name": "status",
          "type": "uint8",
          "internalType": "enum FreezeStatusEnum"
        }
      ],
      "outputs": [],
      "stateMutability": "nonpayable"
    },
    {
      "type": "function",
      "name": "setFrozen",
      "inputs": [
        {
          "name": "account",
          "type": "address",
          "internalType": "address"
        },
        {
          "name": "status",
          "type": "uint8",
          "internalType": "enum FreezeStatusEnum"
        }
      ],
      "outputs": [],
      "stateMutability": "nonpayable"
    },
    {
      "type": "function",
      "name": "setFundingClampPct",
      "inputs": [
        {
          "name": "perpId",
          "type": "uint256",
          "internalType": "uint256"
        },
        {
          "name": "absFundingClampPctPer100K",
          "type": "uint256",
          "internalType": "uint256"
        }
      ],
      "outputs": [],
      "stateMutability": "nonpayable"
    },
    {
      "type": "function",
      "name": "setFundingSum",
      "inputs": [
        {
          "name": "perpId",
          "type": "uint256",
          "internalType": "uint256"
        },
        {
          "name": "fundingRatePct100k",
          "type": "int256",
          "internalType": "int256"
        },
        {
          "name": "pricePNS",
          "type": "uint32",
          "internalType": "uint32"
        },
        {
          "name": "allowOverwrite",
          "type": "bool",
          "internalType": "bool"
        },
        {
          "name": "revertOnFail",
          "type": "bool",
          "internalType": "bool"
        }
      ],
      "outputs": [],
      "stateMutability": "nonpayable"
    },
    {
      "type": "function",
      "name": "setIgnOracle",
      "inputs": [
        {
          "name": "perpId",
          "type": "uint256",
          "internalType": "uint256"
        },
        {
          "name": "ignOracle",
          "type": "bool",
          "internalType": "bool"
        }
      ],
      "outputs": [],
      "stateMutability": "nonpayable"
    },
    {
      "type": "function",
      "name": "setInitialMarginFraction",
      "inputs": [
        {
          "name": "perpId",
          "type": "uint256",
          "internalType": "uint256"
        },
        {
          "name": "initMarginFracHdths",
          "type": "uint256",
          "internalType": "uint256"
        }
      ],
      "outputs": [],
      "stateMutability": "nonpayable"
    },
    {
      "type": "function",
      "name": "setLinkDsVerifier",
      "inputs": [
        {
          "name": "verifierProxy",
          "type": "address",
          "internalType": "address"
        }
      ],
      "outputs": [],
      "stateMutability": "nonpayable"
    },
    {
      "type": "function",
      "name": "setLiquidationBuyer",
      "inputs": [
        {
          "name": "liquidationBuyer",
          "type": "address",
          "internalType": "address"
        },
        {
          "name": "add",
          "type": "bool",
          "internalType": "bool"
        }
      ],
      "outputs": [],
      "stateMutability": "nonpayable"
    },
    {
      "type": "function",
      "name": "setLiquidationParams",
      "inputs": [
        {
          "name": "perpId",
          "type": "uint256",
          "internalType": "uint256"
        },
        {
          "name": "insAmtPer100K",
          "type": "uint256",
          "internalType": "uint256"
        },
        {
          "name": "userAmtPer100K",
          "type": "uint256",
          "internalType": "uint256"
        }
      ],
      "outputs": [],
      "stateMutability": "nonpayable"
    },
    {
      "type": "function",
      "name": "setMaintenanceMarginFraction",
      "inputs": [
        {
          "name": "perpId",
          "type": "uint256",
          "internalType": "uint256"
        },
        {
          "name": "maintMarginFracHdths",
          "type": "uint256",
          "internalType": "uint256"
        }
      ],
      "outputs": [],
      "stateMutability": "nonpayable"
    },
    {
      "type": "function",
      "name": "setMakerFee",
      "inputs": [
        {
          "name": "perpId",
          "type": "uint256",
          "internalType": "uint256"
        },
        {
          "name": "makerFeePer100K",
          "type": "uint256",
          "internalType": "uint256"
        }
      ],
      "outputs": [],
      "stateMutability": "nonpayable"
    },
    {
      "type": "function",
      "name": "setMaxOpenInterest",
      "inputs": [
        {
          "name": "perpId",
          "type": "uint256",
          "internalType": "uint256"
        },
        {
          "name": "maxOpenInterestLNS",
          "type": "uint256",
          "internalType": "uint256"
        }
      ],
      "outputs": [],
      "stateMutability": "nonpayable"
    },
    {
      "type": "function",
      "name": "setMinAccountOpenAmount",
      "inputs": [
        {
          "name": "amountCNS",
          "type": "uint256",
          "internalType": "uint256"
        }
      ],
      "outputs": [],
      "stateMutability": "nonpayable"
    },
    {
      "type": "function",
      "name": "setMinPost",
      "inputs": [
        {
          "name": "minPostCNS",
          "type": "uint256",
          "internalType": "uint256"
        }
      ],
      "outputs": [],
      "stateMutability": "nonpayable"
    },
    {
      "type": "function",
      "name": "setMinSettle",
      "inputs": [
        {
          "name": "minSettleCNS",
          "type": "uint256",
          "internalType": "uint256"
        }
      ],
      "outputs": [],
      "stateMutability": "nonpayable"
    },
    {
      "type": "function",
      "name": "setOverCollatDescentThreshold",
      "inputs": [
        {
          "name": "perpId",
          "type": "uint256",
          "internalType": "uint256"
        },
        {
          "name": "threshHdths",
          "type": "uint256",
          "internalType": "uint256"
        }
      ],
      "outputs": [],
      "stateMutability": "nonpayable"
    },
    {
      "type": "function",
      "name": "setPermissionedCancelParams",
      "inputs": [
        {
          "name": "perpId",
          "type": "uint256",
          "internalType": "uint256"
        },
        {
          "name": "permCancelMinOrders",
          "type": "uint256",
          "internalType": "uint256"
        },
        {
          "name": "permCancelSegment",
          "type": "uint256",
          "internalType": "uint256"
        }
      ],
      "outputs": [],
      "stateMutability": "nonpayable"
    },
    {
      "type": "function",
      "name": "setPerpLinkDsFeedId",
      "inputs": [
        {
          "name": "perpId",
          "type": "uint256",
          "internalType": "uint256"
        },
        {
          "name": "feedId",
          "type": "bytes32",
          "internalType": "bytes32"
        }
      ],
      "outputs": [],
      "stateMutability": "nonpayable"
    },
    {
      "type": "function",
      "name": "setPositionAdministrator",
      "inputs": [
        {
          "name": "positionAdministrator",
          "type": "address",
          "internalType": "address"
        },
        {
          "name": "add",
          "type": "bool",
          "internalType": "bool"
        }
      ],
      "outputs": [],
      "stateMutability": "nonpayable"
    },
    {
      "type": "function",
      "name": "setPriceAdministrator",
      "inputs": [
        {
          "name": "priceAdministrator",
          "type": "address",
          "internalType": "address"
        },
        {
          "name": "add",
          "type": "bool",
          "internalType": "bool"
        }
      ],
      "outputs": [],
      "stateMutability": "nonpayable"
    },
    {
      "type": "function",
      "name": "setPriceMaxAge",
      "inputs": [
        {
          "name": "perpId",
          "type": "uint256",
          "internalType": "uint256"
        },
        {
          "name": "maxAgeSec",
          "type": "uint256",
          "internalType": "uint256"
        }
      ],
      "outputs": [],
      "stateMutability": "nonpayable"
    },
    {
      "type": "function",
      "name": "setPriceTolPer100K",
      "inputs": [
        {
          "name": "perpId",
          "type": "uint256",
          "internalType": "uint256"
        },
        {
          "name": "tolerancePer100k",
          "type": "uint256",
          "internalType": "uint256"
        }
      ],
      "outputs": [],
      "stateMutability": "nonpayable"
    },
    {
      "type": "function",
      "name": "setRecycleFee",
      "inputs": [
        {
          "name": "recycleFeeCNS",
          "type": "uint256",
          "internalType": "uint256"
        }
      ],
      "outputs": [],
      "stateMutability": "nonpayable"
    },
    {
      "type": "function",
      "name": "setTakerFee",
      "inputs": [
        {
          "name": "perpId",
          "type": "uint256",
          "internalType": "uint256"
        },
        {
          "name": "takerFeePer100K",
          "type": "uint256",
          "internalType": "uint256"
        }
      ],
      "outputs": [],
      "stateMutability": "nonpayable"
    },
    {
      "type": "function",
      "name": "setThousandthsTvlWRLS",
      "inputs": [
        {
          "name": "thousandthsTvl",
          "type": "uint256",
          "internalType": "uint256"
        }
      ],
      "outputs": [],
      "stateMutability": "nonpayable"
    },
    {
      "type": "function",
      "name": "setUnityDescentThreshold",
      "inputs": [
        {
          "name": "perpId",
          "type": "uint256",
          "internalType": "uint256"
        },
        {
          "name": "threshHdths",
          "type": "uint256",
          "internalType": "uint256"
        }
      ],
      "outputs": [],
      "stateMutability": "nonpayable"
    },
    {
      "type": "function",
      "name": "transferOwnership",
      "inputs": [
        {
          "name": "newOwner",
          "type": "address",
          "internalType": "address"
        }
      ],
      "outputs": [],
      "stateMutability": "nonpayable"
    },
    {
      "type": "function",
      "name": "unwindContract",
      "inputs": [
        {
          "name": "perpId",
          "type": "uint256",
          "internalType": "uint256"
        },
        {
          "name": "maxPosToUnwind",
          "type": "uint256",
          "internalType": "uint256"
        },
        {
          "name": "allowWithoutPayment",
          "type": "bool",
          "internalType": "bool"
        }
      ],
      "outputs": [],
      "stateMutability": "nonpayable"
    },
    {
      "type": "function",
      "name": "updateMarkPricePNS",
      "inputs": [
        {
          "name": "perpId",
          "type": "uint256",
          "internalType": "uint256"
        },
        {
          "name": "markPricePNS",
          "type": "uint256",
          "internalType": "uint256"
        }
      ],
      "outputs": [],
      "stateMutability": "nonpayable"
    },
    {
      "type": "function",
      "name": "updateOraclePrice",
      "inputs": [
        {
          "name": "perpId",
          "type": "uint256",
          "internalType": "uint256"
        },
        {
          "name": "unverifiedReport",
          "type": "bytes",
          "internalType": "bytes"
        }
      ],
      "outputs": [],
      "stateMutability": "nonpayable"
    },
    {
      "type": "function",
      "name": "withdrawCollateral",
      "inputs": [
        {
          "name": "amountCNS",
          "type": "uint256",
          "internalType": "uint256"
        }
      ],
      "outputs": [],
      "stateMutability": "nonpayable"
    },
    {
      "type": "function",
      "name": "withdrawFromProtocol",
      "inputs": [
        {
          "name": "amountCNS",
          "type": "uint256",
          "internalType": "uint256"
        }
      ],
      "outputs": [],
      "stateMutability": "nonpayable"
    },
    {
      "type": "function",
      "name": "xferAcctToProtocol",
      "inputs": [
        {
          "name": "amountCNS",
          "type": "uint256",
          "internalType": "uint256"
        }
      ],
      "outputs": [],
      "stateMutability": "nonpayable"
    },
    {
      "type": "function",
      "name": "xferPerpInsToProtocol",
      "inputs": [
        {
          "name": "perpId",
          "type": "uint256",
          "internalType": "uint256"
        },
        {
          "name": "amountCNS",
          "type": "uint256",
          "internalType": "uint256"
        }
      ],
      "outputs": [],
      "stateMutability": "nonpayable"
    },
    {
      "type": "function",
      "name": "xferProtocolToAcct",
      "inputs": [
        {
          "name": "accountId",
          "type": "uint256",
          "internalType": "uint256"
        },
        {
          "name": "amountCNS",
          "type": "uint256",
          "internalType": "uint256"
        }
      ],
      "outputs": [],
      "stateMutability": "nonpayable"
    },
    {
      "type": "function",
      "name": "xferProtocolToPerp",
      "inputs": [
        {
          "name": "perpId",
          "type": "uint256",
          "internalType": "uint256"
        },
        {
          "name": "amountCNS",
          "type": "uint256",
          "internalType": "uint256"
        },
        {
          "name": "insurance",
          "type": "bool",
          "internalType": "bool"
        }
      ],
      "outputs": [],
      "stateMutability": "nonpayable"
    },
    {
      "type": "function",
      "name": "xferProtocolToRecycleBal",
      "inputs": [
        {
          "name": "amountCNS",
          "type": "uint256",
          "internalType": "uint256"
        }
      ],
      "outputs": [],
      "stateMutability": "nonpayable"
    },
    {
      "type": "event",
      "name": "AccountCreated",
      "inputs": [
        {
          "name": "account",
          "type": "address",
          "indexed": false,
          "internalType": "address"
        },
        {
          "name": "id",
          "type": "uint256",
          "indexed": false,
          "internalType": "uint256"
        }
      ],
      "anonymous": false
    },
    {
      "type": "event",
      "name": "AccountFreeze",
      "inputs": [
        {
          "name": "accountId",
          "type": "uint256",
          "indexed": false,
          "internalType": "uint256"
        },
        {
          "name": "status",
          "type": "uint8",
          "indexed": false,
          "internalType": "enum FreezeStatusEnum"
        }
      ],
      "anonymous": false
    },
    {
      "type": "event",
      "name": "AccountFrozen",
      "inputs": [
        {
          "name": "status",
          "type": "uint8",
          "indexed": false,
          "internalType": "enum FreezeStatusEnum"
        }
      ],
      "anonymous": false
    },
    {
      "type": "event",
      "name": "AccountLiquidationCredit",
      "inputs": [
        {
          "name": "perpId",
          "type": "uint256",
          "indexed": false,
          "internalType": "uint256"
        },
        {
          "name": "accountId",
          "type": "uint256",
          "indexed": false,
          "internalType": "uint256"
        },
        {
          "name": "startBalanceCNS",
          "type": "uint256",
          "indexed": false,
          "internalType": "uint256"
        },
        {
          "name": "endBalanceCNS",
          "type": "uint256",
          "indexed": false,
          "internalType": "uint256"
        }
      ],
      "anonymous": false
    },
    {
      "type": "event",
      "name": "AdministratorUpdated",
      "inputs": [
        {
          "name": "administator",
          "type": "address",
          "indexed": false,
          "internalType": "address"
        },
        {
          "name": "added",
          "type": "bool",
          "indexed": false,
          "internalType": "bool"
        }
      ],
      "anonymous": false
    },
    {
      "type": "event",
      "name": "AmountExceedsAvailableBalance",
      "inputs": [
        {
          "name": "amountCNS",
          "type": "uint256",
          "indexed": false,
          "internalType": "uint256"
        },
        {
          "name": "availableBalanceCNS",
          "type": "uint256",
          "indexed": false,
          "internalType": "uint256"
        },
        {
          "name": "balanceCNS",
          "type": "uint256",
          "indexed": false,
          "internalType": "uint256"
        }
      ],
      "anonymous": false
    },
    {
      "type": "event",
      "name": "BankruptcyPriceExceedsReferencePrice",
      "inputs": [
        {
          "name": "perpId",
          "type": "uint256",
          "indexed": false,
          "internalType": "uint256"
        },
        {
          "name": "accountId",
          "type": "uint256",
          "indexed": false,
          "internalType": "uint256"
        },
        {
          "name": "positionType",
          "type": "uint8",
          "indexed": false,
          "internalType": "enum PositionEnum"
        },
        {
          "name": "bankruptcyPricePNS",
          "type": "uint256",
          "indexed": false,
          "internalType": "uint256"
        },
        {
          "name": "refPricePNS",
          "type": "uint256",
          "indexed": false,
          "internalType": "uint256"
        },
        {
          "name": "refIsMark",
          "type": "bool",
          "indexed": false,
          "internalType": "bool"
        }
      ],
      "anonymous": false
    },
    {
      "type": "event",
      "name": "BuyToLiquidateBuyerRestricted",
      "inputs": [
        {
          "name": "perpId",
          "type": "uint256",
          "indexed": false,
          "internalType": "uint256"
        },
        {
          "name": "buyer",
          "type": "address",
          "indexed": false,
          "internalType": "address"
        }
      ],
      "anonymous": false
    },
    {
      "type": "event",
      "name": "BuyToLiquidateParamsUpdated",
      "inputs": [
        {
          "name": "perpId",
          "type": "uint256",
          "indexed": false,
          "internalType": "uint256"
        },
        {
          "name": "insAmtPer100K",
          "type": "uint256",
          "indexed": false,
          "internalType": "uint256"
        },
        {
          "name": "userAmtPer100K",
          "type": "uint256",
          "indexed": false,
          "internalType": "uint256"
        },
        {
          "name": "buyerAmtPer100K",
          "type": "uint256",
          "indexed": false,
          "internalType": "uint256"
        },
        {
          "name": "protAmtPer100K",
          "type": "uint256",
          "indexed": false,
          "internalType": "uint256"
        }
      ],
      "anonymous": false
    },
    {
      "type": "event",
      "name": "BuyToLiquidateRestrictionUpdated",
      "inputs": [
        {
          "name": "perpId",
          "type": "uint256",
          "indexed": false,
          "internalType": "uint256"
        },
        {
          "name": "restrictBuyers",
          "type": "bool",
          "indexed": false,
          "internalType": "bool"
        }
      ],
      "anonymous": false
    },
    {
      "type": "event",
      "name": "BuyToLiquidateThresholdUpdated",
      "inputs": [
        {
          "name": "perpId",
          "type": "uint256",
          "indexed": false,
          "internalType": "uint256"
        },
        {
          "name": "thresholdPer100K",
          "type": "uint256",
          "indexed": false,
          "internalType": "uint256"
        }
      ],
      "anonymous": false
    },
    {
      "type": "event",
      "name": "CancelExistingInvalidCloseOrders",
      "inputs": [
        {
          "name": "lockedLotLNS",
          "type": "uint256",
          "indexed": false,
          "internalType": "uint256"
        },
        {
          "name": "lockedPositionType",
          "type": "uint8",
          "indexed": false,
          "internalType": "enum PositionEnum"
        },
        {
          "name": "newPositionType",
          "type": "uint8",
          "indexed": false,
          "internalType": "enum PositionEnum"
        }
      ],
      "anonymous": false
    },
    {
      "type": "event",
      "name": "CantBuyToLiquidate",
      "inputs": [
        {
          "name": "perpId",
          "type": "uint256",
          "indexed": false,
          "internalType": "uint256"
        },
        {
          "name": "posAccountId",
          "type": "uint256",
          "indexed": false,
          "internalType": "uint256"
        },
        {
          "name": "positionType",
          "type": "uint8",
          "indexed": false,
          "internalType": "enum PositionEnum"
        },
        {
          "name": "markPricePNS",
          "type": "uint256",
          "indexed": false,
          "internalType": "uint256"
        },
        {
          "name": "refIsMark",
          "type": "bool",
          "indexed": false,
          "internalType": "bool"
        },
        {
          "name": "bsLiqPricePNS",
          "type": "uint256",
          "indexed": false,
          "internalType": "uint256"
        },
        {
          "name": "liqPricePNS",
          "type": "uint256",
          "indexed": false,
          "internalType": "uint256"
        },
        {
          "name": "bkptPricePNS",
          "type": "uint256",
          "indexed": false,
          "internalType": "uint256"
        }
      ],
      "anonymous": false
    },
    {
      "type": "event",
      "name": "CantChangeCloseOrder",
      "inputs": [
        {
          "name": "perpId",
          "type": "uint256",
          "indexed": false,
          "internalType": "uint256"
        },
        {
          "name": "orderId",
          "type": "uint256",
          "indexed": false,
          "internalType": "uint256"
        },
        {
          "name": "accountId",
          "type": "uint256",
          "indexed": false,
          "internalType": "uint256"
        }
      ],
      "anonymous": false
    },
    {
      "type": "event",
      "name": "CantDeleverageAgainstOpposingPositions",
      "inputs": [
        {
          "name": "perpId",
          "type": "uint256",
          "indexed": false,
          "internalType": "uint256"
        },
        {
          "name": "accountId",
          "type": "uint256",
          "indexed": false,
          "internalType": "uint256"
        },
        {
          "name": "forceClose",
          "type": "bool",
          "indexed": false,
          "internalType": "bool"
        },
        {
          "name": "positionType",
          "type": "uint8",
          "indexed": false,
          "internalType": "enum PositionEnum"
        },
        {
          "name": "deleveragePricePNS",
          "type": "uint256",
          "indexed": false,
          "internalType": "uint256"
        },
        {
          "name": "sortedPositionIds",
          "type": "uint256[]",
          "indexed": false,
          "internalType": "uint256[]"
        }
      ],
      "anonymous": false
    },
    {
      "type": "event",
      "name": "CantLiquidatePosAboveMMR",
      "inputs": [
        {
          "name": "perpId",
          "type": "uint256",
          "indexed": false,
          "internalType": "uint256"
        },
        {
          "name": "posAccountId",
          "type": "uint256",
          "indexed": false,
          "internalType": "uint256"
        },
        {
          "name": "positionType",
          "type": "uint8",
          "indexed": false,
          "internalType": "enum PositionEnum"
        },
        {
          "name": "refPricePNS",
          "type": "uint256",
          "indexed": false,
          "internalType": "uint256"
        },
        {
          "name": "refIsMark",
          "type": "bool",
          "indexed": false,
          "internalType": "bool"
        },
        {
          "name": "liqPricePNS",
          "type": "uint256",
          "indexed": false,
          "internalType": "uint256"
        }
      ],
      "anonymous": false
    },
    {
      "type": "event",
      "name": "ChangeExpiredOrderNeedsNewExpiry",
      "inputs": [
        {
          "name": "perpId",
          "type": "uint256",
          "indexed": false,
          "internalType": "uint256"
        },
        {
          "name": "orderId",
          "type": "uint256",
          "indexed": false,
          "internalType": "uint256"
        },
        {
          "name": "accountId",
          "type": "uint256",
          "indexed": false,
          "internalType": "uint256"
        },
        {
          "name": "expiryBlock",
          "type": "uint256",
          "indexed": false,
          "internalType": "uint256"
        }
      ],
      "anonymous": false
    },
    {
      "type": "event",
      "name": "ClearingExpiredOrder",
      "inputs": [
        {
          "name": "perpId",
          "type": "uint256",
          "indexed": false,
          "internalType": "uint256"
        },
        {
          "name": "accountId",
          "type": "uint256",
          "indexed": false,
          "internalType": "uint256"
        },
        {
          "name": "orderId",
          "type": "uint256",
          "indexed": false,
          "internalType": "uint256"
        },
        {
          "name": "lockedBalanceCNS",
          "type": "uint256",
          "indexed": false,
          "internalType": "uint256"
        },
        {
          "name": "recyclerAccountId",
          "type": "uint256",
          "indexed": false,
          "internalType": "uint256"
        },
        {
          "name": "recyclerAmountCNS",
          "type": "int256",
          "indexed": false,
          "internalType": "int256"
        },
        {
          "name": "recyclerBalanceCNS",
          "type": "uint256",
          "indexed": false,
          "internalType": "uint256"
        }
      ],
      "anonymous": false
    },
    {
      "type": "event",
      "name": "ClearingFrozenAccountOrder",
      "inputs": [
        {
          "name": "perpId",
          "type": "uint256",
          "indexed": false,
          "internalType": "uint256"
        },
        {
          "name": "accountId",
          "type": "uint256",
          "indexed": false,
          "internalType": "uint256"
        },
        {
          "name": "orderId",
          "type": "uint256",
          "indexed": false,
          "internalType": "uint256"
        },
        {
          "name": "lockedBalanceCNS",
          "type": "uint256",
          "indexed": false,
          "internalType": "uint256"
        },
        {
          "name": "recyclerAccountId",
          "type": "uint256",
          "indexed": false,
          "internalType": "uint256"
        },
        {
          "name": "recyclerAmountCNS",
          "type": "int256",
          "indexed": false,
          "internalType": "int256"
        },
        {
          "name": "recyclerBalanceCNS",
          "type": "uint256",
          "indexed": false,
          "internalType": "uint256"
        }
      ],
      "anonymous": false
    },
    {
      "type": "event",
      "name": "ClearingInvalidCloseOrder",
      "inputs": [
        {
          "name": "perpId",
          "type": "uint256",
          "indexed": false,
          "internalType": "uint256"
        },
        {
          "name": "accountId",
          "type": "uint256",
          "indexed": false,
          "internalType": "uint256"
        },
        {
          "name": "orderId",
          "type": "uint256",
          "indexed": false,
          "internalType": "uint256"
        },
        {
          "name": "lockedBalanceCNS",
          "type": "uint256",
          "indexed": false,
          "internalType": "uint256"
        },
        {
          "name": "recyclerAccountId",
          "type": "uint256",
          "indexed": false,
          "internalType": "uint256"
        },
        {
          "name": "recyclerAmountCNS",
          "type": "int256",
          "indexed": false,
          "internalType": "int256"
        },
        {
          "name": "recyclerBalanceCNS",
          "type": "uint256",
          "indexed": false,
          "internalType": "uint256"
        }
      ],
      "anonymous": false
    },
    {
      "type": "event",
      "name": "ClearingSelfMatchingOrder",
      "inputs": [
        {
          "name": "perpId",
          "type": "uint256",
          "indexed": false,
          "internalType": "uint256"
        },
        {
          "name": "accountId",
          "type": "uint256",
          "indexed": false,
          "internalType": "uint256"
        },
        {
          "name": "orderId",
          "type": "uint256",
          "indexed": false,
          "internalType": "uint256"
        },
        {
          "name": "lockedBalanceCNS",
          "type": "uint256",
          "indexed": false,
          "internalType": "uint256"
        },
        {
          "name": "recyclerAccountId",
          "type": "uint256",
          "indexed": false,
          "internalType": "uint256"
        },
        {
          "name": "recyclerAmountCNS",
          "type": "int256",
          "indexed": false,
          "internalType": "int256"
        },
        {
          "name": "recyclerBalanceCNS",
          "type": "uint256",
          "indexed": false,
          "internalType": "uint256"
        }
      ],
      "anonymous": false
    },
    {
      "type": "event",
      "name": "CloseOrderExceedsPosition",
      "inputs": [
        {
          "name": "posLotLNS",
          "type": "uint256",
          "indexed": false,
          "internalType": "uint256"
        },
        {
          "name": "orderLotLNS",
          "type": "uint256",
          "indexed": false,
          "internalType": "uint256"
        }
      ],
      "anonymous": false
    },
    {
      "type": "event",
      "name": "CloseOrderPositionMismatch",
      "inputs": [
        {
          "name": "positionType",
          "type": "uint8",
          "indexed": false,
          "internalType": "enum PositionEnum"
        },
        {
          "name": "orderType",
          "type": "uint8",
          "indexed": false,
          "internalType": "enum OrderEnum"
        }
      ],
      "anonymous": false
    },
    {
      "type": "event",
      "name": "CollateralDeposit",
      "inputs": [
        {
          "name": "accountId",
          "type": "uint256",
          "indexed": false,
          "internalType": "uint256"
        },
        {
          "name": "amountCNS",
          "type": "uint256",
          "indexed": false,
          "internalType": "uint256"
        },
        {
          "name": "balanceCNS",
          "type": "uint256",
          "indexed": false,
          "internalType": "uint256"
        }
      ],
      "anonymous": false
    },
    {
      "type": "event",
      "name": "CollateralWithdrawal",
      "inputs": [
        {
          "name": "accountId",
          "type": "uint256",
          "indexed": false,
          "internalType": "uint256"
        },
        {
          "name": "amountCNS",
          "type": "uint256",
          "indexed": false,
          "internalType": "uint256"
        },
        {
          "name": "balanceCNS",
          "type": "uint256",
          "indexed": false,
          "internalType": "uint256"
        }
      ],
      "anonymous": false
    },
    {
      "type": "event",
      "name": "ContractAdded",
      "inputs": [
        {
          "name": "perpId",
          "type": "uint256",
          "indexed": false,
          "internalType": "uint256"
        },
        {
          "name": "name",
          "type": "string",
          "indexed": false,
          "internalType": "string"
        },
        {
          "name": "symbol",
          "type": "string",
          "indexed": false,
          "internalType": "string"
        },
        {
          "name": "paused",
          "type": "bool",
          "indexed": false,
          "internalType": "bool"
        },
        {
          "name": "basePricePNS",
          "type": "uint256",
          "indexed": false,
          "internalType": "uint256"
        },
        {
          "name": "priceDecimals",
          "type": "uint256",
          "indexed": false,
          "internalType": "uint256"
        },
        {
          "name": "lotDecimals",
          "type": "uint256",
          "indexed": false,
          "internalType": "uint256"
        },
        {
          "name": "takerFeePer100K",
          "type": "uint256",
          "indexed": false,
          "internalType": "uint256"
        },
        {
          "name": "makerFeePer100K",
          "type": "uint256",
          "indexed": false,
          "internalType": "uint256"
        },
        {
          "name": "initMarginFracHdths",
          "type": "uint256",
          "indexed": false,
          "internalType": "uint256"
        },
        {
          "name": "maintMarginFracHdths",
          "type": "uint256",
          "indexed": false,
          "internalType": "uint256"
        }
      ],
      "anonymous": false
    },
    {
      "type": "event",
      "name": "ContractIsPaused",
      "inputs": [],
      "anonymous": false
    },
    {
      "type": "event",
      "name": "ContractLinkFeedUpdated",
      "inputs": [
        {
          "name": "perpId",
          "type": "uint256",
          "indexed": false,
          "internalType": "uint256"
        },
        {
          "name": "feedId",
          "type": "bytes32",
          "indexed": false,
          "internalType": "bytes32"
        }
      ],
      "anonymous": false
    },
    {
      "type": "event",
      "name": "ContractPaused",
      "inputs": [
        {
          "name": "perpId",
          "type": "uint256",
          "indexed": false,
          "internalType": "uint256"
        },
        {
          "name": "paused",
          "type": "bool",
          "indexed": false,
          "internalType": "bool"
        }
      ],
      "anonymous": false
    },
    {
      "type": "event",
      "name": "ContractRemoved",
      "inputs": [
        {
          "name": "perpId",
          "type": "uint256",
          "indexed": false,
          "internalType": "uint256"
        }
      ],
      "anonymous": false
    },
    {
      "type": "event",
      "name": "CrossesBook",
      "inputs": [
        {
          "name": "minAskOrMaxBidPNS",
          "type": "uint256",
          "indexed": false,
          "internalType": "uint256"
        },
        {
          "name": "maxOrdersChecked",
          "type": "bool",
          "indexed": false,
          "internalType": "bool"
        }
      ],
      "anonymous": false
    },
    {
      "type": "event",
      "name": "DeleveragePositionListEmpty",
      "inputs": [
        {
          "name": "perpId",
          "type": "uint256",
          "indexed": false,
          "internalType": "uint256"
        },
        {
          "name": "accountId",
          "type": "uint256",
          "indexed": false,
          "internalType": "uint256"
        }
      ],
      "anonymous": false
    },
    {
      "type": "event",
      "name": "ExceedsLastExecutionBlock",
      "inputs": [
        {
          "name": "lastExecutionBlock",
          "type": "uint256",
          "indexed": false,
          "internalType": "uint256"
        }
      ],
      "anonymous": false
    },
    {
      "type": "event",
      "name": "ExchangeHalted",
      "inputs": [
        {
          "name": "halted",
          "type": "bool",
          "indexed": false,
          "internalType": "bool"
        }
      ],
      "anonymous": false
    },
    {
      "type": "event",
      "name": "FeeParamsUpdated",
      "inputs": [
        {
          "name": "perpId",
          "type": "uint256",
          "indexed": false,
          "internalType": "uint256"
        },
        {
          "name": "insAmtPer100K",
          "type": "uint256",
          "indexed": false,
          "internalType": "uint256"
        }
      ],
      "anonymous": false
    },
    {
      "type": "event",
      "name": "FundingClampPctUpdated",
      "inputs": [
        {
          "name": "perpId",
          "type": "uint256",
          "indexed": false,
          "internalType": "uint256"
        },
        {
          "name": "clampPctPer100k",
          "type": "uint256",
          "indexed": false,
          "internalType": "uint256"
        }
      ],
      "anonymous": false
    },
    {
      "type": "event",
      "name": "FundingEventCompleted",
      "inputs": [
        {
          "name": "perpId",
          "type": "uint256",
          "indexed": false,
          "internalType": "uint256"
        },
        {
          "name": "fundingEventBlock",
          "type": "uint256",
          "indexed": false,
          "internalType": "uint256"
        },
        {
          "name": "specifiedRatePct100k",
          "type": "int256",
          "indexed": false,
          "internalType": "int256"
        },
        {
          "name": "actualRatePct100k",
          "type": "int256",
          "indexed": false,
          "internalType": "int256"
        },
        {
          "name": "fundingPricePNS",
          "type": "uint256",
          "indexed": false,
          "internalType": "uint256"
        },
        {
          "name": "fundingPaymentPNS",
          "type": "int48",
          "indexed": false,
          "internalType": "int48"
        },
        {
          "name": "fundingSumPNS",
          "type": "int48",
          "indexed": false,
          "internalType": "int48"
        },
        {
          "name": "allowOverwrite",
          "type": "bool",
          "indexed": false,
          "internalType": "bool"
        }
      ],
      "anonymous": false
    },
    {
      "type": "event",
      "name": "FundingEventSetTooEarly",
      "inputs": [
        {
          "name": "perpId",
          "type": "uint256",
          "indexed": false,
          "internalType": "uint256"
        },
        {
          "name": "blockNumber",
          "type": "uint256",
          "indexed": false,
          "internalType": "uint256"
        },
        {
          "name": "fundingEventBlock",
          "type": "uint256",
          "indexed": false,
          "internalType": "uint256"
        }
      ],
      "anonymous": false
    },
    {
      "type": "event",
      "name": "FundingPriceExceedsTol",
      "inputs": [
        {
          "name": "perpId",
          "type": "uint256",
          "indexed": false,
          "internalType": "uint256"
        },
        {
          "name": "fundingPricePNS",
          "type": "uint256",
          "indexed": false,
          "internalType": "uint256"
        },
        {
          "name": "oraclePNS",
          "type": "uint256",
          "indexed": false,
          "internalType": "uint256"
        },
        {
          "name": "tolerancePer100k",
          "type": "uint256",
          "indexed": false,
          "internalType": "uint256"
        }
      ],
      "anonymous": false
    },
    {
      "type": "event",
      "name": "FundingSumAlreadySet",
      "inputs": [
        {
          "name": "perpId",
          "type": "uint256",
          "indexed": false,
          "internalType": "uint256"
        },
        {
          "name": "fundingEventBlock",
          "type": "uint256",
          "indexed": false,
          "internalType": "uint256"
        },
        {
          "name": "storageIndex",
          "type": "uint256",
          "indexed": false,
          "internalType": "uint256"
        },
        {
          "name": "fundingSumOffset",
          "type": "uint256",
          "indexed": false,
          "internalType": "uint256"
        }
      ],
      "anonymous": false
    },
    {
      "type": "event",
      "name": "IgnoreOracleUpdated",
      "inputs": [
        {
          "name": "perpId",
          "type": "uint256",
          "indexed": false,
          "internalType": "uint256"
        },
        {
          "name": "ignOracle",
          "type": "bool",
          "indexed": false,
          "internalType": "bool"
        }
      ],
      "anonymous": false
    },
    {
      "type": "event",
      "name": "ImmediateOrCancelExecuted",
      "inputs": [
        {
          "name": "unmatchedLotLNS",
          "type": "uint256",
          "indexed": false,
          "internalType": "uint256"
        },
        {
          "name": "totalLotLNS",
          "type": "uint256",
          "indexed": false,
          "internalType": "uint256"
        }
      ],
      "anonymous": false
    },
    {
      "type": "event",
      "name": "IncreasePositionCollateral",
      "inputs": [
        {
          "name": "perpId",
          "type": "uint256",
          "indexed": false,
          "internalType": "uint256"
        },
        {
          "name": "accountId",
          "type": "uint256",
          "indexed": false,
          "internalType": "uint256"
        },
        {
          "name": "positionDepositCNS",
          "type": "uint256",
          "indexed": false,
          "internalType": "uint256"
        },
        {
          "name": "amountCNS",
          "type": "uint256",
          "indexed": false,
          "internalType": "uint256"
        },
        {
          "name": "balanceCNS",
          "type": "uint256",
          "indexed": false,
          "internalType": "uint256"
        }
      ],
      "anonymous": false
    },
    {
      "type": "event",
      "name": "InitialMarginFractionUpdated",
      "inputs": [
        {
          "name": "perpId",
          "type": "uint256",
          "indexed": false,
          "internalType": "uint256"
        },
        {
          "name": "initMarginFracHdths",
          "type": "uint256",
          "indexed": false,
          "internalType": "uint256"
        }
      ],
      "anonymous": false
    },
    {
      "type": "event",
      "name": "InsolventPositionCannotBeForcedClose",
      "inputs": [
        {
          "name": "perpId",
          "type": "uint256",
          "indexed": false,
          "internalType": "uint256"
        },
        {
          "name": "posAccountId",
          "type": "uint256",
          "indexed": false,
          "internalType": "uint256"
        },
        {
          "name": "positionType",
          "type": "uint8",
          "indexed": false,
          "internalType": "enum PositionEnum"
        },
        {
          "name": "bankruptcyPricePNS",
          "type": "uint256",
          "indexed": false,
          "internalType": "uint256"
        },
        {
          "name": "refPricePNS",
          "type": "uint256",
          "indexed": false,
          "internalType": "uint256"
        },
        {
          "name": "refIsMark",
          "type": "bool",
          "indexed": false,
          "internalType": "bool"
        }
      ],
      "anonymous": false
    },
    {
      "type": "event",
      "name": "InsuficientFundsForRecycleFee",
      "inputs": [
        {
          "name": "perpId",
          "type": "uint256",
          "indexed": false,
          "internalType": "uint256"
        },
        {
          "name": "accountId",
          "type": "uint256",
          "indexed": false,
          "internalType": "uint256"
        },
        {
          "name": "balanceCNS",
          "type": "uint256",
          "indexed": false,
          "internalType": "uint256"
        },
        {
          "name": "lockedCNS",
          "type": "uint256",
          "indexed": false,
          "internalType": "uint256"
        },
        {
          "name": "recycleFeeCNS",
          "type": "uint256",
          "indexed": false,
          "internalType": "uint256"
        }
      ],
      "anonymous": false
    },
    {
      "type": "event",
      "name": "InsurancePaymentForSettlement",
      "inputs": [
        {
          "name": "perpId",
          "type": "uint256",
          "indexed": false,
          "internalType": "uint256"
        },
        {
          "name": "accountId",
          "type": "uint256",
          "indexed": false,
          "internalType": "uint256"
        },
        {
          "name": "insPaymentCNS",
          "type": "uint256",
          "indexed": false,
          "internalType": "uint256"
        }
      ],
      "anonymous": false
    },
    {
      "type": "event",
      "name": "InvalidAccountFrozenOrder",
      "inputs": [
        {
          "name": "orderType",
          "type": "uint8",
          "indexed": false,
          "internalType": "enum OrderDescEnum"
        },
        {
          "name": "immediateOrCancel",
          "type": "bool",
          "indexed": false,
          "internalType": "bool"
        }
      ],
      "anonymous": false
    },
    {
      "type": "event",
      "name": "InvalidBankruptcyPrice",
      "inputs": [
        {
          "name": "perpId",
          "type": "uint256",
          "indexed": false,
          "internalType": "uint256"
        },
        {
          "name": "accountId",
          "type": "uint256",
          "indexed": false,
          "internalType": "uint256"
        },
        {
          "name": "depositCNS",
          "type": "uint256",
          "indexed": false,
          "internalType": "uint256"
        },
        {
          "name": "posPricePNS",
          "type": "uint256",
          "indexed": false,
          "internalType": "uint256"
        },
        {
          "name": "liqLotLNS",
          "type": "uint256",
          "indexed": false,
          "internalType": "uint256"
        },
        {
          "name": "premiumPnlCNS",
          "type": "int256",
          "indexed": false,
          "internalType": "int256"
        }
      ],
      "anonymous": false
    },
    {
      "type": "event",
      "name": "InvalidExpiryBlock",
      "inputs": [
        {
          "name": "expiryBlock",
          "type": "uint256",
          "indexed": false,
          "internalType": "uint256"
        },
        {
          "name": "blockNumber",
          "type": "uint256",
          "indexed": false,
          "internalType": "uint256"
        }
      ],
      "anonymous": false
    },
    {
      "type": "event",
      "name": "InvalidLinkReportForContract",
      "inputs": [
        {
          "name": "perpId",
          "type": "uint256",
          "indexed": false,
          "internalType": "uint256"
        },
        {
          "name": "perpFeedId",
          "type": "bytes32",
          "indexed": false,
          "internalType": "bytes32"
        },
        {
          "name": "reportFeedId",
          "type": "bytes32",
          "indexed": false,
          "internalType": "bytes32"
        }
      ],
      "anonymous": false
    },
    {
      "type": "event",
      "name": "InvalidLinkReportVersion",
      "inputs": [
        {
          "name": "perpId",
          "type": "uint256",
          "indexed": false,
          "internalType": "uint256"
        },
        {
          "name": "reportVersion",
          "type": "uint256",
          "indexed": false,
          "internalType": "uint256"
        }
      ],
      "anonymous": false
    },
    {
      "type": "event",
      "name": "InvalidLiquidationPrice",
      "inputs": [
        {
          "name": "perpId",
          "type": "uint256",
          "indexed": false,
          "internalType": "uint256"
        },
        {
          "name": "accountId",
          "type": "uint256",
          "indexed": false,
          "internalType": "uint256"
        },
        {
          "name": "depositCNS",
          "type": "uint256",
          "indexed": false,
          "internalType": "uint256"
        },
        {
          "name": "posPricePNS",
          "type": "uint256",
          "indexed": false,
          "internalType": "uint256"
        },
        {
          "name": "liqLotLNS",
          "type": "uint256",
          "indexed": false,
          "internalType": "uint256"
        },
        {
          "name": "premiumPnlCNS",
          "type": "int256",
          "indexed": false,
          "internalType": "int256"
        }
      ],
      "anonymous": false
    },
    {
      "type": "event",
      "name": "InvalidOrderId",
      "inputs": [
        {
          "name": "orderId",
          "type": "uint256",
          "indexed": false,
          "internalType": "uint256"
        },
        {
          "name": "min",
          "type": "uint256",
          "indexed": false,
          "internalType": "uint256"
        },
        {
          "name": "max",
          "type": "uint256",
          "indexed": false,
          "internalType": "uint256"
        }
      ],
      "anonymous": false
    },
    {
      "type": "event",
      "name": "InvalidSynthPerpPrice",
      "inputs": [
        {
          "name": "perpId",
          "type": "uint256",
          "indexed": false,
          "internalType": "uint256"
        },
        {
          "name": "oraclePNS",
          "type": "uint256",
          "indexed": false,
          "internalType": "uint256"
        },
        {
          "name": "oracleTimestamp",
          "type": "uint256",
          "indexed": false,
          "internalType": "uint256"
        }
      ],
      "anonymous": false
    },
    {
      "type": "event",
      "name": "LinkDatastreamConfigured",
      "inputs": [
        {
          "name": "verifierProxy",
          "type": "address",
          "indexed": false,
          "internalType": "address"
        }
      ],
      "anonymous": false
    },
    {
      "type": "event",
      "name": "LinkDsError",
      "inputs": [
        {
          "name": "perpId",
          "type": "uint256",
          "indexed": false,
          "internalType": "uint256"
        },
        {
          "name": "reason",
          "type": "string",
          "indexed": false,
          "internalType": "string"
        }
      ],
      "anonymous": false
    },
    {
      "type": "event",
      "name": "LinkDsError",
      "inputs": [
        {
          "name": "perpId",
          "type": "uint256",
          "indexed": false,
          "internalType": "uint256"
        },
        {
          "name": "lowLevelData",
          "type": "bytes",
          "indexed": false,
          "internalType": "bytes"
        }
      ],
      "anonymous": false
    },
    {
      "type": "event",
      "name": "LinkDsPanic",
      "inputs": [
        {
          "name": "perpId",
          "type": "uint256",
          "indexed": false,
          "internalType": "uint256"
        },
        {
          "name": "errorCode",
          "type": "uint256",
          "indexed": false,
          "internalType": "uint256"
        }
      ],
      "anonymous": false
    },
    {
      "type": "event",
      "name": "LinkPriceUpdated",
      "inputs": [
        {
          "name": "perpId",
          "type": "uint256",
          "indexed": false,
          "internalType": "uint256"
        },
        {
          "name": "oraclePricePNS",
          "type": "uint256",
          "indexed": false,
          "internalType": "uint256"
        },
        {
          "name": "synthPerpPricePNS",
          "type": "uint256",
          "indexed": false,
          "internalType": "uint256"
        },
        {
          "name": "timestamp",
          "type": "uint256",
          "indexed": false,
          "internalType": "uint256"
        }
      ],
      "anonymous": false
    },
    {
      "type": "event",
      "name": "LiquidationBuyerUpdated",
      "inputs": [
        {
          "name": "liquidationBuyer",
          "type": "address",
          "indexed": false,
          "internalType": "address"
        },
        {
          "name": "accountId",
          "type": "uint256",
          "indexed": false,
          "internalType": "uint256"
        },
        {
          "name": "added",
          "type": "bool",
          "indexed": false,
          "internalType": "bool"
        }
      ],
      "anonymous": false
    },
    {
      "type": "event",
      "name": "LiquidationParamsUpdated",
      "inputs": [
        {
          "name": "perpId",
          "type": "uint256",
          "indexed": false,
          "internalType": "uint256"
        },
        {
          "name": "insAmtPer100K",
          "type": "uint256",
          "indexed": false,
          "internalType": "uint256"
        },
        {
          "name": "liqAmtPer100K",
          "type": "uint256",
          "indexed": false,
          "internalType": "uint256"
        },
        {
          "name": "userAmtPer100K",
          "type": "uint256",
          "indexed": false,
          "internalType": "uint256"
        }
      ],
      "anonymous": false
    },
    {
      "type": "event",
      "name": "LotOutOfRange",
      "inputs": [
        {
          "name": "minLotLNS",
          "type": "uint256",
          "indexed": false,
          "internalType": "uint256"
        },
        {
          "name": "maxLotLNS",
          "type": "uint256",
          "indexed": false,
          "internalType": "uint256"
        }
      ],
      "anonymous": false
    },
    {
      "type": "event",
      "name": "MaintenanceMarginFractionUpdated",
      "inputs": [
        {
          "name": "perpId",
          "type": "uint256",
          "indexed": false,
          "internalType": "uint256"
        },
        {
          "name": "maintMarginFracHdths",
          "type": "uint256",
          "indexed": false,
          "internalType": "uint256"
        }
      ],
      "anonymous": false
    },
    {
      "type": "event",
      "name": "MakerFeeUpdated",
      "inputs": [
        {
          "name": "perpId",
          "type": "uint256",
          "indexed": false,
          "internalType": "uint256"
        },
        {
          "name": "makerFeePer100K",
          "type": "uint256",
          "indexed": false,
          "internalType": "uint256"
        }
      ],
      "anonymous": false
    },
    {
      "type": "event",
      "name": "MakerOrderFilled",
      "inputs": [
        {
          "name": "perpId",
          "type": "uint256",
          "indexed": false,
          "internalType": "uint256"
        },
        {
          "name": "accountId",
          "type": "uint256",
          "indexed": false,
          "internalType": "uint256"
        },
        {
          "name": "orderId",
          "type": "uint256",
          "indexed": false,
          "internalType": "uint256"
        },
        {
          "name": "pricePNS",
          "type": "uint256",
          "indexed": false,
          "internalType": "uint256"
        },
        {
          "name": "lotLNS",
          "type": "uint256",
          "indexed": false,
          "internalType": "uint256"
        },
        {
          "name": "feeCNS",
          "type": "uint256",
          "indexed": false,
          "internalType": "uint256"
        },
        {
          "name": "lockedBalanceCNS",
          "type": "uint256",
          "indexed": false,
          "internalType": "uint256"
        },
        {
          "name": "amountCNS",
          "type": "int256",
          "indexed": false,
          "internalType": "int256"
        },
        {
          "name": "balanceCNS",
          "type": "uint256",
          "indexed": false,
          "internalType": "uint256"
        }
      ],
      "anonymous": false
    },
    {
      "type": "event",
      "name": "MakerOrderSettlementFailed",
      "inputs": [
        {
          "name": "perpId",
          "type": "uint256",
          "indexed": false,
          "internalType": "uint256"
        },
        {
          "name": "accountId",
          "type": "uint256",
          "indexed": false,
          "internalType": "uint256"
        },
        {
          "name": "orderId",
          "type": "uint256",
          "indexed": false,
          "internalType": "uint256"
        },
        {
          "name": "orderType",
          "type": "uint8",
          "indexed": false,
          "internalType": "enum OrderEnum"
        },
        {
          "name": "pricePNS",
          "type": "uint256",
          "indexed": false,
          "internalType": "uint256"
        },
        {
          "name": "lotLNS",
          "type": "uint256",
          "indexed": false,
          "internalType": "uint256"
        },
        {
          "name": "reason",
          "type": "uint256",
          "indexed": false,
          "internalType": "uint256"
        },
        {
          "name": "lockedBalanceCNS",
          "type": "uint256",
          "indexed": false,
          "internalType": "uint256"
        },
        {
          "name": "recyclerAccountId",
          "type": "uint256",
          "indexed": false,
          "internalType": "uint256"
        },
        {
          "name": "recyclerAmountCNS",
          "type": "int256",
          "indexed": false,
          "internalType": "int256"
        },
        {
          "name": "recyclerBalanceCNS",
          "type": "uint256",
          "indexed": false,
          "internalType": "uint256"
        }
      ],
      "anonymous": false
    },
    {
      "type": "event",
      "name": "MarkExceedsTol",
      "inputs": [
        {
          "name": "perpId",
          "type": "uint256",
          "indexed": false,
          "internalType": "uint256"
        },
        {
          "name": "markPNS",
          "type": "uint256",
          "indexed": false,
          "internalType": "uint256"
        },
        {
          "name": "synthPerpPricePNS",
          "type": "uint256",
          "indexed": false,
          "internalType": "uint256"
        },
        {
          "name": "tolerancePer100k",
          "type": "uint256",
          "indexed": false,
          "internalType": "uint256"
        }
      ],
      "anonymous": false
    },
    {
      "type": "event",
      "name": "MarkUpdated",
      "inputs": [
        {
          "name": "perpId",
          "type": "uint256",
          "indexed": false,
          "internalType": "uint256"
        },
        {
          "name": "pricePNS",
          "type": "uint256",
          "indexed": false,
          "internalType": "uint256"
        }
      ],
      "anonymous": false
    },
    {
      "type": "event",
      "name": "MaxMatchesReached",
      "inputs": [],
      "anonymous": false
    },
    {
      "type": "event",
      "name": "MaxOpenInterestUpdated",
      "inputs": [
        {
          "name": "perpId",
          "type": "uint256",
          "indexed": false,
          "internalType": "uint256"
        },
        {
          "name": "maxOpenInterestLNS",
          "type": "uint256",
          "indexed": false,
          "internalType": "uint256"
        }
      ],
      "anonymous": false
    },
    {
      "type": "event",
      "name": "MaximumAccountOrders",
      "inputs": [
        {
          "name": "perpId",
          "type": "uint256",
          "indexed": false,
          "internalType": "uint256"
        },
        {
          "name": "accountId",
          "type": "uint256",
          "indexed": false,
          "internalType": "uint256"
        }
      ],
      "anonymous": false
    },
    {
      "type": "event",
      "name": "MinAccountOpenAmountUpdated",
      "inputs": [
        {
          "name": "minAccountOpenCNS",
          "type": "uint256",
          "indexed": false,
          "internalType": "uint256"
        }
      ],
      "anonymous": false
    },
    {
      "type": "event",
      "name": "MinPostUpdated",
      "inputs": [
        {
          "name": "minPostCNS",
          "type": "uint256",
          "indexed": false,
          "internalType": "uint256"
        }
      ],
      "anonymous": false
    },
    {
      "type": "event",
      "name": "MinSettleUpdated",
      "inputs": [
        {
          "name": "minSettleCNS",
          "type": "uint256",
          "indexed": false,
          "internalType": "uint256"
        }
      ],
      "anonymous": false
    },
    {
      "type": "event",
      "name": "OracleAgeExceedsMax",
      "inputs": [
        {
          "name": "perpId",
          "type": "uint256",
          "indexed": false,
          "internalType": "uint256"
        },
        {
          "name": "oracleTimestamp",
          "type": "uint256",
          "indexed": false,
          "internalType": "uint256"
        },
        {
          "name": "timestamp",
          "type": "uint256",
          "indexed": false,
          "internalType": "uint256"
        },
        {
          "name": "maxAgeSec",
          "type": "uint256",
          "indexed": false,
          "internalType": "uint256"
        }
      ],
      "anonymous": false
    },
    {
      "type": "event",
      "name": "OracleDisabled",
      "inputs": [
        {
          "name": "perpId",
          "type": "uint256",
          "indexed": false,
          "internalType": "uint256"
        }
      ],
      "anonymous": false
    },
    {
      "type": "event",
      "name": "OrderBatchCompleted",
      "inputs": [
        {
          "name": "gasLeft",
          "type": "uint256",
          "indexed": false,
          "internalType": "uint256"
        }
      ],
      "anonymous": false
    },
    {
      "type": "event",
      "name": "OrderCancelled",
      "inputs": [
        {
          "name": "lockedBalanceCNS",
          "type": "uint256",
          "indexed": false,
          "internalType": "uint256"
        },
        {
          "name": "amountCNS",
          "type": "int256",
          "indexed": false,
          "internalType": "int256"
        },
        {
          "name": "balanceCNS",
          "type": "uint256",
          "indexed": false,
          "internalType": "uint256"
        }
      ],
      "anonymous": false
    },
    {
      "type": "event",
      "name": "OrderCancelledByAdmin",
      "inputs": [
        {
          "name": "perpId",
          "type": "uint256",
          "indexed": false,
          "internalType": "uint256"
        },
        {
          "name": "accountId",
          "type": "uint256",
          "indexed": false,
          "internalType": "uint256"
        },
        {
          "name": "orderId",
          "type": "uint256",
          "indexed": false,
          "internalType": "uint256"
        },
        {
          "name": "lockedBalanceCNS",
          "type": "uint256",
          "indexed": false,
          "internalType": "uint256"
        }
      ],
      "anonymous": false
    },
    {
      "type": "event",
      "name": "OrderCancelledByLiquidator",
      "inputs": [
        {
          "name": "perpId",
          "type": "uint256",
          "indexed": false,
          "internalType": "uint256"
        },
        {
          "name": "accountId",
          "type": "uint256",
          "indexed": false,
          "internalType": "uint256"
        },
        {
          "name": "orderId",
          "type": "uint256",
          "indexed": false,
          "internalType": "uint256"
        },
        {
          "name": "lockedBalanceCNS",
          "type": "uint256",
          "indexed": false,
          "internalType": "uint256"
        }
      ],
      "anonymous": false
    },
    {
      "type": "event",
      "name": "OrderChanged",
      "inputs": [
        {
          "name": "orderId",
          "type": "uint256",
          "indexed": false,
          "internalType": "uint256"
        },
        {
          "name": "pricePNS",
          "type": "uint256",
          "indexed": false,
          "internalType": "uint256"
        },
        {
          "name": "lotLNS",
          "type": "uint256",
          "indexed": false,
          "internalType": "uint256"
        },
        {
          "name": "expiryBlock",
          "type": "uint256",
          "indexed": false,
          "internalType": "uint256"
        },
        {
          "name": "lockedBalanceCNS",
          "type": "uint256",
          "indexed": false,
          "internalType": "uint256"
        },
        {
          "name": "balanceCNS",
          "type": "uint256",
          "indexed": false,
          "internalType": "uint256"
        }
      ],
      "anonymous": false
    },
    {
      "type": "event",
      "name": "OrderDescIdTooLow",
      "inputs": [
        {
          "name": "lastOrderDescId",
          "type": "uint256",
          "indexed": false,
          "internalType": "uint256"
        }
      ],
      "anonymous": false
    },
    {
      "type": "event",
      "name": "OrderDoesNotExist",
      "inputs": [
        {
          "name": "perpId",
          "type": "uint256",
          "indexed": false,
          "internalType": "uint256"
        },
        {
          "name": "orderId",
          "type": "uint256",
          "indexed": false,
          "internalType": "uint256"
        }
      ],
      "anonymous": false
    },
    {
      "type": "event",
      "name": "OrderForwardingNotAllowed",
      "inputs": [],
      "anonymous": false
    },
    {
      "type": "event",
      "name": "OrderForwardingUpdated",
      "inputs": [
        {
          "name": "accountId",
          "type": "uint256",
          "indexed": false,
          "internalType": "uint256"
        },
        {
          "name": "allowed",
          "type": "bool",
          "indexed": false,
          "internalType": "bool"
        }
      ],
      "anonymous": false
    },
    {
      "type": "event",
      "name": "OrderPlaced",
      "inputs": [
        {
          "name": "orderId",
          "type": "uint256",
          "indexed": false,
          "internalType": "uint256"
        },
        {
          "name": "lotLNS",
          "type": "uint256",
          "indexed": false,
          "internalType": "uint256"
        },
        {
          "name": "lockedBalanceCNS",
          "type": "uint256",
          "indexed": false,
          "internalType": "uint256"
        },
        {
          "name": "amountCNS",
          "type": "int256",
          "indexed": false,
          "internalType": "int256"
        },
        {
          "name": "balanceCNS",
          "type": "uint256",
          "indexed": false,
          "internalType": "uint256"
        }
      ],
      "anonymous": false
    },
    {
      "type": "event",
      "name": "OrderPostFailed",
      "inputs": [
        {
          "name": "reason",
          "type": "uint256",
          "indexed": false,
          "internalType": "uint256"
        }
      ],
      "anonymous": false
    },
    {
      "type": "event",
      "name": "OrderRequest",
      "inputs": [
        {
          "name": "perpId",
          "type": "uint256",
          "indexed": false,
          "internalType": "uint256"
        },
        {
          "name": "accountId",
          "type": "uint256",
          "indexed": false,
          "internalType": "uint256"
        },
        {
          "name": "orderDescId",
          "type": "uint256",
          "indexed": false,
          "internalType": "uint256"
        },
        {
          "name": "orderId",
          "type": "uint256",
          "indexed": false,
          "internalType": "uint256"
        },
        {
          "name": "orderType",
          "type": "uint8",
          "indexed": false,
          "internalType": "enum OrderDescEnum"
        },
        {
          "name": "pricePNS",
          "type": "uint256",
          "indexed": false,
          "internalType": "uint256"
        },
        {
          "name": "lotLNS",
          "type": "uint256",
          "indexed": false,
          "internalType": "uint256"
        },
        {
          "name": "expiryBlock",
          "type": "uint256",
          "indexed": false,
          "internalType": "uint256"
        },
        {
          "name": "postOnly",
          "type": "bool",
          "indexed": false,
          "internalType": "bool"
        },
        {
          "name": "fillOrKill",
          "type": "bool",
          "indexed": false,
          "internalType": "bool"
        },
        {
          "name": "immediateOrCancel",
          "type": "bool",
          "indexed": false,
          "internalType": "bool"
        },
        {
          "name": "maxMatches",
          "type": "uint256",
          "indexed": false,
          "internalType": "uint256"
        },
        {
          "name": "leverageHdths",
          "type": "uint256",
          "indexed": false,
          "internalType": "uint256"
        },
        {
          "name": "gasLeft",
          "type": "uint256",
          "indexed": false,
          "internalType": "uint256"
        }
      ],
      "anonymous": false
    },
    {
      "type": "event",
      "name": "OrderSettlementImpliesInsolvent",
      "inputs": [
        {
          "name": "perpId",
          "type": "uint256",
          "indexed": false,
          "internalType": "uint256"
        },
        {
          "name": "accountId",
          "type": "uint256",
          "indexed": false,
          "internalType": "uint256"
        },
        {
          "name": "orderType",
          "type": "uint8",
          "indexed": false,
          "internalType": "enum OrderEnum"
        },
        {
          "name": "pricePNS",
          "type": "uint256",
          "indexed": false,
          "internalType": "uint256"
        },
        {
          "name": "lotLNS",
          "type": "uint256",
          "indexed": false,
          "internalType": "uint256"
        },
        {
          "name": "perpPositionBalCNS",
          "type": "uint256",
          "indexed": false,
          "internalType": "uint256"
        },
        {
          "name": "perpInsuranceBalCNS",
          "type": "uint256",
          "indexed": false,
          "internalType": "uint256"
        },
        {
          "name": "addedPosCollatReqCNS",
          "type": "uint256",
          "indexed": false,
          "internalType": "uint256"
        },
        {
          "name": "requestedAmountCNS",
          "type": "uint256",
          "indexed": false,
          "internalType": "uint256"
        }
      ],
      "anonymous": false
    },
    {
      "type": "event",
      "name": "OrderSizeExceedsAvailableSize",
      "inputs": [
        {
          "name": "orderLotLNS",
          "type": "uint256",
          "indexed": false,
          "internalType": "uint256"
        },
        {
          "name": "availableLotLNS",
          "type": "uint256",
          "indexed": false,
          "internalType": "uint256"
        },
        {
          "name": "positionLotLNS",
          "type": "uint256",
          "indexed": false,
          "internalType": "uint256"
        }
      ],
      "anonymous": false
    },
    {
      "type": "event",
      "name": "OverCollatDescentThreshUpdated",
      "inputs": [
        {
          "name": "perpId",
          "type": "uint256",
          "indexed": false,
          "internalType": "uint256"
        },
        {
          "name": "threshHdths",
          "type": "uint256",
          "indexed": false,
          "internalType": "uint256"
        }
      ],
      "anonymous": false
    },
    {
      "type": "event",
      "name": "OwnershipTransferStarted",
      "inputs": [
        {
          "name": "previousOwner",
          "type": "address",
          "indexed": true,
          "internalType": "address"
        },
        {
          "name": "newOwner",
          "type": "address",
          "indexed": true,
          "internalType": "address"
        }
      ],
      "anonymous": false
    },
    {
      "type": "event",
      "name": "OwnershipTransferred",
      "inputs": [
        {
          "name": "previousOwner",
          "type": "address",
          "indexed": true,
          "internalType": "address"
        },
        {
          "name": "newOwner",
          "type": "address",
          "indexed": true,
          "internalType": "address"
        }
      ],
      "anonymous": false
    },
    {
      "type": "event",
      "name": "PermissonedCancelParamsUpdated",
      "inputs": [
        {
          "name": "cancelMinOrders",
          "type": "uint256",
          "indexed": false,
          "internalType": "uint256"
        },
        {
          "name": "cancelSegment",
          "type": "uint256",
          "indexed": false,
          "internalType": "uint256"
        }
      ],
      "anonymous": false
    },
    {
      "type": "event",
      "name": "PositionAdministratorUpdated",
      "inputs": [
        {
          "name": "positionAdministrator",
          "type": "address",
          "indexed": false,
          "internalType": "address"
        },
        {
          "name": "added",
          "type": "bool",
          "indexed": false,
          "internalType": "bool"
        }
      ],
      "anonymous": false
    },
    {
      "type": "event",
      "name": "PositionClosed",
      "inputs": [
        {
          "name": "perpId",
          "type": "uint256",
          "indexed": false,
          "internalType": "uint256"
        },
        {
          "name": "accountId",
          "type": "uint256",
          "indexed": false,
          "internalType": "uint256"
        },
        {
          "name": "positionType",
          "type": "uint8",
          "indexed": false,
          "internalType": "enum PositionEnum"
        },
        {
          "name": "pricePNS",
          "type": "uint256",
          "indexed": false,
          "internalType": "uint256"
        },
        {
          "name": "deltaPnlCNS",
          "type": "int256",
          "indexed": false,
          "internalType": "int256"
        },
        {
          "name": "fundingCNS",
          "type": "int256",
          "indexed": false,
          "internalType": "int256"
        }
      ],
      "anonymous": false
    },
    {
      "type": "event",
      "name": "PositionDecreased",
      "inputs": [
        {
          "name": "perpId",
          "type": "uint256",
          "indexed": false,
          "internalType": "uint256"
        },
        {
          "name": "accountId",
          "type": "uint256",
          "indexed": false,
          "internalType": "uint256"
        },
        {
          "name": "positionType",
          "type": "uint8",
          "indexed": false,
          "internalType": "enum PositionEnum"
        },
        {
          "name": "startDepositCNS",
          "type": "uint256",
          "indexed": false,
          "internalType": "uint256"
        },
        {
          "name": "endDepositCNS",
          "type": "uint256",
          "indexed": false,
          "internalType": "uint256"
        },
        {
          "name": "startLotLNS",
          "type": "uint256",
          "indexed": false,
          "internalType": "uint256"
        },
        {
          "name": "endLotLNS",
          "type": "uint256",
          "indexed": false,
          "internalType": "uint256"
        },
        {
          "name": "deltaPnlCNS",
          "type": "int256",
          "indexed": false,
          "internalType": "int256"
        },
        {
          "name": "fundingCNS",
          "type": "int256",
          "indexed": false,
          "internalType": "int256"
        }
      ],
      "anonymous": false
    },
    {
      "type": "event",
      "name": "PositionDeleveraged",
      "inputs": [
        {
          "name": "perpId",
          "type": "uint256",
          "indexed": false,
          "internalType": "uint256"
        },
        {
          "name": "accountId",
          "type": "uint256",
          "indexed": false,
          "internalType": "uint256"
        },
        {
          "name": "forceClose",
          "type": "bool",
          "indexed": false,
          "internalType": "bool"
        },
        {
          "name": "positionType",
          "type": "uint8",
          "indexed": false,
          "internalType": "enum PositionEnum"
        },
        {
          "name": "entryPricePNS",
          "type": "uint256",
          "indexed": false,
          "internalType": "uint256"
        },
        {
          "name": "refPricePNS",
          "type": "uint256",
          "indexed": false,
          "internalType": "uint256"
        },
        {
          "name": "refIsMark",
          "type": "bool",
          "indexed": false,
          "internalType": "bool"
        },
        {
          "name": "deleveragePricePNS",
          "type": "uint256",
          "indexed": false,
          "internalType": "uint256"
        },
        {
          "name": "deltaPnlCNS",
          "type": "int256",
          "indexed": false,
          "internalType": "int256"
        },
        {
          "name": "fundingCNS",
          "type": "int256",
          "indexed": false,
          "internalType": "int256"
        },
        {
          "name": "startDepositCNS",
          "type": "uint256",
          "indexed": false,
          "internalType": "uint256"
        },
        {
          "name": "endDepositCNS",
          "type": "uint256",
          "indexed": false,
          "internalType": "uint256"
        },
        {
          "name": "startLotLNS",
          "type": "uint256",
          "indexed": false,
          "internalType": "uint256"
        },
        {
          "name": "endLotLNS",
          "type": "uint256",
          "indexed": false,
          "internalType": "uint256"
        },
        {
          "name": "amountCNS",
          "type": "uint256",
          "indexed": false,
          "internalType": "uint256"
        },
        {
          "name": "balanceCNS",
          "type": "uint256",
          "indexed": false,
          "internalType": "uint256"
        }
      ],
      "anonymous": false
    },
    {
      "type": "event",
      "name": "PositionDoesNotExist",
      "inputs": [
        {
          "name": "perpId",
          "type": "uint256",
          "indexed": false,
          "internalType": "uint256"
        },
        {
          "name": "accountId",
          "type": "uint256",
          "indexed": false,
          "internalType": "uint256"
        }
      ],
      "anonymous": false
    },
    {
      "type": "event",
      "name": "PositionIncreased",
      "inputs": [
        {
          "name": "perpId",
          "type": "uint256",
          "indexed": false,
          "internalType": "uint256"
        },
        {
          "name": "accountId",
          "type": "uint256",
          "indexed": false,
          "internalType": "uint256"
        },
        {
          "name": "positionType",
          "type": "uint8",
          "indexed": false,
          "internalType": "enum PositionEnum"
        },
        {
          "name": "leverageHdths",
          "type": "uint256",
          "indexed": false,
          "internalType": "uint256"
        },
        {
          "name": "startDepositCNS",
          "type": "uint256",
          "indexed": false,
          "internalType": "uint256"
        },
        {
          "name": "endDepositCNS",
          "type": "uint256",
          "indexed": false,
          "internalType": "uint256"
        },
        {
          "name": "pricePNS",
          "type": "uint256",
          "indexed": false,
          "internalType": "uint256"
        },
        {
          "name": "startLotLNS",
          "type": "uint256",
          "indexed": false,
          "internalType": "uint256"
        },
        {
          "name": "endLotLNS",
          "type": "uint256",
          "indexed": false,
          "internalType": "uint256"
        }
      ],
      "anonymous": false
    },
    {
      "type": "event",
      "name": "PositionInverted",
      "inputs": [
        {
          "name": "perpId",
          "type": "uint256",
          "indexed": false,
          "internalType": "uint256"
        },
        {
          "name": "accountId",
          "type": "uint256",
          "indexed": false,
          "internalType": "uint256"
        },
        {
          "name": "positionType",
          "type": "uint8",
          "indexed": false,
          "internalType": "enum PositionEnum"
        },
        {
          "name": "leverageHdths",
          "type": "uint256",
          "indexed": false,
          "internalType": "uint256"
        },
        {
          "name": "startDepositCNS",
          "type": "uint256",
          "indexed": false,
          "internalType": "uint256"
        },
        {
          "name": "endDepositCNS",
          "type": "uint256",
          "indexed": false,
          "internalType": "uint256"
        },
        {
          "name": "pricePNS",
          "type": "uint256",
          "indexed": false,
          "internalType": "uint256"
        },
        {
          "name": "startLotLNS",
          "type": "uint256",
          "indexed": false,
          "internalType": "uint256"
        },
        {
          "name": "endLotLNS",
          "type": "uint256",
          "indexed": false,
          "internalType": "uint256"
        },
        {
          "name": "deltaPnlCNS",
          "type": "int256",
          "indexed": false,
          "internalType": "int256"
        },
        {
          "name": "fundingCNS",
          "type": "int256",
          "indexed": false,
          "internalType": "int256"
        }
      ],
      "anonymous": false
    },
    {
      "type": "event",
      "name": "PositionLiquidated",
      "inputs": [
        {
          "name": "perpId",
          "type": "uint256",
          "indexed": false,
          "internalType": "uint256"
        },
        {
          "name": "posAccountId",
          "type": "uint256",
          "indexed": false,
          "internalType": "uint256"
        },
        {
          "name": "positionType",
          "type": "uint8",
          "indexed": false,
          "internalType": "enum PositionEnum"
        },
        {
          "name": "refPricePNS",
          "type": "uint256",
          "indexed": false,
          "internalType": "uint256"
        },
        {
          "name": "refIsMark",
          "type": "bool",
          "indexed": false,
          "internalType": "bool"
        },
        {
          "name": "liqPricePNS",
          "type": "uint256",
          "indexed": false,
          "internalType": "uint256"
        },
        {
          "name": "liqLotLNS",
          "type": "uint256",
          "indexed": false,
          "internalType": "uint256"
        },
        {
          "name": "posLotLNS",
          "type": "uint256",
          "indexed": false,
          "internalType": "uint256"
        },
        {
          "name": "deltaPnlCNS",
          "type": "int256",
          "indexed": false,
          "internalType": "int256"
        },
        {
          "name": "fundingCNS",
          "type": "int256",
          "indexed": false,
          "internalType": "int256"
        },
        {
          "name": "posAmountCNS",
          "type": "int256",
          "indexed": false,
          "internalType": "int256"
        },
        {
          "name": "posDepositCNS",
          "type": "uint256",
          "indexed": false,
          "internalType": "uint256"
        },
        {
          "name": "accAmountCNS",
          "type": "int256",
          "indexed": false,
          "internalType": "int256"
        },
        {
          "name": "accBalanceCNS",
          "type": "uint256",
          "indexed": false,
          "internalType": "uint256"
        },
        {
          "name": "onOrderBook",
          "type": "bool",
          "indexed": false,
          "internalType": "bool"
        }
      ],
      "anonymous": false
    },
    {
      "type": "event",
      "name": "PositionLiquidationCredit",
      "inputs": [
        {
          "name": "perpId",
          "type": "uint256",
          "indexed": false,
          "internalType": "uint256"
        },
        {
          "name": "accountId",
          "type": "uint256",
          "indexed": false,
          "internalType": "uint256"
        },
        {
          "name": "startDepositCNS",
          "type": "uint256",
          "indexed": false,
          "internalType": "uint256"
        },
        {
          "name": "endDepositCNS",
          "type": "uint256",
          "indexed": false,
          "internalType": "uint256"
        }
      ],
      "anonymous": false
    },
    {
      "type": "event",
      "name": "PositionOpened",
      "inputs": [
        {
          "name": "perpId",
          "type": "uint256",
          "indexed": false,
          "internalType": "uint256"
        },
        {
          "name": "accountId",
          "type": "uint256",
          "indexed": false,
          "internalType": "uint256"
        },
        {
          "name": "positionType",
          "type": "uint8",
          "indexed": false,
          "internalType": "enum PositionEnum"
        },
        {
          "name": "leverageHdths",
          "type": "uint256",
          "indexed": false,
          "internalType": "uint256"
        },
        {
          "name": "depositCNS",
          "type": "uint256",
          "indexed": false,
          "internalType": "uint256"
        },
        {
          "name": "pricePNS",
          "type": "uint256",
          "indexed": false,
          "internalType": "uint256"
        },
        {
          "name": "lotLNS",
          "type": "uint256",
          "indexed": false,
          "internalType": "uint256"
        }
      ],
      "anonymous": false
    },
    {
      "type": "event",
      "name": "PositionUnwound",
      "inputs": [
        {
          "name": "perpId",
          "type": "uint256",
          "indexed": false,
          "internalType": "uint256"
        },
        {
          "name": "accountId",
          "type": "uint256",
          "indexed": false,
          "internalType": "uint256"
        },
        {
          "name": "refPricePNS",
          "type": "uint256",
          "indexed": false,
          "internalType": "uint256"
        },
        {
          "name": "positionType",
          "type": "uint8",
          "indexed": false,
          "internalType": "enum PositionEnum"
        },
        {
          "name": "pricePNS",
          "type": "uint256",
          "indexed": false,
          "internalType": "uint256"
        },
        {
          "name": "lotLNS",
          "type": "uint256",
          "indexed": false,
          "internalType": "uint256"
        },
        {
          "name": "depositCNS",
          "type": "uint256",
          "indexed": false,
          "internalType": "uint256"
        },
        {
          "name": "positionFmvCNS",
          "type": "int256",
          "indexed": false,
          "internalType": "int256"
        },
        {
          "name": "paymentCNS",
          "type": "uint256",
          "indexed": false,
          "internalType": "uint256"
        },
        {
          "name": "balanceCNS",
          "type": "uint256",
          "indexed": false,
          "internalType": "uint256"
        }
      ],
      "anonymous": false
    },
    {
      "type": "event",
      "name": "PositionUnwoundWithoutPayment",
      "inputs": [
        {
          "name": "perpId",
          "type": "uint256",
          "indexed": false,
          "internalType": "uint256"
        },
        {
          "name": "accountId",
          "type": "uint256",
          "indexed": false,
          "internalType": "uint256"
        },
        {
          "name": "refPricePNS",
          "type": "uint256",
          "indexed": false,
          "internalType": "uint256"
        },
        {
          "name": "positionType",
          "type": "uint8",
          "indexed": false,
          "internalType": "enum PositionEnum"
        },
        {
          "name": "pricePNS",
          "type": "uint256",
          "indexed": false,
          "internalType": "uint256"
        },
        {
          "name": "lotLNS",
          "type": "uint256",
          "indexed": false,
          "internalType": "uint256"
        },
        {
          "name": "depositCNS",
          "type": "uint256",
          "indexed": false,
          "internalType": "uint256"
        },
        {
          "name": "positionFmvCNS",
          "type": "int256",
          "indexed": false,
          "internalType": "int256"
        },
        {
          "name": "amountOwedCNS",
          "type": "uint256",
          "indexed": false,
          "internalType": "uint256"
        }
      ],
      "anonymous": false
    },
    {
      "type": "event",
      "name": "PostOrderUnderMinimum",
      "inputs": [
        {
          "name": "orderAmountCNS",
          "type": "uint256",
          "indexed": false,
          "internalType": "uint256"
        },
        {
          "name": "minAmountCNS",
          "type": "uint256",
          "indexed": false,
          "internalType": "uint256"
        }
      ],
      "anonymous": false
    },
    {
      "type": "event",
      "name": "PriceAdministratorUpdated",
      "inputs": [
        {
          "name": "priceAdministrator",
          "type": "address",
          "indexed": false,
          "internalType": "address"
        },
        {
          "name": "added",
          "type": "bool",
          "indexed": false,
          "internalType": "bool"
        }
      ],
      "anonymous": false
    },
    {
      "type": "event",
      "name": "PriceMaxAgeUpdated",
      "inputs": [
        {
          "name": "perpId",
          "type": "uint256",
          "indexed": false,
          "internalType": "uint256"
        },
        {
          "name": "maxAgeSec",
          "type": "uint256",
          "indexed": false,
          "internalType": "uint256"
        }
      ],
      "anonymous": false
    },
    {
      "type": "event",
      "name": "PriceOutOfRange",
      "inputs": [
        {
          "name": "minPricePNS",
          "type": "uint256",
          "indexed": false,
          "internalType": "uint256"
        },
        {
          "name": "maxPricePNS",
          "type": "uint256",
          "indexed": false,
          "internalType": "uint256"
        }
      ],
      "anonymous": false
    },
    {
      "type": "event",
      "name": "PriceTolUpdated",
      "inputs": [
        {
          "name": "perpId",
          "type": "uint256",
          "indexed": false,
          "internalType": "uint256"
        },
        {
          "name": "tolPer100k",
          "type": "uint256",
          "indexed": false,
          "internalType": "uint256"
        }
      ],
      "anonymous": false
    },
    {
      "type": "event",
      "name": "ProtocolBalanceDeposit",
      "inputs": [
        {
          "name": "amountCNS",
          "type": "uint256",
          "indexed": false,
          "internalType": "uint256"
        }
      ],
      "anonymous": false
    },
    {
      "type": "event",
      "name": "ProtocolBalanceWithdraw",
      "inputs": [
        {
          "name": "amountCNS",
          "type": "uint256",
          "indexed": false,
          "internalType": "uint256"
        }
      ],
      "anonymous": false
    },
    {
      "type": "event",
      "name": "RecycleBalanceInsufficientSevere",
      "inputs": [
        {
          "name": "accountId",
          "type": "uint256",
          "indexed": false,
          "internalType": "uint256"
        },
        {
          "name": "orderId",
          "type": "uint256",
          "indexed": false,
          "internalType": "uint256"
        },
        {
          "name": "recycleFeeCNS",
          "type": "uint256",
          "indexed": false,
          "internalType": "uint256"
        },
        {
          "name": "recycleBalanceCNS",
          "type": "uint256",
          "indexed": false,
          "internalType": "uint256"
        }
      ],
      "anonymous": false
    },
    {
      "type": "event",
      "name": "RecycleFeeUpdated",
      "inputs": [
        {
          "name": "recycleFeeCNS",
          "type": "uint256",
          "indexed": false,
          "internalType": "uint256"
        }
      ],
      "anonymous": false
    },
    {
      "type": "event",
      "name": "ReferencePriceAgesExceedMax",
      "inputs": [
        {
          "name": "perpId",
          "type": "uint256",
          "indexed": false,
          "internalType": "uint256"
        },
        {
          "name": "markTimestamp",
          "type": "uint256",
          "indexed": false,
          "internalType": "uint256"
        },
        {
          "name": "oracleTimestamp",
          "type": "uint256",
          "indexed": false,
          "internalType": "uint256"
        },
        {
          "name": "timestamp",
          "type": "uint256",
          "indexed": false,
          "internalType": "uint256"
        },
        {
          "name": "maxAgeSec",
          "type": "uint256",
          "indexed": false,
          "internalType": "uint256"
        }
      ],
      "anonymous": false
    },
    {
      "type": "event",
      "name": "ReportAgeExceedsLastUpdate",
      "inputs": [
        {
          "name": "perpId",
          "type": "uint256",
          "indexed": false,
          "internalType": "uint256"
        },
        {
          "name": "lastUpdateTimestamp",
          "type": "uint256",
          "indexed": false,
          "internalType": "uint256"
        },
        {
          "name": "reportValidFromTimestamp",
          "type": "uint256",
          "indexed": false,
          "internalType": "uint256"
        }
      ],
      "anonymous": false
    },
    {
      "type": "event",
      "name": "ReportPriceIsNegative",
      "inputs": [
        {
          "name": "perpId",
          "type": "uint256",
          "indexed": false,
          "internalType": "uint256"
        },
        {
          "name": "reportPrice",
          "type": "int256",
          "indexed": false,
          "internalType": "int256"
        }
      ],
      "anonymous": false
    },
    {
      "type": "event",
      "name": "SyntheticPriceError",
      "inputs": [
        {
          "name": "perpId",
          "type": "uint256",
          "indexed": false,
          "internalType": "uint256"
        },
        {
          "name": "linkPricePNS",
          "type": "uint256",
          "indexed": false,
          "internalType": "uint256"
        },
        {
          "name": "fundingRatePct100k",
          "type": "int256",
          "indexed": false,
          "internalType": "int256"
        }
      ],
      "anonymous": false
    },
    {
      "type": "event",
      "name": "TakerFeeUpdated",
      "inputs": [
        {
          "name": "perpId",
          "type": "uint256",
          "indexed": false,
          "internalType": "uint256"
        },
        {
          "name": "takerFeePer100K",
          "type": "uint256",
          "indexed": false,
          "internalType": "uint256"
        }
      ],
      "anonymous": false
    },
    {
      "type": "event",
      "name": "TakerOrderFilled",
      "inputs": [
        {
          "name": "pricePNS",
          "type": "uint256",
          "indexed": false,
          "internalType": "uint256"
        },
        {
          "name": "lotLNS",
          "type": "uint256",
          "indexed": false,
          "internalType": "uint256"
        },
        {
          "name": "feeCNS",
          "type": "uint256",
          "indexed": false,
          "internalType": "uint256"
        },
        {
          "name": "amountCNS",
          "type": "int256",
          "indexed": false,
          "internalType": "int256"
        },
        {
          "name": "balanceCNS",
          "type": "uint256",
          "indexed": false,
          "internalType": "uint256"
        }
      ],
      "anonymous": false
    },
    {
      "type": "event",
      "name": "TransferAccountToProtocol",
      "inputs": [
        {
          "name": "accountId",
          "type": "uint256",
          "indexed": false,
          "internalType": "uint256"
        },
        {
          "name": "amountCNS",
          "type": "uint256",
          "indexed": false,
          "internalType": "uint256"
        },
        {
          "name": "balanceCNS",
          "type": "uint256",
          "indexed": false,
          "internalType": "uint256"
        }
      ],
      "anonymous": false
    },
    {
      "type": "event",
      "name": "TransferPerpInsToProtocol",
      "inputs": [
        {
          "name": "perpId",
          "type": "uint256",
          "indexed": false,
          "internalType": "uint256"
        },
        {
          "name": "amountCNS",
          "type": "uint256",
          "indexed": false,
          "internalType": "uint256"
        }
      ],
      "anonymous": false
    },
    {
      "type": "event",
      "name": "TransferProtocolToAccount",
      "inputs": [
        {
          "name": "accountId",
          "type": "uint256",
          "indexed": false,
          "internalType": "uint256"
        },
        {
          "name": "amountCNS",
          "type": "uint256",
          "indexed": false,
          "internalType": "uint256"
        },
        {
          "name": "balanceCNS",
          "type": "uint256",
          "indexed": false,
          "internalType": "uint256"
        }
      ],
      "anonymous": false
    },
    {
      "type": "event",
      "name": "TransferProtocolToPerp",
      "inputs": [
        {
          "name": "perpId",
          "type": "uint256",
          "indexed": false,
          "internalType": "uint256"
        },
        {
          "name": "amountCNS",
          "type": "uint256",
          "indexed": false,
          "internalType": "uint256"
        },
        {
          "name": "toInsuranceFund",
          "type": "bool",
          "indexed": false,
          "internalType": "bool"
        }
      ],
      "anonymous": false
    },
    {
      "type": "event",
      "name": "TransferProtocolToRecycleBal",
      "inputs": [
        {
          "name": "amountCNS",
          "type": "uint256",
          "indexed": false,
          "internalType": "uint256"
        }
      ],
      "anonymous": false
    },
    {
      "type": "event",
      "name": "UnableToCancelOrder",
      "inputs": [
        {
          "name": "perpId",
          "type": "uint256",
          "indexed": false,
          "internalType": "uint256"
        },
        {
          "name": "orderId",
          "type": "uint256",
          "indexed": false,
          "internalType": "uint256"
        }
      ],
      "anonymous": false
    },
    {
      "type": "event",
      "name": "UnityDescentThreshUpdated",
      "inputs": [
        {
          "name": "perpId",
          "type": "uint256",
          "indexed": false,
          "internalType": "uint256"
        },
        {
          "name": "threshHdths",
          "type": "uint256",
          "indexed": false,
          "internalType": "uint256"
        }
      ],
      "anonymous": false
    },
    {
      "type": "event",
      "name": "UnspecifiedCollateral",
      "inputs": [],
      "anonymous": false
    },
    {
      "type": "event",
      "name": "UnsupportedOperation",
      "inputs": [
        {
          "name": "perpId",
          "type": "uint256",
          "indexed": false,
          "internalType": "uint256"
        },
        {
          "name": "opType",
          "type": "uint8",
          "indexed": false,
          "internalType": "enum OpDescEnum"
        }
      ],
      "anonymous": false
    },
    {
      "type": "event",
      "name": "UnwindCompleted",
      "inputs": [
        {
          "name": "perpId",
          "type": "uint256",
          "indexed": false,
          "internalType": "uint256"
        },
        {
          "name": "positionsUnwound",
          "type": "uint256",
          "indexed": false,
          "internalType": "uint256"
        },
        {
          "name": "perpPositionBalanceCNS",
          "type": "uint256",
          "indexed": false,
          "internalType": "uint256"
        }
      ],
      "anonymous": false
    },
    {
      "type": "event",
      "name": "UnwindInitializationCleared",
      "inputs": [
        {
          "name": "perpId",
          "type": "uint256",
          "indexed": false,
          "internalType": "uint256"
        }
      ],
      "anonymous": false
    },
    {
      "type": "event",
      "name": "UnwindInitialized",
      "inputs": [
        {
          "name": "perpId",
          "type": "uint256",
          "indexed": false,
          "internalType": "uint256"
        },
        {
          "name": "sumPositiveFmvCNS",
          "type": "uint256",
          "indexed": false,
          "internalType": "uint256"
        }
      ],
      "anonymous": false
    },
    {
      "type": "event",
      "name": "UnwindInsufficientBalance",
      "inputs": [
        {
          "name": "perpId",
          "type": "uint256",
          "indexed": false,
          "internalType": "uint256"
        },
        {
          "name": "accountId",
          "type": "uint256",
          "indexed": false,
          "internalType": "uint256"
        },
        {
          "name": "perpPositionBalanceCNS",
          "type": "uint256",
          "indexed": false,
          "internalType": "uint256"
        },
        {
          "name": "paymentCNS",
          "type": "uint256",
          "indexed": false,
          "internalType": "uint256"
        }
      ],
      "anonymous": false
    },
    {
      "type": "event",
      "name": "UnwindIterationCompleted",
      "inputs": [
        {
          "name": "perpId",
          "type": "uint256",
          "indexed": false,
          "internalType": "uint256"
        },
        {
          "name": "positionsUnwound",
          "type": "uint256",
          "indexed": false,
          "internalType": "uint256"
        },
        {
          "name": "perpPositionBalanceCNS",
          "type": "uint256",
          "indexed": false,
          "internalType": "uint256"
        }
      ],
      "anonymous": false
    },
    {
      "type": "event",
      "name": "UpdateOracleFailed",
      "inputs": [
        {
          "name": "perpId",
          "type": "uint256",
          "indexed": false,
          "internalType": "uint256"
        }
      ],
      "anonymous": false
    },
    {
      "type": "event",
      "name": "WRLSThousandthsTvlUpdated",
      "inputs": [
        {
          "name": "thousandthsTvl",
          "type": "uint256",
          "indexed": false,
          "internalType": "uint256"
        }
      ],
      "anonymous": false
    },
    {
      "type": "event",
      "name": "WithdrawRateLimitReset",
      "inputs": [
        {
          "name": "newExpiryBlock",
          "type": "uint256",
          "indexed": false,
          "internalType": "uint256"
        },
        {
          "name": "newLimitCNS",
          "type": "uint256",
          "indexed": false,
          "internalType": "uint256"
        },
        {
          "name": "perBlockCNS",
          "type": "uint256",
          "indexed": false,
          "internalType": "uint256"
        }
      ],
      "anonymous": false
    },
    {
      "type": "event",
      "name": "WrongAccountForOrder",
      "inputs": [],
      "anonymous": false
    }
  ],
  "bytecode": {
    "object": "0x60e080604052346101d757606081620173d28038038091610020828561022d565b8339810103126101d75780516001600160a01b03811691908290036101d75760406020820151910151908115918215036101d757600180546001600160a01b03199081169091555f805433928116831782556001600160a01b0316907f8be0079c531659141344cd1fd0a4f28419497f9722a3daafe3b4186f6b6457e09080a360016002558180610221575b6102095780608052806005029060058204036101f55760a052156101ee57608f5b60c052600580546001600160a01b0319168217905560405163313ce56760e01b8152602081600481855afa80156101e3575f906101a2575b60ff9150169060068203610188576305f5e1006007556001600f55606460085560038054613fff60d51b1916600560d61b1790556040516201716d90816200026582396080518181816155d501528181617f970152818161a471015261e5c7015260a05181818161a447015261e58c015260c051818181618d8f01526193300152f35b630f30f42960e01b5f52600452602452600660445260645ffd5b506020813d6020116101db575b816101bc6020938361022d565b810103126101d7575160ff811681036101d75760ff90610105565b5f80fd5b3d91506101af565b6040513d5f823e3d90fd5b603c6100cd565b634e487b7160e01b5f52601160045260245ffd5b63bc32901360e01b5f5260045261217b60245260445ffd5b5061217b8114156100ac565b601f909101601f19168101906001600160401b0382119082101761025057604052565b634e487b7160e01b5f52604160045260245ffdfe61050080604052600436101562000014575f80fd5b5f905f3560e01c908162092cce14620057dd5750806303cfe83c146200572457806305aca14114620056ee5780630697afae1462005663578063075367f614620056395780630a2eb30114620055f85780630d3e87a714620055bc5780630e517f4114620054f35780630f03e4c314620054c75780631201415614620054065780631275d14c14620053d157806312e8eb2c1462005320578063156352e6146200527257806316a0659314620051df57806316a483ea14620051c1578063182b01f214620051675780631973c61914620051295780631df87ade14620050bb57806320c801d21462005079578063229c24921462004fdb5780632709b7461462004f47578063279289e91462004eba5780632f32509b1462004db357806332b9203b1462004cef57806338ecd8851462004c17578063396d7e471462004bd85780633a63dabe1462004bba5780634119f9301462004b8557806343559bbf1462004b0157806345c8c9241462004a665780634a9a415814620049d55780634b8344fb146200490c5780634d3282b4146200489557806350ef5c3514620047285780635180d5a8146200452d5780635405611914620044b357806358087a74146200442e578063586d92ca146200439f5780635bf9264c146200423c5780635e1a357314620041c957806360ad17fd146200406a5780636112fe2e1462003f6057806361bd6f441462003e89578063653a6bd71462003e325780636728641b1462003dd25780636825e9e51462003d49578063697521591462003c225780636b69ebbe1462003a985780636debf8fa1462003a44578063715018a614620039d9578063751de42114620037d25780637962f91014620036cd57806379ba509714620035eb5780637cca3b0614620034995780637d45678e14620033d05780637dd7e75914620033985780637ddbdc2a14620032d057806387c95058146200320e578063893d20e81462002dea5780638a92464014620031385780638bc5b3c514620030c45780638bcf1b271462002f935780638c0311641462002eca5780638c1c2cef1462002e115780638da5cb5b1462002dea5780638f3ffc851462002d6957806392f54b3a14620025fb5780639a6d763014620025a65780639d2ec18814620024fd5780639e430eda14620022a05780639fc8afd714620022205780639fffdfe214620021f9578063a5e9c4111462002142578063a9bd5cee146200207f578063abce7b201462001fe1578063ae0d44421462001fa0578063b216d0d21462001f17578063b5fcf7621462001eeb578063bad4a01f1462001ea9578063bbf979ac1462001e2c578063be0783f51462001db8578063c2852f381462001cdf578063c7ff15841462001cb6578063cab139151462001b4a578063d19d58f41462001980578063d360dd311462001910578063d3b8c49d146200181a578063d541abc114620017c0578063d6f34bd61462001745578063d780ece814620016ba578063d8b442681462001679578063dbfbf7e81462001638578063dec92b691462001618578063e2e1cb57146200156e578063e30c39781462001545578063e548bb571462001145578063e68073c31462001089578063e74e2c9b1462001034578063ed6760fe1462000f5e578063edb1314e1462000f29578063efb629041462000e61578063f12bb3891462000ded578063f28b98f31462000d4d578063f2fde38b1462000cd8578063f769f0d31462000c23578063fb05acb714620006e6578063fb455f6b14620006755763fe37fe12146200052f575f80fd5b346200067257620005403662005cad565b908291836010819262000563620005588496620076b5565b916009830162008b7e565b50910190805b6200059e57505050906200059a91604051948594859094939260609260808301968352602083015260408201520152565b0390f35b825280602052604082205494620005bb60ff8760201c166200c817565b620005cf63ffffffff8860781c166200bffe565b6200062457156200060157620005f461ffff9164ffffffffff8860401c169062007304565b955b60c81c168062000569565b94926200061d61ffff9164ffffffffff8660401c169062007304565b93620005f6565b95969095156200064f576200064861ffff9164ffffffffff8960401c169062007304565b96620005f6565b95936200066b61ffff9164ffffffffff8760401c169062007304565b94620005f6565b80fd5b50346200067257620006873662005cad565b919062ffffff8311620006cc57602092600c620006a8620006af93620076b5565b016200c6fd565b905f198214620006c3575b50604051908152f35b90505f620006ba565b5060449163c6ebaaa160e01b825260045262ffffff602452fd5b50346200067257620006f836620061f0565b60a09291925260c0526200070b62007706565b6200071860c051620076b5565b9160018301548060f81c1562000c0e5760f01c60ff161562000bf95760ff600284015460e81c161562000ba1575b6001600160501b038354166004840154608052600584015463ffffffff600186015460201c16839163ffffffff601188015416925b8315158062000b97575b1562000b8a57838652601288016020526040862093808752600d6020526040872090848654620007f3620007de8d64ffffffffff8460b81c169063ffffffff8560981c16908560e01c908760ff8860401c1691620089f3565b50506001600160501b038360481c166200c6e1565b8a918280831362000969575b93620008b79363ffffffff93620008c49793620008ca9a99975f14620008d057917f2ce44e296cf9f36d06b56fb77dfebb744f984a66a7a32a9c1982adde5719a10893916001600160501b03610120946040519460c05186528860208701526040860152620008786060860160ff8360401c1662005e90565b888160981c16608086015264ffffffffff8160b81c1660a086015260481c1660c084015260e0830152610100820152a15b9854169760118d0162010133565b600460c051910162010283565b62006b58565b6200077b565b610140927f8e75a224410b0b5b54b88738c69eb996a4225e1720432903a1b03693c3fcb6f894926001600160501b03808b5416936040519560c051875289602088015260408701526200092d6060870160ff8360401c1662005e90565b898160981c16608087015264ffffffffff8160b81c1660a087015260481c1660c085015260e0840152610100830152610120820152a1620008a9565b608051909450919250901562000b8357620009926080516200098c848a620065e5565b620082d7565b80938b82115f1462000b45575060019060a05115620009d857509388620008ca979694620008b79463ffffffff94620008c4985b9397999a5093975093509350620007ff565b969a9b9d9c50505050509450507f8c6452308f4aa5da3dd7582bf4f08c41c0bd9378806d96ce939fbddad72bf926925062000a369150604051918291878660c051859094939260609260808301968352602083015260408201520152565b0390a15b1562000a9f57825469ffffffffffffffffffff19166001600160501b038316179092556040805160c051815260208101939093528201527fbdbd36cd24c97780cb0f5652a6498a852056dcb4863f8714110142e501b251449080606081015b0390a180f35b6040805160c05181526020810192909252810182905262000af891907fefeda965577e696236292c2f584176f4a4f16d597d0a0818a3836f146b071ce990606090a1825469ffffffffffffffffffff1916835562008c5b565b60018101805460ff60f01b191690556002810180546005830184905560049092018390557fffff00ffffffffffffffffffffffffffffffffffffff00000000000000000000909116905580f35b919294909a62000b5b8c8b9299989699620065f9565b9b62000b689086620082ab565b620008ca97620008c496620008b79563ffffffff95620009c6565b8a62000992565b9394969550505062000a3a565b5086811062000785565b62000bce6001600160501b03845460501c1669ffffffffffffffffffff60501b19855416855584620082ab565b82546001600160501b0316600584015560028301805460ff60e81b1916600160e81b17905562000746565b631750b76d60e11b815260c051600452602490fd5b631512f56d60e31b825260c051600452602482fd5b5034620006725762000c353662005cad565b62000c42929192620077d2565b62000cc95762000c523362007e80565b808352600d602052604083209360ff855460a01c1662000c728162005c19565b8062000caa575062000c8490620076b5565b93821562000c9b5762000c9893946200c4fe565b80f35b631fccd51f60e01b8452600484fd5b63e0860e5f60e01b8552602490859062000cc48162005c19565b600452fd5b630b15863d60e41b8252600482fd5b50346200067257602036600319011262000672576001600160a01b0362000cfe62005c96565b62000d0862007706565b16806001600160a01b031960015416176001556001600160a01b038254167f38d16b8cac22d99fc7c124b9cd0de2d3fa1faef420bfe791d8c362d765e227008380a380f35b503462000672576020366003190112620006725760043562000d6e62007706565b6309c3d8f080821162000dd3575060035462000d89620077b6565b91612710613fff9104831b921b1916176003557f8ad800de6b48db2a4430821a66e9ea34dee8c66fea63f8a83559bf91279cf77c602062000dc96200831c565b604051908152a180f35b60649291630c8f0a6960e41b835260045281602452604452fd5b5034620006725762000dff3662005cad565b90338352601360205260ff6040842054161562000e4e5762000e20620077d2565b62000e3f579062000e3562000e3b92620076b5565b62009ae7565b5080f35b630b15863d60e41b8352600483fd5b636dfc4d6160e11b835233600452602483fd5b5034620006725762000e8e600962000e793662005e75565b929162000e8894919462007706565b620076b5565b0162000e9b83826200a3c2565b60028210801562000f1e575b62000f005791604091837fbb5907b6810f0c2966db8e0939fbf4a19724f4e58e2bfd1d15195fdf8b4908a2945468ff000000000000000083861b169068ff0000000000000000191617905582519182526020820152a180f35b630c8f0a6960e41b8452600482905260026024526009604452606484fd5b506009821162000ea7565b5034620006725780600319360112620006725760209060035490506c1fffffffffffffffffffffffff6040519160701c168152f35b5034620006725762000f703662005cad565b62000f7a62007706565b62000f8582620076b5565b60018210801562001029575b6200100d5760020160ff815460d81c168083111562000ff65750805460ff60e01b191660e083901b60ff60e01b161790557fb0459c2e01b889e7e78bb7d1400cb3049a1d98ef3d6949439b173c5ffba92dd1916040915b82519182526020820152a180f35b630ba8360160e41b85526004526024829052604484fd5b60648483630c8f0a6960e41b8252600452600160245281604452fd5b506064821162000f91565b503462000672577f6bf5f38f4e94f47ae7a4d6e56dbf388c856f890b5f0f2808b66914710b0266ca6040620010693662005cad565b6200107362007706565b62000fe8816200108384620076b5565b6200a2d6565b503462000672576200109b36620061f0565b90620010a662007706565b6003546001600160701b0316818110620011315750916060917fe3bcf60a5994e7328c2ddfbbf2c18d6e57c1cc69502d1ee3900c1e1f08ca555d93620010ec83620076b5565b620010f7826200820e565b81831562001120576200110a916200c4e0565b604051928352602083015215156040820152a180f35b6200112b91620082ab565b6200110a565b62fae2d560e21b8552600452602452604483fd5b50346200067257602036600319011262000672576004359067ffffffffffffffff8211620006725736602383011215620006725781600401359067ffffffffffffffff82116200067257602483013660248460061b860101116200154157338252601260205260ff604083205416156200152e57620011c3620077d2565b62000cc95782156200151a578035620011dc81620076b5565b6009810193600182015460f81c93815b87811015620015165780620014d8575b60019087602084013580158015620014cc575b620014c457808652600782016020526040862063ffffffff81541615620014bb5780548863ffffffff821692838a52600d60205260408a20926200125c63ffffffff8260781c166200bffe565b908115620014b2575b811562001494575b811562001347575b50156200130b5784620012d581620013009561ffff60027f3669d8cc87cc659246c535cf34b73f019e2da2a48e04d14093701e877fb6eac69b97620012c8620012c2620012dc99620070ae565b6200c03c565b015460a81c16906200c0f0565b926200c4a1565b6040519384938c859094939260609260808301968352602083015260408201520152565b0390a15b01620011ec565b505050507fa2f88eaf96334c482f1071c105643f009253e044dc7767b94cd01f787c7d92ad91506040908151908982526020820152a162001304565b90508a9087549061ffff8260301c1661ffff8360201c16116200136e575b50505f62001275565b60ff8260401c16906200138760ff8260201c166200c817565b15620014155762ffffff808460781c169360901c1691831515806200140b575b620013ba575b505050505b5f8062001365565b839450620013de620013e591620013d88562ffffff959697620065f9565b6200f55d565b85620065f9565b9160281c161091821562001400575b50505f808080620013ad565b1490505f80620013f4565b50821515620013a7565b62ffffff808460481c169360601c1691831515806200148a575b6200143f575b50505050620013b2565b8394506200145d62001464916200098c8562ffffff959697620065f9565b8462007304565b9160281c16119182156200147f575b50505f80808062001435565b1490505f8062001473565b508215156200142f565b905060ff845460a01c16620014a98162005c19565b1515906200126d565b8e915062001265565b50505062001304565b505062001304565b5061ffff81116200120f565b600681901b8901602401915081358514620011fc57945094509050620014fe82620076b5565b90600982019460018084015460f81c959050620011fc565b8280f35b634e487b7160e01b82526032600452602482fd5b63a37849fb60e01b825233600452602482fd5b5080fd5b5034620006725780600319360112620006725760206001600160a01b0360015416604051908152f35b50346200067257620015803662005cad565b6200158a62007706565b6200159582620076b5565b600281015461ffff8160c81c16808411620015dc57857f9c6091bfb36035e2973fb3ad5c07d8c5d74d0981770feea276a41c4221246f0e6040878762000fe881896200a30b565b6040516322b85af560e11b8152600481018690526024810185905260b89290921c61ffff908116604484015216606482015280608481015b0390fd5b503462000672578060031936011262000672576020600754604051908152f35b503462000672576020366003190112620006725760ff60406020926001600160a01b036200166562005c96565b168152601484522054166040519015158152f35b503462000672576020366003190112620006725760ff60406020926001600160a01b03620016a662005c96565b168152601384522054166040519015158152f35b5034620006725760203660031901126200067257600435620016db62007706565b6001811080156200173a575b6200171e576020817fc6edc4969138bba547ff56e984b415e7a1ec1181d6199d6946c48e3a8589063692600855604051908152a180f35b63034bd7dd60e31b8252600160045260fa602452604452606490fd5b5060fa8111620016e7565b50346200067257602036600319011262000672576004356200176662007706565b64e8d4a510008111620017a5576020817f0fface2454d594caf83c2c1b1f8da428b41a8585fcf72713ea6ce39cd6cba9fc92600755604051908152a180f35b6395d41f3f60e01b825260045264e8d4a51000602452604490fd5b50346200067257620017d23662005da1565b90929192338352601260205260ff604084205416156200180757620017f6620077d2565b62000e3f5762000c98929362007612565b63a37849fb60e01b835233600452602483fd5b503462000672576200182c3662006189565b92919092338352601460205260ff60408420541615620018fd5762001850620077d2565b62000e3f578315620018e9578135826200186a82620076b5565b91855b87811062001879578680f35b80620018ae575b600190620018a786620018966060870162006385565b60408701356020880135896200a806565b016200186d565b9150620018bd82888762007601565b918235808303620018d0575b5062001880565b915092506001620018e182620076b5565b9390620018c9565b634e487b7160e01b83526032600452602483fd5b631d37e03560e31b835233600452602483fd5b50346200067257602036600319011262000672577fa9a3e53f31ef1464015e1b64897b819880bcc9787e25987d6d4336f3613ade2660206001600160a01b036200195962005c96565b6200196362007706565b16806001600160a01b03196004541617600455604051908152a180f35b50346200067257620019923662006189565b906200199d620077d2565b62001b3b57620019ad3362007e80565b90818552600d60205260ff604086205460a01c16620019cc8162005c19565b8062001b215750801562001b0d578391843590620019ea82620076b5565b9160ff600384015460d01c16338952601560205260ff60408a20541694895b81811062001a15578a80f35b8062001ac6575b886040890135801562001abb57848062001ab2575b62001a5a576001929162001a539160608c01359060208d01358a8a8d6200a8f4565b0162001a09565b5062001a9a5760408051858152336020820152600192917f4cd1188857d86056fa3ff56966c92f1f952217fe7328696137d42b1043a5d91c91a162001a53565b63099a231160e31b8b5260048490523360245260448bfd5b50881562001a31565b505060019062001a53565b965062001ad587828b62007601565b96873580850362001ae8575b5062001a1c565b93509150935062001af982620076b5565b9360ff600386015460d01c16915f62001ae1565b634e487b7160e01b85526032600452602485fd5b63e0860e5f60e01b8652602490869062000cc48162005c19565b630b15863d60e41b8452600484fd5b503462000672576020366003190112620006725760043562001b6b62009d48565b62001b75620077d2565b62000cc957600754811062001ca057338252600e60205260408220548062001c8a5750600f54906001820180831162001c765763ffffffff811162001c67579060209362001c5a92600f55838152600d85528360406001818420019283546bffffffffffffffffffffffff80193360601b169116178455338152600e8852205563ffffffff8085161663ffffffff198254161790557f7325fb14450d3e5eb288c620b4ff1d6b43a41b33b4a4f143ae88cd4c12f99ea36040518062001c51863383602090939291936001600160a01b0360408201951681520152565b0390a16200a4b1565b6001600255604051908152f35b634e5bb58160e01b8452600484fd5b634e487b7160e01b84526011600452602484fd5b630c8c12bd60e31b835233600452602452604482fd5b630cfe73bb60e41b825233600452602452604490fd5b50346200067257806003193601126200067257602062001cd5620077d2565b6040519015158152f35b5034620006725760203660031901126200067257338152601260205260ff6040822054161562001da55762001d13620077d2565b62001d965762001d25600435620076b5565b600181019081549160018360f81c15150362001d3f578380f35b600260409261ffff927f2bf3500d8e3b78624f68716bdcfccb30df6b6ef393561a3ffa32e8d357ac7e43956001600160f81b03600160f81b9116179055015460a81c16815190815260016020820152a15f80808380f35b630b15863d60e41b8152600490fd5b63a37849fb60e01b815233600452602490fd5b503462000672576020366003190112620006725760043562001dd962007706565b6309c3d8f080821162000dd35750600354612710613fff920460d51b9160d51b1916176003557f4151e59ddd8ffe35ce0b539f837d353ed0ff884e058b715910c7f4688a5da736602062000dc9620081ea565b5034620006725760803660031901126200067257338152601460205260ff6040822054161562001e965762001e60620077d2565b62001d965762001e72600435620076b5565b606435801515810362001e925762000c989160443590602435906200a59d565b8280fd5b631d37e03560e31b815233600452602490fd5b503462000672576020366003190112620006725762001ec762009d48565b62001ed1620077d2565b62001d965762001ee36004356200a4b1565b600160025580f35b5034620006725780600319360112620006725760209060035490506001600160701b0360405191168152f35b503462000672576080366003190112620006725760043560443567ffffffffffffffff811162001e925762001f5190369060040162005cf4565b9162001f5c62005ce4565b93338152601460205260ff6040822054161562001e965762001f7d620077d2565b62001d9657602062001cd58686866024358762001f9a81620076b5565b620083cc565b503462000672576020366003190112620006725760ff60406020926001600160a01b0362001fcd62005c96565b168152601584522054166040519015158152f35b503462000672576020366003190112620006725760043567ffffffffffffffff8111620015415736602382011215620015415780600401359167ffffffffffffffff831162000672573660248460091b840101116200067257338152601260205260ff6040822054161562001da5576200205a620077d2565b62001d96576200059a62002072846024850162007433565b6040519182918262005d28565b50346200067257604036600319011262000672577f6259c67b83c17d274bef178edcf79755337c12fdc6de65b955b5ab3f95e82e05620020be62005c96565b620020c862005cc4565b90620020d362007706565b81156200211f576001600160a01b0381168452601360205260408420805460ff191660011790555b604080516001600160a01b0390921682529115156020820152908190810162000a99565b6001600160a01b0381168452601360205260408420805460ff19169055620020fb565b50346200067257620021543662005cad565b6200215e62007706565b6200216982620076b5565b60018101908154908160f81c15620021e55760ff8260f01c16620021d15760040183905560ff60f01b1916600160f01b1790556040805192835260208301919091527f7101921841f3f86b1db94836f0b095d276833a7b6669c5d7628161978ae7e68691a180f35b633e626edf60e01b86526004859052602486fd5b631512f56d60e31b86526004859052602486fd5b50346200067257806003193601126200067257602062002218620082f6565b604051908152f35b5034620006725760a036600319011262000672576044359063ffffffff821680920362000672576200225162005ce4565b60843590811515820362001e9257338352601360205260ff6040842054161562000e4e576200227f620077d2565b62000e3f5762000c9892936024356200229a600435620076b5565b62009316565b5034620006725760403660031901126200067257600435620022c162005cc4565b620022cb62007706565b620022d5620077d2565b62000e3f57620022e582620076b5565b9015918280620024ea575b62002356575b507f2bf3500d8e3b78624f68716bdcfccb30df6b6ef393561a3ffa32e8d357ac7e439161ffff60028360016040950193159380546001600160f81b0360ff60f81b8760f81b169116179055015460a81c169082519182526020820152a180f35b600182015460ff8160f01c16620024d657600283015460f01c60ff1662002484576001600160a01b03600454168015801562002477575b62002457575060601c63ffffffff16156200244557507f2bf3500d8e3b78624f68716bdcfccb30df6b6ef393561a3ffa32e8d357ac7e439161ffff60026040935b805463ffffffff8160a01c1615620023ed575b509350505091620022f6565b7fffffffffffffffff00000000ffffffffffffffffffffffffffffffffffffffff77ffffffff000000000000000000000000000000000000000062002432436200a421565b91505060a01b1691161781555f620023e1565b630c5eed9d60e11b8452600452602483fd5b8583606492600687015491631744ee4f60e31b8452600452602452604452fd5b506006840154156200238d565b60201c63ffffffff1615620024c457507f2bf3500d8e3b78624f68716bdcfccb30df6b6ef393561a3ffa32e8d357ac7e439161ffff6002604093620023ce565b63136618cd60e01b8452600452602483fd5b633e626edf60e01b85526004829052602485fd5b5060018083015460f81c151514620022f0565b503462000672576200250f3662005cad565b6200251962007706565b6200252482620076b5565b620186a082116200257f57805462ffffff60e01b191660e083901b62ffffff60e01b161790556040805192835260208301919091527f95e1172237a02916c6d5aba284d04aa4e02e876b0c666387d62f03d0cd77719a91a180f35b60020154630dbcc17f60e31b845260a81c61ffff16600452602452620186a0604452606482fd5b503462000672577f672c0a156ee23d5a79ee89b233d6d30458115eabf152fb294cb8a894eadeeb116040620025db3662005cad565b620025e562007706565b62000fe881620025f584620076b5565b6200a34e565b3462002d655761014036600319011262002d655760043567ffffffffffffffff811162002d65576200263290369060040162006158565b9060243567ffffffffffffffff811162002d65576200265690369060040162006158565b9290604435916064359160843560a435610104359761012435906200267a62007706565b6200268462009d48565b6050861162002d16576010811162002cc7576103fc881162002cb457875f52601160205260405f2095620026b88762008284565b62002ca1576006620026cb858762007304565b1162002c7657600787019967ffffffffffffffff821162002bb957620026f28b5462006215565b601f811162002c42575b505f90601f831160011462002bd9576200272e92915f918362002bcd575b50508160011b915f199060031b1c19161790565b89555b600886019467ffffffffffffffff821162002bb95762002752865462006215565b601f811162002b79575b505f90601f831160011462002b10576200278d92915f918362002b045750508160011b915f199060031b1c19161790565b84555b60028501805461ffff60a81b191660a889901b61ffff60a81b16178155986001860180546001600160f81b0316600160f81b178155936006811162002aed57845460ff60e01b191660e09190911b60ff60e01b161784556006831162002ad557835460ff60e81b191660e884901b60ff60e81b161784556200281560c435876200a185565b6200282360e435876200a2d6565b81811162002ac0576200284e9291620028416200284892886200a30b565b866200a275565b6200739d565b80620f42400290620f424082040362002aac576200286d90846200a34e565b865461ffff60d81b19167c5f5a000000000000000000000000000000000000000000000000000000178755600a83018054600985019491901562002a8c575b5063feffffff80861162002a765750835463ffffffff191663ffffffff861617845581547a3c138800000000000000000000000000000000000000000000000063ffffffff60c01b19909116178255875461ffff60981b1916742710000000000000000000000000000000000000001788557f0b2efc0af76436c4033a79c6ea9b6120b41fd2abd5fdb32a0bca3b28fb1f4dd29761ffff9460ff93919262002a1a9291600391906200296161d8ef826200a3c2565b805468ff0000000000000000191668020000000000000000179055805462ffffff60e01b1916610c3560e41b1781550180547a010061a80061a80061a801731800823500823500000000000000007fffffffffff00000000000000000000000000000000000000ffffffffffffffff909116179055601054620029e49062006b58565b6010555491549362002a0b604051998a998a5261016060208b01526101608a0190620073ac565b9088820360408a0152620073ac565b948160f81c151560608801526080870152818160e01c1660a087015260e81c1660c0850152818160781c1660e0850152818160881c16610100850152818160b81c1661012085015260c81c166101408301520390a16001600255005b856395d41f3f60e01b5f5260045260245260445ffd5b5f1990555f8052600b810160205260405f206001815417905588620028ac565b634e487b7160e01b5f52601160045260245ffd5b6320f9238560e11b5f5260045260245260445ffd5b826395d41f3f60e01b5f52600452600660245260445ffd5b6395d41f3f60e01b5f52600452600660245260445ffd5b013590508c806200271a565b601f19831691875f5260205f20925f5b81811062002b60575090846001959493921062002b46575b505050811b01845562002790565b01355f19600384901b60f8161c191690558b808062002b38565b9193602060018192878701358155019501920162002b20565b62002ba790875f5260205f20601f850160051c8101916020861062002bae575b601f0160051c019062007324565b8b6200275c565b909150819062002b99565b634e487b7160e01b5f52604160045260245ffd5b013590508d806200271a565b601f198316918c5f5260205f20925f5b81811062002c29575090846001959493921062002c0f575b505050811b01895562002731565b01355f19600384901b60f8161c191690558c808062002c01565b9193602060018192878701358155019501920162002be9565b62002c6f908c5f5260205f20601f850160051c8101916020861062002bae57601f0160051c019062007324565b8c620026fc565b60848985876040519263bc42e62760e01b845260048401526006602484015260448301526064820152fd5b8863c401953760e01b5f5260045260245ffd5b8763324f0d9160e21b5f5260045260245ffd5b60808582604051938492631ffb247760e11b84526060600485015281606485015260848401375f8360048385010101526004601f19601f83011683010190602483015260106044830152030190fd5b60405163ab94bf3960e01b8152606060048201526064810187905260808188808d60848401375f8360048385010101526004601f19601f83011683010190602483015260506044830152030190fd5b5f80fd5b3462002d6557604036600319011262002d655760043560243567ffffffffffffffff811162002d65573660238201121562002d655762002db49036906024816004013591016200611d565b62002dbe620077d2565b62002ddb578162002dd362002dd993620076b5565b620080d3565b005b630b15863d60e41b5f5260045ffd5b3462002d65575f36600319011262002d655760206001600160a01b035f5416604051908152f35b3462002d6557602036600319011262002d655762002e316004356200775e565b8054908160f01c9062002e448262006aff565b91600263ffffffff5f9560b01c169201915b8015158062002ec0575b1562002eb0575f528160205263ffffffff60405f2062002ea462002e848762006b58565b9662002e908362006b67565b62002e9c82896200670d565b52866200670d565b505460201c1662002e56565b604051806200059a868262005dd9565b5081851062002e60565b3462002d655762002edb3662005cad565b62002ee562007706565b62002ef082620076b5565b600281015461ffff8160c81c16808410801562002f82575b62002f4b577f258cfea0edc89c1ba4ce7d75bd475712ab2a06ce19794e2193cbd64f182a3f786040868662002f3e81886200a275565b82519182526020820152a1005b60405163be5707cb60e01b8152600481018690526024810185905261ffff918216604482015260b89290921c166064820152608490fd5b5061ffff8260b81c16841062002f08565b3462002d6557602036600319011262002d65575f8080806004354381101562002fe1575b50906200059a91604051948594859094939260609260808301968352602083015260408201520152565b9350505050600b54600c54600a548284115f14620030915750505061217b810180821162002aac57906103e86200301e60085460065490620065e5565b0464e8d4a5100081111562003084575b61217b810461217b81029181159282810461217b1484171562002aac576200305691620065f9565b61085f82029282840461085f14171562002aac576200059a926200307a9162007304565b925b909162002fb7565b5064e8d4a510006200302e565b620030bd829394620030b683620030b06200059a9660095494620065f9565b620065e5565b9062007304565b926200307c565b3462002d65575f36600319011262002d655760c06006546003546001600160701b03906c1fffffffffffffffffffffffff6001600160a01b0360055416916001600160a01b0360045416936040519586528116602086015260701c16604084015260066060840152608083015260a0820152f35b3462002d6557602036600319011262002d65576004356200315862007706565b6003546001600160701b0316808211620031fa5750600654808211620031e5577ffbebce9e66eea6596d62b805af61b4b1ea406128e73ffb928faa091b17d524f9602083620031a78162009eee565b620031b2816200820e565b620031c081600654620065f9565b600655620031dc816001600160a01b036005541633906200a091565b604051908152a1005b6303dc938760e61b5f5260045260245260445ffd5b62fae2d560e21b5f5260045260245260445ffd5b3462002d6557604036600319011262002d65577f184fbff1cd7a3d3af1fd538263d79328e135402c70c68de9b795ee4fcc0440bc6200324c62005c96565b6200325662005cc4565b906200326162007706565b8115620032ad576001600160a01b0381165f52601260205260405f20600160ff198254161790555b604080516001600160a01b039092168252911515602082015290819081015b0390a1005b6001600160a01b0381165f52601260205260405f2060ff19815416905562003289565b3462002d6557604036600319011262002d65577ffe982a540a46b78ba39fe94b2fec322414acda6ca69e165520017d474e0dee4860606200331062005c96565b6200331a62005cc4565b6200332462007706565b6200332f8262007e80565b811562003375576001600160a01b0383165f52601560205260405f20600160ff198254161790555b6001600160a01b0360405193168352602083015215156040820152a1005b6001600160a01b0383165f52601560205260405f2060ff19815416905562003357565b3462002d65576040620033c1620033bb620033b33662005cad565b9190620076b5565b6200a1e7565b82519160050b82526020820152f35b3462002d6557620033e13662005cad565b90620033ec62007706565b614e2082116200347e57807f29246c8aee392e4f61a964c88192adac4afc12ed286fcbd7698783763467475f92600162003428604094620076b5565b0180547fffffffffffff0000ffffffffffffffffffffffffffffffffffffffffffffffff1660c083901b79ffff0000000000000000000000000000000000000000000000001617905582519182526020820152a1005b634dcc027160e11b5f52600452602452614e2060445260645ffd5b3462002d6557602036600319011262002d6557600435620034b962007706565b620034c481620076b5565b600281015464ffffffffff81161590811591620035d6575b508015620035c6575b620035b3576009015460201c61ffff16806200359d577fc1c33d1bd4abb6d1a8ed08f6a49cdf51c1db8b81ce6810a713fcd0291cc63f97602083805f52601182525f60116040822082815582600182015582600282015582600382015582600482015582600582015582600682015562003562600782016200733c565b62003570600882016200733c565b82600982015582600a82015582600c82015501556200359160105462007390565b601055604051908152a1005b9063e47393c360e01b5f5260045260245260445ffd5b50631bb9ae6f60e11b5f5260045260245ffd5b50600181015460f81c15620034e5565b64ffffffffff915060281c16151583620034dc565b3462002d65575f36600319011262002d6557336001600160a01b03600154160362003662576001600160a01b0319600154166001555f54336001600160a01b03198216175f556001600160a01b033391167f8be0079c531659141344cd1fd0a4f28419497f9722a3daafe3b4186f6b6457e05f80a3005b60405162461bcd60e51b815260206004820152602960248201527f4f776e61626c6532537465703a2063616c6c6572206973206e6f74207468652060448201527f6e6577206f776e657200000000000000000000000000000000000000000000006064820152608490fd5b3462002d6557602036600319011262002d6557620036ea62005cd4565b620036f4620077d2565b62002ddb57620037043362007e80565b90815f52600d60205260405f209182549260ff8460a01c1693620037288562005c19565b84620037b4577f743a9ef374d6b3c905b8fd725a33cc63980a202108bfd3cbf65e94a23640a02e94507fffffffffffffffffffff00ffffffffffffffffffffffffffffffffffffffffff75ff00000000000000000000000000000000000000000085151560a81b169116179055620032a860405192839283909291602090604083019483521515910152565b63e0860e5f60e01b5f5284620037ca8162005c19565b60045260245ffd5b3462002d6557620037fa620037e73662005cad565b9190620037f362006cc5565b50620076b5565b815f526012810160205260405f206040519062003817826200602d565b549163ffffffff83168252602082019163ffffffff8460201c16835260408101916200384a60ff8660401c168462006d18565b60608201936001600160501b038660481c168552608083019563ffffffff8160981c16875260a0840164ffffffffff8260b81c16815260c085019160e01c8252620038958462008933565b9c9493505050509760058a1015620039a35789151580620039cd575b620039b7575b8751976002891015620039a357620038ec63ffffffff99978b8b998a895116908b8851169264ffffffffff8a511694620089f3565b9a9198909951169651169051916002831015620039a357516001600160501b0316925163ffffffff16935164ffffffffff16945163ffffffff16956040519c620039368e6200604a565b8d5260208d015260408c0152620039519060608c0162006d18565b60808a015260a089015260c088015260e08701526101008601526101208501526101408401526040519283620039879162005e9e565b61016083015261018082016200399d9162005f16565b6101a090f35b634e487b7160e01b5f52602160045260245ffd5b600186015460201c63ffffffff169850620038b7565b5060018a1415620038b1565b3462002d65575f36600319011262002d6557620039f562007706565b6001600160a01b0319600154166001555f6001600160a01b0381546001600160a01b031981168355167f8be0079c531659141344cd1fd0a4f28419497f9722a3daafe3b4186f6b6457e08280a3005b3462002d65577f8e37539629486a88c6a6083eb90030fb61cb856d56d96f53a326fda0d399ef32604062003a783662005cad565b62003a8262007706565b62002f3e8162003a9284620076b5565b6200a185565b3462002d65576101c036600319011262002d655762003ab66200668e565b5062003ac1620077d2565b62002ddb5762003ad13362007e80565b805f52600d60205260405f209060ff825460a01c1662003af18162005c19565b8062003c0d57506024359062003b0782620076b5565b9060443593600785101562002d655760e4358015159081810362002d65575061010435948515159586810362002d65575061012435908115159788830362002d655760409862003bfb987fb5197c172faba5dd033bce9dda5c7f7a28a1451f539d3b287a0964c3b9283fa6956101c0955062003ba35a948d519687528a60208801526004358e8801526064356060880152608087019062006393565b60843560a086015260a43560c086015260c43560e086015261010085015261012084015261014083015261014435610160830152610164356101808301526101a0820152a161ffff600284015460781c16926200792a565b60208251918051835201516020820152f35b63e0860e5f60e01b5f52620037ca8162005c19565b3462002d6557604036600319011262002d655760043562003c4262005cc4565b62003c4c62007706565b62003c5782620076b5565b600281019060ff825460f01c168062003d40575b62003ccb575b50805460ff60f01b191691151560f081901b60ff60f01b169290921790556040805192835260208301919091527f8ac110193a47d8207dd88897368f2031dd31bfea6bcfd9a2b3ea6759e81c4e14919081908101620032a8565b6001600160a01b03600454168015801562003d33575b62003d1457506001015460601c63ffffffff161562003d01578362003c71565b82630c5eed9d60e11b5f5260045260245ffd5b60068592015491631744ee4f60e31b5f5260045260245260445260645ffd5b5060068201541562003ce1565b50821562003c6b565b3462002d655760c062003d6a600262003d623662005cad565b9290620076b5565b015461ffff8160b81c169164ffffffffff8260501c168261ffff62003dac60ff849660d81c16948560ff8560e01c1697889264ffffffffff8716908b6200a157565b9160405196875260c81c16602086015260408501526060840152608083015260a0820152f35b3462002d6557602036600319011262002d6557608062003df4600435620076b5565b60ff600182015460f01c169060ff600282015460e81c1690600560048201549101549160405193151584521515602084015260408301526060820152f35b3462002d655762003e49600962003d623662005cad565b0162ffffff821162003e6f5760409162003e639162008b7e565b82519182526020820152f35b5063c6ebaaa160e01b5f5260045262ffffff60245260445ffd5b3462002d6557602036600319011262002d655760043562003ea9620077d2565b62002ddb5762003eb93362007e80565b90815f52600d60205260405f209160ff835460a01c1662003eda8162005c19565b6002811462003c0d5750620032a86001600160501b038462003f1e857f2687926b167b6633deaaa80c3d106be87c0530fbc9ecba972ef8da4a3f2c489b9762009dbe565b5062003f2b85826200a078565b62003f368562008c5b565b5416604051938493849160409194936001600160501b039160608501968552602085015216910152565b3462002d6557602036600319011262002d655760043562003f8062009d48565b62003f8a620077d2565b62002ddb5762003f9a3362007e80565b90815f52600d60205260405f209160ff835460a01c1662003fbb8162005c19565b8062003c0d575062003fce828462009dbe565b50600654808311620040535750620040496001600160501b037f8a087568cf2efa04e1e6c72c7f61b68a1ac013d6a33bd6e978e1ba2b4efc04d494620040148562009eee565b6200402085826200a078565b6200402e85600654620065f9565b60065562003f3685336001600160a01b03600554166200a091565b0390a16001600255005b90506303dc938760e61b5f5260045260245260445ffd5b3462002d65576200407b3662005e75565b916200408662007706565b6200409181620076b5565b6200409d848462007304565b90620186a082116200419f57620186a08411620041855760030180546affffff00000000000000001916604085901b6affffff000000000000000016178155620186a085116200416b5780546dffffff00000000000000000000001916605886901b6dffffff000000000000000000000016179055620186a090810390811162002aac577f61c468e821b1662263e339e465b2b8aa3c36b504f804ffac4a19ad8eae3df81393620032a891604051948594859094939260609260808301968352602083015260408201520152565b846395d41f3f60e01b5f52600452620186a060245260445ffd5b836395d41f3f60e01b5f52600452620186a060245260445ffd5b6084838686604051926334af053b60e21b8452600484015260248301525f60448301526064820152fd5b3462002d6557620041ea620041de3662005cad565b9190620037f362007062565b61ffff82116200421f576010915f52016020526101406200420e60405f20620070ae565b6200421d604051809262005f43565bf35b50630c8f0a6960e41b5f526004525f60245261ffff60445260645ffd5b3462002d6557602036600319011262002d655760043567ffffffffffffffff811162002d65576200427290369060040162005cf4565b335f52601360205260ff60405f205416156200438c5762004292620077d2565b62002ddb575f5b818110620042a357005b620042b081838562006607565b90602082013591620042c283620076b5565b604082013593600385101562002d65576001948086036200430757505063ffffffff620042f66060620042fe940162007312565b1690620097ee565b505b0162004299565b806200433c57506200432e620043268460c0620043359601906200663f565b36916200611d565b9162007eb4565b5062004300565b60029150146200434f575b505062004300565b8162004362606062004384940162007312565b91608063ffffffff6200437860a0850162006385565b94169201359062008d72565b848062004347565b636dfc4d6160e11b5f523360045260245ffd5b3462002d6557620043b03662005cad565b90620043bb62007706565b620043c681620076b5565b6001600160501b03815460501c1683811062004418577f6cbcbbf194e245478b88cdee7b07dd6402cf492bcef0df03eae198637a072474604084866200440d818762008cbd565b62002f3e8162008c5b565b839062fae2d560e21b5f5260045260245260445ffd5b3462002d6557602036600319011262002d65577fb405a09f729f41978995eba596767f10784a912a3e8d56a978e5e167c1b23d7d60206200446e62005cd4565b6200447862007706565b6003548115620044ab576001905b600160ff62004494620077c8565b9316831b921b1916176003556040519015158152a1005b5f9062004486565b3462002d6557602036600319011262002d65577f06d9a2e5d1f47e8b66c517104114f36514593b09c9b90cb622a6883e595d4bcd6020600435620044f662007706565b620045018162008c5b565b6200450f8160065462007304565b600655620031dc816001600160a01b03600554163090339062008c73565b3462002d65576200453e3662005f24565b6200454b93919362007706565b6200455682620076b5565b6200456d8262004567878762007304565b62007304565b90620186a08211620046f557620186a085116200416b5760030180547fffffffffffffffffffffffff000000ffffffffffffffffffffffffffffffffff16608886901b73ffffff000000000000000000000000000000000016178155620186a08611620046db5780547fffffffffffffffffff000000ffffffffffffffffffffffffffffffffffffffff1660a087901b76ffffff000000000000000000000000000000000000000016178155620186a08311620046c15780547fffffffffffff000000ffffffffffffffffffffffffffffffffffffffffffffff79ffffff0000000000000000000000000000000000000000000000808660b81b16169116179055620186a00390620186a0821162002aac577f58735d184c71d18d22f8f2eb43be3e299cad7d465faac909163477072a58f9e99460a0946040519485526020850152604084015260608301526080820152a1005b826395d41f3f60e01b5f52600452620186a060245260445ffd5b856395d41f3f60e01b5f52600452620186a060245260445ffd5b5050604051631121702960e01b815260048101929092526024820192909252604481018390526064810191909152608490fd5b3462002d6557602036600319011262002d65575f6101006040516200474d816200600f565b8281528260208201528260408201528260608201528260808201528260a08201528260c08201528260e0820152015260036200478b600435620076b5565b015462ffffff8160401c1662ffffff8260581c1691620047ac838362007304565b620186a00392620186a0841162002aac5762ffffff8260881c1662ffffff8360a01c1662ffffff8460b81c1691620047ea8362004567848462007304565b620186a00393620186a0851162002aac5761012097604051916200480e836200600f565b888352602083019081526040830191825260ff610100606085019462ffffff8b60701c1686526080810196875260a0810197885260c0810198895260e08101998a52019860d01c16151588526040519889525160208901525160408801525160608701525160808601525160a08501525160c08401525160e0830152511515610100820152f35b3462002d6557620048b4620048aa3662005f24565b9291909162007149565b9060405190604082019260408352815180945260206060840192015f945b808610620048e857505082935060208301520390f35b9092602061014082620048ff600194885162005f43565b01940195019490620048d2565b3462002d65576200491d3662005d6f565b90335f52601260205260ff60405f20541615620049c2576200493e620077d2565b62002ddb576200494e8262005c19565b8115620049b3577f287a1a0be47186fe812cf10628edc8c56638095124099fea05c3e3f59e3a0dc6916200498460409262007e80565b90815f52600d6020526200499b81845f2062006965565b8251918252620049ab8162005c19565b6020820152a1005b633f068f8760e11b5f5260045ffd5b63a37849fb60e01b5f523360045260245ffd5b3462002d6557620049f1620049ea3662005e75565b9162006d25565b9061048051916104a0519091906040519260808401608085528351809152602060a086019401905f5b81811062004a4257505050936200059a91849560208601526040850152606084019062005f16565b90919460206101608262004a5a6001948a5162005e9e565b01960192910162004a1a565b3462002d655762004a773662005cad565b9062004a8262007706565b62004a8d81620076b5565b620186a08311620046c157600301805470ffffff00000000000000000000000000001916607084901b70ffffff0000000000000000000000000000161790556040805191825260208201929092527f82af0435eb6aa1e7cd302eaf1f32e10e8d7bb8e96d1f724a6006fbaa4571890f9190a1005b3462002d6557604036600319011262002d655760043567ffffffffffffffff811162002d655762004b3790369060040162005cf4565b62004b4162005cc4565b90335f52601460205260ff60405f2054161562004b725762004b62620077d2565b62002ddb5762002dd99262006bda565b631d37e03560e31b5f523360045260245ffd5b3462002d6557602036600319011262002d6557602061ffff600262004bac600435620076b5565b015460781c16604051908152f35b3462002d65575f36600319011262002d65576020620022186200831c565b3462002d6557602036600319011262002d65576040600962004bfc600435620076b5565b015460ff82519161ffff8160301c168352831c166020820152f35b3462002d6557602036600319011262002d655762004c37600435620076b5565b600a810154906120206040519162004c508284620060dd565b61010083526020830191601f1901368337600b81015f5b610100811062004ccc575050600961ffff91015460201c166040519260608401948452606060208501525180945260808301915f945b80861062004cb357505082935060408301520390f35b9092602080600192865181520194019501949062004c9d565b806001915f528260205260405f205462004ce782886200670d565b520162004c67565b3462002d6557604036600319011262002d65577ffff8b0b240abf69d0ca9160bd7dcc49339068496d45e0bf7aab7468fc6a6c2c760043562004d3062005cc4565b9062004d3b62007706565b600362004d4882620076b5565b0180547fffffffffff00ffffffffffffffffffffffffffffffffffffffffffffffffffff7aff000000000000000000000000000000000000000000000000000085151560d01b169116179055620032a860405192839283909291602090604083019483521515910152565b3462002d655762004dc43662005cad565b62004dce62007706565b62004dd982620076b5565b60018210801562004eaf575b62004e925760020160ff815460e01c168083101562004e7c5781547fffffffff00ffffffffffffffffffffffffffffffffffffffffffffffffffffff1660d884901b7bff0000000000000000000000000000000000000000000000000000001617825560408051858152602081018590527ff4b59dd9ee04b23a163fa42f622d424f19a1cc0f76d4455f900106cef0e3c5129190a1005b82630ba8360160e41b5f5260045260245260445ffd5b50630c8f0a6960e41b5f526004526001602452606460445260645ffd5b506064821162004de5565b3462002d6557602036600319011262002d655760043562004eda62007706565b6309c3d8f080821162004f2d575060035460e391612710613fff9104831b921b1916176003557fcd3426b08e2946f33fe401b723f71049867976631425553ecf95848fc4b088a96020620031dc620082f6565b90630c8f0a6960e41b5f526004525f60245260445260645ffd5b3462002d655762004f6462004f5c3662005cad565b91906200775e565b905f526003810160205260405f20549061ffff8260401c169062004f888262006aff565b91600263ffffffff5f95169201915b8015158062004fd1575b1562002eb0575f528160205263ffffffff60405f2062004fc562002e848762006b58565b505460201c1662004f97565b5081851062004fa1565b3462002d655762004fec3662005cad565b62004ff662007706565b6003546001600160701b0316818110620031fa575062005016826200775e565b9160ff835460a01c166200502a8162005c19565b6002811462003c0d5750620032a86001600160501b037f85b48f5618e9d5b21320fb47ad01cfbf4f739a3e7f7950a445c97099d578911e946200506d856200820e565b62003f368582620082ab565b3462002d65576200508a3662005da1565b90335f52601260205260ff60405f20541615620049c257620050ab620077d2565b62002ddb5762002dd992620069c7565b3462002d6557602036600319011262002d6557600435620050db62007706565b6003546001600160701b0316818110620031fa577f3926c691232881614240a3ec84f5910abdac662ecb616cf8ab9b9fe44d932bc86020836200511e816200820e565b620031dc8162008237565b3462002d6557602036600319011262002d6557604060116200514d600435620076b5565b015463ffffffff825191818116835260201c166020820152f35b3462002d6557620051783662005d6f565b906200518362007706565b6200518d620077d2565b62002ddb577f287a1a0be47186fe812cf10628edc8c56638095124099fea05c3e3f59e3a0dc6916200498460409262007e80565b3462002d65575f36600319011262002d6557602062002218620081ea565b3462002d6557620051f03662005cad565b90620051fb62007706565b613a9882116200525757807f70df7db68793145153f083606826dfc0e51ef634e3d99f5a8ff74d7fd27405e69262002f3e62005239604094620076b5565b600201805461ffff60981b1916609884901b61ffff60981b16179055565b631b71514f60e11b5f52600452602452613a9860445260645ffd5b3462002d6557606036600319011262002d655760043567ffffffffffffffff811162002d6557620052a890369060040162005cf4565b906024359067ffffffffffffffff821162002d65573660238301121562002d6557816004013567ffffffffffffffff811162002d65573660246101c083028501011162002d655760443591821515830362002d655762005307620077d2565b62002ddb576200059a9460246200207295019162006722565b3462002d6557602036600319011262002d65576200059a620053566200534562005c96565b6200534f620062fc565b5062007e80565b620053bf600462005367836200775e565b805460ff8160a01c166001600160501b03600184015460601c9260405197620053908962005ff2565b8852818116602089015260501c166040870152620053ae8162005c19565b606086015260808501520162006351565b60a08201526040519182918262005c24565b3462002d6557602036600319011262002d6557602061ffff6002620053f8600435620076b5565b015460881c16604051908152f35b3462002d6557604036600319011262002d65577f44f632293c2bd117a0d277a1057b0a5495dfbd57d2e3636bb80f0912ee6d0ba96200544462005c96565b6200544e62005cc4565b906200545962007706565b8115620054a4576001600160a01b0381165f52601460205260405f20600160ff19825416179055604080516001600160a01b03909216825291151560208201529081908101620032a8565b6001600160a01b0381165f52601460205260405f2060ff19815416905562003289565b3462002d65575f36600319011262002d6557600f545f19810190811162002aac57602090604051908152f35b3462002d6557620055043662005cad565b6200550e62007706565b61012c808211620055a3577fd947284a0ec09f0204c4d87a28d7f12ae5979a8c58b1456b5aa2c5066f9732956040848460016200554b83620076b5565b0180547fffffffff0000ffffffffffffffffffffffffffffffffffffffffffffffffffff1660d083901b7bffff00000000000000000000000000000000000000000000000000001617905582519182526020820152a1005b916335d09a8f60e21b5f5260045260245260445260645ffd5b3462002d65575f36600319011262002d655760206040517f00000000000000000000000000000000000000000000000000000000000000008152f35b3462002d6557602036600319011262002d65576001600160a01b036200561d62005c96565b165f526012602052602060ff60405f2054166040519015158152f35b3462002d6557602036600319011262002d65576200565662007706565b62002dd960043562007df9565b3462002d6557602036600319011262002d655760043567ffffffffffffffff811162002d65573660238201121562002d6557806004013567ffffffffffffffff811162002d65573660246101e083028401011162002d6557335f52601460205260ff60405f2054161562004b7257620056db620077d2565b62002ddb57602462002dd99201620063a1565b3462002d6557602036600319011262002d65576200059a60043562005712620062fc565b50620053bf600462005367836200775e565b3462002d6557604036600319011262002d65576004356024356200574762007706565b6200575282620076b5565b600181015460f81c15620057ca576001600160a01b03600454168015620057ab577f9c03c6796385c736172929a88c5f8c4fc7c287d6df80c75f290d4f18ca9ece726040858580600687015582519182526020820152a1005b60068492015491631744ee4f60e31b5f5260045260245260445260645ffd5b82631512f56d60e31b5f5260045260245ffd5b3462002d6557602036600319011262002d655761038081620058005f9362005fd4565b60608152606060208201528260408201528260608201528260808201528260a08201528260c08201528260e08201528261010082015282610120820152826101408201528261016082015282610180820152826101a0820152826101c0820152826101e08201528261020082015282610220820152826102408201528261026082015282610280820152826102a0820152826102c0820152826102e08201528261030082015282610320820152826103408201528261036082015201526200590960ff620058d0600435620076b5565b61ffff60018201549160068101549263ffffffff82548160038501546002860154976200592160086009890154986040519d8e62005fd4565b8d620059186007830162006250565b90520162006250565b60208c0152898660e01c1660408c0152898660e81c1660608c015260808b0152868560c01c1660a08b0152868560d01c1660c08b01526001600160501b03831660e08b01526001600160501b038360501c166101008b0152818560201c166101208b0152818560401c166101408b01528181166101608b015260201c16610180890152818360601c166101a0890152818360801c166101c089015264ffffffffff86166101e089015264ffffffffff8660281c1661020089015260a01c166102208701528060a01c60010b61024087015263ffffffff8116610260870152828460981c1661028087015260f81c15156102a086015263ffffffff81166102c086015262ffffff8160781c166102e086015262ffffff8160901c1661030086015262ffffff8160481c1661032086015262ffffff8160601c1661034086015260201c1661036084015260f01c16151561038082015260405180916020825261038062005ab662005a9f83516103a060208701526103c086019062005bf5565b6020840151858203601f1901604087015262005bf5565b916040810151606085015260608101516080850152608081015160a085015260a081015160c085015260c081015160e085015260e08101516101008501526101008101516101208501526101208101516101408501526101408101516101608501526101608101516101808501526101808101516101a08501526101a08101516101c08501526101c08101516101e08501526101e081015161020085015261020081015161022085015261022081015161024085015261024081015160010b6102608501526102608101516102808501526102808101516102a08501526102a081015115156102c08501526102c08101516102e08501526102e081015161030085015261030081015161032085015261032081015161034085015261034081015161036085015261036081015182850152015115156103a08301520390f35b805180835260209291819084018484015e5f828201840152601f01601f1916010190565b60041115620039a357565b919091610100606060a06101208401958051855260208101516020860152604081015160408601528281015162005c5b8162005c19565b838601526001600160a01b0360808201511660808601520151805160a0850152602081015160c0850152604081015160e08501520151910152565b600435906001600160a01b038216820362002d6557565b604090600319011262002d65576004359060243590565b60243590811515820362002d6557565b60043590811515820362002d6557565b60643590811515820362002d6557565b9181601f8401121562002d655782359167ffffffffffffffff831162002d65576020808501948460051b01011162002d6557565b60206040818301928281528451809452019201905f5b81811062005d4c5750505090565b825180518552602090810151818601526040909401939092019160010162005d3e565b604090600319011262002d65576004356001600160a01b038116810362002d655790602435600481101562002d655790565b90604060031983011262002d6557600435916024359067ffffffffffffffff821162002d655762005dd59160040162005cf4565b9091565b60206040818301928281528451809452019201905f5b81811062005dfd5750505090565b909192602060c06001926001600160501b0360a0885163ffffffff815116845263ffffffff86820151168685015263ffffffff6040820151166040850152606081015162005e4b8162005c19565b606085015260808181015164ffffffffff169085015201511660a082015201940192910162005def565b606090600319011262002d6557600435906024359060443590565b906002821015620039a35752565b610140809180518452602081015160208501526040810151604085015262005ecf6060820151606086019062005e90565b6080810151608085015260a081015160a085015260c081015160c085015260e081015160e08501526101008101516101008501526101208101516101208501520151910152565b906005821015620039a35752565b608090600319011262002d655760043590602435906044359060643590565b61ffff610120809263ffffffff8151168552602081015162005f658162005c19565b602086015262ffffff604082015116604086015264ffffffffff606082015116606086015282608082015116608086015263ffffffff60a08201511660a08601528260c08201511660c08601528260e08201511660e08601528261010082015116610100860152015116910152565b6103a0810190811067ffffffffffffffff82111762002bb957604052565b60c0810190811067ffffffffffffffff82111762002bb957604052565b610120810190811067ffffffffffffffff82111762002bb957604052565b60e0810190811067ffffffffffffffff82111762002bb957604052565b610160810190811067ffffffffffffffff82111762002bb957604052565b6080810190811067ffffffffffffffff82111762002bb957604052565b6040810190811067ffffffffffffffff82111762002bb957604052565b610140810190811067ffffffffffffffff82111762002bb957604052565b60a0810190811067ffffffffffffffff82111762002bb957604052565b90601f8019910116810190811067ffffffffffffffff82111762002bb957604052565b67ffffffffffffffff811162002bb957601f01601f191660200190565b9291926200612b8262006100565b916200613b6040519384620060dd565b82948184528183011162002d65578281602093845f960137010152565b9181601f8401121562002d655782359167ffffffffffffffff831162002d65576020838186019501011162002d6557565b90604060031983011262002d655760043567ffffffffffffffff811162002d655760040182601f8201121562002d655780359267ffffffffffffffff841162002d65576020808301928560071b01011162002d65579190602435801515810362002d655790565b606090600319011262002d65576004359060243590604435801515810362002d655790565b90600182811c9216801562006245575b60208310146200623157565b634e487b7160e01b5f52602260045260245ffd5b91607f169162006225565b9060405191825f825492620062658462006215565b8084529360018116908115620062d8575060011462006290575b506200628e92500383620060dd565b565b90505f9291925260205f20905f915b818310620062bb5750509060206200628e928201015f6200627f565b60209193508060019154838589010152019101909184926200629f565b9050602092506200628e94915060ff191682840152151560051b8201015f6200627f565b604051906200630b8262005ff2565b815f81525f60208201525f60408201525f60608201525f608082015260a060405191620063388362006068565b5f83525f60208401525f60408401525f60608401520152565b90604051620063608162006068565b6060600382948054845260018101546020850152600281015460408501520154910152565b35801515810362002d655790565b906007821015620039a35752565b918115620065e057826020840190604085013594620063c086620076b5565b935f5b86811015620065ab578062006570575b833590620063e386838b620077e8565b604086013591600783101562002d65575f60028414158062006562575b80156200654b575b620064f3575060019250805f52600d6020528660405f209167ffffffffffffffff8584015460201c169282359384811015620064bc575060ff815460a01c1693620064538562005c19565b84156200647c576200647394506200646c9082620078ce565b8a62007a62565b505b01620063c3565b5050505060207fe0860e5ff8578b025fc8a7f42c449c575b7a19600e8d2b3fd6ab0ae6e2e084039160405190620064b38162005c19565b8152a162006475565b9150507f6be50b396ca4962b3810cd9e65b8160cd24180a1e7adbc2c795e8dd090891284925060209150604051908152a162006475565b905062002d65577fcbb789ca59a70c9d9ac308b2f773480d433619886320ba81e8e871690fc220c360406001936200652f6101208a0162006385565b6200653d8351809362006393565b15156020820152a162006475565b506200655b610120890162006385565b1562006408565b50505f600384141562006400565b6101e0810283016020810195509350604084013580890362006594575b50620063d3565b97509450620065a387620076b5565b945f6200658d565b50955050505050507fc2813e86d911b51775079b03b9fcab443ec450bc1634cf75dd578874a0af7add60205a604051908152a1565b915050565b8181029291811591840414171562002aac57565b9190820391821162002aac57565b91908110156200662b5760051b8101359060de198136030182121562002d65570190565b634e487b7160e01b5f52603260045260245ffd5b903590601e198136030182121562002d65570180359067ffffffffffffffff821162002d655760200191813603831362002d6557565b67ffffffffffffffff811162002bb95760051b60200190565b604051906200669d8262006085565b5f6020838281520152565b90620066b48262006675565b620066c36040519182620060dd565b8281528092620066d6601f199162006675565b01905f5b828110620066e757505050565b602090604051620066f88162006085565b5f81525f8382015282828501015201620066da565b80518210156200662b5760209160051b010190565b909491949392935f5b8181106200689757505050620067413362007e80565b93845f52600d60205260405f209460ff865460a01c16620067628162005c19565b8062003c0d57506200677485620066a8565b958651156200688e5785156200662b578260208101356200679581620076b5565b9161ffff600284015460781c16965f5b8a81101562006856578b8a8a83620067fa575b928092620067df620067f2936001968e8e8e8e620067d98f848691620077e8565b62007b53565b620067eb83836200670d565b526200670d565b5001620067a5565b5050506101c08102830197508b8a60208a01358087036200681e575b508a620067b8565b955095508699509087818a9387620068378199620076b5565b600281015460781c61ffff169e50939b50929893945092915062006816565b50985050505050505050507fc2813e86d911b51775079b03b9fcab443ec450bc1634cf75dd578874a0af7add60205a604051908152a1565b50919350505050565b620068a481838562006607565b906020820135620068b581620076b5565b92604081013560038110801562002d65575f8a83620068f7575050505092620068ee916200432e620043268660c060019801906200663f565b505b016200672b565b919350919550620069465762002d655760405191825215620039a35760408160019460207f74df229c3b7e119176af42fd67d1f14e8e08bdff875d3977a74ad26da66a89c0940152a1620068f0565b508390631d37c8a760e21b5f5260449260045215620039a3576024525ffd5b90620069718162005c19565b7fffffffffffffffffffffff00ffffffffffffffffffffffffffffffffffffffff74ff000000000000000000000000000000000000000083549260a01b169116179055565b91908110156200662b5760051b0190565b916103fc831162006aba57825f52601160205260405f2092620069ea8462008284565b62006aa85750801562006aa3579091600f01905f5b81811062006a0d5750505050565b8062006a1d6001928487620069b6565b35828110801562006a96575b62006a8f5762006a4363ffffffff916007810690620065f9565b1462006a895763ffffffff5f90815260208590526040902080547fffffff00000000000000000000000000000000000000000000000000000000001690555b01620069ff565b62006a82565b5062006a82565b508062ffffff1062006a29565b505050565b63b934a7fb60e01b5f5260045260245ffd5b8263324f0d9160e21b5f5260045260245ffd5b6040519062006adc8262005ff2565b5f60a0838281528260208201528260408201528260608201528260808201520152565b9062006b0b8262006675565b62006b1a6040519182620060dd565b828152809262006b2d601f199162006675565b01905f5b82811062006b3e57505050565b60209062006b4b62006acd565b8282850101520162006b31565b5f19811462002aac5760010190565b9060405162006b768162005ff2565b60a06001600160501b0382945463ffffffff8116845263ffffffff8160201c16602085015263ffffffff8160401c16604085015260ff8160601c1662006bbc8162005c19565b606085015264ffffffffff8160681c16608085015260901c16910152565b929091821562006cbf5736849003605e19019184358381121562002d655785019283359562006c0987620076b5565b925f5b8781101562006cb4578062006c76575b6040870135601e198836030181121562002d655787019081359167ffffffffffffffff831162002d6557602001918060051b3603831362002d65578762006c6e916001948d60208d0135908b62008914565b500162006c0c565b95508560051b8201358381121562002d65578201958635808a0362006c9d575b5062006c1c565b9850935062006cac88620076b5565b935f62006c96565b509650505050505050565b50915050565b6040519062006cd4826200604a565b5f610140838281528260208201528260408201528260608201528260808201528260a08201528260c08201528260e082015282610100820152826101208201520152565b6002821015620039a35752565b919290925f6104a0525f6104805262006d3f5f93620076b5565b6104c05260116104c05101549062006d5a6104c05162008933565b9994935050505086610480526104a0526005861015620039a3578515158062007056575b6200703b575b8062007034575063ffffffff8216945b85156200702557508015158062007019575b5f61044052156200700b57610440525b62006dc46104405162006675565b62006dd36040519182620060dd565b610440518152601f1962006dea6104405162006675565b015f5b81811062006ff157505080945b61044051851062006e0a57505050565b805f5260126104c0510160205260405f20906040519162006e2b836200602d565b5463ffffffff81168352602083019063ffffffff8160201c16825262006e5b60ff8260401c166040860162006d18565b6001600160501b038160481c16606085015263ffffffff8160981c16608085015264ffffffffff8160b81c1660a085015260e01c60c084015260408301516002811015620039a35762006eda9063ffffffff60c08601511663ffffffff6080870151169064ffffffffff60a088015116926104a0516104c051620089f3565b9263ffffffff808794939451169151166104e05260408601516002811015620039a3576001600160501b0360608801511663ffffffff6080890151169062006f7064ffffffffff60a08b0151169363ffffffff60c08c015116956040516104605262006f49610460516200604a565b8a610460515260206104605101526104e05160406104605101526060610460510162006d18565b608061046051015260a061046051015260c061046051015260e061046051015261010061046051015261012061046051015261014061046051015262006fd362006fba8762006b58565b966104605162006fcb82876200670d565b52846200670d565b5063ffffffff8460201c161462006aa3575163ffffffff1662006dfa565b60209062006ffe62006cc5565b8282860101520162006ded565b506113886104405262006db6565b50611388811062006da6565b6104805250606093505f925050565b9462006d94565b63ffffffff60016104c051015460201c166104a05262006d84565b50600186141562006d7e565b604051906200707182620060a2565b5f610120838281528260208201528260408201528260608201528260808201528260a08201528260c08201528260e0820152826101008201520152565b90604051620070bd81620060a2565b61012061ffff82945463ffffffff8116845260ff8160201c16620070e18162005c19565b602085015262ffffff8160281c16604085015264ffffffffff8160401c166060850152818160681c16608085015263ffffffff8160781c1660a0850152818160981c1660c0850152818160a81c1660e0850152818160b81c1661010085015260c81c16910152565b919390936060935f8615620072f9576200716385620076b5565b9562007173886009890162008b7e565b9490918215620072eb575080620072e357505b9180151580620072d7575b15620072cb57919490945b620071a78362006675565b95620071b76040519788620060dd565b838752601f19620071c88562006675565b015f5b818110620072a75750506010879801915b848210806200729d575b156200729157805f52826020526200720160405f20620070ae565b9162ffffff6040840151168b8103620072675750889493929187916200724190846200723982620072328162006b58565b9a6200670d565b528b6200670d565b50146200725b5761012001519192909161ffff16620071dc565b50505094955050509050565b85608491848e604051936324bfc58760e01b85526004850152602484015260448301526064820152fd5b50969750505050509050565b50801515620071e6565b602090620072b9969395949662007062565b82828c010152019492939194620071cb565b5093611388916200719c565b50611388811062007191565b905062007186565b965050509550505091509190565b505050925050905f90565b9190820180921162002aac57565b3563ffffffff8116810362002d655790565b81811062007330575050565b5f815560010162007324565b62007348815462006215565b908162007353575050565b81601f5f931160011462007365575055565b818352602083206200738391601f0160051c81019060010162007324565b8082528160208120915555565b801562002aac575f190190565b604d811162002aac57600a0a90565b5f9291815491620073bd8362006215565b8083529260018116908115620074165750600114620073db57505050565b5f9081526020812093945091925b838310620073fb575060209250010190565b600181602092949394548385870101520191019190620073e9565b915050602093945060ff929192191683830152151560051b010190565b6200743e82620066a8565b92835115620065e05782156200662b578190604083016060840135936200746585620076b5565b925f5b87811015620065ab5780620075c4575b60019086356200748a86828b620077e8565b805f52600d60205260405f208667ffffffffffffffff8583015460201c1692813593848110156200758d5750825460ff8160a01c16620074ca8162005c19565b806200754a575060a81c60ff16156200751c57620074ed620074fa9484620078ce565b60208b0135928a62007cb2565b62007506828c6200670d565b5262007513818b6200670d565b505b0162007468565b505050507fcb7f793535461714e08fcb65e21b3379d2aedbf9c04354ade356a824dcefe9f55f80a162007515565b925050507fe0860e5ff8578b025fc8a7f42c449c575b7a19600e8d2b3fd6ab0ae6e2e0840392506020915060405190620075848162005c19565b8152a162007515565b9150507f6be50b396ca4962b3810cd9e65b8160cd24180a1e7adbc2c795e8dd090891284925060209150604051908152a162007515565b600981901b830195506040860193506060860135808803620075e8575b5062007478565b965093506001620075f987620076b5565b9490620075e1565b91908110156200662b5760071b0190565b916103fc831162006aba57825f52601160205260405f2092620076358462008284565b62006aa85750801562006aa3579091601001905f5b818110620076585750505050565b80620076686001928487620069b6565b358061ffff10620076ae575f90815260208590526040902080547fffffffffff0000000000000000000000000000000000000000000000000000001690555b016200764a565b50620076a7565b906103fc8211620076f357815f52601160205260405f2091620076d88362008284565b15620076e15750565b63264fcda560e11b5f5260045260245ffd5b5063324f0d9160e21b5f5260045260245ffd5b6001600160a01b035f541633036200771a57565b606460405162461bcd60e51b815260206004820152602060248201527f4f776e61626c653a2063616c6c6572206973206e6f7420746865206f776e65726044820152fd5b9063ffffffff82116200779b57815f52600d60205260405f2091600183015460601c15620077895750565b6305b58f2560e51b5f5260045260245ffd5b506395d41f3f60e01b5f5260045263ffffffff60245260445ffd5b60e35b600e810180911162002aac5790565b620077b9620077b6565b600180600354620077e2620077c8565b1c161490565b60408301359291600784101562002d6557610160837fb5197c172faba5dd033bce9dda5c7f7a28a1451f539d3b287a0964c3b9283fa6956200783060e06101c0970162006385565b6200783f610100840162006385565b906200787d62007853610120860162006385565b935a97604051998a5260208a0152853560408a0152606086013560608a0152608089019062006393565b608084013560a088015260a084013560c088015260c084013560e08801521515610100870152151561012086015215156101408501526101408101358285015201356101808301526101a0820152a1565b67ffffffffffffffff82116200790b57600101906bffffffffffffffff0000000082549160201b16906bffffffffffffffff000000001916179055565b506395d41f3f60e01b5f5260045267ffffffffffffffff60245260445ffd5b9291906040516200793b8162006085565b5f81525f6020820152806200795460016004886200c843565b1562007a59575060443590600782101562002d65576004821462007a3e5760ff835460a01c16620079858162005c19565b8062003c0d5750600186015460f81c620079eb5760058214620079d35750600614620079c1575060019160045f92620079be956200cceb565b90565b60019250600490620079be946200cb8f565b9491620079be945060019391506101a435926200c615565b949350505050600162007a2057507f6d39fcd0871e5b20154576c163e4fd8bcb184bce26f8ac32b3569fe3c592b01f5f80a190565b600261ffff91015460a81c166316c94c5160e11b5f5260045260245ffd5b94620079be945060019392506064359150602435906200ca6f565b94505050505090565b6040515f93929062007a748162006085565b5f81525f60208201528062007a8b5f88866200c843565b1562007b495750604086013590600782101562002d65576004821462007b2b57600184015460f81c62007afd576005821462007ae7575060061462007adb5750620079be9360019284926200cceb565b620079be94916200cb8f565b95620079be95949291506101a00135926200c615565b955050505050507f6d39fcd0871e5b20154576c163e4fd8bcb184bce26f8ac32b3569fe3c592b01f5f80a190565b95915050620079be93505f929160206060830135920135906200ca6f565b9550505050505090565b90949392919460405162007b678162006085565b5f81525f60208201528062007b7e8786866200c843565b1562007ca75750604084013590600782101562002d65576004821462007c895760ff835460a01c1662007bb18162005c19565b8062007c425750600184015460f81c62007c0d576005821462007bf5575060061462007be7575090620079be945f93926200cceb565b90620079be9593506200cb8f565b969293620079be9695506101a091500135926200c615565b965050509291505062007a2057507f6d39fcd0871e5b20154576c163e4fd8bcb184bce26f8ac32b3569fe3c592b01f5f80a190565b96955096505050505062003c0d5760207fe0860e5ff8578b025fc8a7f42c449c575b7a19600e8d2b3fd6ab0ae6e2e08403916040519062007c838162005c19565b8152a190565b969392915050620079be94935060206060830135920135906200ca6f565b965050505050505090565b9391939290925f9360405162007cc88162006085565b5f81525f60208201528062007cdf5f86866200c843565b1562007ca75750604084013590600782101562002d65576004821462007dd95760ff835460a01c1662007d128162005c19565b8062007d9c5750600184015460f81c62007d49576005821462007bf5575060061462007be7575090620079be94600193926200cceb565b965050509150508162007d7f5750507f6d39fcd0871e5b20154576c163e4fd8bcb184bce26f8ac32b3569fe3c592b01f5f80a190565b600201546316c94c5160e11b825260a81c61ffff16600452602490fd5b945096505050507fe0860e5ff8578b025fc8a7f42c449c575b7a19600e8d2b3fd6ab0ae6e2e084039250602091506040519062007c838162005c19565b969392915050620079be94505f935060206060830135920135906200ca6f565b62007e0481620076b5565b600181019081549060ff8260f01c161562007e7a5760ff600282015460e81c1662007e67579160ff60f01b197fd92eee87539b24ad02a6f03980106354cd078a3eb9c2c4257685215063c61ecd94925f60046020960155169055604051908152a1565b83633534376760e21b5f5260045260245ffd5b50505050565b6001600160a01b031690815f52600e60205260405f205491821562007ea25750565b6303a0e27760e01b5f5260045260245ffd5b9291905f9160ff600286015460f01c166200809f575f62007ed79183876200d272565b90939091156200806d57509062007ff97f30d7a7d613ae4c59a6e10f71f527786ce466f150b4d76b040b2d167ebdee643a93926001870162007fc081546fffffffff0000000000000000000000008760601b169963ffffffff60801b8560801b1691828c73ffffffffffffffff00000000000000000000000019831617179283865560019c848e9560a01c860b958160b01c900b9485870362007ffe575b50505050505062007f9562007f8a436200a421565b9150504390620065f9565b7f0000000000000000000000000000000000000000000000000000000000000000918b0b886201149a565b9063ffffffff8083161663ffffffff19825416179055604051948594859094939260609260808301968352602083015260408201520152565b0390a1565b5460c01c63ffffffff1643101562008018575b8062007f75565b7fffffffffffffffffffff00000000000000000000ffffffffffffffffffffffff91929394955075ffff00000000000000000000000000000000000000009060101c16931617171783555f8080808062008011565b9450507fa8c2945f7db53a36d192551c9b4c3ea4cbc53140f60d0dc8b1a8b58499958cdf9150602090604051908152a1565b507f36f8ddb481e1d66678af53feb8d0fdddc463c11ce08cda4e93ac2065d26634dd92935060209150604051908152a15f90565b929160ff600285015460f01c16620081b7576001620080f49183866200d272565b90929115620081a4579062007ff97f30d7a7d613ae4c59a6e10f71f527786ce466f150b4d76b040b2d167ebdee643a93926001870162007fc081546fffffffff0000000000000000000000008760601b169963ffffffff60801b8560801b1691828c73ffffffffffffffff00000000000000000000000019831617179283865560019c848e9560a01c860b958160b01c900b9485870362007ffe5750505050505062007f9562007f8a436200a421565b5063a8c2945f60e01b5f5260045260245ffd5b507f36f8ddb481e1d66678af53feb8d0fdddc463c11ce08cda4e93ac2065d26634dd919250602090604051908152a15f90565b600354613fff9060d51c16612710810290808204612710149015171562002aac5790565b62008226600354916001600160701b0383166200d949565b906001600160701b03191617600355565b7fffffffffffe0000000000000000000000000ffffffffffffffffffffffffffff62008279600354926c1fffffffffffffffffffffffff8460701c166200d9de565b60701b911617600355565b6002015461ffff8160b81c16151590816200829d575090565b61ffff915060c81c16151590565b906001600160501b03620082c48192828554166200d9de565b16166001600160501b0319825416179055565b8115620082e2570490565b634e487b7160e01b5f52601260045260245ffd5b60035460e35b90613fff911c16612710810290808204612710149015171562002aac5790565b600354620082fc620077b6565b949160a094919796936200834e9160c088019988526020880152604087019062005e90565b606085015260808401521515910152565b9493916200838193918652602086015215156040850152606084019062005e90565b608082015260c060a08201528260c08201527f07ffffffffffffffffffffffffffffffffffffffffffffffffffffffffffffff831162002d655760e09260051b809284830137010190565b9295935f968115620088bd57835f526012850160205260405f209664ffffffffff885460b81c161562008866576200840581876200da5e565b98909160058a101580620039a3578a159a8b15908162008856575b506200884857620039a357815460ff8160401c166002811015620039a357808a91156104a05263ffffffff8360981c169264ffffffffff8160b81c1693620084a560016001600160501b036200847f88858d898960e01c918c620089f3565b9691505060481c1695015460ff808260e81c169160e01c16848885896104a0516200dc0d565b93841562008767575050506104a0515f146200875e578186115b15620086ec575050995f9a5b868c1062008616575b839495969798999a9b5064ffffffffff620084f69293945460b81c16620065f9565b806200857d5750506200855257927faad1caf83451874ebc06a35849e4a295d8bfa856d05d1fbac2876702c7d507439492620085499260ff6200628e9998965460401c166001604051978897886200835f565b0390a16200e100565b9060ff620016149493925460401c16600160405197889763155a395f60e31b8952600489016200835f565b839b5081965084809650600193505f9282968b8b8e9f9e98620085a0996200df4c565b15620085c457505050620085b7929394506200df6c565b6200628e6001926200e100565b620085ff6101049560ff8a5460401c169060405196634b04a99560e01b88526004880152602487015260016044870152606486019062005e90565b60848401528060a484015260c483015260e4820152fd5b620086238c8888620069b6565b3590815f5260128b0160205260405f209164ffffffffff835460b81c1615620086e057825460ff8160401c166002811015620039a357156104a05114620086d3578c88868162008691958f64ffffffffff60019760b81c16898110155f14620086ca575088998a966200dd1c565b15620086bf5790620086a391620065f9565b9a8b15620086b7576001905b019a620084cb565b508a620084d4565b9b60019150620086af565b998a966200dd1c565b50509b60019150620086af565b509b60019150620086af565b9550955050919496505097969395976200873e57917fb83a69585ca162073fd697b3fcff0ddc60c661ba689b5ee1f4eb20a8bf69ca939594939162008738936040519687968762008329565b0390a190565b6040516317074d2b60e31b81529650869562001614956004880162008329565b818610620084bf565b98509850999b9d9c505050959750915050620087ec576040805195865260208601969096526001600160501b03169484019490945263ffffffff909316606083015264ffffffffff909216608082015260a08101919091527f2e92846d5b5d5dd9cf60dd19064afe4a911e6751cdad455cb26a600db66e963c908060c0810162008738565b6200161494959650604051968796632e92846d60e01b8852600488019260a0946001600160501b0363ffffffff9264ffffffffff959a9998949a60c088019b885260208801521660408601521660608401521660808201520152565b509798505050505050505050565b91505060015f9114155f62008420565b939450505092949350620088a7577f6948067a0ba575890268b9a7eaf592a5832287e4402201145ce0768a9d9533fc9160409182519182526020820152a190565b906334a4033d60e11b5f5260045260245260445ffd5b5050939150919350620088fe577f64846a095feab375f007bd15ab65eefdf07957e365b3c7ee4711cd9dbdecabe79160409182519182526020820152a15f90565b906364846a0960e01b5f5260045260245260445ffd5b6104a0525f610460526200892c949392919062014fe3565b6104605190565b5f5f904292600181015463ffffffff8160401c169361ffff8260d01c16925f864211620089de575b15620089c8576002015460f01c60ff16620089c0575063ffffffff8160801c16925f848711620089ab575b620089a4575063ffffffff169485156200899f57600190565b600490565b9560039150565b5082620089b98588620065f9565b1162008986565b929560029150565b505060201c63ffffffff16944294505f92508290565b5083620089ec8742620065f9565b116200895b565b9594939062008a13600188015460ff808260e81c169160e01c166200e134565b9190975f9580431062008b59579062008a3e62008a338b9493836200a1e7565b91909243906200a1e7565b90910362008b48575b50509162008a6a8262008a6362008a7194620f424096620065e5565b95620065e5565b96620065e5565b918281871196875f1462008b305762008a8f92620030b091620065f9565b04905b6002831015620039a357620030b062008ade92620f4240941596875f1462008b29575b1562008b225762008ac69062008d06565b975b5f8612958615620030b057620030b09062008d06565b04911562008b11571562008aff57905b62008afa82846200c6e1565b929190565b62008b0a9062008d06565b9062008aee565b1562008b0a5762008b0a9062008d06565b9762008ac8565b1562008ab5565b620030b09062008b4093620065f9565b049062008a92565b0360050b955062008a6a8262008a47565b61ffff600283015460a81c16635d00a16960e01b5f526004526024524360445260645ffd5b60069062008b91600784068094620065f9565b5f520160205260405f209080155f1462008bb95750549061ffff808360081c169260181c1690565b6001810362008bd65750549061ffff808360281c169260381c1690565b6002810362008bf35750549061ffff808360481c169260581c1690565b6003810362008c105750549061ffff808360681c169260781c1690565b6004810362008c2d5750549061ffff808360881c169260981c1690565b60050362008c4857549061ffff808360a81c169260b81c1690565b549061ffff808360c81c169260d81c1690565b62008226600354916001600160701b0383166200d9de565b9091926001600160a01b036200628e9481604051956323b872dd60e01b602088015216602486015216604484015260648301526064825262008cb7608483620060dd565b6200e23a565b6001600160501b0362008cdb6200628e9382845460501c166200d949565b825469ffffffffffffffffffff60501b1916911660501b69ffffffffffffffffffff60501b16179055565b600160ff1b811462002aac575f0390565b90620f4240820291808305620f4240149015171562002aac57565b81810292915f8212600160ff1b82141662002aac57818405149015171562002aac57565b8115620082e257600160ff1b81145f1983141662002aac570590565b909291925f9362008d83436200a421565b96918762008db59592957f00000000000000000000000000000000000000000000000000000000000000004362007304565b10620092bf5760138601958184528660205260408420549362008dd8876200e341565b9815988980620092b3575b6200920d576002830193845460ff8160f01c16158062009135575b62008e158563ffffffff6009890154168c6200e38f565b620091255762009061575b60981c61ffff1662008e328162008d06565b87908282131562009044575050965b620186a062008e51898b62008d32565b0560050b998d859063ffffffff885460a01c16809111908162009039575b5062008fb6575b937f9c0e05c2bbc786a75afe5fed63ff9274f7c690af8ea4e843e07f2a525295c1049e9c9a98969361ffff96936101009f9d9b9996938c604095019d8e918790600181145f1462008f5257505065ffffffffffff9182916030955b895260205216831b921b1916171791205560018101805461ffff60b01b198760b01b61ffff60b01b169116179055805463ffffffff60c01b1963ffffffff60c01b8c60c01b1691161790555460a81c1696604051978852602088015260408701526060860152608085015260a084015260050b60c08301521560e0820152a1565b6002810362008f7057505065ffffffffffff91829160609562008ed1565b6003810362008f8e57505065ffffffffffff91829160909562008ed1565b90949060041462008fac575b9165ffffffffffff9291839262008ed1565b60c0945062008f9a565b505f198e018e811162009025579386937f9c0e05c2bbc786a75afe5fed63ff9274f7c690af8ea4e843e07f2a525295c1049f9d9b9997936101009f9d9b9996938c6200900960409661ffff9b986200a1e7565b5094989b9d509e9850935093969e509396989a9c9e5062008e76565b634e487b7160e01b86526011600452602486fd5b905015155f62008e6f565b8091999250881262009058575b5062008e41565b97505f62009051565b600185015461ffff63ffffffff8260601c169160c01c16906200908682828d6200e42e565b156200909457505062008e20565b9b509b509b50505094955050505050620090f5576040805160a89590951c61ffff168552602085019190915283015260608201527f2030ce993f9f888e4d2a20dcbf75ead5d3de6742ef5fa8e75a47849a41a4af5790806080810162007ff9565b604051632030ce9960e01b815260a89490941c61ffff166004850152602484015260448301526064820152608490fd5b5050505050505050505050505050565b600186015463ffffffff8160801c169081421162009156575b505062008dfe565b60d01c61ffff1690816200916b8242620065f9565b106200914e579c509e9d50509a50505095505050505050620091da576040805160a89390931c61ffff168352602083019190915242908201526060810192909252907fa8ea47e93f284c6600be84b692d51af848f0cc9115e2c7d7d4048983348f9b2d90806080810162007ff9565b60405163a8ea47e960e01b815260a89290921c61ffff166004830152602482015242604482015260648101839052608490fd5b5094509897965094505050620092785762007ff99061ffff60027fdd8c0c9dcb3ad98da85346fa23e456a8128ec3fc478eaacb4990e450880308cc9697015460a81c1692604051948594859094939260609261ffff6080840197168352602083015260408201520152565b600285015460405163dd8c0c9d60e01b815260a89190911c61ffff166004820152602481019390935260448301919091526064820152608490fd5b50808616151562008de3565b50505050600291909101546040805160a89290921c61ffff168252436020830152810193909352507fe0a0c6a40b4bf56f73bec44f57f213f583e95a0be298411ea97afbe135c07d82919050806060810162007ff9565b90939162009324436200a421565b959196909486620093567f00000000000000000000000000000000000000000000000000000000000000004362007304565b106200976f576013850194885f528560205260405f20549362009379886200e341565b9015998a8062009763575b620096f857600283019384549060ff8260f01c16158062009653575b620093b78263ffffffff6009890154168c6200e38f565b6200912557620095bf575b5060981c61ffff16620093d58162008d06565b869082821315620095a2575050955b620186a0620093f4888a62008d32565b0560050b985f8c63ffffffff875460a01c16809111908162009597575b506200952e575b926101009c9b9997959261ffff95927f9c0e05c2bbc786a75afe5fed63ff9274f7c690af8ea4e843e07f2a525295c1049f9c809b9996019b5f90600181145f14620094ef5750506030925b5f5260205265ffffffffffff808c16831b921b1916171760405f205560018101805461ffff60b01b198760b01b61ffff60b01b169116179055805463ffffffff60c01b1963ffffffff60c01b8c60c01b1691161790555460a81c1696604051978852602088015260408701526060860152608085015260a084015260050b60c08301521560e0820152a1565b60028103620095045750506060925b62009463565b600381036200951857505060909262009463565b90939060031901620094fe5760c0935062009463565b509a99979593909b98969491925f198b01938b851162002aac577f9c0e05c2bbc786a75afe5fed63ff9274f7c690af8ea4e843e07f2a525295c1049d6101009d8a6200957e61ffff98876200a1e7565b509396999b509c9f50929550929597999b9c5062009418565b905015155f62009411565b80919892508712620095b6575b50620093e4565b96505f620095af565b600185015461ffff63ffffffff8260601c169160c01c1691620095e483838d6200e42e565b15620095f2575050620093c2565b999a509a509a509a50505050505050620090f5576040805160a89590951c61ffff168552602085019190915283015260608201527f2030ce993f9f888e4d2a20dcbf75ead5d3de6742ef5fa8e75a47849a41a4af5790806080810162007ff9565b600186015463ffffffff8160801c169081421162009674575b5050620093a0565b60d01c61ffff169081620096898242620065f9565b106200966c579c509e9d50509850995050505050505050620091da576040805160a89390931c61ffff168352602083019190915242908201526060810192909252907fa8ea47e93f284c6600be84b692d51af848f0cc9115e2c7d7d4048983348f9b2d90806080810162007ff9565b9796505098975092505050620092785762007ff99061ffff60027fdd8c0c9dcb3ad98da85346fa23e456a8128ec3fc478eaacb4990e450880308cc9697015460a81c1692604051948594859094939260609261ffff6080840197168352602083015260408201520152565b50818616151562009384565b9450505050919250620097c957600201546040805160a89290921c61ffff1682524360208301528101919091527fe0a0c6a40b4bf56f73bec44f57f213f583e95a0be298411ea97afbe135c07d8290806060810162007ff9565b600261ffff91015460a81c1663382831a960e21b5f526004524360245260445260645ffd5b91905f925f600282019485549061ffff8260a81c1691600185019485549160ff8360f01c1662009ad45760f01c60ff161590818062009a41575b62009a35578363ffffffff60096200984493015416896200e38f565b62009a2a57620098df575b5050825467ffffffff000000001916602085901b63ffffffff60201b16178355507f65ec400f2e8b22c7064f99991d01828c6a55acaa066b3fdba3bf5a491b1a6a4c9291620098b891505b805463ffffffff60401b19164260401b63ffffffff60401b16179055565b92546040805160a89290921c61ffff16825260208201949094526001938190810162007ff9565b63ffffffff8116908115620099a35760c01c61ffff1691620099038383896200e42e565b156200991057506200984f565b91939697509193506200996d577f3988d14888f50c39e6b838927480e13c79fd6c5cfdfb08a1b02febe997a3571e9392916200873891604051948594859094939260609261ffff6080840197168352602083015260408201520152565b6040516307311a2960e31b815261ffff939093166004840152602483019390935260448201929092526064810191909152608490fd5b9550509194955091508062009a0257506040805191825263ffffffff606084811c8216602085015260809490941c16908201527fd253a46959c281f34bbccc6d07b3dd2e08e409e31e7ce4abe6ede8bf372f17a2918190810162008738565b63ffffffff8360649363d253a46960e01b8452600452818160601c1660245260801c16604452fd5b509296505050505050565b50919750505050505050565b5063ffffffff8360801c1661ffff8460d01c16905f9181421162009abd575b8262009a6f575b505062009828565b6040805161ffff8a1681526020810193909352429083015260608201525f95507fa8ea47e93f284c6600be84b692d51af848f0cc9115e2c7d7d4048983348f9b2d90608090a15f8062009a67565b80925062009acc8242620065f9565b119162009a60565b84633e626edf60e01b5f5260045260245ffd5b91905f926002810193845461ffff8160a81c1690600184019384549160ff8360f01c1662009d355760f01c60ff161590818062009cc2575b62009cb657600163ffffffff600962009b3c93015416886200e38f565b62009cac5762009b96575b5050815467ffffffff000000001916602084901b63ffffffff60201b16178255507f65ec400f2e8b22c7064f99991d01828c6a55acaa066b3fdba3bf5a491b1a6a4c9190620098b8906200989a565b63ffffffff811690811562009c255760c01c61ffff169062009bba8282886200e42e565b1562009bc7575062009b47565b9193509194955060016200996d577f3988d14888f50c39e6b838927480e13c79fd6c5cfdfb08a1b02febe997a3571e9392916200873891604051948594859094939260609261ffff6080840197168352602083015260408201520152565b9450509150929350600162009c83576040805191825263ffffffff606084811c8216602085015260809490941c16908201527fd253a46959c281f34bbccc6d07b3dd2e08e409e31e7ce4abe6ede8bf372f17a2918190810162008738565b63ffffffff925063d253a46960e01b5f52600452818160601c1660245260801c1660445260645ffd5b5091955050505050565b505f9750505050505050565b5063ffffffff8360801c1661ffff8460d01c16905f9181421162009d1e575b8262009cef57505062009b1f565b60405163a8ea47e960e01b815261ffff8816600482015260248101929092524260448301526064820152608490fd5b80925062009d2d8242620065f9565b119162009ce1565b83633e626edf60e01b5f5260045260245ffd5b600280541462009d585760028055565b60405162461bcd60e51b815260206004820152601f60248201527f5265656e7472616e637947756172643a207265656e7472616e742063616c6c006044820152606490fd5b906001600160501b03809116911603906001600160501b03821162002aac57565b9190915f9054906001600160501b038083169260501c1680831162009e06575b50808411938462009dee57505050565b632e14f96160e21b5f5260045260245260445260645ffd5b6001600160501b03915062009e1c908362009d9d565b165f62009dde565b9290925f9054936001600160501b038086169560501c1680861162009ece575b50818111938462009e58575b505050909150565b62009eb3576040805191825260208201929092526001600160501b039094169084015290917fb853e5846ad52919c794f709695100094681c458cd1864d5217c6c897b6858b19080606081015b0390a181905f808062009e50565b849250632e14f96160e21b5f5260045260245260445260645ffd5b6001600160501b0391925062009ee5908662009d9d565b16905f62009e44565b600b544311156200a0305761217b430180431162002aac5780600b556103e862009f1e60085460065490620065e5565b0464e8d4a510008111156200a023575b61217b81049182600a5561085f430180431162002aac57600c5561217b830283159084810461217b1482171562002aac5762009f6b9084620065f9565b9361085f81029181830461085f14171562002aac5762009fb162009fd1927fbed1e76d359c53e2dbafd4561fa97daac567d51974f6317c2f583ef17cddaa9d9662007304565b600955604051938493846040919493926060820195825260208201520152565b0390a15b60095480821162009ff1579062009fec91620065f9565b600955565b600a54600b546040516356cb4a3d60e01b81526004810194909452602484019290925260448301526064820152608490fd5b5064e8d4a5100062009f2e565b600c548043116200a043575b5062009fd5565b6200a0616200a0576200a06a9243620065f9565b600a5490620065e5565b60095462007304565b60095543600c555f6200a03c565b906001600160501b03620082c48192828554166200d949565b60405163a9059cbb60e01b60208201526001600160a01b039290921660248301526044808301939093529181526200628e9162008cb7606483620060dd565b9360648202938285046064148315171562002aac57836200a0f191620065e5565b908185106200a14f57836200a10691620065e5565b948585106200a13f57505081116200a12057505050600190565b60648102908082046064149015171562002aac57620079be926200e54d565b909150620079be9492506200e4c7565b505050505090565b94916200a1649162007304565b9060648202938285046064148315171562002aac57836200a0f191620065e5565b9061271081116200a1c0576002909101805470ffff000000000000000000000000000000191660789290921b61ffff60781b16919091179055565b61ffff600283015460a81c16630dbcc17f60e31b5f5260045260245261271060445260645ffd5b9063ffffffff825460a01c1681106200a26d576013916200a20f65ffffffffffff926200e58a565b5f928352949092016020526040902054905f1981016200a235575060301c5b1660050b91565b600281036200a249575060601c5b6200a22e565b600381036200a25c575060901c6200a22e565b6004036200a2435760c01c6200a22e565b50505f905f90565b9190916001831080156200a2ca575b6200a2ac57600201805461ffff60c81b191660c89390931b61ffff60c81b1692909217909155565b82630c8f0a6960e41b5f52600452600160245261271060445260645ffd5b5061271083116200a284565b9061271081116200a1c05790600261ffff6200628e931691019061ffff60881b1961ffff60881b83549260881b169116179055565b9190916001831080156200a342575b6200a2ac57600201805461ffff60b81b191660b89390931b61ffff60b81b1692909217909155565b5061271083116200a31a565b6001821080156200a3b3575b6200a39257600201906effffffffff0000000000000000000082549160501b16906effffffffff000000000000000000001916179055565b50630c8f0a6960e41b5f52600452600160245264ffffffffff60445260645ffd5b5064ffffffffff82116200a35a565b906103e8811080156200a415575b6200a3f65767ffff00000000000082549160301b169067ffff0000000000001916179055565b61ffff9063d24aa9ff60e01b5f526004526103e860245260445260645ffd5b5061ffff81116200a3d0565b6200a42c906200e58a565b92908290600481036200a497575050620079be6200a46d5f937f00000000000000000000000000000000000000000000000000000000000000009062007304565b935b7f00000000000000000000000000000000000000000000000000000000000000009062007304565b620079be919493506200a4aa9062006b58565b926200a46f565b906200a4bd3362007e80565b91825f52600d60205260405f209260ff845460a01c166200a4de8162005c19565b8062003c0d57506200a500826001600160a01b03600554163090339062008c73565b6200a50c8285620082ab565b6006546200a51b838262007304565b906001600160501b0382116200a57b575060065592546040805194855260208501929092526001600160501b031690830152907f84b5adc99a7d46a960b87da6e4882021bab65d63c6d02c9bcfc52f02e710b1e390806060810162007ff9565b8390632242001360e21b5f526004526024526001600160501b0360445260645ffd5b9392815f526012850160205260405f209264ffffffffff845460b81c16156200a7e45760016200a5d0918486896200e6ec565b9596929193949096156200a7d75780159391906200a5f18587858f6200eaf3565b6102a051908088116200a617575b505050505050505050505050906200628e906200e100565b6200a6239088620065f9565b86156200a7c5576200a635916200f55d565b945b816200a7ba575b81156200a7a0575b506200a74c575050856101e0958895600286866200a69d6200628e9e9f9d978e9a61ffff9a7ff288ff71e48024f69c19f117c124c6d0d73466b99bd7d1439c3c2cefdcec42689f6001600160501b039b8e6200f590565b989499939c925096909c016200a6ba8a83835460a81c166200df6c565b5460a81c169b54976040519c8d5260208d01526200a6e260408d0160ff8a60401c1662005e90565b60608c0152151560808b015260a08a015260c089015264ffffffffff8460b81c1660e089015261010088015261012087015261014086015260481c166101608401526101808301526101a082015260016101c0820152a191905f808080808080808080806200a5ff565b88925060c4936200a78f8960ff61ffff8f6002015460a81c16965460401c169060405196630d1d653560e31b885260048801526024870152604486019062005e90565b6064840152608483015260a4820152fd5b9050806200a7b0575b5f6200a646565b508382106200a7a9565b85841191506200a63e565b6200a7d091620082d7565b946200a637565b5050505050505050509050565b8261ffff600288015460a81c166334a4033d60e11b5f5260045260245260445ffd5b949392909192825f526012860160205260405f209364ffffffffff855460b81c16156200a83c57906200a5d0918486896200e6ec565b509193949250506200a89057600201546040805160a89290921c61ffff16825260208201929092527f6948067a0ba575890268b9a7eaf592a5832287e4402201145ce0768a9d9533fc918190810162007ff9565b600261ffff91015460a81c166334a4033d60e11b5f5260045260245260445ffd5b949160e096936200a8da919a999895929a61010088019b88526020880152604087019062005e90565b60608501521515608084015260a083015260c08201520152565b61036052610340526104805261046052610460515f526012610360510160205260405f206101c0528264ffffffffff6101c0515460b81c16156200bfa2576200a94991610460516101c051610360516200e6ec565b6102409895949293969852610260526102a052929094156200bf9b576200a9828562ffffff600361036051015460701c1685846200f820565b9185806200bf8d575b806200bf7f575b80156200bf52575b156200beb757505050506200aa3c9060ff6101c0515460401c166101e0525f610400525f610320526101c051546200a9ed6102a0516001600160501b038360481c1664ffffffffff8460b81c1662011662565b6200a9fb8195929562008d06565b610400526200aa2d60ff8460401c16936102a0519063ffffffff8160981c169060e01c866102605161036051620089f3565b6103a0526102e052906200c6e1565b905f8213156200be605750806200aa576200aadb9262008d06565b6103e0525f61038052620186a06200aaae62ffffff6003610360510154836200aa86838360881c168762008d32565b0561044052836200aa9e60a083901c84168762008d32565b056104205260b81c168362008d32565b056103c081905261044051610420516200aad492916200aace916200c6e1565b6200c6e1565b906200dbf4565b610380526200aaf16103c0516103e0516200c6e1565b6103e0526200ab4a6001600160501b036200ab196104405182610360515460501c16620138d1565b16610360519069ffffffffffffffffffff60501b1969ffffffffffffffffffff60501b83549260501b169116179055565b6200ab586103e051620116d0565b5f6103e051125f146200be4b576200ab78906104605161036051620116e0565b610460515f52600d60205260405f206200ab966104205182620117fb565b610320526003546200abb66001600160701b0361038051908316620138d1565b906001600160701b0319161760035560ff6101c0515460401c16926002841015620039a3576200ac75936200be33576200abf76102a0516103605162011878565b156200be08576200ac30906200ac17610460516011610360510162010133565b600461ffff600261036051015460a81c16910162010283565b6200ac6e600261036051015460ff8160e01c169060ff8160d81c169064ffffffffff8160501c169061ffff64ffffffffff82169160b81c166200a0d0565b9062011935565b610300525f61018052156200bdfc575f610180525b610480515f52600d60205260405f206101a0526001600160501b036101a0515416610480515f526012610360510160205260405f20610220526200acd96102a051610180516102205162013919565b6200ace48162005c19565b806200b51a57506200ad0e5f610300516102a05161026051610180516101a05161036051620139cc565b9192919083156200afdd575b50505b6101a051546001600160501b0316908082108015906200afca576200ad438284620065f9565b915b6001600160ff1b0383116200afb45750156200afa3575b5050600781036200af705750610480515f9081526103605160120160205260409020805460b81c64ffffffffff16156200aee5576080816001600160501b03807ff14b2e916a38315c52d00796f7301d83d24a889ea889ef230a501c9dcb524d20945460481c16916200add36103c05182620118a3565b5460481c166040519161034051835261048051602084015260408301526060820152a15b6200ae0961046051610340516200df6c565b7ff288ff71e48024f69c19f117c124c6d0d73466b99bd7d1439c3c2cefdcec42686101e06101c051546001600160501b03604051916103405183526104605160208401526200ae5d60408401855162005e90565b61026051606084015261024051151560808401526102605160a08401526102a05160c084015264ffffffffff8160b81c1660e08401526102e0516101008401526103a0516101208401526104005161014084015260481c1661016082015261042051610180820152610320516101a08201525f6101c0820152a16200628e610360516200e100565b50610480515f52600d6020527f66c4fd8d726a62e549cbf66bc9a8e005cb6e30b73e027b3d86c4df1388d2b16f60405f206200af476001600160501b03825416916200af3c6103c0516104805161036051620116e0565b6103c05190620117fb565b60408051610480516103405182526020820152908101929092526060820152608090a16200adf7565b6200161490604051918291633e3906a760e21b83526102a05161026051610180516104805161034051600488016200f8c6565b6200afae9062008d06565b6200ad5c565b8363e69a04b360e01b5f5260045260245260445ffd5b6200afd68383620065f9565b916200ad45565b909192506200afef6101805162005c19565b610180516200b511575f915b61ffff600261036051015460a81c165f60c06040516200b01b816200602d565b8281528260208201528260408201528260608201528260808201528260a082015201526001600160501b0383116200b4f35764ffffffffff6102a051116200b4d457604051906200b06c826200602d565b5f82525f60208301526200b084856040840162006d18565b6001600160501b038416606083015263ffffffff6102605116608083015264ffffffffff6102a0511660a083015263ffffffff431660c0830152610480515f526012610360510160205264ffffffffff60405f205460b81c166200b4bb5750610360516011015460201c63ffffffff16806200b49157506200b11061048051601161036051016201288e565b610480515f526012610360510160205260405f2063ffffffff808351161663ffffffff198254161781556200b16a63ffffffff602084015116829063ffffffff60201b82549160201b169063ffffffff60201b1916179055565b6040820151916002831015620039a35760c063ffffffff916200b1926200b263958562014873565b6060810151845472ffffffffffffffffffff000000000000000000191660489190911b72ffffffffffffffffffff000000000000000000161784556080810151845463ffffffff60981b191690841660981b63ffffffff60981b1617845560a0810151845464ffffffffff60b81b191660b89190911b64ffffffffff60b81b16178455015182547bffffffffffffffffffffffffffffffffffffffffffffffffffffffff16911660e01b7fffffffff0000000000000000000000000000000000000000000000000000000016179055565b6200b2786104805160116103605101620128cc565b6101a051610360516002015460a81c61ffff16919060040160fc83116200b3cb5760016200b312931b81541790555b6200b2c16200b2b7828562007304565b6101a0516200a078565b6200b2d08361036051620082ab565b6200b3086200b3026200b2fa6200b2f48462ffffff610360515460e01c16620065e5565b6200f52f565b8093620065f9565b62008c5b565b610360516200c4e0565b6002821015620039a3577f15186d79b32cb4800a4d85134007523ec20911a37b484eb263da5831cc191e8e9160e091816200b3b3576200b3596102a05161036051620148c2565b6200b38761ffff600261036051015460a81c1692604051938452610480516020850152604084019062005e90565b61030051606083015260808201526102605160a08201526102a05160c0820152a16007905f806200ad1a565b6200b3c56102a05161036051620148a1565b6200b359565b6101fc83116200b4075760fb19830192831162002aac576200b31292600160056101a05101911b8154179055600160fd1b81541790556200b2a7565b6102fc83116200b444576101fb19830192831162002aac576200b31292600160066101a05101911b8154179055600160fe1b81541790556200b2a7565b6103fc8311156200b45d575b506200b31291506200b2a7565b6102fb19830192831162002aac576200b31292600160066101a05101911b8154179055600160ff1b81541790555f6200b450565b8060208301525f52601261036051016020526200b4b56104805160405f206201288e565b6200b110565b633f1ed2e160e21b5f526004526104805160245260445ffd5b6395d41f3f60e01b5f526102a05160045264ffffffffff60245260445ffd5b826395d41f3f60e01b5f526004526001600160501b0360245260445ffd5b6001916200affb565b6200b5258162005c19565b600181036200b8cd57506200b5525f610300516102a051610260516101a051610220516103605162013f52565b6102c0919091526102808590529190600a85036200b5d95761ffff600261036051015460a81c16610360515490620016146200b5916102c051620116d0565b60405163063c641b60e41b815261ffff90931660048401526001600160501b03808516602485015260509490941c909316604483015260648201929092529081906084820190565b61028051156200b5ef575b50505050906200ad1d565b6200b601919294506101a051620117fb565b506200b6106102c051620116d0565b5f6102c051125f146200b8b8576200b630906104805161036051620116e0565b6200b6606200b6506200b2f48562ffffff610360515460e01c16620065e5565b6200b3086200b3028287620065f9565b6200b67d6102205154916001600160501b038360481c166200c6e1565b5f81126200b8a957600260ff8360401c161015620039a3577f7026918e3bf251d8904050f685ad390b1075bff141e27c077fb2e86f194438e391610120916200b6da600161036051015460ff808260e81c169160e01c166200e134565b6200b6ef8263ffffffff8660981c16620065e5565b6200b7058264ffffffffff8760b81c16620065e5565b6200b7236200b7188561026051620065e5565b936102a051620065e5565b906200b730828262007304565b9260ff8860401c16155f146200b88857620013d8926200b75a6200b7619693620030b693620065e5565b92620065e5565b905b60ff8460401c16155f146200b877576200b77d916200f55d565b60ff8360401c16155f146200b85f576200b79e6102a05161036051620148c2565b64ffffffffff610220515460b81c16906200b7bd6102a0518362007304565b926200b7f061ffff600261036051015460a81c16858484439360ff8b60401c169061048051906011610360510162014d06565b6001600160501b0361ffff600261036051015460a81c16956040519687526104805160208801526200b82c6040880160ff8360401c1662005e90565b61030051606088015260481c16608086015260a085015260c084015260e0830152610100820152a16007915f806200b5e4565b6200b8716102a05161036051620148a1565b6200b79e565b6200b88291620082d7565b6200b77d565b6200098c926200b75a6200b8a29693620030b693620065e5565b906200b763565b63b42b26c760e01b5f5260045ffd5b6200b8c79061036051620082ab565b6200b630565b6003906200b8db8162005c19565b036200bb5f576200b9045f610300516102a051610260516101a051610220516103605162013dad565b610200939093529293929087600a81036200b9405761ffff600261036051015460a81c16610360515490620016146200b59161020051620116d0565b156200b955575b50505050505050906200ad1d565b6200b9979192939497506200b96d61020051620116d0565b5f61020051125f146200bb4a576200b98d906104805161036051620116e0565b6101a051620117fb565b506200b9c86200b9b86200b2f48862ffffff610360515460e01c16620065e5565b6200b3086200b302828a620065f9565b61022051549160ff8360401c16916002831015620039a3577f6f5d98efdac4a6966f0e3b214c333ce1ea22cc1e13f5c56cb46bddbfc890b38e9461016094846200bb1c57506200ba2a64ffffffffff610220515460b81c166103605162011878565b6200ba398161036051620148a1565b64ffffffffff61022051546200ba7f61ffff600261036051015460a81c1687155f146200bb1357846001915b8d4393610260519261048051906011610360510162014d06565b610360516002015460a81c61ffff16956200bb08576200bab560015b604051978852610480516020890152604088019062005e90565b6103005160608701526001600160501b038160481c1660808701528960a08701526102605160c087015260b81c1660e0850152610100840152610120830152610140820152a16007925f8080806200b947565b6200bab55f6200ba9b565b845f916200ba65565b64ffffffffff6200bb359160b81c166103605162011832565b6200bb448161036051620148c2565b6200ba39565b6200bb599061036051620082ab565b6200b98d565b6200bb7d610300516102a05161026051610220516103605162013cb6565b610160949094526101408690529390600a86036200bbeb57610360516002810154905460405163063c641b60e41b81526101605160a89390931c61ffff1660048201526001600160501b03808316602483015260509290921c90911660448201526064810191909152608490fd5b61014051156200bc07575b50505050506101605150906200ad1d565b90919294506200bc22610160516104805161036051620116e0565b6200bc34610160516101a051620082ab565b60ff610220515460401c16916002831015620039a357826200bde4576200bc626102a0516103605162011878565b85156200bd1457509060c0917f599b5f439ed4daf1f28ae8638e5439d3982e8001fb26dd8f70021b38672eb26f936200bca5610480516011610360510162010133565b6200bcc561ffff600261036051015460a81c1660046101a0510162010283565b6200bcf361ffff600261036051015460a81c1693604051948552610480516020860152604085019062005e90565b610260516060840152608083015260a0820152a15b6007915f80806200bbf6565b907fcd4a9f7ae1cc250eaa0be6bdb30d07efaf0faafb4ff0e76d8fe09a8373e43f859364ffffffffff610120946200bd5561022051549561022051620138b3565b6200bd676102a05161022051620118f8565b8161ffff600261036051015460a81c16956200bd9c6102205154936040519889526104805160208a0152604089019062005e90565b6001600160501b038160481c1660608801526001600160501b038360481c16608088015260b81c1660a086015260b81c1660c084015260e0830152610100820152a16200bd08565b6200bdf66102a0516103605162011832565b6200bc62565b6001610180526200ac8a565b506200be1b610400516101c051620118a3565b6200be2d6102a0516101c051620118f8565b6200ac30565b6200be456102a0516103605162011832565b6200abf7565b6200be5a9061036051620082ab565b6200ab78565b60c4916200be9e61ffff600261036051015460a81c169260405193630c62a44b60e11b85526004850152610460516024850152604484019062005e90565b6102a051606483015261026051608483015260a4820152fd5b919350919493506200bf155762007ff97f26f4d1afbedf86de15aae3a8119d531a83d8503be3af4cd39c1bd8407eb45c91939460ff6101c0515460401c1692604051948594610240519061026051906104605161034051896200a8b1565b620016148460ff6101c0515460401c16926040519485946326f4d1af60e01b865261024051906102605190610460516103405160048a016200a8b1565b508515806200bf71575b80156200a99a5750836102605111156200a99a565b50610260518311156200bf5c565b50826102605111156200a992565b50610260518411156200a98b565b5050505050565b5050506200bfe1577f6948067a0ba575890268b9a7eaf592a5832287e4402201145ce0768a9d9533fc60408051610340518152610460516020820152a1565b6334a4033d60e11b5f52610340516004526104605160245260445ffd5b905f9180151590816200c031575b81156200c022575b506200c01c57565b60019150565b63ffffffff9150115f6200c014565b43811091506200c00c565b61ffff60808201511690811580156200c05457505050565b612710830292830461271014171562002aac5760035460701c6c1fffffffffffffffffffffffff16908183116200c097575050806200b3026200628e926200f8f9565b9160809161ffff60e07f5d8e434afef436d0cbafab1ae9386b8f70c885ee513868335f9474f61202d3469501511691604051925f8452602084015260408301526060820152a1565b61ffff16801562002aac575f190190565b929091925f84156200c47f5761ffff908186166303ff00008660101b16179460028401865f528060205260405f209283549863ffffffff8a16156200c45957506200c14160ff8a60601c166200f93b565b925f9063ffffffff885460b01c168a145f146200c424576200c16e63ffffffff875460201c16896200f963565b63ffffffff865460201c16806200c405575b505b875460d01c63ffffffff168a036200c3c9576200c1aa63ffffffff875460401c16896200f9eb565b63ffffffff865460401c16806200c3aa575b505b6003880191815f528260205260405f20968b88548163ffffffff8216148080916200c397575b156200c30d5750505050505f526020525f60408120556001925b156200c2d957506200c2236001600160501b036200628e97989960901c16866200fac5565b975b5f526020525f6040812055156200c297575b50506200c248815460f01c6200c0df565b81547dffffffffffffffffffffffffffffffffffffffffffffffffffffffffffff1660f09190911b7fffff00000000000000000000000000000000000000000000000000000000000016179055565b6200c2ac6200c2d192825460401c166200c0df565b69ffff000000000000000082549160401b169069ffff00000000000000001916179055565b5f806200c237565b97966200628e969783156200c2f0575b506200c225565b64ffffffffff6200c3069160681c16856200fa78565b5f6200c2e9565b9398955091935091156200c3635750505460201c63ffffffff166303fcffff8082116200c34d575063ffffffff1663ffffffff198654161785556200c1fe565b906395d41f3f60e01b5f5260045260245260445ffd5b60201c63ffffffff16146200c37a575b506200c1fe565b63ffffffff6200c390915460401c16866200fa48565b5f6200c373565b508263ffffffff8360201c16146200c1e4565b5f528360205260405f2063ffffffff60201b1981541690555f6200c1bc565b8554602081811c63ffffffff165f9081529086905260409020805463ffffffff60401b191663ffffffff60401b9092169190911790556200c1be565b5f528360205260405f2063ffffffff60401b1981541690555f6200c180565b60408b811c63ffffffff165f908152602086905220805467ffffffff00000000191663ffffffff60201b8d161790556200c182565b839063ffffffff60018901541691638d5bba0f60e01b5f5260045260245260445260645ffd5b8363ffffffff600184015416906369bc91ef60e11b5f5260045260245260445ffd5b6200628e915f526007810160205261ffff60405f206200c4d46200c4cc60ff835460201c166200c817565b82856200fb10565b5460a81c16906201007c565b6001600160501b0362008cdb6200628e9382845460501c166200d9de565b929061ffff600285015460a81c16936200c51b6001848462009e24565b6200bf9b57835f526012810160205260405f209064ffffffffff825460b81c16156200c5fe57916001600160501b038085936200c58a8560a099976200c5847f577ed0a8f65f2feb5a407660b0a3009c2ee155a17d0e34947c58ecdd6c8b37719c9a886200a078565b620082ab565b6200c5d8826200c5a18782855460481c166200d9de565b835472ffffffffffffffffffff0000000000000000001916911660481b72ffffffffffffffffffff00000000000000000016178255565b5460481c16915416926040519485526020850152604084015260608301526080820152a1565b84866334a4033d60e11b5f5260045260245260445ffd5b9392919261ffff600286015460a81c16946200c63382858562009e24565b6200c6d957845f526012810160205260405f209164ffffffffff835460b81c16156200c69d5750916001600160501b038085936200c58a8560a099976200c5847f577ed0a8f65f2feb5a407660b0a3009c2ee155a17d0e34947c58ecdd6c8b37719c9a886200a078565b9350505050620088a7577f6948067a0ba575890268b9a7eaf592a5832287e4402201145ce0768a9d9533fc9160409182519182526020820152a1565b505050505050565b9190915f838201938412911290801582169115161762002aac57565b908060081c9060ff8116806200c7e7575b5060101c9060ff8116806200c785575b5050806200c72e575b50505f1990565b6200c73b9082546201038f565b60018101156200c72757806002915f52600183016020526200c76160405f2054620103b5565b9060081b1791825f52016020526200c77d60405f2054620103b5565b9060081b1790565b6200c79f90835f526001850160205260405f20546201038f565b9060018201156200c71e57600292507effffffffffffffffffffffffffffffffffffffffffffffffffffffffffff00161791825f52016020526200c77d60405f2054620103b5565b6200c80190835f526002850160205260405f20546201038f565b60018101156200c70e579250905060ff19161790565b6200c8228162005c19565b80159081156200c830575090565b600391506200c83f8162005c19565b1490565b91905f92610180820135801515806200ca65575b6200ca1b57506040820135600781101562002d6557600681036200c91d57506200c886836060840135620105b4565b6200c91757826080830135806200c8f3575b50905060a0820135806200c8d5575b505060c0013590816200c8bd575b505050600190565b6200c8c8916201054e565b620079be5780806200c8b5565b906200c8e191620104c8565b6200c8ee57815f6200c8a7565b505090565b63ffffffff60096200c90994015416906200e38f565b6200c8ee575f82816200c898565b50505090565b919291600581036200c979575050906101a00135156200c93e575050600190565b6200c96a577f1fccd51f56ecc3a71d5e32721dbf2bb0690bf050c6147a84fd5f83717d8c5d225f80a190565b631fccd51f60e01b5f5260045ffd5b6004036200c99c575060606200c991920135620105b4565b620079be5750600190565b8163ffffffff60096200c9b79301541660808501356200e38f565b6200c8ee576200c9cc8160a0840135620104c8565b6200c8ee576200c9e0610100830162006385565b15806200ca04575b6200c9f557505050600190565b60c06200c8c89201356201054e565b506200ca14610120830162006385565b156200c9e8565b935050506200ca535760207f9f38a7d29e6c9e707bfe5fee47b29748083dc31546de0135d48ed99db5e190f091604051908152a15f90565b634f9c53e960e11b5f5260045260245ffd5b504381106200c857565b91909293815f526010830160205260405f209363ffffffff855416156200cb3c57906200caa791868463ffffffff8854169262010621565b156200cab35750505050565b836200cb216200caf17fe9805f82cb3729e97b234bb6bb4f90ea971e2c274201ff71818ebde153e1b0a6966200caeb606097620070ae565b6201068c565b9390925f52600d60205260096200cb198260405f2061ffff60028a015460a81c16906200c0f0565b95016200c4a1565b60405192835260208301526040820152a15f80808062007e7a565b9450915091506200cb79577f69b92a906c4fe940cd3de572076c4a5181ddced80218575cc4959b1d8f6a6e3f9160409182519182526020820152a1565b9063069b92a960e41b5f5260045260245260445ffd5b94929093916040516200cba28162006085565b5f81525f6020820152809561ffff600289015460a81c1697606084013598895f526010820160205260405f209363ffffffff855416156200cca8575083546200cbf58863ffffffff8316898e8662010621565b6200cc9b5760ff6200cc0b9160201c166201077d565b6200cc23575b506200cc209697985062010798565b50565b866200cc80576200cc209798997fe03d6e5b9ada2bee571a0faed84b4da12ba5afc5c10f1c29d8fbbb6dcd7519d8916200cc7488604051938493846040919493926060820195825260208201520152565b0390a18897966200cc11565b89869163e03d6e5b60e01b5f5260045260245260445260645ffd5b5050505050505050915090565b98509698959450505050506200cb79577f69b92a906c4fe940cd3de572076c4a5181ddced80218575cc4959b1d8f6a6e3f9160409182519182526020820152a190565b9493919290604051936200ccff8562006085565b5f85525f602086015284604082013595600787101562002d65576200cd248762005c19565b60a0830135916200cd35886201077d565b6200cf2e575b5061012083016200cd4c8162006385565b80156200cf18575b6200ce4757506200cd65876201077d565b6200ce28575b506040516200cd7a8162006085565b5f81525f602082015297600981019163ffffffff835416966200cda360808601359889620065f9565b9682986200cdb460e0880162006385565b156200cdff575b505050866200cdd1575b50505050505050505090565b6200cde59950886200cdf4575b506201387d565b5f80808080808080806200cdc5565b861497505f6200cdde565b6200ce1e939950610140870135908a610160890135918d8b8962012c48565b955f80806200cdbb565b6200ce368883868c62010fc2565b6200cd6b5797505050505050505090565b958398506200ce7991999495839885610100956101406200ce81980135926080610160840135930135908b8b62012c48565b960162006385565b806200cf0e575b6200cee85750506200ce9a9062006385565b806200cede575b6200ceab57505090565b7f59468f520017226c0116472def96f905dbeff518444091b355de591a2161cdbe9160409182519182526020820152a190565b508115156200cea1565b9061ffff60028693015460a81c1663578f7fed60e01b5f5260045260245260445260645ffd5b508415156200ce88565b506200cf28610100850162006385565b6200cd54565b845f5260128a0160205260405f209064ffffffffff825460b81c161515806200d053575b6200cfc457505460b81c64ffffffffff16808311156200cd3b57979550975094505050506200cfae577f604559a5e01ca154dad1c02a9ef408530f8fa41f3506e6a57f7d2ac727e148229160409182519182526020820152a190565b9063604559a560e01b5f5260045260245260445ffd5b99509697955050505050506200d022577f189a4ff828fb1a93c81a2248c39ac499b67bf632ade3d5f89935821e8d1ec9989160ff60409254831c16906200d00e8351809362005e90565b6200d0198162005c19565b6020820152a190565b5463031349ff60e31b5f5260401c60ff166002811015620039a3576004526200d04b8162005c19565b60245260445ffd5b506200d0678960ff845460401c1662010fa2565b6200cf52565b81601f8201121562002d65578051906200d0878262006100565b926200d0976040519485620060dd565b8284526020838301011162002d6557815f9260208093018386015e8301015290565b51906001600160a01b038216820362002d6557565b919082604091031262002d65576040516200d0e98162006085565b60208082946200d0f9816200d0b9565b84520151910152565b9081602091031262002d655751801515810362002d655790565b9060208282031262002d6557815167ffffffffffffffff811162002d6557620079be92016200d06d565b90916200d160620079be9360408452604084019062005bf5565b91602081840391015262005bf5565b519063ffffffff8216820362002d6557565b519077ffffffffffffffffffffffffffffffffffffffffffffffff8216820362002d6557565b51908160170b820362002d6557565b908161012091031262002d65576200d269610100604051926200d1d9846200600f565b805184526200d1eb602082016200d16f565b60208501526200d1fe604082016200d16f565b60408501526200d211606082016200d181565b60608501526200d224608082016200d181565b60808501526200d23760a082016200d16f565b60a08501526200d24a60c082016200d1a7565b60c08501526200d25d60e082016200d1a7565b60e0850152016200d1a7565b61010082015290565b91905f905f5f93805181016080826020830192031262002d655780603f8301121562002d65576040516060810181811067ffffffffffffffff82111762002bb957604052608083019082821162002d655760208401905b8282106200d938575050519067ffffffffffffffff821162002d655760206200d2f5928401016200d06d565b8051156200662b5761ff0080602083015160f01c16168151600110156200662b57602182015160f81c17600381036200d8dc5750600460206001600160a01b03825416604051928380926338416b5b60e01b82525afa80156200d712575f906200d88c575b6001600160a01b0316905080156200d8715760405163ea4b861b60e01b815290602082600481845afa9182156200d712575f926200d81f575b5060a06200d3ce6001600160a01b039394604051948592839263701ed58d60e11b845230600485015260606024850152606484019062005bf5565b96169586604483015203815f855af19182156200d712575f926200d7c5575b50602060049160405192838092633aa5ac0760e01b82525afa9081156200d712575f916200d778575b5060209182015160405163095ea7b360e01b81526001600160a01b0390921660048301526024820152908180604481015b03815f865af180156200d712576200d744575b50604051906020820152602081526200d475604082620060dd565b87156200d71d575f906200d4ae926001600160a01b03600454169083604051809681958294637bf41d7760e11b8452600484016200d146565b03925af19081156200d712575f916200d6eb575b50905b8151946200d4dc602080850197850101876200d1b6565b516006880154908181036200d67f57505063ffffffff60406200d50660208651870101896200d1b6565b0151169560018801549363ffffffff8560801c16808911156200d608575060c0916020826200d53993510101906200d1b6565b0151938460170b5f81126200d5ad57505050506200d59b9177ffffffffffffffffffffffffffffffffffffffffffffffff6200d57f60ff6200d5879460e01c1662011415565b9116620082d7565b9463ffffffff60098596015416866200e38f565b6200d5a7575050600192565b93909150565b94509495509691509694506200d5f2577f4d8c851d919cf102ec02f76a35ca2f0b9e8ca3e9cd36ecc7128c03c7048e247a9160409182519182526020820152a1929190565b90634d8c851d60e01b5f5260045260245260445ffd5b96979450505096909795506200d665576040805192835263ffffffff93841660208401529216918101919091527fac23cd4bf85c84f3aa74c4752cbc1abc6ca3871a6e6b676f56bd64f992b700ae9080606081015b0390a1929190565b925063ac23cd4b60e01b5f5260045260245260445260645ffd5b935094955096909795506200d6d157604080519283526020830193909352918101919091527fe9ab5ccfbd8b803e0bd519630f62d1a32b22e517a5bfcd78e8c860b36c98386b9080606081016200d65d565b925063e9ab5ccf60e01b5f5260045260245260445260645ffd5b6200d70b91503d805f833e6200d7028183620060dd565b8101906200d11c565b5f6200d4c2565b6040513d5f823e3d90fd5b6200d729918462011262565b90156200d73757906200d4c5565b5095935050909250929190565b6200d76a9060203d6020116200d770575b6200d7618183620060dd565b8101906200d102565b6200d45a565b503d6200d755565b90506020813d6020116200d7bc575b816200d79660209383620060dd565b8101031262002d65576200d4479160206200d7b281936200d0b9565b925050916200d416565b3d91506200d787565b90915060a03d60a0116200d817575b6200d7e08183620060dd565b810160a08282031262002d6557816200d80d8260406200d8056020956004976200d0ce565b93016200d0ce565b509291506200d3ed565b503d6200d7d4565b91506020823d6020116200d868575b816200d83d60209383620060dd565b8101031262002d655760a06200d3ce6200d85f6001600160a01b03946200d0b9565b9350506200d393565b3d91506200d82e565b50506040516200d883602082620060dd565b5f81526200d475565b506020813d6020116200d8d3575b816200d8a960209383620060dd565b8101031262002d6557516001600160a01b038116810362002d65576001600160a01b03906200d35a565b3d91506200d89a565b9650505050939150506200d922577f09c9ec7d8ebb7546d7aa7fae159f14736cab80420326900e4b1ce60942f331d89160409182519182526020820152a15f905f905f90565b906309c9ec7d60e01b5f5260045260245260445ffd5b81518152602091820191016200d2c9565b91908281116200d98a57808303926001600160501b0384116200d96a575050565b63733cc1d960e11b5f526004526024526001600160501b0360445260645ffd5b9050637509da4360e11b5f5260045260245260445ffd5b91908281116200d98a578083039264ffffffffff84116200d9c0575050565b63733cc1d960e11b5f5260045260245264ffffffffff60445260645ffd5b91906200d9ec818462007304565b926001600160501b0384116200da00575050565b632242001360e21b5f526004526024526001600160501b0360445260645ffd5b91906200da2e818462007304565b9264ffffffffff84116200da40575050565b632242001360e21b5f5260045260245264ffffffffff60445260645ffd5b916200da6a8362008933565b9790929496889492949798600581101580620039a3576002821480156200dbe7575b156200db385750506200daf657600201546040805160a89290921c61ffff168252602082019590955293840192909252606083019190915260808201527f462f6162298dca9e5d41e18bce420c615636b3469c2581b67264561d926944f8908060a0810162007ff9565b60020154604051632317b0b160e11b815260a89190911c61ffff166004820152602481019490945260448401929092526064830191909152608482015260a490fd5b9350935093509350620039a3576004146200db51575050565b6200dbad57606081600161ffff60027f4253b255779a38a9226931f0ad5a5358185b8d6adbe1dac7c22757e096712b8495015460a81c1691015460405191825263ffffffff81841c16602083015260a01c60010b6040820152a1565b600161ffff600283015460a81c1691015490634253b25560e01b5f5260045263ffffffff8160601c1660245260a01c60010b60445260645ffd5b50505f600382146200da8c565b81810392915f13801582851316918412161762002aac57565b9495916200dc276200b75a6200dc2e93959694896200e134565b94620065e5565b9081156200dcca576200dc556200dc5b916200dc4f6200dc61955f6200dbf4565b6200dbf4565b62008d17565b62008d56565b82156200dcb8576200dc73916200c6e1565b915b5f83126200dcb1576006036006811162002aac576200dc94906200739d565b90156200dca657620079be916200f55d565b620079be91620082d7565b5050505f90565b6200dcc3916200dbf4565b916200dc75565b5050505050505f90565b95969262008a636200b75a6200dcf09394959796978a6200e134565b9182156200dd11576200dc61936200dc4f6200dc55926200dc5b946200dbf4565b505050505050505f90565b979294939195979690966104e0526200dd3c5f828a8a6104e05162011547565b909398949c916104c0529291979b806200def457508a5493895f52600d60205260405f20966200dd718a8c6104e051620116e0565b6200dd7d8a89620082ab565b60ff8d5460401c169860028a1015620039a3576001600160501b037fd703c4a5a6df297a33d23db6017052526cadd6a581a903e554fc97dcd35a0ea39f9e6102009f64ffffffffff9c9a8f918e9c155f146200dedf576200dde2826104e05162011878565b156200debd57506200ddfb9060116104e0510162010133565b6200de1861ffff60026104e051015460a81c1660048d0162010283565b549954169b60206040519e8f9081520152151560408d01526200de4560608d0160ff8860401c1662005e90565b63ffffffff8660981c1660808d015260a08c0152151560c08b015260e08a01526101008901526101208801526001600160501b038160481c166101408801526001600160501b038360481c1661016088015260b81c1661018086015260b81c166101a08401526101c08301526101e0820152a1600190565b6200ded991506200ded26104c05184620138b3565b82620118f8565b6200de18565b6200deee826104e05162011832565b6200dde2565b9850505050505050509250600a919350146200df105750505f90565b608492506001600160501b036104e051546040519363063c641b60e41b85526004850152818116602485015260501c1660448301526064820152fd5b976200dd3c919899949396999792976104e052828a8a6104e05162011547565b90805f52600d60205260405f2092825f526003840160205260405f20549061ffff8260401c1680156200e0f8579394936200dfa78162006675565b936200dfb76040519586620060dd565b818552601f196200dfc88362006675565b0136602087013760028601965f9463ffffffff165b801515806200e0ee575b156200e0265761ffff956200e00b6200e0008262006b58565b97831691896200670d565b525f528760205263ffffffff60405f205460201c166200dfdd565b50935093919550936200e03983620076b5565b600981019260105f9201915b8781106200e057575050505050505050565b807fb52688454dfd5028443d05c10bc78a9ca263b7c7645d2e8bfef428d0e8b3b0476200e087600193856200670d565b51805f52856020526200e0a1620012c260405f20620070ae565b6200e0ae818a896200c0f0565b906200e0bb818a6200c4a1565b6200e0e46040519283928d8d859094939260609260808301968352602083015260408201520152565b0390a1016200e045565b508386106200dfe7565b509350505050565b6002015464ffffffffff8082169160281c16908181036200e11f575050565b6395626a2760e01b5f5260045260245260445ffd5b90915f5f9280155f146200e1bb575050620f4240925b806200e1595750620f42409150565b600181036200e16b5750620186a09150565b600281036200e17c57506127109150565b600381036200e18d57506103e89150565b600481036200e19d575060649150565b600581036200e1ad5750600a9150565b6006036200628e5760019150565b600181036200e1d2575050620186a0925b6200e14a565b600281036200e1e7575050612710926200e14a565b600381036200e1fc5750506103e8926200e14a565b600481036200e2105750506064926200e14a565b600581036200e224575050600a926200e14a565b909390600519016200e1cc57600193506200e14a565b906001600160a01b036200e2a192165f80604051936200e25c604086620060dd565b602085527f5361666545524332303a206c6f772d6c6576656c2063616c6c206661696c6564602086015260208151910182855af16200e29a6201122e565b91620146a6565b80519081159182156200e324575b5050156200e2b957565b60405162461bcd60e51b815260206004820152602a60248201527f5361666545524332303a204552433230206f7065726174696f6e20646964206e60448201527f6f742073756363656564000000000000000000000000000000000000000000006064820152608490fd5b6200e33992506020809183010191016200d102565b5f806200e2af565b600181036200e3535750600160f11b90565b600281036200e3655750600160f21b90565b600381036200e3775750600160f31b90565b6004036200e38757600160f41b90565b600160f01b90565b92919281600101918260011162002aac5762ffffff01908162ffffff1162002aac578083119485156200e423575b856200e3c95750505050565b6200e40957507f9c6cd57b23ccacf841857c1eb7892bef39f27d0c1197bb0bf7646c90dc7fb8709160409182519182526020820152a15f80808062007e7a565b8290630caa980960e21b5f5260045260245260445260645ffd5b82821195506200e3bd565b8115929183806200e4a2575b156200e4495750505050600190565b5f925f941592836200e45e575b505050501090565b9193509193508281115f146200e49557620186a08382035b0293156200e48c5750025b905f8080806200e456565b9150026200e481565b620186a08184036200e476565b5081156200e43a565b156200e4b357565b634e487b7160e01b5f52600160045260245ffd5b926200aace906200dc5b6200e4fc946200e4f587956200e4ee816200e4ee8960646200dbf4565b946200dbf4565b9062008d32565b8160648293125f146200e529571315806200e51d575b620079be906200e4ab565b5060648113156200e512565b620079be916064131590816200e541575b506200e4ab565b90508213155f6200e53a565b6200e574926200dc5b6064936200e4f56200aace946200e4ee816200e4ee8960016200dbf4565b8060011315806200e51d57620079be906200e4ab565b7f00000000000000000000000000000000000000000000000000000000000000008015620082e2576200e5c19082068092620065f9565b915f5f927f000000000000000000000000000000000000000000000000000000000000000090818110156200e600575b5050620079be90928462007304565b915080935060011b906001600160ff1b038416840362002aac57818110156200e634575050620079be60015b905f6200e5f1565b9092806003029160038304820362002aac57828110156200e65e57505050620079be60026200e62c565b908092945060021b917f3fffffffffffffffffffffffffffffffffffffffffffffffffffffffffffffff81160362002aac578111156200e6a55750620079be60036200e62c565b9150620079be60046200e62c565b926200e6dc9060a095929897969361ffff60c087019a1686526020860152604085019062005e90565b6060830152151560808201520152565b9054935f939091849160b887901c64ffffffffff168111156200eaec575064ffffffffff8660b81c16915b829660018301546200e74f6200e73e6200284860ff8460e81c1660ff8560e01c1662007304565b8663ffffffff8560981c1662011612565b6200e76860028601549161ffff8360c81c169062011642565b986200e77588876200da5e565b9990809860058c10159182620039a3578c1515806200eadd575b6200eac0575050620039a3576200e7c28c8b159863ffffffff8860981c16908860e01c908c60ff8b60401c1691620089f3565b959150506200e7e98d6001600160501b038860481c1664ffffffffff8960b81c1662011662565b939050600260ff8860401c161015620039a3578d9c8760401c60ff16159e8f91888560e81c60ff16928660e01c60ff1692898d60981c63ffffffff16916200e831976200dcd4565b9b8c156200e9f957508d806200e9ef575b80156200e9db575b6200e9515750808d868e60ff806200e8789660e81c169460e01c16928763ffffffff8c60981c16916200dc0d565b9889156200e88c5750505050505050600196565b9c969798999a9b9c6200e905576040805160a89490941c61ffff168452602084019190915282015260989290921c63ffffffff1660608301526080820189905260a08201527f2e92846d5b5d5dd9cf60dd19064afe4a911e6751cdad455cb26a600db66e963c908060c081015b0390a196959493929190565b604051632e92846d60e01b815260a89390931c61ffff1660048401526024830152604482015260989290921c63ffffffff1660648301526084820189905260a48201528060c481010390fd5b9a9b9c9d9798999250509192506200e9a957916200e8f989878960ff957f1ae2d36bf92917b7a1d46b202b08d846857974213d6d8801cfb7ce7112a727fa9761ffff60405198899860401c169260a81c16876200e6b3565b88868860ff9594620016149461ffff604051988998631ae2d36b60e01b8a5260401c169260a81c16600488016200e6b3565b508d1580156200e84a57508b8a106200e84a565b508b8a116200e842565b999a91509a9b9c9d97506200ea74576040805160a89490941c61ffff168452602084019190915282015260989290921c63ffffffff1660608301526080820189905260a08201527f0df65f0bfef22299d2332a74323c24d136c79b82d668afc82cfe8dfb0d75a2f2908060c081010390a19695949392911590565b604051630df65f0b60e01b815260a89390931c61ffff1660048401526024830152604482015260989290921c63ffffffff1660648301526084820189905260a48201528060c481010390fd5b9c509c5050505050505050505050505f925f92915f915f91905f90565b505f925060018d14156200e78f565b916200e717565b6102208190526102e08490525f6102a05290926103e8916200eb19919060090162011683565b610360525f610280526102c0839052915b801515806200f522575b156200f4de57831515806200f4e9575b6200f4de57505f610240525f610320525f610260525f610240526200eb70826009610220510162008b7e565b50610200526102c05161032052610260525b610320511515806200f4d1575b806200f4c4575b156200f3d257610200515f526010610220510160205260405f20805463ffffffff81165f52600d60205260405f206103005260ff610300515460a01c166200ebde8162005c19565b156200ec8257505f8161ffff7f86ad99b48b2565c9720e33335db58e8c7468d6af03a5e6238b20d4a562f5b8b4935460c81c16610200526200ec796200ec3e60018461ffff600261022051015460a81c1680956009610220510162014745565b9096916040949394519788978893909796959260c0959260e08601998652602086015260408501526060840152608083015260a08201520152565b0390a16200eb82565b6200ec9663ffffffff8260781c166200bffe565b156200ecf657505f8161ffff7fb95e250f9f017dcb1bb1806916771df0c04a269e5f46d5db7519382a0f7bb477935460c81c16610200526200ec796200ec3e60018461ffff600261022051015460a81c1680956009610220510162014745565b63ffffffff81166200ed5c57505f8161ffff7f52d5291dc7b477ebda965d0693c67e6ccec5b3667b530305685465384756d3fd935460c81c16610200526200ec796200ec3e60018461ffff600261022051015460a81c1680956009610220510162014745565b5f6200ed6e60ff8360201c166201077d565b6200f37a575b156200edd457505f8161ffff7fae6369c6e529c86dd87431d10e0db70657c834daa75356e1efd7c0ac79f934b7935460c81c16610200526200ec796200ec3e60018461ffff600261022051015460a81c1680956009610220510162014745565b9064ffffffffff8260401c166200edf160ff8460201c166201077d565b6200f33f575b6103205181118015610340526200f331576200ee80815b60026102205101549061ffff6200ee5c6200ee5060ff8560e01c1660ff8660d81c1664ffffffffff8760501c1664ffffffffff881687878a60b81c166200a157565b828960981c1662011935565b9260881c1691610360519060ff8860201c169063ffffffff8916610220516201195b565b949795889350905060061981016200f24a575061034051156200f1d4576200eeba6200eeb08761036051620065e5565b6102405162007304565b610240526200eecd8661032051620065f9565b610320525b6200eee06102605162007390565b6102605261034051156200f0025750505091610120939185936200ef3b6200ef3463ffffffff7ff5f5aef063f495816b6982c44c70c97c8fbec2fa24b73487e6542ce02143121499166200caeb85620070ae565b956200c6e1565b9261ffff835460c81c16610200526200ef936200ef7261ffff8860a81c1661ffff600261022051015460a81c16610300516200c0f0565b936200ef8560ff825460201c166200c817565b90600961022051016200fb10565b6200efac61ffff8760a81c16600961022051016201007c565b61ffff80600261022051015460a81c169660405197885263ffffffff8116602089015260a81c166040870152610360516060870152608086015260a085015260c084015260e0830152610100820152a16200eb82565b90949391955060ff6002610220510154925460201c165f9061ffff8960a81c16156200f1a85761ffff8960a81c166303ff00008560981c16175f526002610300510160205260405f209384549163ffffffff8316156200f17357967ff5f5aef063f495816b6982c44c70c97c8fbec2fa24b73487e6542ce0214312149a98969492819694926200f0966101209c9a6200f93b565b156200f0ff57505050506200f0ee826001600160501b036200f0c384826200f0f8975460901c16620126ec565b825469ffffffffffffffffffff60901b1916911660901b69ffffffffffffffffffff60901b16179055565b610300516200fac5565b916200efac565b6200f16d94509461ffff6200f1679293949660a81c165f526003610300510160205264ffffffffff6200f13c858260405f209660681c166200d9a1565b825471ffffffffff000000000000000000000000001916911660681b64ffffffffff60681b16179055565b6200fa78565b6200f0f8565b5061ffff8a8163ffffffff60016103005101541693638d5bba0f60e01b5f5260a81c1660045260a81c1660245260445260645ffd5b8361ffff63ffffffff600161030051015416916369bc91ef60e11b5f5260a81c1660045260245260445ffd5b94506200f1ec6200eeb06103205161036051620065e5565b610240526200f23a64ffffffffff6200f20f6103205182885460401c166200d9a1565b86546cffffffffff00000000000000001916911660401b6cffffffffff000000000000000016178555565b61032051945f610320526200eed2565b93505050507f72777d4856cf973d1b0f65b47f675f18842c122c2a529a294343fd22a6c135479450610160935081549061ffff8260c81c166102005261ffff600261022051015460a81c169384610340515f146200f31a575f60019160ff6200f2c194965b60201c16966009610220510162014745565b94939592969190604051988952602089015260408801526200f2e38162005c19565b606087015261036051608087015260a086015260c085015260e08401525f610100840152610120830152610140820152a16200eb82565b6200f2c191505f60019160ff61032051966200f2af565b6200ee80610320516200ee0e565b63ffffffff83165f526012610220510160205264ffffffffff60405f205460b81c168181106200f371575b506200edf7565b90505f6200f36a565b5063ffffffff81165f526012610220510160205260405f2064ffffffffff815460b81c161515159081156200f3b1575b506200ed74565b6200f3cb915060ff808460201c16915460401c1662010fa2565b5f6200f3aa565b610260519161032051906200f3ee610240516102a05162007304565b6102a052610320516102c051036200f4ae575b61026051156200f43f57610320516200f41d575b92906200eb2a565b91506200f4346102e0516009610220510162011683565b61036052916200f415565b50929150507fb492fac0bb9e8c8d824bf2a4c19ec1efd3e98e987de34e127bc17eb2b5c0605e5f80a15b610280516200f47457565b6102205161028051600391909101805467ffffffffffffffff191663ffffffff92909216919091174260201b63ffffffff60201b16179055565b6103605161028052610320516102c0526200f401565b506102605115156200eb96565b506102005115156200eb8f565b93925050506200f469565b506102e051806200f515575b806200eb4457506102e0511580156200eb4457506103605184116200eb44565b506103605184106200f4f5565b506103605115156200eb34565b5f90806200f53b575090565b5f1981019150811162002aac57620186a090046001810180911162002aac5790565b90816200f56a5750505f90565b5f19820191821162002aac576200f58191620082d7565b6001810180911162002aac5790565b956200f603919296959394955f95845498886200f5c68b9a6001600160501b038c60481c1664ffffffffff8d60b81c1662011662565b9790936200f5f98360ff6200f5db8c62008d06565b9f60401c169d8e63ffffffff8260981c169160e01c90858b620089f3565b9991909a6200c6e1565b9b5f8d13156200f7e55750506200f61a8b62008d06565b8b620186a06200f64c60038901549262ffffff836200f63f828760401c168462008d32565b059460581c169062008d32565b056200f65f819e6200aad484846200c6e1565b9b871590816200f7dc575b506200f7b1575b506001600160501b036200f6906200f6bb92828a5460501c16620138d1565b885469ffffffffffffffffffff60501b1916911660501b69ffffffffffffffffffff60501b16178755565b5f6200f6c782620116d0565b9112156200f79f576200f6dc908487620116e0565b825f52600d60205260405f20936200f6f58c86620117fb565b996200f70e600354916001600160701b038316620138d1565b906001600160701b0319161760035560ff825460401c166002811015620039a3576200f78d576200f740838762011878565b156200f77157505061ffff6002846200f76360049460116200628e980162010133565b015460a81c16910162010283565b915091506200628e92506200f7878a82620118a3565b620118f8565b6200f799838762011832565b6200f740565b6200f7ab9086620082ab565b6200f6dc565b909c506200f7c4816200f7cb936200c6e1565b9d6200c6e1565b9b5f9b6001600160501b036200f671565b90505f6200f66a565b8c60c492856200a78f889461ffff60028d015460a81c169560405196630c62a44b60e11b885260048801526024870152604486019062005e90565b90929182156200f8b3578382106200f8ab576200f852915b8484156200f89f576200f84b91620065f9565b90620065e5565b81156200f88d57620186a09004905b156200f8735790620079be9162007304565b808211156200f88757620079be91620065f9565b50505f90565b6200f898906200f52f565b906200f861565b906200f84b91620065f9565b505050505f90565b8184106200f8ab576200f852916200f838565b9260a094919796959260c0850198855260208501526200f8e68162005c19565b6040840152606083015260808201520152565b7fffffffffffe0000000000000000000000000ffffffffffffffffffffffffffff62008279600354926c1fffffffffffffffffffffffff8460701c166200d949565b6200f9468162005c19565b80159081156200f954575090565b600191506200c83f8162005c19565b906303fcffff8082116200c34d57507fffffffffffff00000000ffffffffffffffffffffffffffffffffffffffffffff79ffffffff0000000000000000000000000000000000000000000083549260b01b169116179055565b906303fcffff8082116200c34d5750815463ffffffff60401b191660409190911b63ffffffff60401b16179055565b906303fcffff8082116200c34d57507fffff00000000ffffffffffffffffffffffffffffffffffffffffffffffffffff7dffffffff000000000000000000000000000000000000000000000000000083549260d01b169116179055565b906303fcffff8082116200c34d5750815467ffffffff00000000191660209190911b63ffffffff60201b16179055565b64ffffffffff6200fa946200628e9382845460581c166200d9a1565b82546fffffffffff00000000000000000000001916911660581b6fffffffffff000000000000000000000016179055565b91906200fae46200628e916001600160501b03855460501c16620126ec565b835469ffffffffffffffffffff60501b1916605082901b69ffffffffffffffffffff60501b1617909355565b9080548060281c9062ffffff82169485926200fb2d848762008b7e565b9061ffff8560a81c16809114918262010071575b50506200fe9b575b50505050805461ffff8160b81c169081158080916200fe8b575b156200fc5057505050506006906200fb80600784068094620065f9565b5f520160205260405f2090600160ff1983541617825580155f146200fbae5750805464ffffffff0019169055565b600181036200fbca5750805468ffffffff000000000019169055565b600281036200fbea575080546cffffffff00000000000000000019169055565b600381036200fc0e5750805470ffffffff0000000000000000000000000019169055565b600481036200fc285750805463ffffffff60881b19169055565b6005036200fc4057805463ffffffff60a81b19169055565b805463ffffffff60c81b19169055565b929492156200fdd95750508261ffff91826007955460c81c166200fc788683068093620065f9565b5f526006850160205260405f2091600160ff1984541617835580155f146200fccf5750815462ffff00191660089190911b62ffff00161790555b5460c81c165f520160205260405f2061ffff60b81b198154169055565b600181036200fcfd5750815466ffff0000000000191660289190911b66ffff0000000000161790556200fcb2565b600281036200fd33575081546affff000000000000000000191660489190911b6affff000000000000000000161790556200fcb2565b600381036200fd67575081546effff00000000000000000000000000191660689190911b61ffff60681b161790556200fcb2565b600481036200fd915750815461ffff60881b191660889190911b61ffff60881b161790556200fcb2565b6005036200fdb957815461ffff60a81b191660a89190911b61ffff60a81b161790556200fcb2565b815461ffff60c81b191660c89190911b61ffff60c81b161790556200fcb2565b60c81c61ffff16806200fe1f575050826200fe0261ffff92836007965460b81c16908562012717565b5460b81c165f520160205260405f2061ffff60c81b198154169055565b6200628e949192506200fe5a90600761ffff9501935f528360205260405f209061ffff60c81b1961ffff60c81b83549260c81b169116179055565b5490828260c81c165f5260205260b81c1660405f209061ffff60b81b1961ffff60b81b83549260b81b169116179055565b5061ffff8260c81c16156200fb63565b6003860192600587018160301c9261ffff841690815f5282602052600160ff60405f2092161b1981541690555f5260205260405f20541562010022575b5050156200ff8557835462ffffff8160781c1683145f146200ff4e5750906200ff01916200c6fd565b5f1981036200ff3c575081547fffffffffffffffffffffff000000000000ffffffffffffffffffffffffffffff1682555b825f80806200fb49565b6200ff48908362013c48565b6200ff32565b60901c62ffffff1682146200ff66575b50506200ff32565b6200ff7d916200ff769162013a54565b8362013bf7565b825f6200ff5e565b835462ffffff8160481c1683145f146200fff45750906200ffa6916200c6fd565b5f19811480156200ffe1575b156200ffd5575081546effffffffffff000000000000000000191682556200ff32565b6200ff48908362013bc2565b5062ffffff835460781c1681146200ffb2565b60601c62ffffff1682146201000b5750506200ff32565b6200ff7d916201001b9162013a54565b8362013b6e565b60ff9060381c16906004870190825f5281602052600160ff60405f2092161b198154169055815f5260205260405f20541562010060575b806200fed8565b6001901b1982541682555f62010059565b1490505f806200fb41565b5f828152600782016020526040902080547fffffffffff0000000000000000000000000000000000000000000000000000001663ffffffff60781b17905581156201012457620100f4826200628e9360081c90815f5260028401602052600160ff60405f2092161b1981541690556001830162013c89565b6201010761ffff825460201c166200c0df565b65ffff0000000082549160201b169065ffff000000001916179055565b6302f9530760e61b5f5260045ffd5b906001820191815f528260205260405f209064ffffffffff825460b81c166201015c5750505050565b805463ffffffff16830362010252576201017e63ffffffff835416826201288e565b63ffffffff8254168062010233575b505b805460201c63ffffffff168303620101f95790620101ba63ffffffff9283835460201c1690620128cc565b5460201c1680620101dd575b505b5f526020525f60408120555f80808062007e7a565b5f528160205260405f2063ffffffff1981541690555f620101c6565b505463ffffffff81165f908152602084905260409020805467ffffffff00000000191663ffffffff60201b909216919091179055620101c8565b5f528360205260405f2063ffffffff60201b1981541690555f6201018d565b815463ffffffff8160201c165f528460205263ffffffff8060405f2092161663ffffffff198254161790556201018f565b9060fc811162010299576001901b198154169055565b6101fc8111620102ef5760fb19810190811162002aac576001808301911b1981541680915515620102c75750565b7fdfffffffffffffffffffffffffffffffffffffffffffffffffffffffffffffff8154169055565b6102fc811162010347576101fb19810190811162002aac57600160028301911b19815416809155156201031f5750565b7fbfffffffffffffffffffffffffffffffffffffffffffffffffffffffffffffff8154169055565b6103fc81111562010356575050565b6102fb19810190811162002aac57600160028301911b198154169055600381015415620103805750565b6001600160ff1b038154169055565b9061010003610100811162002aac575f19901c1680620103af57505f1990565b620079be905b905f916fffffffffffffffffffffffffffffffff8111620104bc575b67ffffffffffffffff8111620104a5575b63ffffffff81116201048e575b61ffff811162010477575b60ff811162010460575b600f811162010449575b6003811162010432575b6001106201042257565b906001810180911162002aac5790565b916002810180911162002aac579160021c62010418565b916004810180911162002aac579160041c6201040e565b916008810180911162002aac579160081c62010404565b916010810180911162002aac579160101c620103fa565b916020810180911162002aac579160201c620103ef565b916040810180911162002aac579160401c620103e2565b60809250821c620103d1565b60018110929183156201053d575b83620104e0575050565b6201051d57507f36bcd027a371ec05acd4f563a155f51be204511b55fb95d0451703d02e3ca185604080516001815264ffffffffff6020820152a1565b630793b30360e11b5f52600452600160245264ffffffffff60445260645ffd5b92508064ffffffffff1092620104d6565b9190916201055c816200bffe565b928362010567575050565b6201059e5760407f8ecb05e775f8b004d0796e497a6b28cfe97a6f8acd115327138350b5a08347ed918151908152436020820152a1565b638ecb05e760e01b5f526004524360245260445ffd5b61ffff8111929183620105c5575050565b620106055760607fe99e76b7075a2c30a8d971cb3f247cba3e1995e4d12ff31053b190b2f71dcc7b916040519081525f602082015261ffff6040820152a1565b63e99e76b760e01b5f526004525f60245261ffff60445260645ffd5b90919294935f958403620106355750505050565b90919293945062010674575050507fd4c307936a68788d79a4dbca49cc3521ff20fa2e5984a45ab8ea332e9d1796b55f80a16001905f80808062007e7a565b6303fd97ab60e21b5f5260045260245260445260645ffd5b91905f92815f52600d60205260405f209161ffff6080830151169182158015620106c3575b505050506001600160501b0390541690565b612710849597940294850461271014171562002aac5760035460701c6c1fffffffffffffffffffffffff1690818511620107275750505050806201070f6001600160501b03926200f8f9565b6201071b8185620082ab565b925b905f8080620106b1565b916080916001600160501b039561ffff60e07f5d8e434afef436d0cbafab1ae9386b8f70c885ee513868335f9474f61202d346969a979a015116604051938452602084015260408301526060820152a16201071d565b620107888162005c19565b600281149081156200c830575090565b610440526103e052604051909493620107b18262006085565b5f82525f602083015281905f5f610400525f6104005260026104405101549388546104805263ffffffff6104805160781c169060c0870135928215158062010f97575b1562010f765750600161040052821562010ecf5750506104005190925b5f9264ffffffffff6104805160401c169760a08801358015158062010ec4575b62010e91575b5061044051600901546104805160281c62ffffff16949063ffffffff168562010e7f575f5b99608001358015158b8162010e73575b5062010e4d575b50501562010e405790888893928861ffff6104805160981c1697620108c160ff8360e01c1660ff8460d81c1664ffffffffff8560501c1664ffffffffff86168861ffff8860b81c166200a157565b9080610460521562010e33575b620108e260ff6104805160201c166200c817565b610420525f986104605162010c3b575b505050505050505062ffffff6201092e916104005162010c1f575b895467ffffff00000000001916911660281b67ffffff000000000016178855565b865463ffffffff60781b607884901b167fffffffffffffffffffffffffff00000000ffff0000000000ffffffffffffffff9091166cffffffffff0000000000000000604088901b16171787556104005162010bda575b610460511562010b975760ff875460201c1661ffff6104805160a81c161562010b6b5761ffff6104805160a81c166303ff00008560981c16175f5260026103e0510160205260405f209081549063ffffffff82161562010b3157620109e9906200f93b565b1562010b09576001600160501b0362010a0a9160901c166103e0516200fac5565b506001600160501b03821162010aeb579161ffff62010a8d8362010a8360c098966001600160501b037fbf5d27a683d1ce858f6095fde2cc9837ba595c533e97576c5ff3de4376ccbf3c9b99971669ffffffffffffffffffff60901b1969ffffffffffffffffffff60901b83549260901b169116179055565b6103e05162014673565b925b816040519162010a9f8362006085565b60a81c168152816104805160a81c166020820152985460a81c16936001600160501b036103e051541693604051958652602086015260408501526060840152608083015260a0820152a1565b506395d41f3f60e01b5f526004526001600160501b0360245260445ffd5b61ffff8563086415b760e01b5f5260a81c1660045261ffff6104805160a81c1660245260445ffd5b8561ffff63ffffffff60016103e05101541691638d5bba0f60e01b5f5260a81c1660045261ffff6104805160a81c1660245260445260645ffd5b8361ffff63ffffffff60016103e051015416916369bc91ef60e11b5f5260a81c1660045260245260445ffd5b50917fbf5d27a683d1ce858f6095fde2cc9837ba595c533e97576c5ff3de4376ccbf3c939160c09361ffff6001600160501b036103e0515460501c169262010a8f565b86547fffffffffff00000000ffffffffffffffffffffffffffffffffffffffffffffff168755610420516104405162010c1991908990600901620142f0565b62010984565b62010c35610420518b600961044051016200fb10565b6201090d565b879950918486979861ffff62010c5a62010c769562010c9a9762011935565b9360881c169260ff6104805160201c1690876104405162012921565b50979390968b889493949d6104205160ff6104805160201c168a6104405162012a21565b1562010e245761ffff6104805160a81c166303ff00008a60981c16175f5260026103e0510160205260405f20549063ffffffff82161562010df957506001600160501b039060901c16906103e05154926001600160501b038460501c169280841162010de5575b506001600160501b035f94169280841162010dcf575b50801562010dc75762010d2a9162007304565b905b81831115938462010d59575b5050505062010d4f578080888188818b96620108f2565b9750505050505050565b62010dad576040805192835260208301939093526001600160501b0316918101919091527fb853e5846ad52919c794f709695100094681c458cd1864d5217c6c897b6858b190606090a15f80808062010d38565b9250632e14f96160e21b5f5260045260245260445260645ffd5b509062010d2c565b62010ddd91945083620065f9565b925f62010d17565b62010df19193620065f9565b915f62010d01565b61ffff8a638d5bba0f60e01b5f5260a81c1660045261ffff6104805160a81c1660245260445260645ffd5b50929a50505050505050505050565b88811061046052620108ce565b5090985050505050505050565b60016104008190529a508a9750955062010e69915085620065f9565b93975f8062010873565b90508114155f6201086c565b62010e8b818762007304565b6201085c565b9350979093506104005190610400511562010eb9575b50610400526001928392975f62010837565b905082115f62010ea7565b508981141562010831565b969550975050905062010f3857620087387fef9c486e607431362e32f87055ecc54107d0bde504cfbca8d6a59a6108b99ead93949560405193849361ffff806104805160a81c169160a81c16859094939260609260808301968352602083015260408201520152565b6040516377ce243760e11b81526104805161ffff60a893841c81166004840152921c9091166024820152604481019190915260648101849052608490fd5b9280915094919462010f8a575b5062010811565b9350600191505f62010f83565b5043831115620107f4565b6002811015620039a35760029062010fba8362005c19565b159114141590565b939190805f52600d602052600360405f20019061ffff600287015460a81c1691825f5260205260405f205464ffffffffff8160581c16968715620111a757601290835f520160205260ff60405f209160501c1690549260ff8460401c16926002841015620039a357831583151503620110dd575050505060b81c64ffffffffff169380851115620110d457620110599085620065f9565b905b818111938415946201106f57505050909150565b620110b95762009ea57f1b7ba008cbebdd0330e64275c62765a671adbce08d86e7b894f0601a886b78cf939495604051938493846040919493926060820195825260208201520152565b84925063036f740160e31b5f5260045260245260445260645ffd5b505f906201105b565b9295979691945092506201115157505091620111406060927f04d93c80531ebbd61ebd9906714391b8431ec4437abe44969d252210244128de945f146201114557620111355f5b604051948552602085019062005e90565b604083019062005e90565ba15f90565b62011135600162011124565b83620111916201119c928760a4965f146201119e575f915b60405196634298a83160e01b8852600488015260248701526044860152606485019062005e90565b608483019062005e90565bfd5b60019162011169565b5050505050915050600190565b5f60443d10620079be576040513d600319016004823e8051913d602484011167ffffffffffffffff84111762011228578282019283519167ffffffffffffffff831162011220573d84016003190185840160200111620112205750620079be92910160200190620060dd565b949350505050565b92915050565b3d156201125d573d90620112428262006100565b91620112526040519384620060dd565b82523d5f602084013e565b606090565b929190926201129b5f80936060966001600160a01b03600454169083604051809681958294637bf41d7760e11b8452600484016200d146565b03925af15f9181620113f5575b50620113eb57505f60033d11620113da575b806308c379a0146201138257634e487b711462011324575b7f7d7f9345462f0c85c00b5c2083a2ddd2d72fb70e98d0ebed71562cba6feef68790620112fe6201122e565b906201131d604051928392835260406020840152604083019062005bf5565b0390a19190565b5f8060233d1162011370575b6201133c5750620112d2565b7fe526d22a15e94c788050d8c0ca8cddc836ce3580e3dbe7ac64afb9229c7d633e9160409182519182526020820152a19190565b5050602060045f3e5f51600162011330565b506201138d620111b4565b806201139a5750620112d2565b7fd83687e05ff302f677e5adcaeee1a4cb3c6473e57b9000d71f2c42ff6ada466c916201131d604051928392835260406020840152604083019062005bf5565b5060045f803e5f5160e01c620112ba565b9293505050600191565b6201140d9192503d805f833e6200d7028183620060dd565b905f620112a8565b6006810362011428575064e8d4a5100090565b600581036201143c57506509184e72a00090565b60048103620114505750655af3107a400090565b6003810362011465575066038d7ea4c6800090565b600281036201147a5750662386f26fc1000090565b6001146201148e57670de0b6b3a764000090565b67016345785d8a000090565b9291620114af90620030b05f841293620116d0565b9282620186a00292620186a084040362002aac5781806201151c575b6200f8ab57620114ec936200098c921562011510576200f84b9084620065f9565b80620114f85750600190565b9063ffffffff82116201150757565b63ffffffff9150565b6200f84b908462007304565b50828411620114cb565b906001600160501b03809116911601906001600160501b03821162002aac57565b926201159a91955f96549562011575836001600160501b038960481c1664ffffffffff8a60b81c1662011662565b9490938596859963ffffffff8160981c169160ff8260e01c9260401c16908b620089f3565b9491959085620115ac8298846200c6e1565b9415620115ec5750505050505f5b6001600160501b03620115d882975482808260501c16911662011526565b16811015620115e45750565b600a97509450565b5f8512620115fe5750505050620115ba565b600c9b509299505f98509096509450925050565b906201161e91620065e5565b90620f4240820291808304620f4240149015171562002aac57620079be916200f55d565b9060648202918083046064149015171562002aac57620079be916200f55d565b828114939284156201167357505090565b6200098c90620079be93620065e5565b919015620116ba5763ffffffff62ffffff80845460601c165b1692541682155f14620116ae57505f90565b620079be908362007304565b63ffffffff62ffffff80845460781c166201169c565b5f8112620116db5790565b5f0390565b80546001600160501b03811694939290858411620117075750506200628e9293506200a078565b6001600160501b039060509492941c166001600160501b036201172b828862011526565b168211620117b1575061ffff60026201176b7f24600c3aa8cc38cbdf9648ea5ebfea6227de49651807d1a2a58fe70ea24953cc969762007ff994620065f9565b845469ffffffffffffffffffff191685559362011789858262008cbd565b015460a81c16916040519384938460409194939261ffff606083019616825260208201520152565b6002830154604051635b80bdb960e11b815260a89190911c61ffff1660048201526001600160501b0380881660248301529091166044820152606481019190915280608481010390fd5b919062011813906001600160501b03845416620138d1565b825469ffffffffffffffffffff19166001600160501b03821617909255565b9064ffffffffff6201185360026200628e94019282845460281c166200d9a1565b825469ffffffffff00000000001916911660281b69ffffffffff000000000016179055565b64ffffffffff62011892600282930193828554166200d9a1565b161664ffffffffff19825416179055565b6001600160501b03620118c16200628e9382845460481c16620138d1565b825472ffffffffffffffffffff0000000000000000001916911660481b72ffffffffffffffffffff00000000000000000016179055565b64ffffffffff620119146200628e9382845460b81c166200d9a1565b825464ffffffffff60b81b1916911660b81b64ffffffffff60b81b16179055565b9060018210158062011951575b156201194c575090565b905090565b5080821062011942565b6104808190526104208290525f6103a0819052918252600d60209081526040808420610460819052546001600160501b0316610440526012909201905281209296949591929091908280620119b2898b8562013919565b620119bd8162005c19565b8062011eba5750505050620119de908387868a6104605161048051620139cc565b8094919294978396869a85971562011a7f575b5050505050505b6001600160501b036104605154169461044051861015805f1462011a695762011a256104405188620065f9565b905b6001600160ff1b03821162011a4f571562011a40579594565b62011a4b9062008d06565b9594565b8763e69a04b360e01b5f526004526104405160245260445ffd5b62011a788761044051620065f9565b9062011a27565b9091929394959a5062011a928162005c19565b62011eb1575f925b61ffff600261048051015460a81c165f60c060405162011aba816200602d565b8281528260208201528260408201528260608201528260808201528260a082015201526001600160501b03871162011e935764ffffffffff841162011e77576040519062011b08826200602d565b5f82525f602083015262011b20866040840162006d18565b6001600160501b038816606083015263ffffffff8416608083015264ffffffffff851660a083015263ffffffff431660c0830152610420515f526012610480510160205264ffffffffff60405f205460b81c1662011e5e5750610480516011015460201c63ffffffff168062011e34575062011ba661042051601161048051016201288e565b610420515f526012610480510160205260405f2063ffffffff808351161663ffffffff1982541617815562011c0063ffffffff602084015116829063ffffffff60201b82549160201b169063ffffffff60201b1916179055565b6040820151916002831015620039a35760c063ffffffff916200b19262011c28958562014873565b62011c3d6104205160116104805101620128cc565b61046051610480516002015460a81c61ffff16919060040160fc831162011d6e57600162011cc3931b81541790555b62011c8662011c7c828962007304565b610460516200a078565b62011c958761048051620082ab565b62011cb96200b3026200b2fa6200b2f48462ffffff610480515460e01c16620065e5565b610480516200c4e0565b6002831015620039a3577f15186d79b32cb4800a4d85134007523ec20911a37b484eb263da5831cc191e8e9460e0948462011d595762011d078461048051620148c2565b62011d3561ffff600261048051015460a81c1695604051968752610420516020880152604087019062005e90565b6060850152608084015260a083015260c0820152a16007945f8080808080620119f1565b62011d688461048051620148a1565b62011d07565b6101fc831162011daa5760fb19830192831162002aac5762011cc392600160056104605101911b8154179055600160fd1b815417905562011c6c565b6102fc831162011de7576101fb19830192831162002aac5762011cc392600160066104605101911b8154179055600160fe1b815417905562011c6c565b6103fc83111562011e00575b5062011cc3915062011c6c565b6102fb19830192831162002aac5762011cc392600160066104605101911b8154179055600160ff1b81541790555f62011df3565b8060208301525f526012610480510160205262011e586104205160405f206201288e565b62011ba6565b633f1ed2e160e21b5f526004526104205160245260445ffd5b836395d41f3f60e01b5f5260045264ffffffffff60245260445ffd5b866395d41f3f60e01b5f526004526001600160501b0360245260445ffd5b60019262011a9a565b909192949899505f979695975062011ed28162005c19565b60018103620121d15750505062011ef59085888561046051866104805162013f52565b959496939891879b919b97600a81145f1462011f2f578c61ffff600261048051015460a81c16620016146200b591610480515493620116d0565b9b9192939495969798999a9b1562011f53575b5050505050505092809194620119f8565b62011f6a91929394959697985061046051620117fb565b505f62011f7782620116d0565b911215620121bc5762011f92906104205161048051620116e0565b62011fc262011fb26200b2f48862ffffff610480515460e01c16620065e5565b62011cb96200b302828a620065f9565b845462011fdd6001600160501b038260481c1694856200c6e1565b5f81126200b8a95760ff8260401c16946002861015620039a357620120f164ffffffffff7f7026918e3bf251d8904050f685ad390b1075bff141e27c077fb2e86f194438e3996101209989159662012049600161048051015460ff808260e81c169160e01c166200e134565b9190926201208a62012082856201207b868a620120708463ffffffff8a60981c16620065e5565b9760b81c16620065e5565b93620065e5565b938c620065e5565b9062012097828262007304565b928b156201219b57620013d8926200b75a620120b99693620030b693620065e5565b905b87156201218957620120cd916200f55d565b955b156201217457620120e48761048051620148c2565b5460b81c16948562007304565b946201214461ffff60026104805101620121248a8a898986865460a81c1693439461042051906011610480510162014d06565b5460a81c16976040519889526104205160208a0152604089019062005e90565b6060870152608086015260a085015260c084015260e0830152610100820152a16007905f80808080808062011f42565b620121838761048051620148a1565b620120e4565b6201219491620082d7565b95620120cf565b6200098c926200b75a620121b59693620030b693620065e5565b90620120bb565b620121cb9061048051620082ab565b62011f92565b6003905f9a9495969798999a50620121e98162005c19565b036201246457505090856201220d925f6103c0528561046051866104805162013dad565b610400939093526103e08890526103c0889052949a95989297929692959491939192600a036201225e5761ffff600261048051015460a81c16610480515490620016146200b59161040051620116d0565b6103e051156201227c575b50505050505050926103c05194620119f8565b620122b9906201228f61040051620116d0565b5f61040051125f146201244f57620122af906104205161048051620116e0565b61046051620117fb565b50620122ea620122da6200b2f48962ffffff610480515460e01c16620065e5565b62011cb96200b302828b620065f9565b84549360ff8560401c16906002821015620039a3577f6f5d98efdac4a6966f0e3b214c333ce1ea22cc1e13f5c56cb46bddbfc890b38e976101609764ffffffffff931597885f146201242657506201234c84825460b81c166104805162011878565b6201235b8561048051620148a1565b549161ffff8c620123968a8886600261048051019486865460a81c16935f146201241f5760015b439461042051906011610480510162014d06565b5460a81c1697156201241457620123c360015b604051998a526104205160208b015260408a019062005e90565b60608801526001600160501b038260481c1660808801528a60a088015260c087015260b81c1660e0850152610100840152610120830152610140820152a160076103c0525f80808080808062012269565b620123c35f620123a9565b5f62012382565b846201243a9160b81c166104805162011832565b620124498561048051620148c2565b6201235b565b6201245e9061048051620082ab565b620122af565b94939750956201247d9192508284896104805162013cb6565b909694959792936103809c929c52959a929487600a81145f14620124f157610480516002810154905460405163063c641b60e41b81526103805160a89390931c61ffff1660048201526001600160501b03808316602483015260509290921c90911660448201526064810191909152608490fd5b156201250f575b5050505050509490610380516103a05294620119f8565b90919293949596506201252d610380516104205161048051620116e0565b6201253f6103805161046051620082ab565b60ff825460401c16946002861015620039a35785620126d75762012567816104805162011878565b87156201261357505050907f599b5f439ed4daf1f28ae8638e5439d3982e8001fb26dd8f70021b38672eb26f9360c09392620125ad610420516011610480510162010133565b620125f361ffff60026104805101620125d382825460a81c166004610460510162010283565b5460a81c1694604051958652610420516020870152604086019062005e90565b6060840152608083015260a0820152a15b6007905f8080808080620124f8565b829493509464ffffffffff80926201265f61012098620126587fcd4a9f7ae1cc250eaa0be6bdb30d07efaf0faafb4ff0e76d8fe09a8373e43f859b9754938a620138b3565b88620118f8565b6201268f61ffff600261048051015460a81c169754936040519889526104205160208a0152604089019062005e90565b6001600160501b038160481c1660608801526001600160501b038360481c16608088015260b81c1660a086015260b81c1660c084015260e0830152610100820152a162012604565b620126e6816104805162011832565b62012567565b9190808311156201270f57808303925b6001600160501b0384116200d96a575050565b5f92620126fc565b6006906201272a600784068094620065f9565b5f520160205260405f2090600160ff1983541617825580155f146201276e575061ffff6200628e921664ffff00000082549160181b169064ffff0000001916179055565b60018103620127a4575061ffff6200628e921668ffff0000000000000082549160381b169068ffff000000000000001916179055565b60028103620127e2575061ffff6200628e92166cffff000000000000000000000082549160581b16906cffff00000000000000000000001916179055565b6003810362012810575061ffff6200628e921661ffff60781b82549160781b169061ffff60781b1916179055565b600481036201283e575061ffff6200628e921661ffff60981b1961ffff60981b83549260981b169116179055565b6005036201286a5761ffff6200628e921661ffff60b81b1961ffff60b81b83549260b81b169116179055565b61ffff6200628e921661ffff60d81b1961ffff60d81b83549260d81b169116179055565b9063ffffffff8111620128b257815463ffffffff191663ffffffff91909116179055565b6395d41f3f60e01b5f5260045263ffffffff60245260445ffd5b91909163ffffffff8311620129065763ffffffff6200628e92931663ffffffff60201b82549160201b169063ffffffff60201b1916179055565b826395d41f3f60e01b5f5260045263ffffffff60245260445ffd5b939592959490945f965f965f965f99825f52600d60205260405f20925f526012820160205260405f20906201295887868462013919565b99620129648b62005c19565b8a6201298257505050620129799750620139cc565b91949093849291565b91945091929495969798620129978162005c19565b60018103620129c35750505090620129b496959493929162013f52565b94979396879594909350915050565b600391929b9a50620129d58162005c19565b0362012a025750620129e997985062013dad565b50506104a051969895979495929493506200628e915050565b975090915062012a13955062013cb6565b925092949593505090929395565b939498919295969997909961ffff600286015460a81c16978115158062012bae575b62012b4757505062012a669288925f9262012a5d620082f6565b928d8b6201419b565b6200dd115782600962012a7e92019688868962014a0d565b909682989262012a9f575b505050505050505062012a9b57600190565b5f90565b5463ffffffff168162012b355750505f945b62012afc575050604080519384529315156020840152507fc0ed4041bfe51a7b847f46f096b9d2495866089371037e3efd436bd858f46edd92919050a15f8080808080808062012a89565b9160c4949186936040519563beb3942960e01b8752600487015260248601526044850152151560648401526084830152151560a4820152fd5b62012b409162007304565b9462012ab1565b97989450999850505091925062012b8c57505050505060207f18a118a5bb122057e420b1bcf7903a57ebc749be0d1981d112c6e257e7bd5e8891604051908152a15f90565b91859162001614936040519687966321b303f960e11b8852600488016200f8c6565b50600a82141562012a43565b9499939597909a9891929661ffff600287015460a81c16988115158062012c3c575b62012bf65750509162012a669391899362012a5d620082f6565b989995509a995050509293505062012b8c57505050505060207f18a118a5bb122057e420b1bcf7903a57ebc749be0d1981d112c6e257e7bd5e8891604051908152a15f90565b50600a82141562012bdc565b979597610360526102c0526102405260e052610220526101c0526102a05262012c74610240516200c817565b610260525f6102005261271081116201386357610200525b6103208190525f6101e052801590811562013856575b5062013849575b62012cbe610260516009610360510162011683565b610300525f61016052610220516101a08190525b801515806201383c575b15620137f65760e051151560e051620137ff575b620137f657505f610280525f610340525f6102e0525f6102805262012d1c816009610360510162008b7e565b50610100526101a05161034052610320516102e0525b61034051151580620137e9575b80620137dc575b156201354a57610100515f526010610360510160205260405f20805463ffffffff81165f52600d60205260405f2060ff815460a01c1662012d878162005c19565b1562012e3857505062012e2f8161ffff7f86ad99b48b2565c9720e33335db58e8c7468d6af03a5e6238b20d4a562f5b8b4935460c81c166101005262012dee61ffff600261036051015460a81c16916102a05190836102c051916009610360510162014745565b604096949296959195519687966102c051938893909796959260c0959260e08601998652602086015260408501526060840152608083015260a08201520152565b0390a162012d32565b62012e4c63ffffffff8360781c166200bffe565b1562012eb357505062012e2f8161ffff7fb95e250f9f017dcb1bb1806916771df0c04a269e5f46d5db7519382a0f7bb477935460c81c166101005262012dee61ffff600261036051015460a81c16916102a05190836102c051916009610360510162014745565b6102c05163ffffffff83160362012f2557505062012e2f8161ffff7f52d5291dc7b477ebda965d0693c67e6ccec5b3667b530305685465384756d3fd935460c81c166101005262012dee61ffff600261036051015460a81c16916102a05190836102c051916009610360510162014745565b5f62012f3760ff8460201c166201077d565b620134f2575b1562012fa457505062012e2f8161ffff7fae6369c6e529c86dd87431d10e0db70657c834daa75356e1efd7c0ac79f934b7935460c81c166101005262012dee61ffff600261036051015460a81c16916102a05190836102c051916009610360510162014745565b909164ffffffffff8360401c1662012fc260ff8560201c166201077d565b620134b7575b61034051811180159190620134a9576201304f815b60026103605101549061ffff6201302b6201301f60ff8560e01c1660ff8660d81c1664ffffffffff8760501c1664ffffffffff881687878a60b81c166200a157565b828b60981c1662011935565b9260881c1691610300519060ff8a60201c169063ffffffff8b16610360516201195b565b610120929092525061018083905261014084905292979295929391929190506006198101620133c1575080156201334b576201309d620130938561030051620065e5565b6102805162007304565b61028052620130b08461034051620065f9565b610340525b620130c36102e05162007390565b6102e05215620131e557509185939162013172620131516101209795620131216201311a63ffffffff7ff5f5aef063f495816b6982c44c70c97c8fbec2fa24b73487e6542ce0214312149c166200caeb89620070ae565b986200c6e1565b6101405261ffff865460c81c166101005261ffff8860a81c169061ffff600261036051015460a81c16906200c0f0565b936201316460ff825460201c166200c817565b90600961036051016200fb10565b6201318b61ffff8660a81c16600961036051016201007c565b61ffff80600261036051015460a81c169560405196875263ffffffff8116602088015260a81c166040860152610300516060860152608085015260a084015260c08301526101405160e0830152610100820152a162012d32565b945060ff6002610360959395510154925460201c165f9061ffff8860a81c1615620133225761ffff8860a81c166303ff00008560981c16175f526002830160205260405f209384549163ffffffff831615620132f057966101209896949281969492620132747ff5f5aef063f495816b6982c44c70c97c8fbec2fa24b73487e6542ce0214312149c9a6200f93b565b15620132b25750505050620132a2620132ab926001600160501b036200f0c38a5182845460901c16620126ec565b8651906200fac5565b916201318b565b946003620132ea9561ffff6200f1679495969860a81c165f520160205264ffffffffff6200f13c858260405f209660681c166200d9a1565b620132ab565b5061ffff898163ffffffff60018801541693638d5bba0f60e01b5f5260a81c1660045260a81c1660245260445260645ffd5b8361ffff63ffffffff600186015416916369bc91ef60e11b5f5260a81c1660045260245260445ffd5b925062013363620130936103405161030051620065e5565b61028052620133b164ffffffffff620133866103405182895460401c166200d9a1565b87546cffffffffff00000000000000001916911660401b6cffffffffff000000000000000016178655565b61034051925f61034052620130b5565b9250949350507f72777d4856cf973d1b0f65b47f675f18842c122c2a529a294343fd22a6c135479550610160945082549161ffff8360c81c166101005261ffff600261036051015460a81c16945f14620134975760ff6201343b91935b60201c16936102a05190866102c051916009610360510162014745565b94939592969190604051988952602089015260408801526201345d8162005c19565b606087015261030051608087015260a086015260c085015260e08401526102c051610100840152610120830152610140820152a162012d32565b506201343b60ff61034051936201341e565b6201304f6103405162012fdd565b63ffffffff84165f526012610360510160205264ffffffffff60405f205460b81c16818110620134e9575b5062012fc8565b90505f620134e2565b5063ffffffff82165f526012610360510160205260405f2064ffffffffff815460b81c1615151590811562013529575b5062012f3d565b62013543915060ff808560201c16915460401c1662010fa2565b5f62013522565b906102e0516103205261034051916201356a610280516101e05162007304565b6101e052610340516101a05103620137c6575b6102e05115620135b9576103405162013599575b909162012cd2565b50620135af610260516009610360510162011683565b6103005262013591565b507fb492fac0bb9e8c8d824bf2a4c19ec1efd3e98e987de34e127bc17eb2b5c0605e5f80a15b6101605162013788575b8180610220511162013605575b506200628e610360516200e100565b620136148161022051620065f9565b90610260515f1462013772576201362f826101e0516200f55d565b905b6002610360510190620136da620136a2835486866102005192620136946201368a610240519260ff8160e01c169060ff8160d81c169064ffffffffff8160501c16908861ffff64ffffffffff83169260b81c166200a157565b6101c05162011935565b6102c051610360516201195b565b6103a051995494999598909760a89590951c61ffff169695909493919250620136ca6200831c565b91610240516102c0518962014257565b50600782036201373a5750506040805195865260208601969096525093830193909352606082019290925260808101919091527f555809b9cabb2c3df7af8353069bd02e72c4d8b4dd0dac9654ed855bdf3be8529060a090a15f620135f6565b60c49350878760405194631966e31560e31b865260048601526102c051602486015260448501526064840152608483015260a4820152fd5b62013781826101e051620082d7565b9062013631565b6103605161016051600391909101805467ffffffffffffffff191663ffffffff92909216919091174260201b63ffffffff60201b16179055620135e9565b6103005161016052610340516101a0526201357d565b506102e051151562012d46565b5061010051151562012d3f565b919050620135df565b5061026051806201382d575b8062012cf057506102605115801562012cf057506103005160e0511162012cf0565b506103005160e051106201380b565b5061030051151562012cdc565b6103e86103205262012ca9565b6103e89150115f62012ca2565b5061ffff600261036051015460781c166102005262012c8c565b91620138ac979496939195926104005261042052610380526103c0526103e052610460525f610440526201550a565b6104405190565b6001600160501b03620118c16200628e9382845460481c166200d949565b91905f620138df82620116d0565b91131562013906576200d9ec818462007304565b6001600160501b0384116200da00575050565b620139128184620065f9565b92620138f3565b91909162013927836201077d565b156201393557505050600290565b5464ffffffffff8160b81c169283155f146201395357505050505f90565b6201395e8162005c19565b8015908115620139b5575b5015620139aa5760ff5f915b60401c166002821015620039a3576002811015620039a357036201399a575050600190565b11620139a557600290565b600390565b60ff60019162013975565b60039150620139c48162005c19565b145f62013969565b969395919594929094620139e15f976201077d565b62013a445762013a0d62002848600162013a149798999a015460ff808260e81c169160e01c1662007304565b9162014822565b9190826001600160501b038295541662013a2f828462007304565b1162013a39575050565b600195509093509150565b50600696505f9550859450505050565b908060081c9060ff811660ff810362013b3e575b5060101c9060ff811660ff810362013adc575b505060ff810362013a8d5750505f1990565b62013a9a908254620148dc565b60018101156200c72757806002915f526001830160205262013ac060405f205462014902565b9060081b1791825f52016020526200c77d60405f205462014902565b62013af690835f526001850160205260405f2054620148dc565b90600182011562013a7b57600292507effffffffffffffffffffffffffffffffffffffffffffffffffffffffffff00161791825f52016020526200c77d60405f205462014902565b62013b5890835f526002850160205260405f2054620148dc565b600181011562013a68579250905060ff19161790565b9062ffffff811162013ba9576effffff00000000000000000000000082549160601b16906effffff0000000000000000000000001916179055565b6395d41f3f60e01b5f5260045262ffffff60245260445ffd5b9062ffffff811162013ba9576bffffff00000000000000000082549160481b16906bffffff0000000000000000001916179055565b9062ffffff811162013ba9577fffffffffffffffffffffff000000ffffffffffffffffffffffffffffffffffff74ffffff00000000000000000000000000000000000083549260901b169116179055565b9062ffffff811162013ba95771ffffff00000000000000000000000000000082549160781b169071ffffff0000000000000000000000000000001916179055565b906001811b905f52600182016020525f1960405f2054145f1462013caf57198154169055565b8154179055565b9294919390945f955462013ce2826001600160501b038360481c1664ffffffffff8460b81c1662011662565b949093859762013d0c85879563ffffffff8160981c169060ff8160e01c9160401c16858d620089f3565b9691989097879862013d20819b846200c6e1565b985f8a1262013d9457505050509062013d5b929162013d546200284860018c015460ff808260e81c169160e01c1662007304565b91620147f0565b5092836001600160501b0362013d7c83995482808260501c16911662011526565b1682101562013d89575050565b600a99509096509250565b600c9e50929c505f9b5099509097508996509450505050565b968396959291979462013e7194956104e0526104c0525f6104a05262013e8c5f98549164ffffffffff8360b81c169462013e018663ffffffff8660981c168660e01c60ff8860401c168c6104e051620089f3565b9791949062013e7a8462013e248b986001600160501b03859b60481c166200c6e1565b9d8e5f81131562013f495762013e3a90620116d0565b955b866104a05262013e646200284860016104e051015460ff808260e81c169160e01c1662007304565b9d8e916104c051620065f9565b9e8f9062014822565b929094839b869f6104c05190620147f0565b509862013e9b8a9d866200dbf4565b9962013eac846200dc4f8d62008d06565b995f8b12908162013f29575b5062013f10575050505050505f85128062013edb575b62013ed557565b600a9950565b5062013ee785620116d0565b6001600160501b0362013f076104e0515482808260501c16911662011526565b16111562013ece565b6104a09490945260059e50939c50919a50975093509150565b90506001600160501b0362013f3e8c620116d0565b915416105f62013eb8565b505f9562013e3c565b949295939691965f915f985f985f985f985f9862013f708362008933565b9350505050600581989298101580620039a3576002821480156201418e575b1562013faa575050505050505050505050600d959493929190565b94999f50949a50949a50949a50949a50620039a35760041462014175576201408295949392916201404a9154926201400764ffffffffff8560b81c16809b63ffffffff8760981c16908760e01c9060ff8960401c16908a620089f3565b9b91509b62014043846201403d620140346200284860018c015460ff808260e81c169160e01c1662007304565b80958d62011612565b62011642565b9862014822565b9590916001600160501b03620140768897859c865f915f81126201415d575b506200aace919262007304565b9160481c16906200dbf4565b966201408e8862008d06565b5f821215620141485790620140a3916200c6e1565b945b620140bc81620140b58862008d06565b976200dbf4565b965f8812908162014128575b506201411c5750505f84129081620140e9575b50620140e357565b600a9650565b90506001600160501b03620141136201410286620116d0565b925482808260501c16911662011526565b16105f620140db565b60039950909750925050565b90506001600160501b036201413d89620116d0565b915416105f620140c8565b95979062014156916200c6e1565b96620140a5565b6200aace92506201416e9062008d06565b9162014069565b50505050945050505050600e905f905f905f905f905f90565b50505f6003821462013f8f565b5050620141b09096959694929193946200f93b565b9283156201424f5790620141c49162007304565b915b15908162014246575b50156201423b575f93845b620141e457505050565b919390929091156201420757505063587d2a9760e01b5f5260045260245260445ffd5b916040907f587d2a97a31a5894b097ff75ad27cad3e726d27474d08c959bcb5e51c5244d0a929482519182526020820152a1565b8181109384620141da565b90505f620141cf565b5091620141c6565b9390949296959162014269906200f93b565b968715620142e857906201427d9162007304565b955b159081620142df575b5015620142d4575f94855b6201429e5750505050565b906200161491604051948594635e7f12af60e11b8652600486019094939260609260808301968352602083015260408201520152565b808510948562014293565b90505f62014288565b50956201427f565b908054928360281c62ffffff8116946201430b868662008b7e565b90620146055750916006939161ffff8094600388019060ff8160381c169060301c916001821b81541790555f526004880160205260405f20600160ff83161b8154179055165f5260058601602052600160ff60405f2092161b81541790555f146201459857835462ffffff808260781c169160901c16908015806201458f575b15620145605750506201439f858562013c48565b620143ab858562013bf7565b5460a81c1691620143c1600785068095620065f9565b5f520160205260405f2091600160ff1984541617835580155f14620144085750815464ffffffff00191662ffff00600883901b161760189190911b64ffff00000016179055565b60018103620144455750815468ffffffff0000000000191666ffff0000000000602883901b161760389190911b68ffff0000000000000016179055565b600281036201448e575081546cffffffff00000000000000000019166affff000000000000000000604883901b161760589190911b6cffff000000000000000000000016179055565b60038103620144cd5750815470ffffffff00000000000000000000000000191661ffff60681b606883901b161760789190911b61ffff60781b16179055565b60048103620145025750815463ffffffff60881b191661ffff60881b608883901b161760989190911b61ffff60981b16179055565b6005036201453557815463ffffffff60a81b191661ffff60a81b60a883901b161760b89190911b61ffff60b81b16179055565b815463ffffffff60c81b191661ffff60c81b60c883901b161760d89190911b61ffff60d81b16179055565b8611156201457b575062014575858562013c48565b620143ab565b851015620143ab5762014575858562013bf7565b5081156201438b565b835462ffffff808260481c169160601c1690801580620145fc575b15620145d3575050620145c7858562013bc2565b62014575858562013b6e565b861115620145e8575062014575858562013bc2565b851015620145755762014575858562013b6e565b508115620145b3565b61ffff93506200628e96949250806201464c85620146679481945f5260078a0160205260a81c1660405f209061ffff60c81b1961ffff60c81b83549260c81b169116179055565b835461ffff60b81b1916911660b81b61ffff60b81b16178255565b5460a81c169162012717565b91906200fae46200628e916001600160501b03855460501c166200d9de565b61ffff1661ffff811462002aac5760010190565b919290156201470b5750815115620146bc575090565b3b15620146c65790565b60405162461bcd60e51b815260206004820152601d60248201527f416464726573733a2063616c6c20746f206e6f6e2d636f6e74726163740000006044820152606490fd5b8251909150156201471f5750805190602001fd5b60405162461bcd60e51b8152602060048201529081906200161490602483019062005bf5565b945f948594908015620147e7575b15620147c157506200628e63ffffffff94959662014775620012c285620070ae565b835490620147bb620147a061ffff8460a81c16809981951698895f52600d60205260405f206200c0f0565b95620147b360ff825460201c166200c817565b90836200fb10565b6201007c565b6200628e955063ffffffff9450620147de906200caeb84620070ae565b95909662014775565b50801562014753565b90620147fd929162011612565b9060648202918083046064149015171562002aac576201481d916200f55d565b905f90565b906201483392919594939562011612565b9060648202908282046064148315171562002aac5762014853916200f55d565b925f91816201486157505090565b620079be9250906200b2f491620065e5565b906002811015620039a35768ff000000000000000082549160401b169068ff00000000000000001916179055565b9064ffffffffff6201185360026200628e94019282845460281c166200da20565b64ffffffffff62011892600282930193828554166200da20565b6001820180921162002aac57811c9081620148f85750505f1990565b620030b6620079be925b905f916fffffffffffffffffffffffffffffffff81161562014a01575b67ffffffffffffffff811615620149ea575b63ffffffff811615620149d3575b61ffff811615620149bc575b60ff811615620149a5575b600f8116156201498e575b600381161562014977575b600116156201042257565b916002810180911162002aac579160021c6201496c565b916004810180911162002aac579160041c62014961565b916008810180911162002aac579160081c62014956565b916010810180911162002aac579160101c6201494b565b916020810180911162002aac579160201c6201493f565b916040810180911162002aac579160401c62014931565b60809250821c6201491f565b92939190821562014c115762ffffff80855460601c165b169062014a3384878462014f6e565b1562014c045762014a45828662008b7e565b50915f5b6103e881108062014bfa575b1562014be657835f526007870160205260405f209363ffffffff8554161562014bd0575062014a849062006b58565b835462014a9a63ffffffff8260781c166200bffe565b1562014bbf57867fb95e250f9f017dcb1bb1806916771df0c04a269e5f46d5db7519382a0f7bb47760e08a62014b1c61ffff62014b5c9660c81c169962014ae68c6200caeb83620070ae565b9290938262014b138d82549063ffffffff82165f52600d60205261ffff60405f209260a81c16916200c0f0565b9815916200fb10565b549161ffff8360a81c169563ffffffff604051948c865216602085015286604085015260608401528b608084015260a083015260c0820152a1886201007c565b8362014a4957925050831562014bae5762ffffff80865460601c165b1662014b8685888362014f6e565b1562014ba05762014b98818762008b7e565b509262014a49565b955050505050505f915f9190565b62ffffff80865460781c1662014b78565b5050955050505050506001915f9190565b8363cf25731d60e01b5f5260045260245260445ffd5b935094505093506103e89150101591151592565b5083151562014a55565b5093505050505f915f9190565b62ffffff80855460781c1662014a24565b9062014c2e8262014f94565b91939091845f19811462014c6157509082916200628e935f5260018201602052600160405f20911b815417905562013c89565b9450505050565b9190915f608060405162014c7c81620060c0565b82815282602082015282604082015282606082015201526303fcffff8082116200c34d575064ffffffffff821162014cea576040519264ffffffffff929163ffffffff1662014ccb85620060c0565b8085526020850152600160408501521515606084015216608082015290565b506395d41f3f60e01b5f5260045264ffffffffff60245260445ffd5b90959796949392916001820191815f528260205260405f209764ffffffffff895460b81c161562014f575750908162014d5a949392549263ffffffff8460201c16830362014e79575b505050508562014873565b6001600160501b03811162014e5c57835472ffffffffffffffffffff000000000000000000191660489190911b72ffffffffffffffffffff0000000000000000001617835562014dc99063ffffffff90845463ffffffff60981b1916911660981b63ffffffff60981b16178355565b64ffffffffff841162011e775763ffffffff9062014e1064ffffffffff6200628e959616849064ffffffffff60b81b1964ffffffffff60b81b83549260b81b169116179055565b82547bffffffffffffffffffffffffffffffffffffffffffffffffffffffff16911660e01b7fffffffff0000000000000000000000000000000000000000000000000000000016179055565b6395d41f3f60e01b5f526004526001600160501b0360245260445ffd5b62014ee09363ffffffff16830362014eea5762014e9e63ffffffff8b5416836201288e565b63ffffffff825460201c165f5260205262014ebd8260405f206201288e565b8054895467ffffffffffffffff191663ffffffff60201b909116178955620128cc565b5f80808062014d4f565b895463ffffffff8160201c165f528160205263ffffffff8060405f2092161663ffffffff1982541617905562014f5163ffffffff8b548181165f528360205260201c1660405f209063ffffffff60201b82549160201b169063ffffffff60201b1916179055565b62014e9e565b90506334a4033d60e11b5f5260045260245260445ffd5b909291925f938262014f7f57505050565b92935090911562014f8f57101590565b111590565b8054801562014fd85762014faa60019162014902565b91825f520160205262014fcf60405f20541962014fc98115156200e4ab565b62014902565b808260081b1792565b505f19915f91508190565b919290925f610460528115620154cb57835f5260126104a0510160205260405f2064ffffffffff815460b81c1615620154905762015025866104a0516200da5e565b919096600583101580620039a3578315938415908162015480575b506201547557620039a35781549260ff8460401c169860028a1015620039a35789159963ffffffff8660981c169564ffffffffff8160b81c16610480526001600160501b036201509e61048051898460e01c86886104a051620089f3565b9391505060481c1690620150d18d60016104a0510154908360ff808460e81c169360e01c16918c8761048051926200dc0d565b97881562015393575050508a5f146201538957858211155b15620153215750610480515f5b88811062015242575b508495969798999a5064ffffffffff62015121929394955460b81c16620065f9565b80620151ab575050506201518157917faad1caf83451874ebc06a35849e4a295d8bfa856d05d1fbac2876702c7d507439594939160ff6201516f945460401c165f604051978897886200835f565b0390a15b6200628e6104a0516200e100565b9060ff620016149493925460401c165f60405197889763155a395f60e31b8952600489016200835f565b9250939298979695509350620151cf5f6001838588888c8f8d906104a0516200df4c565b15620151f25750505050620151e69293506200df6c565b60016104605262015173565b6201522c6101049660ff8a5460401c169060405197634b04a99560e01b8952600489015260248801525f6044880152606487019062005e90565b608485015260a484015260c483015260e4820152fd5b6201524f818a8a620069b6565b35805f5260126104a0510160205260405f2064ffffffffff815460b81c16156201531657805460ff8160401c16926002841015620039a3578f88918f959389928e951514620153065791620152c895939164ffffffffff5f969460b81c168a8110158714620152fd5750899788955b6104a0516200dd1c565b15620152f357620152da9192620065f9565b908115620152ed576001905b01620150f6565b620150ff565b50600190620152e6565b978895620152be565b50505050505050600190620152e6565b5050600190620152e6565b94955095509596975090506201536957917fc1cc5e312a3f39bfb853352bbb60e3be1d95285a9c702396ba48058c17e7a7439594939162007ff9936040519687968762008329565b60405163c1cc5e3160e01b81529650869562001614956004880162008329565b85821015620150e9565b98509998509a505050509150506201541b579162007ff9917f2e92846d5b5d5dd9cf60dd19064afe4a911e6751cdad455cb26a600db66e963c9594936040519586956104805193879260a0946001600160501b0363ffffffff9264ffffffffff959a9998949a60c088019b885260208801521660408601521660608401521660808201520152565b604051632e92846d60e01b815261048051600482019390935260248101949094526001600160501b0394909416604484015263ffffffff909316606483015264ffffffffff909216608482015260a481019190915260c490fd5b505050505050505050565b91505060015f9114155f62015040565b50505091620088a7577f6948067a0ba575890268b9a7eaf592a5832287e4402201145ce0768a9d9533fc9160409182519182526020820152a1565b505091620088fe577f64846a095feab375f007bd15ab65eefdf07957e365b3c7ee4711cd9dbdecabe79160409182519182526020820152a15f61046052565b62015600604051926201551d8462006085565b5f84525f60208501528361044052620155396103e0516200c817565b61048052620155bb600261040051015461ffff620155946201558560ff8460e01c1660ff8560d81c1664ffffffffff8660501c1664ffffffffff87166103c051878960b81c166200a157565b61016061042051013562011935565b9160881c16906103c051906080610420510135906103e05190610380516104005162012921565b91949098936103a09793975261034052969294966104605190886103a051610340516103c051896080610420510135610480516103e051610380516104005162012bba565b156201710c5750600354610360819052613fff61032081905260d59190911c16612710808202829004149015171562002aac57612710610320516103605160d51c160290620156526103e0516200f93b565b620170e8575b80620170d6575b50610380515f52600d60205260405f20805460f01c5f6103005261ffff61030052610300511462017047576201569a91610460519162009e24565b62007e7a5761030051600261040051015460a81c165f6102a0525f6102c0525f6102a0525f6102c052610380515f52600d60205260405f206102e0526102e051546001600160501b038116906001600160501b038160501c1682118062017015575b1562016f255750505062015723612710610320516103605160d51c16026102e0516200a078565b6201573d612710610320516103605160d51c160262008237565b62015757612710610320516103605160d51c160262008d06565b6102c05260016102a0525b6001600160501b036102e0515416610260526102a0511562007e7a5761030051600261040051015460a81c1692620157996200668e565b50620157a86001820162014c22565b6102808190525f191462016f1257620157ec620157ce61030051835460201c1662014692565b825465ffff00000000191660209190911b65ffff0000000016178255565b620157f662007062565b5060016103805110801562016f01575b62016ede578115801562016ed1575b62003e6f5760016103c05110801562016ebf575b62016e9b57610320516103605160d51c81161162016e775763ffffffff60c06104205101351162016e55576127106101606104205101351162016e345762015a619062015a446040516201587d81620060a2565b63ffffffff61038051168152620158976103e05162005c19565b6103e051602082015262ffffff8516604082015264ffffffffff6103c051166060820152610320516103605160d51c16608082015263ffffffff60c06104205101351660a0820152610300516101606104205101351660c082015261030051610280511660e08201525f6101008201525f610120820152610280515f526007830160205260405f209063ffffffff808251161663ffffffff198354161782556020810151620159468162005c19565b620159518162005c19565b8254604083810151606085015161030051608087015160a088015160c089015160e08a01516101008b0151610120909b015161ffff60c81b90861660c81b169a851660b81b61ffff60b81b1690851660a81b61ffff60a81b1691851660981b61ffff60981b1660789390931b63ffffffff60781b169390941660681b61ffff60681b169490961b6cffffffffff00000000000000001660289590951b67ffffff00000000001660209890981b64ff00000000167fffffffffff0000000000000000000000000000000000000000000000ffffffff9097169690961796909617929092171793909317919091171717179055565b610280515f5260078101602052610480519060405f2090620142f0565b6040519262015a708462006085565b83526102805160208401528261044052610280511562016dd25750610380515f52600d60205260405f2062015aa86103e0516200f93b565b15620166085760026104005101549160208401515f938115620165de5762015ad36103e0516200f93b565b9162015ae26103e05162005c19565b6103e051158015620165c2575b6103005182166303ff0000609885901c16175f908152600287016020526040902063ffffffff9062015b219062006b67565b5116620165945783156201658d57845b841562016585575f905b62015b4562006acd565b506303fcffff806103005186166303ff000063ffff000062010000600160681b038a60981c16161617116201654d57506001600160501b03811162014e5c5764ffffffffff821162014cea5762015b9f6103e0516201077d565b156201653857806201650d576001600160501b03905b64ffffffffff6040519362015bca8562005ff2565b6103005187166303ff000063ffff000062010000600160681b038b60981c1616161785525f60208601525f604086015262015c086103e05162005c19565b6103e05160608601521660808401521660a0820152865460d01c63ffffffff1662016009579262015df15f516020620171185f395f51905f529a9997959362015ed89362015dd060209b999762015c816103005185166303ff000063ffff000062010000600160681b038a60981c161616178b6200f963565b6103005162015c9f9085166303ff0000609889901c16178b6200f9eb565b6103005184166303ff000063ffff000062010000600160681b038960981c161616175f5260028a018d526001600160501b0360a060405f209263ffffffff808251161663ffffffff198554161784558f63ffffffff62015d1e9183015116859063ffffffff60201b82549160201b169063ffffffff60201b1916179055565b604081810151855463ffffffff60401b1916911b63ffffffff60401b16178455606081015162015d4e8162005c19565b62015d598162005c19565b8454608083015171ffffffffffff0000000000000000000000001990911660609290921b6cff000000000000000000000000169190911760689190911b64ffffffffff60681b161784550151825469ffffffffffffffffffff60901b1916911660901b69ffffffffffffffffffff60901b16179055565b851562016001575f915b61030051166303ff0000609886901c161762014c68565b90610300519060a81c165f5260038501885264ffffffffff608060405f209263ffffffff808251161663ffffffff1985541617845562015e5563ffffffff8c83015116859063ffffffff60201b82549160201b169063ffffffff60201b1916179055565b61030051604082810151865469ffff000000000000000019169216901b69ffff000000000000000016178455606081015184546aff00000000000000000000191690151560501b60ff60501b16178455015182546fffffffffff00000000000000000000001916911660581b6fffffffffff000000000000000000000016179055565b62015fe6575b5062015ef4905b6200c248815460f01c62014692565b925b600a610340511462015f40575b50015160408051610260516102c0516103c051948352602083019490945291810193909352606083019190915260808201528060a0810162007ff9565b6101207fb971bdbd8f44fbf3ba501ee287c2533eb61b09097d638c664566aac00bbb3e659161030051600261040051015460a81c16906001600160501b036104005154604051938452610380518885015262015f9f6103e05162005c19565b6103e0516040850152608061042051013560608501526103c051608085015281811660a085015260501c1660c08301526103a05160e0830152610100820152a15f62015f03565b81925062015ff99062015ef49262014673565b919062015ede565b5f9162015dda565b610300518460a81c165f526003870160205260405f20805463ffffffff8116155f14620161765750509262015df187959362016149936201612b60209b999763ffffffff5f516020620171185f395f51905f529f9e9c5460d01c165f5260028a018d526201609c6103005185166303ff000063ffff000062010000600160681b038a60981c1616161760405f206200fa48565b63ffffffff8a5460d01c1660408201526103005184166303ff000063ffff000062010000600160681b038960981c161616175f5260028a018d526001600160501b0360a060405f209263ffffffff808251161663ffffffff198554161784558f63ffffffff62015d1e9183015116859063ffffffff60201b82549160201b169063ffffffff60201b1916179055565b6103005162015dd09083166303ff0000609887901c1617896200f9eb565b6201615b575b5062015ef49062015ee5565b8192506201616e9062015ef49262014673565b91906201614f565b60206201631693620161d863ffffffff8094849e9b989a99969e1c16805f5260028d01845260405f20906040840152848154851c16848401526103005186166303ff000063ffff000062010000600160681b038c60981c16161617906200fa48565b82828201511680620164ce575b506103005184166303ff0000609889901c16175f90815260028c01835260409020815181548385015163ffffffff60201b90871660201b1691861686199091161767ffffffff000000001916178155620162f4905b604083810151825463ffffffff60401b191690871690911b63ffffffff60401b1617815560608301516201626e8162005c19565b620162798162005c19565b8154608085015171ffffffffffff0000000000000000000000001990911660609290921b6cff000000000000000000000000169190911760689190911b64ffffffffff60681b1617815560a0830151815469ffffffffffffffffffff60901b191660909190911b69ffffffffffffffffffff60901b16179055565b01511615620164aa575b61030051166303ff0000609885901c1617886200fa48565b1562016364575050509162015ef4826201635e620163486020965f516020620171185f395f51905f5299989662014673565b935b6200c2ac61030051825460401c1662014692565b62015ee5565b9091948093505460ff8160501c169083151582151514158062016496575b6201641d575050505f516020620171185f395f51905f529594926201635e83620163ca62015ef494602098969060ff60501b825491151560501b169060ff60501b1916179055565b6201641764ffffffffff620163e65f82855460581c166200da20565b83546fffffffffff00000000000000000000001916911660581b6fffffffffff000000000000000000000016178255565b6201634a565b906201119160a49464ffffffffff6201119c9463ffffffff60018b015416945f146201648d575f925b1562016484575f945b60405197634298a83160e01b8952610300519060a81c166004890152602488015260581c166044860152606485019062005e90565b6001946201644f565b60019262016446565b5064ffffffffff8160581c16151562016382565b61030051620164c89082166303ff0000609887901c1617896200f9eb565b620162fe565b5f5260028b018252620165066103005185166303ff000063ffff000062010000600160681b038b60981c1616161760405f206200f9bc565b5f620161e5565b63a9c0cecd60e01b5f526103e051620165269062005c19565b6103e05160045260245260445260645ffd5b816201650d576001600160501b039062015bb5565b856303ff000063ffff000062010000600160681b03886395d41f3f60e01b5f5261030051169360981c1616161760045260245260445ffd5b5f9062015b3b565b5f62015b31565b5063ffffffff6001860154169163feefcc0b60e01b5f52610300519060a81c1660045260245260445260645ffd5b50620165d16103e05162005c19565b60026103e0511462015aef565b63ffffffff600185015416906369bc91ef60e11b5f52610300519060a81c1660045260245260445ffd5b610400516002015460208401515f935090811562016da8576201662e6103e0516200f93b565b916201663d6103e05162005c19565b6103e05115801562016d8c575b6103005182166303ff0000609885901c16175f908152600286016020526040902063ffffffff906201667c9062006b67565b511662016d5e57831562016d57575f5b841562016d4c575f905b620166a062006acd565b506303fcffff806103005186166303ff000063ffff000062010000600160681b038a60981c16161617116201654d57506001600160501b03811162014e5c5764ffffffffff821162014cea57620166fa6103e0516201077d565b1562016d3757806201650d576001600160501b03905b64ffffffffff60405193620167258562005ff2565b6103005187166303ff000063ffff000062010000600160681b038b60981c1616161785525f60208601525f6040860152620167636103e05162005c19565b6103e05160608601521660808401521660a0820152855460d01c63ffffffff166201695d57926201687c6020979593620168e0936201685c5f516020620171185f395f51905f529c9b9997620167db6103005185166303ff000063ffff000062010000600160681b038a60981c161616178a6200f963565b61030051620167f99085166303ff0000609889901c16178a6200f9eb565b6103005184166303ff0000609888901c16175f90815260028a018d526040902081518154838f015163ffffffff60201b60209190911b1663ffffffff90921667ffffffffffffffff1990911617178155906001600160501b039060a09062015d1e565b85156201695257610300515f92166303ff0000609886901c161762014c68565b90610300519060a81c165f5260038401875264ffffffffff608060405f209263ffffffff808251161663ffffffff1985541617845562015e5563ffffffff8b83015116859063ffffffff60201b82549160201b169063ffffffff60201b1916179055565b62016901575b620168fa906200c248815460f01c62014692565b9262015ef6565b9050620168fa620169205f6001600160501b03845460501c166200d9de565b825469ffffffffffffffffffff60501b1916605082901b69ffffffffffffffffffff60501b16178355919050620168e6565b6103c0519162015dda565b610300518460a81c165f526003860160205260405f20805463ffffffff8116155f1462016ae5575050926201687c602097959362016a839362016a65899763ffffffff5f516020620171185f395f51905f529e9d9b5460d01c165f52600289018c52620169ef6103005185166303ff000063ffff000062010000600160681b038a60981c1616161760405f206200fa48565b885460d01c63ffffffff90811660408381019190915261030051609889901c6303ff000016908716175f90815260028c018f5220825181548f85015167ffffffffffffffff19909116919093161760209290921b63ffffffff60201b16919091178155906001600160501b039060a09062015d1e565b610300516201685c9083166303ff0000609887901c1617886200f9eb565b62016a94575b620168fa9062015ee5565b9050620168fa62016ab35f6001600160501b03845460501c166200d9de565b825469ffffffffffffffffffff60501b1916605082901b69ffffffffffffffffffff60501b1617835591905062016a89565b602062016bd09362016b4763ffffffff8094849d9b989a99969d1c16805f5260028c01845260405f20906040840152848154851c16848401526103005186166303ff000063ffff000062010000600160681b038c60981c16161617906200fa48565b8282820151168062016cf8575b506103005184166303ff0000609889901c16175f90815260028b01835260409020815181548385015163ffffffff60201b90871660201b1691861686199091161767ffffffff00000000191617815562016bae906201623a565b0151161562016cd4575b61030051166303ff0000609885901c1617876200fa48565b1562016c3e5750505091602091620168fa5f516020620171185f395f51905f5295946201635e62016c0f5f6001600160501b03845460501c166200d9de565b825469ffffffffffffffffffff60501b1916605082901b69ffffffffffffffffffff60501b1617835562016348565b8492945460ff8160501c169083151582151514158062016cc0575b6201641d575050505f516020620171185f395f51905f529594926201635e8362016ca1620168fa94602098969060ff60501b825491151560501b169060ff60501b1916179055565b6201641764ffffffffff620163e66103c05182855460581c166200da20565b5064ffffffffff8160581c16151562016c59565b6103005162016cf29082166303ff0000609887901c1617886200f9eb565b62016bb8565b5f5260028a01825262016d306103005185166303ff000063ffff000062010000600160681b038b60981c1616161760405f206200f9bc565b5f62016b54565b816201650d576001600160501b039062016710565b6103c0519062016696565b5f6201668c565b5063ffffffff6001850154169163feefcc0b60e01b5f52610300519060a81c1660045260245260445260645ffd5b5062016d9b6103e05162005c19565b60026103e051146201664a565b63ffffffff600184015416906369bc91ef60e11b5f52610300519060a81c1660045260245260445ffd5b60c49061030051600261040051015460a81c169060405191635f4d015360e01b8352600483015261038051602483015262016e106103e05162005c19565b6103e051604483015260648201526103c051608482015261048051151560a4820152fd5b6395d41f3f60e01b5f5261016061042051013560045261271060245260445ffd5b6395d41f3f60e01b5f5260c061042051013560045263ffffffff60245260445ffd5b6395d41f3f60e01b5f908152610320516103605160d51c8116600452602452604490fd5b630c8f0a6960e41b5f526103c051600452600160245264ffffffffff60445260645ffd5b5064ffffffffff6103c0511162015829565b5062ffffff821162015815565b630c8f0a6960e41b5f5261038051600452600160245263ffffffff60445260645ffd5b5063ffffffff610380511162015806565b836313d2887b60e01b5f5260045260245ffd5b6104605162016fb7579062016fae7fe45a99fff28c6d15925d1e2d85178b939f8809e353ffdd55bc03edb410aa24de93926040519384936001600160501b03612710610320516103605160d51c16029360501c169161038051908691936001600160501b03608094819398979660a0860199865260208601521660408401521660608201520152565b0390a162015762565b60405163e45a99ff60e01b8152610320516103605161038051600484019690965260248301959095526001600160501b03938416604483015260509290921c909216606483015260d59290921c90911661271002608482015260a490fd5b50612710610320516103605160d51c16026001600160501b036201703f818460501c168562009d9d565b1611620156fc565b50505050505061046051620170ad577fbd608c77710b601b3c0b0f34d13295beb58c48631119b910d8d6067ad650d5b862007ff961030051600261040051015460a81c166040519182916103805190836020909392919361ffff60408201951681520152565b61030051600261040051015460a81c1663bd608c7760e01b5f526004526103805160245260445ffd5b620170e19162007304565b5f6201565f565b90506201710583612710610320516103605160d51c160262007304565b9062015658565b61044052505050505056fe5d5d31f82cb7d7cf1b09787031cd282c6accc62145d50de980d298bb340a9abaa264697066735822122030f46d51c20289258f00be42008d54d4082d0a19a4270227c508ec67c12c65a864736f6c634300081e0033",
    "linkReferences": {}
  },
  "methodIdentifiers": {
    "acceptOwnership()": "79ba5097",
    "addContract(string,string,uint256,uint256,uint256,uint256,uint256,uint256,uint256,uint256)": "92f54b3a",
    "adminCancelOrders((uint256,uint256)[])": "e548bb57",
    "allowOrderForwarding(bool)": "7962f910",
    "autoDeleverage((uint256,uint256,uint256[])[],bool)": "43559bbf",
    "buyLiquidations((uint256,uint256,uint256,uint256)[],bool)": "d19d58f4",
    "clearInitUnwindContract(uint256)": "075367f6",
    "clearOrderSlots(uint256,uint256[])": "d541abc1",
    "clearPricePointerSlots(uint256,uint256[])": "20c801d2",
    "createAccount(uint256)": "cab13915",
    "depositCollateral(uint256)": "bad4a01f",
    "depositToProtocol(uint256)": "54056119",
    "execFwdPositionOps((uint256,uint256,(uint256,uint256,uint8,uint256,uint256,uint256,uint256,bool,bool,bool,uint256,uint256,uint256,uint256))[])": "abce7b20",
    "execFznAccountPosOps((uint256,(uint256,uint256,uint8,uint256,uint256,uint256,uint256,bool,bool,bool,uint256,uint256,uint256,uint256))[])": "0697afae",
    "execOpsAndOrders((uint256,uint256,uint8,uint32,int256,bool,bytes)[],(uint256,uint256,uint8,uint256,uint256,uint256,uint256,bool,bool,bool,uint256,uint256,uint256,uint256)[],bool)": "156352e6",
    "execOrder((uint256,uint256,uint8,uint256,uint256,uint256,uint256,bool,bool,bool,uint256,uint256,uint256,uint256))": "6b69ebbe",
    "execPerpOps((uint256,uint256,uint8,uint32,int256,bool,bytes)[])": "5bf9264c",
    "forceClose(uint256,uint256,uint256[],bool)": "b216d0d2",
    "getAccountByAddr(address)": "12e8eb2c",
    "getAccountById(uint256)": "05aca141",
    "getExchangeInfo()": "8bc5b3c5",
    "getFundingInterval()": "0d3e87a7",
    "getFundingSumAtBlock(uint256,uint256)": "7dd7e759",
    "getLiquidationInfo(uint256)": "50ef5c35",
    "getMakerFee(uint256)": "1275d14c",
    "getMarginFractions(uint256,uint256)": "6825e9e5",
    "getMinAccountOpenCNS()": "dec92b69",
    "getMinimumPostCNS()": "9fffdfe2",
    "getMinimumSettleCNS()": "3a63dabe",
    "getNextPriceBelowWithOrders(uint256,uint256)": "fb455f6b",
    "getOrder(uint256,uint256)": "5e1a3573",
    "getOrderIdIndex(uint256)": "38ecd885",
    "getOrderLocks(uint256)": "8c1c2cef",
    "getOrdersAtPriceLevel(uint256,uint256,uint256,uint256)": "4d3282b4",
    "getOwner()": "893d20e8",
    "getPermissionedCancelParams(uint256)": "396d7e47",
    "getPerpOrderLocks(uint256,uint256)": "2709b746",
    "getPerpetualInfo(uint256)": "00092cce",
    "getPosition(uint256,uint256)": "751de421",
    "getPositionIds(uint256)": "1973c619",
    "getPositions(uint256,uint256,uint256)": "4a9a4158",
    "getPriceLevelOrderIds(uint256,uint256)": "653a6bd7",
    "getProtocolBalanceCNS()": "b5fcf762",
    "getRecycleBalanceCNS()": "edb1314e",
    "getRecycleFeeCNS()": "16a483ea",
    "getTakerFee(uint256)": "4119f930",
    "getUnwindInfo(uint256)": "6728641b",
    "getVolumeAtBookPrice(uint256,uint256)": "fe37fe12",
    "getWithdrawAllowanceData(uint256)": "8bcf1b27",
    "increasePositionCollateral(uint256,uint256)": "f769f0d3",
    "initUnwindContract(uint256,uint256)": "a5e9c411",
    "isAdministrator(address)": "0a2eb301",
    "isHalted()": "c7ff1584",
    "isLiquidationBuyer(address)": "ae0d4442",
    "isPositionAdministrator(address)": "dbfbf7e8",
    "isPriceAdministrator(address)": "d8b44268",
    "liquidation((uint256,uint256,uint256,bool))": "bbf979ac",
    "liquidations((uint256,uint256,uint256,bool)[],bool)": "d3b8c49d",
    "numberOfAccounts()": "0f03e4c3",
    "owner()": "8da5cb5b",
    "pauseContract(uint256)": "c2852f38",
    "pendingOwner()": "e30c3978",
    "removeContract(uint256)": "7cca3b06",
    "renounceOwnership()": "715018a6",
    "setAdministrator(address,bool)": "87c95058",
    "setBuyToLiquidateBuyerRestriction(uint256,bool)": "32b9203b",
    "setBuyToLiquidateParams(uint256,uint256,uint256,uint256)": "5180d5a8",
    "setBuyToLiquidatePriceThreshold(uint256,uint256)": "45c8c924",
    "setContractPaused(uint256,bool)": "9e430eda",
    "setExchangeHalted(bool)": "58087a74",
    "setFeeParams(uint256,uint256)": "9d2ec188",
    "setFreezeStatus(address,uint8)": "182b01f2",
    "setFrozen(address,uint8)": "4b8344fb",
    "setFundingClampPct(uint256,uint256)": "16a06593",
    "setFundingSum(uint256,int256,uint32,bool,bool)": "9fc8afd7",
    "setIgnOracle(uint256,bool)": "69752159",
    "setInitialMarginFraction(uint256,uint256)": "e2e1cb57",
    "setLinkDsVerifier(address)": "d360dd31",
    "setLiquidationBuyer(address,bool)": "7ddbdc2a",
    "setLiquidationParams(uint256,uint256,uint256)": "60ad17fd",
    "setMaintenanceMarginFraction(uint256,uint256)": "8c031164",
    "setMakerFee(uint256,uint256)": "e74e2c9b",
    "setMaxOpenInterest(uint256,uint256)": "9a6d7630",
    "setMinAccountOpenAmount(uint256)": "d6f34bd6",
    "setMinPost(uint256)": "279289e9",
    "setMinSettle(uint256)": "f28b98f3",
    "setOverCollatDescentThreshold(uint256,uint256)": "ed6760fe",
    "setPermissionedCancelParams(uint256,uint256,uint256)": "efb62904",
    "setPerpLinkDsFeedId(uint256,bytes32)": "03cfe83c",
    "setPositionAdministrator(address,bool)": "12014156",
    "setPriceAdministrator(address,bool)": "a9bd5cee",
    "setPriceMaxAge(uint256,uint256)": "0e517f41",
    "setPriceTolPer100K(uint256,uint256)": "7d45678e",
    "setRecycleFee(uint256)": "be0783f5",
    "setTakerFee(uint256,uint256)": "6debf8fa",
    "setThousandthsTvlWRLS(uint256)": "d780ece8",
    "setUnityDescentThreshold(uint256,uint256)": "2f32509b",
    "transferOwnership(address)": "f2fde38b",
    "unwindContract(uint256,uint256,bool)": "fb05acb7",
    "updateMarkPricePNS(uint256,uint256)": "f12bb389",
    "updateOraclePrice(uint256,bytes)": "8f3ffc85",
    "withdrawCollateral(uint256)": "6112fe2e",
    "withdrawFromProtocol(uint256)": "8a924640",
    "xferAcctToProtocol(uint256)": "61bd6f44",
    "xferPerpInsToProtocol(uint256,uint256)": "586d92ca",
    "xferProtocolToAcct(uint256,uint256)": "229c2492",
    "xferProtocolToPerp(uint256,uint256,bool)": "e68073c3",
    "xferProtocolToRecycleBal(uint256)": "1df87ade"
  },
  "id": 13
}